{
  "_format": "hh-sol-artifact-1",
  "contractName": "TokenOmnibridgeRouter",
  "sourceName": "contracts/routers/TokenOmnibridgeRouter/TokenOmnibridgeRouter.sol",
  "abi": [
    {
      "inputs": [
        {
          "internalType": "contract IOmnibridge",
          "name": "_bridge",
          "type": "address"
        },
        {
          "internalType": "contract IWETH",
          "name": "_wNative",
          "type": "address"
        },
        {
          "internalType": "address",
          "name": "_owner",
          "type": "address"
        },
        {
          "internalType": "bool",
          "name": "_EIP1559_ENABLED",
          "type": "bool"
        }
      ],
      "stateMutability": "nonpayable",
      "type": "constructor"
    },
    {
      "inputs": [
        {
          "internalType": "address",
          "name": "target",
          "type": "address"
        }
      ],
      "name": "AddressEmptyCode",
      "type": "error"
    },
    {
      "inputs": [
        {
          "internalType": "address",
          "name": "account",
          "type": "address"
        }
      ],
      "name": "AddressInsufficientBalance",
      "type": "error"
    },
    {
      "inputs": [],
      "name": "FailedInnerCall",
      "type": "error"
    },
    {
      "inputs": [],
      "name": "InvalidValue",
      "type": "error"
    },
    {
      "inputs": [],
      "name": "NotPayable",
      "type": "error"
    },
    {
      "inputs": [],
      "name": "ReentrancyGuard",
      "type": "error"
    },
    {
      "inputs": [
        {
          "internalType": "address",
          "name": "token",
          "type": "address"
        }
      ],
      "name": "SafeERC20FailedOperation",
      "type": "error"
    },
    {
      "inputs": [],
      "name": "EIP1559_ENABLED",
      "outputs": [
        {
          "internalType": "bool",
          "name": "",
          "type": "bool"
        }
      ],
      "stateMutability": "view",
      "type": "function"
    },
    {
      "inputs": [],
      "name": "RUNNER_SLOT",
      "outputs": [
        {
          "internalType": "bytes32",
          "name": "",
          "type": "bytes32"
        }
      ],
      "stateMutability": "view",
      "type": "function"
    },
    {
      "inputs": [
        {
          "internalType": "bool",
          "name": "excludePriority",
          "type": "bool"
        }
      ],
      "name": "baseFee",
      "outputs": [
        {
          "internalType": "uint256",
          "name": "",
          "type": "uint256"
        }
      ],
      "stateMutability": "view",
      "type": "function"
    },
    {
      "inputs": [],
      "name": "bridge",
      "outputs": [
        {
          "internalType": "contract IOmnibridge",
          "name": "",
          "type": "address"
        }
      ],
      "stateMutability": "view",
      "type": "function"
    },
    {
      "inputs": [
        {
          "internalType": "address",
          "name": "_token",
          "type": "address"
        },
        {
          "internalType": "address",
          "name": "_to",
          "type": "address"
        }
      ],
      "name": "claimTokens",
      "outputs": [],
      "stateMutability": "nonpayable",
      "type": "function"
    },
    {
      "inputs": [
        {
          "internalType": "bool",
          "name": "toNative",
          "type": "bool"
        },
        {
          "internalType": "uint256",
          "name": "_value",
          "type": "uint256"
        },
        {
          "internalType": "uint256",
          "name": "runner",
          "type": "uint256"
        },
        {
          "components": [
            {
              "internalType": "address",
              "name": "recipient",
              "type": "address"
            },
            {
              "internalType": "uint256",
              "name": "settings",
              "type": "uint256"
            },
            {
              "internalType": "uint256",
              "name": "limit",
              "type": "uint256"
            },
            {
              "internalType": "uint256",
              "name": "multiplier",
              "type": "uint256"
            }
          ],
          "internalType": "struct TokenOmnibridgeRouter.FeeDirector",
          "name": "feeDirector",
          "type": "tuple"
        }
      ],
      "name": "feeInfo",
      "outputs": [
        {
          "internalType": "uint256",
          "name": "",
          "type": "uint256"
        },
        {
          "internalType": "uint256",
          "name": "",
          "type": "uint256"
        }
      ],
      "stateMutability": "view",
      "type": "function"
    },
    {
      "inputs": [
        {
          "internalType": "address",
          "name": "",
          "type": "address"
        }
      ],
      "name": "isValidator",
      "outputs": [
        {
          "internalType": "bool",
          "name": "",
          "type": "bool"
        }
      ],
      "stateMutability": "view",
      "type": "function"
    },
    {
      "inputs": [
        {
          "internalType": "address",
          "name": "_token",
          "type": "address"
        },
        {
          "internalType": "uint256",
          "name": "_value",
          "type": "uint256"
        },
        {
          "internalType": "bytes",
          "name": "_data",
          "type": "bytes"
        }
      ],
      "name": "onTokenBridged",
      "outputs": [],
      "stateMutability": "payable",
      "type": "function"
    },
    {
      "inputs": [],
      "name": "owner",
      "outputs": [
        {
          "internalType": "address",
          "name": "",
          "type": "address"
        }
      ],
      "stateMutability": "view",
      "type": "function"
    },
    {
      "inputs": [
        {
          "internalType": "address",
          "name": "_receiver",
          "type": "address"
        },
        {
          "internalType": "bytes",
          "name": "_data",
          "type": "bytes"
        }
      ],
      "name": "relayTokensAndCall",
      "outputs": [],
      "stateMutability": "payable",
      "type": "function"
    },
    {
      "inputs": [
        {
          "internalType": "address",
          "name": "runner",
          "type": "address"
        },
        {
          "internalType": "bytes",
          "name": "_data",
          "type": "bytes"
        },
        {
          "internalType": "bytes",
          "name": "_signatures",
          "type": "bytes"
        }
      ],
      "name": "safeExecuteSignaturesWithAutoGasLimit",
      "outputs": [],
      "stateMutability": "payable",
      "type": "function"
    },
    {
      "inputs": [
        {
          "internalType": "address",
          "name": "_validator",
          "type": "address"
        },
        {
          "internalType": "bool",
          "name": "_isValidator",
          "type": "bool"
        }
      ],
      "name": "setValidatorStatus",
      "outputs": [],
      "stateMutability": "payable",
      "type": "function"
    },
    {
      "inputs": [
        {
          "internalType": "address",
          "name": "_validatorsFilter",
          "type": "address"
        }
      ],
      "name": "setValidatorsFilter",
      "outputs": [],
      "stateMutability": "payable",
      "type": "function"
    },
    {
      "inputs": [
        {
          "internalType": "address",
          "name": "_newOwner",
          "type": "address"
        }
      ],
      "name": "transferOwnership",
      "outputs": [],
      "stateMutability": "nonpayable",
      "type": "function"
    },
    {
      "inputs": [],
      "name": "validatorsFilter",
      "outputs": [
        {
          "internalType": "address",
          "name": "",
          "type": "address"
        }
      ],
      "stateMutability": "view",
      "type": "function"
    },
    {
      "inputs": [],
      "name": "wNative",
      "outputs": [
        {
          "internalType": "contract IWETH",
          "name": "",
          "type": "address"
        }
      ],
      "stateMutability": "view",
      "type": "function"
    },
    {
      "inputs": [],
      "name": "wrapAndRelayTokens",
      "outputs": [],
      "stateMutability": "payable",
      "type": "function"
    },
    {
      "inputs": [
        {
          "internalType": "address",
          "name": "_receiver",
          "type": "address"
        }
      ],
      "name": "wrapAndRelayTokens",
      "outputs": [],
      "stateMutability": "payable",
      "type": "function"
    },
    {
      "stateMutability": "payable",
      "type": "receive"
    }
  ],
  "bytecode": "0x60e06040523480156200001157600080fd5b50604051620019de380380620019de8339810160408190526200003491620000f9565b600080546001600160a01b0319166001600160a01b038481169190911790915584811660a081905290841660c081905260405163095ea7b360e01b8152600481019290925260001960248301529063095ea7b390604401600060405180830381600087803b158015620000a657600080fd5b505af1158015620000bb573d6000803e3d6000fd5b5050600280546001600160a01b03191630179055505015156080525062000165915050565b6001600160a01b0381168114620000f657600080fd5b50565b600080600080608085870312156200011057600080fd5b84516200011d81620000e0565b60208601519094506200013081620000e0565b60408601519093506200014381620000e0565b606086015190925080151581146200015a57600080fd5b939692955090935050565b60805160a05160c0516117f5620001e96000396000818161011d01528181610168015281816107cf01528181610821015281816108db015281816109110152818161096001528181610b4b0152610c010152600081816102bb015281816105a20152818161079a0152610bd10152600081816102ef0152610c6901526117f56000f3fe60806040526004361061010d5760003560e01c80639562de5911610095578063ed5a97d311610064578063ed5a97d3146102dd578063f2fde38b14610321578063f52cbf0e14610341578063facd743b14610354578063fba9770a1461038457600080fd5b80639562de5914610270578063aca2490b14610283578063db7af85414610296578063e78cea92146102a957600080fd5b80634309b714116100dc5780634309b714146101e8578063633a8fa9146101fb57806369ffa08a1461021057806370502107146102305780638da5cb5b1461025057600080fd5b806301a754ff1461014e5780632d68efc914610156578063351bb549146101a757806336768d3e146101d557600080fd5b3661014957336001600160a01b037f0000000000000000000000000000000000000000000000000000000000000000161461014757600080fd5b005b600080fd5b6101476103b9565b34801561016257600080fd5b5061018a7f000000000000000000000000000000000000000000000000000000000000000081565b6040516001600160a01b0390911681526020015b60405180910390f35b3480156101b357600080fd5b506101c76101c236600461118c565b6103d4565b60405190815260200161019e565b6101476101e33660046111be565b6103e5565b6101476101f6366004611224565b610488565b34801561020757600080fd5b506101c7610693565b34801561021c57600080fd5b5061014761022b3660046112a7565b6106bb565b34801561023c57600080fd5b5060025461018a906001600160a01b031681565b34801561025c57600080fd5b5060005461018a906001600160a01b031681565b61014761027e3660046112e0565b6106e0565b610147610291366004611335565b610725565b6101476102a43660046113d3565b610767565b3480156102b557600080fd5b5061018a7f000000000000000000000000000000000000000000000000000000000000000081565b3480156102e957600080fd5b506103117f000000000000000000000000000000000000000000000000000000000000000081565b604051901515815260200161019e565b34801561032d57600080fd5b5061014761033c3660046111be565b610aca565b61014761034f3660046111be565b610b03565b34801561036057600080fd5b5061031161036f3660046111be565b60036020526000908152604090205460ff1681565b34801561039057600080fd5b506103a461039f366004611484565b610b1f565b6040805192835260208301919091520161019e565b6103d23360405180602001604052806000815250610b49565b565b60006103df82610c65565b92915050565b6000546001600160a01b031633146103fc57600080fd5b60405163facd743b60e01b8152600060048201526001600160a01b0382169063facd743b90602401602060405180830381865afa158015610441573d6000803e3d6000fd5b505050506040513d601f19601f8201168201806040525081019061046591906114d6565b50600280546001600160a01b0319166001600160a01b0392909216919091179055565b604051602001610497906114f3565b604051602081830303815290604052805190602001206060866001600160a01b0316901b5a6bffffffffffffffffffffffff161760028110156104ed57604051632a9ffab760e21b815260040160405180910390fd5b8154829060011015610512576040516345f5ce8b60e11b815260040160405180910390fd5b81815560025460405163facd743b60e01b81526001600160a01b038a811660048301529091169063facd743b90602401602060405180830381865afa15801561055f573d6000803e3d6000fd5b505050506040513d601f19601f8201168201806040525081019061058391906114d6565b6105a057604051631574f9f360e01b815260040160405180910390fd5b7f00000000000000000000000000000000000000000000000000000000000000006001600160a01b031663cd5965836040518163ffffffff1660e01b8152600401602060405180830381865afa1580156105fe573d6000803e3d6000fd5b505050506040513d601f19601f82011682018060405250810190610622919061152a565b6001600160a01b03166323caab49888888886040518563ffffffff1660e01b81526004016106539493929190611570565b600060405180830381600087803b15801561066d57600080fd5b505af1158015610681573d6000803e3d6000fd5b50506001909255505050505050505050565b6040516020016106a2906114f3565b6040516020818303038152906040528051906020012081565b6000546001600160a01b031633146106d257600080fd5b6106dc8282610ca2565b5050565b6107208383838080601f016020809104026020016040519081016040528093929190818152602001838380828437600092019190915250610b4992505050565b505050565b6000546001600160a01b0316331461073c57600080fd5b6001600160a01b03919091166000908152600360205260409020805460ff1916911515919091179055565b60018054111561078a576040516345f5ce8b60e11b815260040160405180910390fd5b6002600155336001600160a01b037f000000000000000000000000000000000000000000000000000000000000000016146107c457600080fd5b805160140361089e577f00000000000000000000000000000000000000000000000000000000000000006001600160a01b0316836001600160a01b03161461080b57600080fd5b604051632e1a7d4d60e01b8152600481018390527f00000000000000000000000000000000000000000000000000000000000000006001600160a01b031690632e1a7d4d90602401600060405180830381600087803b15801561086d57600080fd5b505af1158015610881573d6000803e3d6000fd5b50505050610899610893826014015190565b83610cd7565b610ac1565b6000818060200190518101906108b491906115a2565b9050600060ff60fe8360200151901b901c60011480156109055750846001600160a01b03167f00000000000000000000000000000000000000000000000000000000000000006001600160a01b0316145b905080801561094557507f00000000000000000000000000000000000000000000000000000000000000006001600160a01b0316856001600160a01b0316145b156109c957604051632e1a7d4d60e01b8152600481018590527f00000000000000000000000000000000000000000000000000000000000000006001600160a01b031690632e1a7d4d90602401600060405180830381600087803b1580156109ac57600080fd5b505af11580156109c0573d6000803e3d6000fd5b50505050610a44565b6040516370a0823160e01b81523060048201526000906001600160a01b038716906370a0823190602401602060405180830381865afa158015610a10573d6000803e3d6000fd5b505050506040513d601f19601f82011682018060405250810190610a3491906115f3565b905084811015610a42578094505b505b6000610a71604051602001610a58906114f3565b6040516020818303038152906040528051906020012090565b5490506000858215610a8f57610a8984888588610d41565b90925090505b8015610aa557610aa58489876000015184610e6c565b8115610abb57610abb8489606086901c85610e6c565b50505050505b50506001805550565b6000546001600160a01b03163314610ae157600080fd5b600080546001600160a01b0319166001600160a01b0392909216919091179055565b610b1c8160405180602001604052806000815250610b49565b50565b600080610b3c868686610b373688900388018861160c565b610d41565b9150915094509492505050565b7f00000000000000000000000000000000000000000000000000000000000000006001600160a01b031663d0e30db0346040518263ffffffff1660e01b81526004016000604051808303818588803b158015610ba457600080fd5b505af1158015610bb8573d6000803e3d6000fd5b505060405163d740548160e01b81526001600160a01b037f000000000000000000000000000000000000000000000000000000000000000016935063d74054819250610c2f91507f000000000000000000000000000000000000000000000000000000000000000090869034908790600401611681565b600060405180830381600087803b158015610c4957600080fd5b505af1158015610c5d573d6000803e3d6000fd5b505050505050565b60007f00000000000000000000000000000000000000000000000000000000000000008015610c915750815b610c9b573a6103df565b4892915050565b806001600160a01b038116610cb657600080fd5b6001600160a01b038316610ccd5761072082610f00565b6107208383610f0b565b6040516001600160a01b0383169082156108fc029083906000818181858888f193505050506106dc578082604051610d0e90611172565b6001600160a01b0390911681526020016040518091039082f0905080158015610d3b573d6000803e3d6000fd5b50505050565b60008060ff808460200151901b901c600103610d635782604001519150610e46565b60ff60fc8460200151901b901c600103610da157670de0b6b3a7640000836060015186610d9091906116eb565b610d9a9190611702565b9150610e46565b60005a610dbc906bffffffffffffffffffffffff8716611724565b90506000610dd860ff60fd8760200151901b901c600114610c65565b9050670de0b6b3a76400008186606001518a610df757620186a0610dfb565b61c3505b610e0a9062ffffff1686611737565b610e1491906116eb565b610e1e91906116eb565b610e289190611702565b935084604001518411610e3b5783610e41565b84604001515b935050505b848211610e535781610e55565b845b9150610e618286611724565b905094509492505050565b8315610eec576000826001600160a01b03168260405160006040518083038185875af1925050503d8060008114610ebf576040519150601f19603f3d011682016040523d82523d6000602084013e610ec4565b606091505b5050905080610ee657604051631574f9f360e01b815260040160405180910390fd5b50610d3b565b610d3b6001600160a01b0384168383610f8a565b476106dc8282610cd7565b6040516370a0823160e01b815230600482015282906000906001600160a01b038316906370a0823190602401602060405180830381865afa158015610f54573d6000803e3d6000fd5b505050506040513d601f19601f82011682018060405250810190610f7891906115f3565b9050610d3b6001600160a01b03831684835b604080516001600160a01b03848116602483015260448083018590528351808403909101815260649092019092526020810180516001600160e01b031663a9059cbb60e01b17905261072091859190600090610fe89084168361103b565b9050805160001415801561100d57508080602001905181019061100b91906114d6565b155b1561072057604051635274afe760e01b81526001600160a01b03841660048201526024015b60405180910390fd5b606061104983836000611050565b9392505050565b6060814710156110755760405163cd78605960e01b8152306004820152602401611032565b600080856001600160a01b03168486604051611091919061174a565b60006040518083038185875af1925050503d80600081146110ce576040519150601f19603f3d011682016040523d82523d6000602084013e6110d3565b606091505b50915091506110e38683836110ed565b9695505050505050565b606082611102576110fd82611149565b611049565b815115801561111957506001600160a01b0384163b155b1561114257604051639996b31560e01b81526001600160a01b0385166004820152602401611032565b5080611049565b8051156111595780518082602001fd5b604051630a12f52160e11b815260040160405180910390fd5b60598061176783390190565b8015158114610b1c57600080fd5b60006020828403121561119e57600080fd5b81356110498161117e565b6001600160a01b0381168114610b1c57600080fd5b6000602082840312156111d057600080fd5b8135611049816111a9565b60008083601f8401126111ed57600080fd5b50813567ffffffffffffffff81111561120557600080fd5b60208301915083602082850101111561121d57600080fd5b9250929050565b60008060008060006060868803121561123c57600080fd5b8535611247816111a9565b9450602086013567ffffffffffffffff8082111561126457600080fd5b61127089838a016111db565b9096509450604088013591508082111561128957600080fd5b50611296888289016111db565b969995985093965092949392505050565b600080604083850312156112ba57600080fd5b82356112c5816111a9565b915060208301356112d5816111a9565b809150509250929050565b6000806000604084860312156112f557600080fd5b8335611300816111a9565b9250602084013567ffffffffffffffff81111561131c57600080fd5b611328868287016111db565b9497909650939450505050565b6000806040838503121561134857600080fd5b8235611353816111a9565b915060208301356112d58161117e565b634e487b7160e01b600052604160045260246000fd5b6040516080810167ffffffffffffffff8111828210171561139c5761139c611363565b60405290565b604051601f8201601f1916810167ffffffffffffffff811182821017156113cb576113cb611363565b604052919050565b6000806000606084860312156113e857600080fd5b83356113f3816111a9565b92506020848101359250604085013567ffffffffffffffff8082111561141857600080fd5b818701915087601f83011261142c57600080fd5b81358181111561143e5761143e611363565b611450601f8201601f191685016113a2565b9150808252888482850101111561146657600080fd5b80848401858401376000848284010152508093505050509250925092565b60008060008084860360e081121561149b57600080fd5b85356114a68161117e565b945060208601359350604086013592506080605f19820112156114c857600080fd5b509295919450926060019150565b6000602082840312156114e857600080fd5b81516110498161117e565b60208082526017908201527f6f6d6e69627269646765726f757465722e72756e6e6572000000000000000000604082015260600190565b60006020828403121561153c57600080fd5b8151611049816111a9565b81835281816020850137506000828201602090810191909152601f909101601f19169091010190565b604081526000611584604083018688611547565b8281036020840152611597818587611547565b979650505050505050565b6000608082840312156115b457600080fd5b6115bc611379565b82516115c7816111a9565b808252506020830151602082015260408301516040820152606083015160608201528091505092915050565b60006020828403121561160557600080fd5b5051919050565b60006080828403121561161e57600080fd5b611626611379565b8235611631816111a9565b808252506020830135602082015260408301356040820152606083013560608201528091505092915050565b60005b83811015611678578181015183820152602001611660565b50506000910152565b600060018060a01b0380871683528086166020840152508360408301526080606083015282518060808401526116be8160a085016020870161165d565b601f01601f19169190910160a00195945050505050565b634e487b7160e01b600052601160045260246000fd5b80820281158282048414176103df576103df6116d5565b60008261171f57634e487b7160e01b600052601260045260246000fd5b500490565b818103818111156103df576103df6116d5565b808201808211156103df576103df6116d5565b6000825161175c81846020870161165d565b919091019291505056fe608060405260405160593803806059833981016040819052601e91602a565b806001600160a01b0316ff5b600060208284031215603b57600080fd5b81516001600160a01b0381168114605157600080fd5b939250505056fea2646970667358221220d189a07f7b197258070fb36fae64d58d210aa4908b6dd7dc904f22d03796af7664736f6c63430008180033",
  "linkReferences": {},
  "deployedLinkReferences": {}
}