{
  "_format": "hh-sol-artifact-1",
  "contractName": "ERC677ReceiverTest",
  "sourceName": "contracts/mocks/ERC677ReceiverTest.sol",
  "abi": [
    {
      "constant": true,
      "inputs": [],
      "name": "someVar",
      "outputs": [
        {
          "name": "",
          "type": "uint256"
        }
      ],
      "payable": false,
      "stateMutability": "view",
      "type": "function"
    },
    {
      "constant": true,
      "inputs": [],
      "name": "value",
      "outputs": [
        {
          "name": "",
          "type": "uint256"
        }
      ],
      "payable": false,
      "stateMutability": "view",
      "type": "function"
    },
    {
      "constant": true,
      "inputs": [],
      "name": "data",
      "outputs": [
        {
          "name": "",
          "type": "bytes"
        }
      ],
      "payable": false,
      "stateMutability": "view",
      "type": "function"
    },
    {
      "constant": false,
      "inputs": [
        {
          "name": "_from",
          "type": "address"
        },
        {
          "name": "_value",
          "type": "uint256"
        },
        {
          "name": "_data",
          "type": "bytes"
        }
      ],
      "name": "onTokenTransfer",
      "outputs": [
        {
          "name": "",
          "type": "bool"
        }
      ],
      "payable": false,
      "stateMutability": "nonpayable",
      "type": "function"
    },
    {
      "constant": false,
      "inputs": [
        {
          "name": "_value",
          "type": "uint256"
        }
      ],
      "name": "doSomething",
      "outputs": [],
      "payable": false,
      "stateMutability": "nonpayable",
      "type": "function"
    },
    {
      "constant": true,
      "inputs": [],
      "name": "from",
      "outputs": [
        {
          "name": "",
          "type": "address"
        }
      ],
      "payable": false,
      "stateMutability": "view",
      "type": "function"
    }
  ],
  "bytecode": "0x6080604052600060035534801561001557600080fd5b506103fa806100256000396000f3006080604052600436106100775763ffffffff7c010000000000000000000000000000000000000000000000000000000060003504166321eba2da811461007c5780633fa4f245146100a357806373d4a13a146100b8578063a4c0ed3614610142578063a6b206bf14610194578063d5ce3389146101ae575b600080fd5b34801561008857600080fd5b506100916101ec565b60408051918252519081900360200190f35b3480156100af57600080fd5b506100916101f2565b3480156100c457600080fd5b506100cd6101f8565b6040805160208082528351818301528351919283929083019185019080838360005b838110156101075781810151838201526020016100ef565b50505050905090810190601f1680156101345780820380516001836020036101000a031916815260200191505b509250505060405180910390f35b34801561014e57600080fd5b506101806004803573ffffffffffffffffffffffffffffffffffffffff16906024803591604435918201910135610283565b604080519115158252519081900360200190f35b3480156101a057600080fd5b506101ac600435610312565b005b3480156101ba57600080fd5b506101c3610317565b6040805173ffffffffffffffffffffffffffffffffffffffff9092168252519081900360200190f35b60035481565b60015481565b6002805460408051602060018416156101000260001901909316849004601f8101849004840282018401909252818152929183018282801561027b5780601f106102505761010080835404028352916020019161027b565b820191906000526020600020905b81548152906001019060200180831161025e57829003601f168201915b505050505081565b6000805473ffffffffffffffffffffffffffffffffffffffff191673ffffffffffffffffffffffffffffffffffffffff861617815560018490556102c960028484610333565b503073ffffffffffffffffffffffffffffffffffffffff168383604051808383808284378201915050925050506000604051808303816000865af1506001979650505050505050565b600355565b60005473ffffffffffffffffffffffffffffffffffffffff1681565b828054600181600116156101000203166002900490600052602060002090601f016020900481019282601f106103745782800160ff198235161785556103a1565b828001600101855582156103a1579182015b828111156103a1578235825591602001919060010190610386565b506103ad9291506103b1565b5090565b6103cb91905b808211156103ad57600081556001016103b7565b905600a165627a7a7230582096d610fee40fb5951fd54e205e9d2bafaf38dc877b93c27232c72b24d05fba6b0029",
  "linkReferences": {},
  "deployedLinkReferences": {}
}