{
  "_format": "hh-sol-artifact-1",
  "contractName": "ERC677BridgeTokenRewardableMock",
  "sourceName": "contracts/mocks/ERC677BridgeTokenRewardableMock.sol",
  "abi": [
    {
      "constant": false,
      "inputs": [
        {
          "name": "_bridge",
          "type": "address"
        }
      ],
      "name": "removeBridge",
      "outputs": [],
      "payable": false,
      "stateMutability": "nonpayable",
      "type": "function"
    },
    {
      "constant": true,
      "inputs": [],
      "name": "mintingFinished",
      "outputs": [
        {
          "name": "",
          "type": "bool"
        }
      ],
      "payable": false,
      "stateMutability": "view",
      "type": "function"
    },
    {
      "constant": true,
      "inputs": [],
      "name": "name",
      "outputs": [
        {
          "name": "",
          "type": "string"
        }
      ],
      "payable": false,
      "stateMutability": "view",
      "type": "function"
    },
    {
      "constant": false,
      "inputs": [
        {
          "name": "_to",
          "type": "address"
        },
        {
          "name": "_value",
          "type": "uint256"
        }
      ],
      "name": "approve",
      "outputs": [
        {
          "name": "result",
          "type": "bool"
        }
      ],
      "payable": false,
      "stateMutability": "nonpayable",
      "type": "function"
    },
    {
      "constant": false,
      "inputs": [
        {
          "name": "",
          "type": "address"
        }
      ],
      "name": "setBridgeContract",
      "outputs": [],
      "payable": false,
      "stateMutability": "nonpayable",
      "type": "function"
    },
    {
      "constant": true,
      "inputs": [],
      "name": "totalSupply",
      "outputs": [
        {
          "name": "",
          "type": "uint256"
        }
      ],
      "payable": false,
      "stateMutability": "view",
      "type": "function"
    },
    {
      "constant": false,
      "inputs": [
        {
          "name": "_from",
          "type": "address"
        },
        {
          "name": "_to",
          "type": "address"
        },
        {
          "name": "_value",
          "type": "uint256"
        }
      ],
      "name": "transferFrom",
      "outputs": [
        {
          "name": "",
          "type": "bool"
        }
      ],
      "payable": false,
      "stateMutability": "nonpayable",
      "type": "function"
    },
    {
      "constant": false,
      "inputs": [
        {
          "name": "_blockRewardContract",
          "type": "address"
        }
      ],
      "name": "setBlockRewardContract",
      "outputs": [],
      "payable": false,
      "stateMutability": "nonpayable",
      "type": "function"
    },
    {
      "constant": true,
      "inputs": [],
      "name": "PERMIT_TYPEHASH",
      "outputs": [
        {
          "name": "",
          "type": "bytes32"
        }
      ],
      "payable": false,
      "stateMutability": "view",
      "type": "function"
    },
    {
      "constant": true,
      "inputs": [],
      "name": "decimals",
      "outputs": [
        {
          "name": "",
          "type": "uint8"
        }
      ],
      "payable": false,
      "stateMutability": "view",
      "type": "function"
    },
    {
      "constant": true,
      "inputs": [],
      "name": "DOMAIN_SEPARATOR",
      "outputs": [
        {
          "name": "",
          "type": "bytes32"
        }
      ],
      "payable": false,
      "stateMutability": "view",
      "type": "function"
    },
    {
      "constant": false,
      "inputs": [
        {
          "name": "_to",
          "type": "address"
        },
        {
          "name": "_addedValue",
          "type": "uint256"
        }
      ],
      "name": "increaseAllowance",
      "outputs": [
        {
          "name": "result",
          "type": "bool"
        }
      ],
      "payable": false,
      "stateMutability": "nonpayable",
      "type": "function"
    },
    {
      "constant": false,
      "inputs": [
        {
          "name": "_to",
          "type": "address"
        },
        {
          "name": "_value",
          "type": "uint256"
        },
        {
          "name": "_data",
          "type": "bytes"
        }
      ],
      "name": "transferAndCall",
      "outputs": [
        {
          "name": "",
          "type": "bool"
        }
      ],
      "payable": false,
      "stateMutability": "nonpayable",
      "type": "function"
    },
    {
      "constant": false,
      "inputs": [
        {
          "name": "_to",
          "type": "address"
        },
        {
          "name": "_amount",
          "type": "uint256"
        }
      ],
      "name": "mint",
      "outputs": [
        {
          "name": "",
          "type": "bool"
        }
      ],
      "payable": false,
      "stateMutability": "nonpayable",
      "type": "function"
    },
    {
      "constant": false,
      "inputs": [
        {
          "name": "_value",
          "type": "uint256"
        }
      ],
      "name": "burn",
      "outputs": [],
      "payable": false,
      "stateMutability": "nonpayable",
      "type": "function"
    },
    {
      "constant": true,
      "inputs": [
        {
          "name": "",
          "type": "address"
        }
      ],
      "name": "bridgePointers",
      "outputs": [
        {
          "name": "",
          "type": "address"
        }
      ],
      "payable": false,
      "stateMutability": "view",
      "type": "function"
    },
    {
      "constant": true,
      "inputs": [],
      "name": "version",
      "outputs": [
        {
          "name": "",
          "type": "string"
        }
      ],
      "payable": false,
      "stateMutability": "view",
      "type": "function"
    },
    {
      "constant": true,
      "inputs": [],
      "name": "blockRewardContract",
      "outputs": [
        {
          "name": "",
          "type": "address"
        }
      ],
      "payable": false,
      "stateMutability": "view",
      "type": "function"
    },
    {
      "constant": false,
      "inputs": [
        {
          "name": "_spender",
          "type": "address"
        },
        {
          "name": "_subtractedValue",
          "type": "uint256"
        }
      ],
      "name": "decreaseApproval",
      "outputs": [
        {
          "name": "",
          "type": "bool"
        }
      ],
      "payable": false,
      "stateMutability": "nonpayable",
      "type": "function"
    },
    {
      "constant": false,
      "inputs": [
        {
          "name": "_token",
          "type": "address"
        },
        {
          "name": "_to",
          "type": "address"
        }
      ],
      "name": "claimTokens",
      "outputs": [],
      "payable": false,
      "stateMutability": "nonpayable",
      "type": "function"
    },
    {
      "constant": true,
      "inputs": [
        {
          "name": "_owner",
          "type": "address"
        }
      ],
      "name": "balanceOf",
      "outputs": [
        {
          "name": "",
          "type": "uint256"
        }
      ],
      "payable": false,
      "stateMutability": "view",
      "type": "function"
    },
    {
      "constant": false,
      "inputs": [],
      "name": "renounceOwnership",
      "outputs": [],
      "payable": false,
      "stateMutability": "nonpayable",
      "type": "function"
    },
    {
      "constant": true,
      "inputs": [
        {
          "name": "_address",
          "type": "address"
        }
      ],
      "name": "isBridge",
      "outputs": [
        {
          "name": "",
          "type": "bool"
        }
      ],
      "payable": false,
      "stateMutability": "view",
      "type": "function"
    },
    {
      "constant": false,
      "inputs": [],
      "name": "finishMinting",
      "outputs": [
        {
          "name": "",
          "type": "bool"
        }
      ],
      "payable": false,
      "stateMutability": "nonpayable",
      "type": "function"
    },
    {
      "constant": true,
      "inputs": [
        {
          "name": "",
          "type": "address"
        }
      ],
      "name": "nonces",
      "outputs": [
        {
          "name": "",
          "type": "uint256"
        }
      ],
      "payable": false,
      "stateMutability": "view",
      "type": "function"
    },
    {
      "constant": true,
      "inputs": [],
      "name": "getTokenInterfacesVersion",
      "outputs": [
        {
          "name": "major",
          "type": "uint64"
        },
        {
          "name": "minor",
          "type": "uint64"
        },
        {
          "name": "patch",
          "type": "uint64"
        }
      ],
      "payable": false,
      "stateMutability": "pure",
      "type": "function"
    },
    {
      "constant": true,
      "inputs": [],
      "name": "owner",
      "outputs": [
        {
          "name": "",
          "type": "address"
        }
      ],
      "payable": false,
      "stateMutability": "view",
      "type": "function"
    },
    {
      "constant": false,
      "inputs": [
        {
          "name": "_holder",
          "type": "address"
        },
        {
          "name": "_spender",
          "type": "address"
        },
        {
          "name": "_nonce",
          "type": "uint256"
        },
        {
          "name": "_expiry",
          "type": "uint256"
        },
        {
          "name": "_allowed",
          "type": "bool"
        },
        {
          "name": "_v",
          "type": "uint8"
        },
        {
          "name": "_r",
          "type": "bytes32"
        },
        {
          "name": "_s",
          "type": "bytes32"
        }
      ],
      "name": "permit",
      "outputs": [],
      "payable": false,
      "stateMutability": "nonpayable",
      "type": "function"
    },
    {
      "constant": false,
      "inputs": [
        {
          "name": "_amount",
          "type": "uint256"
        }
      ],
      "name": "mintReward",
      "outputs": [],
      "payable": false,
      "stateMutability": "nonpayable",
      "type": "function"
    },
    {
      "constant": true,
      "inputs": [],
      "name": "symbol",
      "outputs": [
        {
          "name": "",
          "type": "string"
        }
      ],
      "payable": false,
      "stateMutability": "view",
      "type": "function"
    },
    {
      "constant": false,
      "inputs": [
        {
          "name": "_bridge",
          "type": "address"
        }
      ],
      "name": "addBridge",
      "outputs": [],
      "payable": false,
      "stateMutability": "nonpayable",
      "type": "function"
    },
    {
      "constant": false,
      "inputs": [
        {
          "name": "_blockRewardContract",
          "type": "address"
        }
      ],
      "name": "setBlockRewardContractMock",
      "outputs": [],
      "payable": false,
      "stateMutability": "nonpayable",
      "type": "function"
    },
    {
      "constant": true,
      "inputs": [],
      "name": "bridgeList",
      "outputs": [
        {
          "name": "",
          "type": "address[]"
        }
      ],
      "payable": false,
      "stateMutability": "view",
      "type": "function"
    },
    {
      "constant": false,
      "inputs": [
        {
          "name": "_stakingContract",
          "type": "address"
        }
      ],
      "name": "setStakingContract",
      "outputs": [],
      "payable": false,
      "stateMutability": "nonpayable",
      "type": "function"
    },
    {
      "constant": false,
      "inputs": [
        {
          "name": "spender",
          "type": "address"
        },
        {
          "name": "subtractedValue",
          "type": "uint256"
        }
      ],
      "name": "decreaseAllowance",
      "outputs": [
        {
          "name": "",
          "type": "bool"
        }
      ],
      "payable": false,
      "stateMutability": "nonpayable",
      "type": "function"
    },
    {
      "constant": false,
      "inputs": [
        {
          "name": "_stakingContract",
          "type": "address"
        }
      ],
      "name": "setStakingContractMock",
      "outputs": [],
      "payable": false,
      "stateMutability": "nonpayable",
      "type": "function"
    },
    {
      "constant": false,
      "inputs": [
        {
          "name": "_to",
          "type": "address"
        },
        {
          "name": "_value",
          "type": "uint256"
        }
      ],
      "name": "transfer",
      "outputs": [
        {
          "name": "",
          "type": "bool"
        }
      ],
      "payable": false,
      "stateMutability": "nonpayable",
      "type": "function"
    },
    {
      "constant": false,
      "inputs": [
        {
          "name": "_staker",
          "type": "address"
        },
        {
          "name": "_amount",
          "type": "uint256"
        }
      ],
      "name": "stake",
      "outputs": [],
      "payable": false,
      "stateMutability": "nonpayable",
      "type": "function"
    },
    {
      "constant": false,
      "inputs": [
        {
          "name": "_to",
          "type": "address"
        },
        {
          "name": "_amount",
          "type": "uint256"
        }
      ],
      "name": "push",
      "outputs": [],
      "payable": false,
      "stateMutability": "nonpayable",
      "type": "function"
    },
    {
      "constant": false,
      "inputs": [
        {
          "name": "_from",
          "type": "address"
        },
        {
          "name": "_to",
          "type": "address"
        },
        {
          "name": "_amount",
          "type": "uint256"
        }
      ],
      "name": "move",
      "outputs": [],
      "payable": false,
      "stateMutability": "nonpayable",
      "type": "function"
    },
    {
      "constant": true,
      "inputs": [],
      "name": "PERMIT_TYPEHASH_LEGACY",
      "outputs": [
        {
          "name": "",
          "type": "bytes32"
        }
      ],
      "payable": false,
      "stateMutability": "view",
      "type": "function"
    },
    {
      "constant": true,
      "inputs": [],
      "name": "F_ADDR",
      "outputs": [
        {
          "name": "",
          "type": "address"
        }
      ],
      "payable": false,
      "stateMutability": "view",
      "type": "function"
    },
    {
      "constant": true,
      "inputs": [],
      "name": "bridgeContract",
      "outputs": [
        {
          "name": "",
          "type": "address"
        }
      ],
      "payable": false,
      "stateMutability": "view",
      "type": "function"
    },
    {
      "constant": false,
      "inputs": [
        {
          "name": "_holder",
          "type": "address"
        },
        {
          "name": "_spender",
          "type": "address"
        },
        {
          "name": "_value",
          "type": "uint256"
        },
        {
          "name": "_deadline",
          "type": "uint256"
        },
        {
          "name": "_v",
          "type": "uint8"
        },
        {
          "name": "_r",
          "type": "bytes32"
        },
        {
          "name": "_s",
          "type": "bytes32"
        }
      ],
      "name": "permit",
      "outputs": [],
      "payable": false,
      "stateMutability": "nonpayable",
      "type": "function"
    },
    {
      "constant": false,
      "inputs": [
        {
          "name": "_spender",
          "type": "address"
        },
        {
          "name": "_addedValue",
          "type": "uint256"
        }
      ],
      "name": "increaseApproval",
      "outputs": [
        {
          "name": "",
          "type": "bool"
        }
      ],
      "payable": false,
      "stateMutability": "nonpayable",
      "type": "function"
    },
    {
      "constant": true,
      "inputs": [
        {
          "name": "_owner",
          "type": "address"
        },
        {
          "name": "_spender",
          "type": "address"
        }
      ],
      "name": "allowance",
      "outputs": [
        {
          "name": "",
          "type": "uint256"
        }
      ],
      "payable": false,
      "stateMutability": "view",
      "type": "function"
    },
    {
      "constant": true,
      "inputs": [],
      "name": "stakingContract",
      "outputs": [
        {
          "name": "",
          "type": "address"
        }
      ],
      "payable": false,
      "stateMutability": "view",
      "type": "function"
    },
    {
      "constant": false,
      "inputs": [
        {
          "name": "_from",
          "type": "address"
        },
        {
          "name": "_amount",
          "type": "uint256"
        }
      ],
      "name": "pull",
      "outputs": [],
      "payable": false,
      "stateMutability": "nonpayable",
      "type": "function"
    },
    {
      "constant": false,
      "inputs": [
        {
          "name": "_newOwner",
          "type": "address"
        }
      ],
      "name": "transferOwnership",
      "outputs": [],
      "payable": false,
      "stateMutability": "nonpayable",
      "type": "function"
    },
    {
      "constant": true,
      "inputs": [],
      "name": "bridgeCount",
      "outputs": [
        {
          "name": "",
          "type": "uint256"
        }
      ],
      "payable": false,
      "stateMutability": "view",
      "type": "function"
    },
    {
      "constant": true,
      "inputs": [
        {
          "name": "",
          "type": "address"
        },
        {
          "name": "",
          "type": "address"
        }
      ],
      "name": "expirations",
      "outputs": [
        {
          "name": "",
          "type": "uint256"
        }
      ],
      "payable": false,
      "stateMutability": "view",
      "type": "function"
    },
    {
      "inputs": [
        {
          "name": "_name",
          "type": "string"
        },
        {
          "name": "_symbol",
          "type": "string"
        },
        {
          "name": "_decimals",
          "type": "uint8"
        },
        {
          "name": "_chainId",
          "type": "uint256"
        }
      ],
      "payable": false,
      "stateMutability": "nonpayable",
      "type": "constructor"
    },
    {
      "anonymous": false,
      "inputs": [
        {
          "indexed": true,
          "name": "bridge",
          "type": "address"
        }
      ],
      "name": "BridgeAdded",
      "type": "event"
    },
    {
      "anonymous": false,
      "inputs": [
        {
          "indexed": true,
          "name": "bridge",
          "type": "address"
        }
      ],
      "name": "BridgeRemoved",
      "type": "event"
    },
    {
      "anonymous": false,
      "inputs": [
        {
          "indexed": true,
          "name": "to",
          "type": "address"
        },
        {
          "indexed": false,
          "name": "amount",
          "type": "uint256"
        }
      ],
      "name": "Mint",
      "type": "event"
    },
    {
      "anonymous": false,
      "inputs": [],
      "name": "MintFinished",
      "type": "event"
    },
    {
      "anonymous": false,
      "inputs": [
        {
          "indexed": true,
          "name": "previousOwner",
          "type": "address"
        }
      ],
      "name": "OwnershipRenounced",
      "type": "event"
    },
    {
      "anonymous": false,
      "inputs": [
        {
          "indexed": true,
          "name": "previousOwner",
          "type": "address"
        },
        {
          "indexed": true,
          "name": "newOwner",
          "type": "address"
        }
      ],
      "name": "OwnershipTransferred",
      "type": "event"
    },
    {
      "anonymous": false,
      "inputs": [
        {
          "indexed": true,
          "name": "burner",
          "type": "address"
        },
        {
          "indexed": false,
          "name": "value",
          "type": "uint256"
        }
      ],
      "name": "Burn",
      "type": "event"
    },
    {
      "anonymous": false,
      "inputs": [
        {
          "indexed": true,
          "name": "from",
          "type": "address"
        },
        {
          "indexed": true,
          "name": "to",
          "type": "address"
        },
        {
          "indexed": false,
          "name": "value",
          "type": "uint256"
        },
        {
          "indexed": false,
          "name": "data",
          "type": "bytes"
        }
      ],
      "name": "Transfer",
      "type": "event"
    },
    {
      "anonymous": false,
      "inputs": [
        {
          "indexed": true,
          "name": "owner",
          "type": "address"
        },
        {
          "indexed": true,
          "name": "spender",
          "type": "address"
        },
        {
          "indexed": false,
          "name": "value",
          "type": "uint256"
        }
      ],
      "name": "Approval",
      "type": "event"
    },
    {
      "anonymous": false,
      "inputs": [
        {
          "indexed": true,
          "name": "from",
          "type": "address"
        },
        {
          "indexed": true,
          "name": "to",
          "type": "address"
        },
        {
          "indexed": false,
          "name": "value",
          "type": "uint256"
        }
      ],
      "name": "Transfer",
      "type": "event"
    }
  ],
  "bytecode": "0x60806040526006805460a060020a60ff02191690553480156200002157600080fd5b5060405162002af238038062002af2833981018060405281019080805182019291906020018051820192919060200180519060200190929190805190602001909291905050508383838383838383838383838383838282828260009080519060200190620000919291906200034f565b508151620000a79060019060208501906200034f565b506002805460ff90921660ff19909216919091179055505060068054600160a060020a03191633179055505050801515620000e157600080fd5b60405180807f454950373132446f6d61696e28737472696e67206e616d652c737472696e672081526020017f76657273696f6e2c75696e7432353620636861696e49642c616464726573732081526020017f766572696679696e67436f6e747261637429000000000000000000000000000081525060520190506040518091039020846040518082805190602001908083835b60208310620001955780518252601f19909201916020918201910162000174565b51815160209384036101000a600019018019909216911617905260408051929094018290038220828501855260018084527f3100000000000000000000000000000000000000000000000000000000000000928401928352945190965091945090928392508083835b602083106200021f5780518252601f199092019160209182019101620001fe565b51815160209384036101000a6000190180199092169116179052604080519290940182900382208282019890985281840196909652606081019690965250608085018690523060a0808701919091528151808703909101815260c09095019081905284519093849350850191508083835b60208310620002b15780518252601f19909201916020918201910162000290565b6001836020036101000a03801982511681845116808217855250505050505090500191505060405180910390206008816000191690555050505050600160a060020a03600b6000600160a060020a038016600160a060020a0316815260200190815260200160002060006101000a815481600160a060020a030219169083600160a060020a03160217905550505050505050505050505050620003f4565b828054600181600116156101000203166002900490600052602060002090601f016020900481019282601f106200039257805160ff1916838001178555620003c2565b82800160010185558215620003c2579182015b82811115620003c2578251825591602001919060010190620003a5565b50620003d0929150620003d4565b5090565b620003f191905b80821115620003d05760008155600101620003db565b90565b6126ee80620004046000396000f30060806040526004361061024d5763ffffffff60e060020a60003504166304df017d811461025257806305d2035b1461027557806306fdde031461029e578063095ea7b3146103285780630b26cf661461034c57806318160ddd1461036d57806323b872dd1461039457806327a3e16b146103be57806330adf81f146103df578063313ce567146103f45780633644e5151461041f57806339509351146104345780634000aea01461045857806340c10f191461048957806342966c68146104ad5780634bcb88bc146104c557806354fd4d501461050257806356b54bae14610517578063661884631461052c57806369ffa08a1461055057806370a0823114610577578063715018a614610598578063726600ce146105ad5780637d64bcb4146105ce5780637ecebe00146105e3578063859ba28c146106045780638da5cb5b146106455780638fcbaf0c1461065a57806391c0aabf1461069857806395d89b41146106b05780639712fdf8146106c55780639c55af4c146106e65780639da38e2f146107075780639dd373b91461076c578063a457c2d71461078d578063a6085128146107b1578063a9059cbb146107d2578063adc9772e146107f6578063b753a98c1461081a578063bb35783b1461083e578063c6a1dedf14610868578063c794c7691461087d578063cd59658314610892578063d505accf146108a7578063d73dd623146108e0578063dd62ed3e14610904578063ee99205c1461092b578063f2d5d56b14610940578063f2fde38b14610964578063fbb2a53f14610985578063ff9e884d1461099a575b600080fd5b34801561025e57600080fd5b50610273600160a060020a03600435166109c1565b005b34801561028157600080fd5b5061028a610b2d565b604080519115158252519081900360200190f35b3480156102aa57600080fd5b506102b3610b4e565b6040805160208082528351818301528351919283929083019185019080838360005b838110156102ed5781810151838201526020016102d5565b50505050905090810190601f16801561031a5780820380516001836020036101000a031916815260200191505b509250505060405180910390f35b34801561033457600080fd5b5061028a600160a060020a0360043516602435610bdc565b34801561035857600080fd5b50610273600160a060020a036004351661024d565b34801561037957600080fd5b50610382610bf2565b60408051918252519081900360200190f35b3480156103a057600080fd5b5061028a600160a060020a0360043581169060243516604435610bf8565b3480156103ca57600080fd5b50610273600160a060020a0360043516610c44565b3480156103eb57600080fd5b50610382610c9e565b34801561040057600080fd5b50610409610cc2565b6040805160ff9092168252519081900360200190f35b34801561042b57600080fd5b50610382610ccb565b34801561044057600080fd5b5061028a600160a060020a0360043516602435610cd1565b34801561046457600080fd5b5061028a60048035600160a060020a0316906024803591604435918201910135610d12565b34801561049557600080fd5b5061028a600160a060020a0360043516602435610e23565b3480156104b957600080fd5b50610273600435610f2e565b3480156104d157600080fd5b506104e6600160a060020a0360043516610f3b565b60408051600160a060020a039092168252519081900360200190f35b34801561050e57600080fd5b506102b3610f56565b34801561052357600080fd5b506104e6610f8d565b34801561053857600080fd5b5061028a600160a060020a0360043516602435610f9c565b34801561055c57600080fd5b50610273600160a060020a0360043581169060243516611079565b34801561058357600080fd5b50610382600160a060020a036004351661109e565b3480156105a457600080fd5b506102736110b9565b3480156105b957600080fd5b5061028a600160a060020a03600435166110d0565b3480156105da57600080fd5b5061028a61110a565b3480156105ef57600080fd5b50610382600160a060020a0360043516611111565b34801561061057600080fd5b50610619611123565b6040805167ffffffffffffffff9485168152928416602084015292168183015290519081900360600190f35b34801561065157600080fd5b506104e661112e565b34801561066657600080fd5b50610273600160a060020a0360043581169060243516604435606435608435151560ff60a4351660c43560e43561113d565b3480156106a457600080fd5b5061027360043561127b565b3480156106bc57600080fd5b506102b3611375565b3480156106d157600080fd5b50610273600160a060020a03600435166113cf565b3480156106f257600080fd5b50610273600160a060020a0360043516610c6f565b34801561071357600080fd5b5061071c6114ef565b60408051602080825283518183015283519192839290830191858101910280838360005b83811015610758578181015183820152602001610740565b505050509050019250505060405180910390f35b34801561077857600080fd5b50610273600160a060020a03600435166115c4565b34801561079957600080fd5b5061028a600160a060020a0360043516602435611631565b3480156107bd57600080fd5b50610273600160a060020a0360043516611602565b3480156107de57600080fd5b5061028a600160a060020a0360043516602435611644565b34801561080257600080fd5b50610273600160a060020a0360043516602435611687565b34801561082657600080fd5b50610273600160a060020a0360043516602435611750565b34801561084a57600080fd5b50610273600160a060020a0360043581169060243516604435611760565b34801561087457600080fd5b50610382611771565b34801561088957600080fd5b506104e6611795565b34801561089e57600080fd5b506104e661110a565b3480156108b357600080fd5b50610273600160a060020a036004358116906024351660443560643560ff6084351660a43560c4356117a0565b3480156108ec57600080fd5b5061028a600160a060020a036004351660243561187c565b34801561091057600080fd5b50610382600160a060020a0360043581169060243516611903565b34801561093757600080fd5b506104e661192e565b34801561094c57600080fd5b50610273600160a060020a036004351660243561193d565b34801561097057600080fd5b50610273600160a060020a0360043516611948565b34801561099157600080fd5b50610382611968565b3480156109a657600080fd5b50610382600160a060020a036004358116906024351661196e565b60065460009081908190600160a060020a031633146109df57600080fd5b6109e8846110d0565b15156109f357600080fd5b505050600160a060020a038082166000908152600b6020526040812054908290526000805160206126638339815191525490821691908116801515610a3757600080fd5b600160a060020a0381811690851614610a9257600160a060020a038082166000908152600b6020526040902054919250908116908114801590610a825750600160a060020a03811615155b1515610a8d57600080fd5b610a37565b600160a060020a038083166000908152600b6020526040808220805484881673ffffffffffffffffffffffffffffffffffffffff19918216179091559287168252902080549091169055600c54610af090600163ffffffff61198b16565b600c55604051600160a060020a038516907f5d9d5034656cb3ebfb0655057cd7f9b4077a9b42ff42ce223cbac5bc586d212690600090a250505050565b60065474010000000000000000000000000000000000000000900460ff1681565b6000805460408051602060026001851615610100026000190190941693909304601f81018490048402820184019092528181529291830182828015610bd45780601f10610ba957610100808354040283529160200191610bd4565b820191906000526020600020905b815481529060010190602001808311610bb757829003601f168201915b505050505081565b6000610be933848461199d565b50600192915050565b60045490565b600d54600090600160a060020a0384811691161415610c1657600080fd5b600e54600160a060020a0384811691161415610c3157600080fd5b610c3c8484846119df565b949350505050565b600654600160a060020a03163314610c5b57600080fd5b610c6481611ba7565b1515610c6f57600080fd5b600d805473ffffffffffffffffffffffffffffffffffffffff1916600160a060020a0392909216919091179055565b7f6e71edae12b1b97f4d1f60370fef10105fa2faae0126114a169c64845d6126c981565b60025460ff1681565b60085481565b336000818152600560209081526040808320600160a060020a03871684529091528120549091610be9918590610d0d908663ffffffff611baf16565b61199d565b600084600160a060020a03811615801590610d365750600160a060020a0381163014155b1515610d4157600080fd5b610d4b8686611bbc565b1515610d5657600080fd5b85600160a060020a031633600160a060020a03167fe19260aff97b920c7df27010903aeb9c8d2be5d310a2c67824cf3f15396e4c16878787604051808481526020018060200182810382528484828181526020019250808284376040519201829003965090945050505050a3610dcb86611ba7565b15610e1757610e0c33878787878080601f01602080910402602001604051908101604052809392919081815260200183838082843750611bc8945050505050565b1515610e1757600080fd5b50600195945050505050565b600654600090600160a060020a03163314610e3d57600080fd5b60065474010000000000000000000000000000000000000000900460ff1615610e6557600080fd5b600454610e78908363ffffffff611baf16565b600455600160a060020a038316600090815260036020526040902054610ea4908363ffffffff611baf16565b600160a060020a038416600081815260036020908152604091829020939093558051858152905191927f0f6798a560793a54c3bcfe86a93cde1e73087d944c0ea20544137d412139688592918290030190a2604080518381529051600160a060020a038516916000916000805160206126838339815191529181900360200190a350600192915050565b610f383382611d45565b50565b600b60205260009081526040902054600160a060020a031681565b60408051808201909152600181527f3100000000000000000000000000000000000000000000000000000000000000602082015281565b600d54600160a060020a031681565b336000908152600560209081526040808320600160a060020a0386168452909152812054808310610ff057336000908152600560209081526040808320600160a060020a0388168452909152812055611025565b611000818463ffffffff61198b16565b336000908152600560209081526040808320600160a060020a03891684529091529020555b336000818152600560209081526040808320600160a060020a0389168085529083529281902054815190815290519293926000805160206126a3833981519152929181900390910190a35060019392505050565b600654600160a060020a0316331461109057600080fd5b61109a8282611e34565b5050565b600160a060020a031660009081526003602052604090205490565b600654600160a060020a0316331461024d57600080fd5b6000600160a060020a03828116148015906111045750600160a060020a038281166000908152600b60205260409020541615155b92915050565b6000806000fd5b60096020526000908152604090205481565b600260056000909192565b600654600160a060020a031681565b60008086158061114d5750864211155b151561115857600080fd5b604080517fea2aa0a1be11a07ed86d755c93467f4f82362b452371d1ba94d1715123511acb6020820152600160a060020a03808d16828401528b166060820152608081018a905260a0810189905287151560c0808301919091528251808303909101815260e09091019091526111cd90611e72565b91506111db82868686611f79565b600160a060020a038b81169116146111f257600080fd5b600160a060020a038a166000908152600960205260409020805460018101909155881461121e57600080fd5b8561122a57600061122e565b6000195b90508561123c57600061123e565b865b600160a060020a03808c166000908152600a60209081526040808320938e168352929052205561126f8a8a8361217b565b50505050505050505050565b600d54600090600160a060020a0316331461129557600080fd5b8115156112a15761109a565b50600d54600454600160a060020a03909116906112c4908363ffffffff611baf16565b600455600160a060020a0381166000908152600360205260409020546112f0908363ffffffff611baf16565b600160a060020a038216600081815260036020908152604091829020939093558051858152905191927f0f6798a560793a54c3bcfe86a93cde1e73087d944c0ea20544137d412139688592918290030190a2604080518381529051600160a060020a038316916000916000805160206126838339815191529181900360200190a35050565b60018054604080516020600284861615610100026000190190941693909304601f81018490048402820184019092528181529291830182828015610bd45780601f10610ba957610100808354040283529160200191610bd4565b600654600090600160a060020a031633146113e957600080fd5b600c546032116113f857600080fd5b61140182611ba7565b151561140c57600080fd5b611415826110d0565b1561141f57600080fd5b50600160a060020a036000819052600b602052600080516020612663833981519152541680151561144f57600080fd5b600b602052600080516020612663833981519152805473ffffffffffffffffffffffffffffffffffffffff19908116600160a060020a038581169182179093556000908152604090208054909116918316919091179055600c546114b4906001611baf565b600c55604051600160a060020a038316907f3cda433c5679ae4c6a5dea50840e222a42cba3695e4663de4366be899348422190600090a25050565b606080600080600c54604051908082528060200260200182016040528015611521578160200160208202803883390190505b50600160a060020a036000818152600b60205260008051602061266383398151915254929550935016905080151561155857600080fd5b600160a060020a03818116146115bc5780838381518110151561157757fe5b600160a060020a0392831660209182029092018101919091529181166000908152600b90925260409091205460019290920191168015156115b757600080fd5b611558565b509092915050565b600654600160a060020a031633146115db57600080fd5b6115e481611ba7565b15156115ef57600080fd5b6115f88161109e565b1561160257600080fd5b600e805473ffffffffffffffffffffffffffffffffffffffff1916600160a060020a0392909216919091179055565b600061163d8383610f9c565b9392505050565b600d54600090600160a060020a038481169116141561166257600080fd5b600e54600160a060020a038481169116141561167d57600080fd5b61163d83836122d6565b600e54600160a060020a0316331461169e57600080fd5b600160a060020a0382166000908152600360205260409020546116c7908263ffffffff61198b16565b600160a060020a0380841660009081526003602052604080822093909355600e54909116815220546116ff908263ffffffff611baf16565b600e8054600160a060020a0390811660009081526003602090815260409182902094909455915482518581529251908216939186169260008051602061268383398151915292908290030190a35050565b61175b338383610bf8565b505050565b61176b838383610bf8565b50505050565b7fea2aa0a1be11a07ed86d755c93467f4f82362b452371d1ba94d1715123511acb81565b600160a060020a0381565b600080428610156117b057600080fd5b600160a060020a03808a1660008181526009602090815260409182902080546001810190915582517f6e71edae12b1b97f4d1f60370fef10105fa2faae0126114a169c64845d6126c99281019290925281830193909352928b166060840152608083018a905260a0830182905260c08084018a90528151808503909101815260e09093019052925061184190611e72565b905061184f81868686611f79565b600160a060020a038a811691161461186657600080fd5b61187189898961199d565b505050505050505050565b336000908152600560209081526040808320600160a060020a03861684529091528120546118b0908363ffffffff611baf16565b336000818152600560209081526040808320600160a060020a0389168085529083529281902085905580519485525191936000805160206126a3833981519152929081900390910190a350600192915050565b600160a060020a03918216600090815260056020908152604080832093909416825291909152205490565b600e54600160a060020a031681565b61175b823383610bf8565b600654600160a060020a0316331461195f57600080fd5b610f38816122f8565b600c5481565b600a60209081526000928352604080842090915290825290205481565b60008282111561199757fe5b50900390565b6119a883838361217b565b60001981141561175b57600160a060020a038084166000908152600a60209081526040808320938616835292905290812055505050565b600080600160a060020a03851615156119f757600080fd5b600160a060020a0384161515611a0c57600080fd5b600160a060020a038516600090815260036020526040902054611a35908463ffffffff61198b16565b600160a060020a038087166000908152600360205260408082209390935590861681522054611a6a908463ffffffff611baf16565b600160a060020a03808616600081815260036020908152604091829020949094558051878152905191939289169260008051602061268383398151915292918290030190a3600160a060020a0385163314611b9157611ac98533611903565b90506000198114611b3357611ae4818463ffffffff61198b16565b600160a060020a0386166000818152600560209081526040808320338085529083529281902085905580519485525191936000805160206126a3833981519152929081900390910190a3611b91565b600160a060020a0385166000908152600a602090815260408083203384529091529020541580611b865750600160a060020a0385166000908152600a602090815260408083203384529091529020544211155b1515611b9157600080fd5b611b9c858585612376565b506001949350505050565b6000903b1190565b8181018281101561110457fe5b600061163d83836123ad565b600083600160a060020a031663a4c0ed3660e060020a028685856040516024018084600160a060020a0316600160a060020a0316815260200183815260200180602001828103825283818151815260200191508051906020019080838360005b83811015611c40578181015183820152602001611c28565b50505050905090810190601f168015611c6d5780820380516001836020036101000a031916815260200191505b5060408051601f198184030181529181526020820180517bffffffffffffffffffffffffffffffffffffffffffffffffffffffff167fffffffff00000000000000000000000000000000000000000000000000000000909916989098178852518151919790965086955093509150819050838360005b83811015611cfb578181015183820152602001611ce3565b50505050905090810190601f168015611d285780820380516001836020036101000a031916815260200191505b509150506000604051808303816000865af1979650505050505050565b600160a060020a038216600090815260036020526040902054811115611d6a57600080fd5b600160a060020a038216600090815260036020526040902054611d93908263ffffffff61198b16565b600160a060020a038316600090815260036020526040902055600454611dbf908263ffffffff61198b16565b600455604080518281529051600160a060020a038416917fcc16f5dbb4873280815c1ee09dbd06736cffcc184412cf7a71a0fdb75d397ca5919081900360200190a2604080518281529051600091600160a060020a038516916000805160206126838339815191529181900360200190a35050565b80600160a060020a0381161515611e4a57600080fd5b600160a060020a0383161515611e6857611e638261247c565b61175b565b61175b8383612488565b6000600854826040518082805190602001908083835b60208310611ea75780518252601f199092019160209182019101611e88565b51815160209384036101000a6000190180199092169116179052604080519290940182900382207f190100000000000000000000000000000000000000000000000000000000000083830152602283019790975260428083019790975283518083039097018752606290910192839052855192945084935085019190508083835b60208310611f475780518252601f199092019160209182019101611f28565b5181516020939093036101000a6000190180199091169216919091179052604051920182900390912095945050505050565b6000808460ff16601b1480611f9157508460ff16601c145b151561200d576040805160e560020a62461bcd02815260206004820152602260248201527f45434453413a20696e76616c6964207369676e6174757265202776272076616c60448201527f7565000000000000000000000000000000000000000000000000000000000000606482015290519081900360840190fd5b7f7fffffffffffffffffffffffffffffff5d576e7357a4501ddfe92f46681b20a08311156120ab576040805160e560020a62461bcd02815260206004820152602260248201527f45434453413a20696e76616c6964207369676e6174757265202773272076616c60448201527f7565000000000000000000000000000000000000000000000000000000000000606482015290519081900360840190fd5b60408051600080825260208083018085528a905260ff8916838501526060830188905260808301879052925160019360a0808501949193601f19840193928390039091019190865af1158015612105573d6000803e3d6000fd5b5050604051601f190151915050600160a060020a0381161515612172576040805160e560020a62461bcd02815260206004820152601860248201527f45434453413a20696e76616c6964207369676e61747572650000000000000000604482015290519081900360640190fd5b95945050505050565b600160a060020a0383161515612200576040805160e560020a62461bcd028152602060048201526024808201527f45524332303a20617070726f76652066726f6d20746865207a65726f2061646460448201527f7265737300000000000000000000000000000000000000000000000000000000606482015290519081900360840190fd5b600160a060020a0382161515612286576040805160e560020a62461bcd02815260206004820152602260248201527f45524332303a20617070726f766520746f20746865207a65726f20616464726560448201527f7373000000000000000000000000000000000000000000000000000000000000606482015290519081900360840190fd5b600160a060020a03808416600081815260056020908152604080832094871680845294825291829020859055815185815291516000805160206126a38339815191529281900390910190a3505050565b60006122e28383611bbc565b15156122ed57600080fd5b610be9338484612376565b600160a060020a038116151561230d57600080fd5b600654604051600160a060020a038084169216907f8be0079c531659141344cd1fd0a4f28419497f9722a3daafe3b4186f6b6457e090600090a36006805473ffffffffffffffffffffffffffffffffffffffff1916600160a060020a0392909216919091179055565b61237f826110d0565b1561175b576040805160008152602081019091526123a290849084908490611bc8565b151561175b57600080fd5b336000908152600360205260408120548211156123c957600080fd5b600160a060020a03831615156123de57600080fd5b336000908152600360205260409020546123fe908363ffffffff61198b16565b3360009081526003602052604080822092909255600160a060020a03851681522054612430908363ffffffff611baf16565b600160a060020a0384166000818152600360209081526040918290209390935580518581529051919233926000805160206126838339815191529281900390910190a350600192915050565b303161109a8282612535565b604080517f70a0823100000000000000000000000000000000000000000000000000000000815230600482015290518391600091600160a060020a038416916370a0823191602480830192602092919082900301818787803b1580156124ed57600080fd5b505af1158015612501573d6000803e3d6000fd5b505050506040513d602081101561251757600080fd5b5051905061176b600160a060020a038516848363ffffffff61259d16565b604051600160a060020a0383169082156108fc029083906000818181858888f19350505050151561109a57808261256a612632565b600160a060020a039091168152604051908190036020019082f080158015612596573d6000803e3d6000fd5b5050505050565b82600160a060020a031663a9059cbb83836040518363ffffffff1660e060020a0281526004018083600160a060020a0316600160a060020a0316815260200182815260200192505050600060405180830381600087803b15801561260057600080fd5b505af1158015612614573d6000803e3d6000fd5b505050503d1561175b5760206000803e600051151561175b57600080fd5b604051602180612642833901905600608060405260405160208060218339810160405251600160a060020a038116ff00bd0a91c9f9d084bad1a56f4df6c4c08bf6a3c9ff457e1c2f0ccbc02ffda9d3b1ddf252ad1be2c89b69c2b068fc378daa952ba7f163c4a11628f55a4df523b3ef8c5be1e5ebec7d5bd14f71427d1e84f3dd0314c0f7b2291e5b200ac8c7c3b925a165627a7a72305820f94e6ce38d77992d9757a589a15cd3f76bf0dd60e9f771fa1d8517344eabb8610029",
  "linkReferences": {},
  "deployedLinkReferences": {}
}