{
  "_format": "hh-sol-artifact-1",
  "contractName": "WETHOmnibridgeRouterV2",
  "sourceName": "contracts/routers/WETHOmnibridgeRouterV2/WETHOmnibridgeRouterV2.sol",
  "abi": [
    {
      "inputs": [
        {
          "internalType": "contract IOmnibridge",
          "name": "_bridge",
          "type": "address"
        },
        {
          "internalType": "contract IWETH",
          "name": "_weth",
          "type": "address"
        },
        {
          "internalType": "address",
          "name": "_owner",
          "type": "address"
        }
      ],
      "stateMutability": "nonpayable",
      "type": "constructor"
    },
    {
      "inputs": [
        {
          "internalType": "address",
          "name": "target",
          "type": "address"
        }
      ],
      "name": "AddressEmptyCode",
      "type": "error"
    },
    {
      "inputs": [
        {
          "internalType": "address",
          "name": "account",
          "type": "address"
        }
      ],
      "name": "AddressInsufficientBalance",
      "type": "error"
    },
    {
      "inputs": [],
      "name": "FailedInnerCall",
      "type": "error"
    },
    {
      "inputs": [],
      "name": "NotPayable",
      "type": "error"
    },
    {
      "inputs": [],
      "name": "ReentrancyGuard",
      "type": "error"
    },
    {
      "inputs": [
        {
          "internalType": "address",
          "name": "token",
          "type": "address"
        }
      ],
      "name": "SafeERC20FailedOperation",
      "type": "error"
    },
    {
      "inputs": [],
      "name": "RUNNER_SLOT",
      "outputs": [
        {
          "internalType": "bytes32",
          "name": "",
          "type": "bytes32"
        }
      ],
      "stateMutability": "view",
      "type": "function"
    },
    {
      "inputs": [],
      "name": "WETH",
      "outputs": [
        {
          "internalType": "contract IWETH",
          "name": "",
          "type": "address"
        }
      ],
      "stateMutability": "view",
      "type": "function"
    },
    {
      "inputs": [],
      "name": "bridge",
      "outputs": [
        {
          "internalType": "contract IOmnibridge",
          "name": "",
          "type": "address"
        }
      ],
      "stateMutability": "view",
      "type": "function"
    },
    {
      "inputs": [
        {
          "internalType": "address",
          "name": "_token",
          "type": "address"
        },
        {
          "internalType": "address",
          "name": "_to",
          "type": "address"
        }
      ],
      "name": "claimTokens",
      "outputs": [],
      "stateMutability": "nonpayable",
      "type": "function"
    },
    {
      "inputs": [
        {
          "internalType": "address",
          "name": "",
          "type": "address"
        }
      ],
      "name": "isValidator",
      "outputs": [
        {
          "internalType": "bool",
          "name": "",
          "type": "bool"
        }
      ],
      "stateMutability": "view",
      "type": "function"
    },
    {
      "inputs": [
        {
          "internalType": "address",
          "name": "_token",
          "type": "address"
        },
        {
          "internalType": "uint256",
          "name": "_value",
          "type": "uint256"
        },
        {
          "internalType": "bytes",
          "name": "_data",
          "type": "bytes"
        }
      ],
      "name": "onTokenBridged",
      "outputs": [],
      "stateMutability": "payable",
      "type": "function"
    },
    {
      "inputs": [],
      "name": "owner",
      "outputs": [
        {
          "internalType": "address",
          "name": "",
          "type": "address"
        }
      ],
      "stateMutability": "view",
      "type": "function"
    },
    {
      "inputs": [
        {
          "internalType": "address",
          "name": "_receiver",
          "type": "address"
        },
        {
          "internalType": "bytes",
          "name": "_data",
          "type": "bytes"
        }
      ],
      "name": "relayTokensAndCall",
      "outputs": [],
      "stateMutability": "payable",
      "type": "function"
    },
    {
      "inputs": [
        {
          "internalType": "address",
          "name": "runner",
          "type": "address"
        },
        {
          "internalType": "bytes",
          "name": "_data",
          "type": "bytes"
        },
        {
          "internalType": "bytes",
          "name": "_signatures",
          "type": "bytes"
        }
      ],
      "name": "safeExecuteSignaturesWithAutoGasLimit",
      "outputs": [],
      "stateMutability": "payable",
      "type": "function"
    },
    {
      "inputs": [
        {
          "internalType": "address",
          "name": "_validator",
          "type": "address"
        },
        {
          "internalType": "bool",
          "name": "_isValidator",
          "type": "bool"
        }
      ],
      "name": "setValidatorStatus",
      "outputs": [],
      "stateMutability": "payable",
      "type": "function"
    },
    {
      "inputs": [
        {
          "internalType": "address",
          "name": "_validatorsFilter",
          "type": "address"
        }
      ],
      "name": "setValidatorsFilter",
      "outputs": [],
      "stateMutability": "payable",
      "type": "function"
    },
    {
      "inputs": [
        {
          "internalType": "address",
          "name": "_newOwner",
          "type": "address"
        }
      ],
      "name": "transferOwnership",
      "outputs": [],
      "stateMutability": "nonpayable",
      "type": "function"
    },
    {
      "inputs": [],
      "name": "validatorsFilter",
      "outputs": [
        {
          "internalType": "address",
          "name": "",
          "type": "address"
        }
      ],
      "stateMutability": "view",
      "type": "function"
    },
    {
      "inputs": [],
      "name": "wrapAndRelayTokens",
      "outputs": [],
      "stateMutability": "payable",
      "type": "function"
    },
    {
      "inputs": [
        {
          "internalType": "address",
          "name": "_receiver",
          "type": "address"
        }
      ],
      "name": "wrapAndRelayTokens",
      "outputs": [],
      "stateMutability": "payable",
      "type": "function"
    },
    {
      "stateMutability": "payable",
      "type": "receive"
    }
  ],
  "bytecode": "0x60c06040523480156200001157600080fd5b5060405162001521380380620015218339810160408190526200003491620000f4565b600080546001600160a01b0319166001600160a01b0383811691909117909155838116608081905290831660a081905260405163095ea7b360e01b8152600481019290925260001960248301529063095ea7b390604401600060405180830381600087803b158015620000a657600080fd5b505af1158015620000bb573d6000803e3d6000fd5b5050600180546001600160a01b0319163017905550620001489350505050565b6001600160a01b0381168114620000f157600080fd5b50565b6000806000606084860312156200010a57600080fd5b83516200011781620000db565b60208501519093506200012a81620000db565b60408501519092506200013d81620000db565b809150509250925092565b60805160a05161137c620001a56000396000818160fc015281816102330152818161071f01528181610797015281816109960152610a4c01526000818161027a015281816104c6015281816107570152610a1c015261137c6000f3fe6080604052600436106100ec5760003560e01c80639562de591161008a578063e78cea9211610059578063e78cea9214610268578063f2fde38b1461029c578063f52cbf0e146102bc578063facd743b146102cf57600080fd5b80639562de59146101fb578063aca2490b1461020e578063ad5c464814610221578063db7af8541461025557600080fd5b8063633a8fa9116100c6578063633a8fa91461015b57806369ffa08a1461018357806370502107146101a35780638da5cb5b146101db57600080fd5b806301a754ff1461012d57806336768d3e146101355780634309b7141461014857600080fd5b3661012857336001600160a01b037f0000000000000000000000000000000000000000000000000000000000000000161461012657600080fd5b005b600080fd5b61012661030f565b610126610143366004610ddf565b61032a565b610126610156366004610e45565b6103cd565b34801561016757600080fd5b506101706105b7565b6040519081526020015b60405180910390f35b34801561018f57600080fd5b5061012661019e366004610ec8565b6105df565b3480156101af57600080fd5b506001546101c3906001600160a01b031681565b6040516001600160a01b03909116815260200161017a565b3480156101e757600080fd5b506000546101c3906001600160a01b031681565b610126610209366004610f01565b610604565b61012661021c366004610f64565b610649565b34801561022d57600080fd5b506101c37f000000000000000000000000000000000000000000000000000000000000000081565b610126610263366004610fd9565b61068b565b34801561027457600080fd5b506101c37f000000000000000000000000000000000000000000000000000000000000000081565b3480156102a857600080fd5b506101266102b7366004610ddf565b61093f565b6101266102ca366004610ddf565b610978565b3480156102db57600080fd5b506102ff6102ea366004610ddf565b60026020526000908152604090205460ff1681565b604051901515815260200161017a565b6103283360405180602001604052806000815250610994565b565b6000546001600160a01b0316331461034157600080fd5b60405163facd743b60e01b8152600060048201526001600160a01b0382169063facd743b90602401602060405180830381865afa158015610386573d6000803e3d6000fd5b505050506040513d601f19601f820116820180604052508101906103aa919061108a565b50600180546001600160a01b0319166001600160a01b0392909216919091179055565b6040516020016103dc906110a7565b604051602081830303815290604052805190602001206060866001600160a01b0316901b5a6bffffffffffffffffffffffff1617600082805490915015610436576040516345f5ce8b60e11b815260040160405180910390fd5b81815560015460405163facd743b60e01b81526001600160a01b038a811660048301529091169063facd743b90602401602060405180830381865afa158015610483573d6000803e3d6000fd5b505050506040513d601f19601f820116820180604052508101906104a7919061108a565b6104c457604051631574f9f360e01b815260040160405180910390fd5b7f00000000000000000000000000000000000000000000000000000000000000006001600160a01b031663cd5965836040518163ffffffff1660e01b8152600401602060405180830381865afa158015610522573d6000803e3d6000fd5b505050506040513d601f19601f8201168201806040525081019061054691906110de565b6001600160a01b03166323caab49888888886040518563ffffffff1660e01b81526004016105779493929190611124565b600060405180830381600087803b15801561059157600080fd5b505af11580156105a5573d6000803e3d6000fd5b50506000909255505050505050505050565b6040516020016105c6906110a7565b6040516020818303038152906040528051906020012081565b6000546001600160a01b031633146105f657600080fd5b6106008282610ab0565b5050565b6106448383838080601f01602080910402602001604051908101604052809392919081815260200183838082843760009201919091525061099492505050565b505050565b6000546001600160a01b0316331461066057600080fd5b6001600160a01b03919091166000908152600260205260409020805460ff1916911515919091179055565b60006106e16040516020016106c8906020808252601490820152731c99595b9d1c985b98de4b9d1c985b9cda595b9d60621b604082015260600190565b6040516020818303038152906040528051906020012090565b805490915060ff1615610707576040516345f5ce8b60e11b815260040160405180910390fd5b805460ff191660011781556001600160a01b038481167f0000000000000000000000000000000000000000000000000000000000000000919091161461074c57600080fd5b336001600160a01b037f0000000000000000000000000000000000000000000000000000000000000000161461078157600080fd5b604051632e1a7d4d60e01b8152600481018490527f00000000000000000000000000000000000000000000000000000000000000006001600160a01b031690632e1a7d4d90602401600060405180830381600087803b1580156107e357600080fd5b505af11580156107f7573d6000803e3d6000fd5b50505050815160140361081d57610818610812836014015190565b84610ae5565b610932565b60006108316040516020016106c8906110a7565b6000015490506000808590506000858060200190518101906108539190611156565b905083156109045780602001511561087157806040015192506108e6565b60005a61088c906bffffffffffffffffffffffff87166111e1565b905048670de0b6b3a764000083606001518361c3506108ab91906111f4565b6108b59190611207565b6108bf919061121e565b6108c99190611207565b9350816040015184116108dc57836108e2565b81604001515b9350505b8683116108f357826108f5565b865b925061090183886111e1565b91505b81156109165780516109169083610ae5565b821561092d57606084901c61092b8185610ae5565b505b505050505b805460ff19169055505050565b6000546001600160a01b0316331461095657600080fd5b600080546001600160a01b0319166001600160a01b0392909216919091179055565b6109918160405180602001604052806000815250610994565b50565b7f00000000000000000000000000000000000000000000000000000000000000006001600160a01b031663d0e30db0346040518263ffffffff1660e01b81526004016000604051808303818588803b1580156109ef57600080fd5b505af1158015610a03573d6000803e3d6000fd5b505060405163d740548160e01b81526001600160a01b037f000000000000000000000000000000000000000000000000000000000000000016935063d74054819250610a7a91507f000000000000000000000000000000000000000000000000000000000000000090869034908790600401611264565b600060405180830381600087803b158015610a9457600080fd5b505af1158015610aa8573d6000803e3d6000fd5b505050505050565b806001600160a01b038116610ac457600080fd5b6001600160a01b038316610adb5761064482610b4f565b6106448383610b5a565b6040516001600160a01b0383169082156108fc029083906000818181858888f19350505050610600578082604051610b1c90610dbe565b6001600160a01b0390911681526020016040518091039082f0905080158015610b49573d6000803e3d6000fd5b50505050565b476106008282610ae5565b6040516370a0823160e01b815230600482015282906000906001600160a01b038316906370a0823190602401602060405180830381865afa158015610ba3573d6000803e3d6000fd5b505050506040513d601f19601f82011682018060405250810190610bc791906112b8565b604080516001600160a01b03868116602483015260448083018590528351808403909101815260649092019092526020810180516001600160e01b031663a9059cbb60e01b179052919250610b499190841690859084906106449084906000610c308383610c83565b90508051600014158015610c55575080806020019051810190610c53919061108a565b155b1561064457604051635274afe760e01b81526001600160a01b03841660048201526024015b60405180910390fd5b6060610c9183836000610c9a565b90505b92915050565b606081471015610cbf5760405163cd78605960e01b8152306004820152602401610c7a565b600080856001600160a01b03168486604051610cdb91906112d1565b60006040518083038185875af1925050503d8060008114610d18576040519150601f19603f3d011682016040523d82523d6000602084013e610d1d565b606091505b5091509150610d2d868383610d39565b925050505b9392505050565b606082610d4e57610d4982610d95565b610d32565b8151158015610d6557506001600160a01b0384163b155b15610d8e57604051639996b31560e01b81526001600160a01b0385166004820152602401610c7a565b5080610d32565b805115610da55780518082602001fd5b604051630a12f52160e11b815260040160405180910390fd5b6059806112ee83390190565b6001600160a01b038116811461099157600080fd5b600060208284031215610df157600080fd5b8135610d3281610dca565b60008083601f840112610e0e57600080fd5b50813567ffffffffffffffff811115610e2657600080fd5b602083019150836020828501011115610e3e57600080fd5b9250929050565b600080600080600060608688031215610e5d57600080fd5b8535610e6881610dca565b9450602086013567ffffffffffffffff80821115610e8557600080fd5b610e9189838a01610dfc565b90965094506040880135915080821115610eaa57600080fd5b50610eb788828901610dfc565b969995985093965092949392505050565b60008060408385031215610edb57600080fd5b8235610ee681610dca565b91506020830135610ef681610dca565b809150509250929050565b600080600060408486031215610f1657600080fd5b8335610f2181610dca565b9250602084013567ffffffffffffffff811115610f3d57600080fd5b610f4986828701610dfc565b9497909650939450505050565b801515811461099157600080fd5b60008060408385031215610f7757600080fd5b8235610f8281610dca565b91506020830135610ef681610f56565b634e487b7160e01b600052604160045260246000fd5b604051601f8201601f1916810167ffffffffffffffff81118282101715610fd157610fd1610f92565b604052919050565b600080600060608486031215610fee57600080fd5b8335610ff981610dca565b92506020848101359250604085013567ffffffffffffffff8082111561101e57600080fd5b818701915087601f83011261103257600080fd5b81358181111561104457611044610f92565b611056601f8201601f19168501610fa8565b9150808252888482850101111561106c57600080fd5b80848401858401376000848284010152508093505050509250925092565b60006020828403121561109c57600080fd5b8151610d3281610f56565b60208082526017908201527f6f6d6e69627269646765726f757465722e72756e6e6572000000000000000000604082015260600190565b6000602082840312156110f057600080fd5b8151610d3281610dca565b81835281816020850137506000828201602090810191909152601f909101601f19169091010190565b6040815260006111386040830186886110fb565b828103602084015261114b8185876110fb565b979650505050505050565b60006080828403121561116857600080fd5b6040516080810181811067ffffffffffffffff8211171561118b5761118b610f92565b604052825161119981610dca565b815260208301516111a981610f56565b6020820152604083810151908201526060928301519281019290925250919050565b634e487b7160e01b600052601160045260246000fd5b81810381811115610c9457610c946111cb565b80820180821115610c9457610c946111cb565b8082028115828204841417610c9457610c946111cb565b60008261123b57634e487b7160e01b600052601260045260246000fd5b500490565b60005b8381101561125b578181015183820152602001611243565b50506000910152565b600060018060a01b0380871683528086166020840152508360408301526080606083015282518060808401526112a18160a0850160208701611240565b601f01601f19169190910160a00195945050505050565b6000602082840312156112ca57600080fd5b5051919050565b600082516112e3818460208701611240565b919091019291505056fe608060405260405160593803806059833981016040819052601e91602a565b806001600160a01b0316ff5b600060208284031215603b57600080fd5b81516001600160a01b0381168114605157600080fd5b939250505056fea26469706673582212203edfa939ed42c6d8696a51fcd20e93a882bde7fac5c58b617ea2630ccbe9664e64736f6c63430008180033",
  "linkReferences": {},
  "deployedLinkReferences": {}
}