{
  "_format": "hh-sol-artifact-1",
  "contractName": "AMBBridgeHelper",
  "sourceName": "contracts/helpers/AMBBridgeHelper.sol",
  "abi": [
    {
      "constant": true,
      "inputs": [],
      "name": "ambBridge",
      "outputs": [
        {
          "name": "",
          "type": "address"
        }
      ],
      "payable": false,
      "stateMutability": "view",
      "type": "function"
    },
    {
      "constant": true,
      "inputs": [
        {
          "name": "_message",
          "type": "bytes"
        }
      ],
      "name": "getSignatures",
      "outputs": [
        {
          "name": "",
          "type": "bytes"
        }
      ],
      "payable": false,
      "stateMutability": "view",
      "type": "function"
    },
    {
      "constant": true,
      "inputs": [],
      "name": "owner",
      "outputs": [
        {
          "name": "",
          "type": "address"
        }
      ],
      "payable": false,
      "stateMutability": "view",
      "type": "function"
    },
    {
      "constant": false,
      "inputs": [],
      "name": "clean",
      "outputs": [],
      "payable": false,
      "stateMutability": "nonpayable",
      "type": "function"
    },
    {
      "inputs": [
        {
          "name": "_homeBridge",
          "type": "address"
        }
      ],
      "payable": false,
      "stateMutability": "nonpayable",
      "type": "constructor"
    }
  ],
  "bytecode": "0x608060405234801561001057600080fd5b50604051602080610693833981016040525160008054600160a060020a0319908116331790915560018054600160a060020a03909316929091169190911790556106348061005f6000396000f3006080604052600436106100615763ffffffff7c01000000000000000000000000000000000000000000000000000000006000350416630ba54df681146100665780636b45b4e3146100975780638da5cb5b1461012c578063fc4333cd14610141575b600080fd5b34801561007257600080fd5b5061007b610158565b60408051600160a060020a039092168252519081900360200190f35b3480156100a357600080fd5b506100b76004803560248101910135610167565b6040805160208082528351818301528351919283929083019185019080838360005b838110156100f15781810151838201526020016100d9565b50505050905090810190601f16801561011e5780820380516001836020036101000a031916815260200191505b509250505060405180910390f35b34801561013857600080fd5b5061007b610546565b34801561014d57600080fd5b50610156610555565b005b600154600160a060020a031681565b606060008060606000606060008060008a8a604051602001808383808284378201915050925050506040516020818303038152906040526040518082805190602001908083835b602083106101cd5780518252601f1990920191602091820191016101ae565b51815160209384036101000a6000190180199092169116179052604080519290940182900382206001547f0cbf0601000000000000000000000000000000000000000000000000000000008452600484018290529451909e50600160a060020a039094169550630cbf0601945060248083019491935090918290030181600087803b15801561025b57600080fd5b505af115801561026f573d6000803e3d6000fd5b505050506040513d602081101561028557600080fd5b5051600154604080517fffd19e8c000000000000000000000000000000000000000000000000000000008152600481018490529051929950600160a060020a039091169163ffd19e8c916024808201926020929091908290030181600087803b1580156102f157600080fd5b505af1158015610305573d6000803e3d6000fd5b505050506040513d602081101561031b57600080fd5b5051151561038a57604080517f08c379a000000000000000000000000000000000000000000000000000000000815260206004820152601d60248201527f6d657373616765206861736e2774206265656e20636f6e6669726d6564000000604482015290519081900360640190fd5b758fffffffffffffffffffffffffffffffffffffffffff9096169561010087106103b357600080fd5b866041026001016040519080825280601f01601f1916602001820160405280156103e7578160200160208202803883390190505b509550866020870153600094505b8685101561053757600154604080517f1812d996000000000000000000000000000000000000000000000000000000008152600481018b9052602481018890529051600160a060020a0390921691631812d9969160448082019260009290919082900301818387803b15801561046a57600080fd5b505af115801561047e573d6000803e3d6000fd5b505050506040513d6000823e601f3d908101601f1916820160405260208110156104a757600080fd5b8101908080516401000000008111156104bf57600080fd5b820160208101848111156104d257600080fd5b81516401000000008111828201871017156104ec57600080fd5b505092919050505093506104ff846105dc565b9250925092508085602188010153826020860288602189010101528160208602602189026021890101015284806001019550506103f5565b50939998505050505050505050565b600054600160a060020a031681565b600054600160a060020a031633146105ce57604080517f08c379a000000000000000000000000000000000000000000000000000000000815260206004820152600c60248201527f6e6f7420616e206f776e65720000000000000000000000000000000000000000604482015290519081900360640190fd5b600054600160a060020a0316ff5b6000806000835160411415156105f157600080fd5b5050506020810151604082015160419092015190925600a165627a7a72305820f50a68a36352560f89975ebcb7950a715e9046eaeba01f3955b6ff1b2631fb2e0029",
  "linkReferences": {},
  "deployedLinkReferences": {}
}