{
  "_format": "hh-sol-artifact-1",
  "contractName": "ForeignBridgeErcToNative",
  "sourceName": "contracts/upgradeable_contracts/erc20_to_native/ForeignBridgeErcToNative.sol",
  "abi": [
    {
      "constant": false,
      "inputs": [
        {
          "name": "_receiver",
          "type": "address"
        },
        {
          "name": "_amount",
          "type": "uint256"
        }
      ],
      "name": "relayTokens",
      "outputs": [],
      "payable": false,
      "stateMutability": "nonpayable",
      "type": "function"
    },
    {
      "constant": true,
      "inputs": [],
      "name": "erc20token",
      "outputs": [
        {
          "name": "",
          "type": "address"
        }
      ],
      "payable": false,
      "stateMutability": "view",
      "type": "function"
    },
    {
      "constant": true,
      "inputs": [
        {
          "name": "_txHash",
          "type": "bytes32"
        }
      ],
      "name": "relayedMessages",
      "outputs": [
        {
          "name": "",
          "type": "bool"
        }
      ],
      "payable": false,
      "stateMutability": "view",
      "type": "function"
    },
    {
      "constant": true,
      "inputs": [
        {
          "name": "_day",
          "type": "uint256"
        }
      ],
      "name": "totalSpentPerDay",
      "outputs": [
        {
          "name": "",
          "type": "uint256"
        }
      ],
      "payable": false,
      "stateMutability": "view",
      "type": "function"
    },
    {
      "constant": true,
      "inputs": [],
      "name": "isInitialized",
      "outputs": [
        {
          "name": "",
          "type": "bool"
        }
      ],
      "payable": false,
      "stateMutability": "view",
      "type": "function"
    },
    {
      "constant": false,
      "inputs": [
        {
          "name": "_dailyLimit",
          "type": "uint256"
        }
      ],
      "name": "setExecutionDailyLimit",
      "outputs": [],
      "payable": false,
      "stateMutability": "nonpayable",
      "type": "function"
    },
    {
      "constant": true,
      "inputs": [],
      "name": "getCurrentDay",
      "outputs": [
        {
          "name": "",
          "type": "uint256"
        }
      ],
      "payable": false,
      "stateMutability": "view",
      "type": "function"
    },
    {
      "constant": true,
      "inputs": [],
      "name": "requiredBlockConfirmations",
      "outputs": [
        {
          "name": "",
          "type": "uint256"
        }
      ],
      "payable": false,
      "stateMutability": "view",
      "type": "function"
    },
    {
      "constant": false,
      "inputs": [
        {
          "name": "message",
          "type": "bytes"
        },
        {
          "name": "signatures",
          "type": "bytes"
        }
      ],
      "name": "executeSignatures",
      "outputs": [],
      "payable": false,
      "stateMutability": "nonpayable",
      "type": "function"
    },
    {
      "constant": true,
      "inputs": [],
      "name": "getBridgeMode",
      "outputs": [
        {
          "name": "_data",
          "type": "bytes4"
        }
      ],
      "payable": false,
      "stateMutability": "pure",
      "type": "function"
    },
    {
      "constant": true,
      "inputs": [],
      "name": "executionDailyLimit",
      "outputs": [
        {
          "name": "",
          "type": "uint256"
        }
      ],
      "payable": false,
      "stateMutability": "view",
      "type": "function"
    },
    {
      "constant": true,
      "inputs": [
        {
          "name": "_day",
          "type": "uint256"
        }
      ],
      "name": "totalExecutedPerDay",
      "outputs": [
        {
          "name": "",
          "type": "uint256"
        }
      ],
      "payable": false,
      "stateMutability": "view",
      "type": "function"
    },
    {
      "constant": true,
      "inputs": [],
      "name": "dailyLimit",
      "outputs": [
        {
          "name": "",
          "type": "uint256"
        }
      ],
      "payable": false,
      "stateMutability": "view",
      "type": "function"
    },
    {
      "constant": false,
      "inputs": [
        {
          "name": "_token",
          "type": "address"
        },
        {
          "name": "_to",
          "type": "address"
        }
      ],
      "name": "claimTokens",
      "outputs": [],
      "payable": false,
      "stateMutability": "nonpayable",
      "type": "function"
    },
    {
      "constant": false,
      "inputs": [
        {
          "name": "_validatorContract",
          "type": "address"
        },
        {
          "name": "_erc20token",
          "type": "address"
        },
        {
          "name": "_requiredBlockConfirmations",
          "type": "uint256"
        },
        {
          "name": "_gasPrice",
          "type": "uint256"
        },
        {
          "name": "_dailyLimitMaxPerTxMinPerTxArray",
          "type": "uint256[3]"
        },
        {
          "name": "_homeDailyLimitHomeMaxPerTxArray",
          "type": "uint256[2]"
        },
        {
          "name": "_owner",
          "type": "address"
        },
        {
          "name": "_decimalShift",
          "type": "int256"
        },
        {
          "name": "_bridgeOnOtherSide",
          "type": "address"
        }
      ],
      "name": "initialize",
      "outputs": [
        {
          "name": "",
          "type": "bool"
        }
      ],
      "payable": false,
      "stateMutability": "nonpayable",
      "type": "function"
    },
    {
      "constant": true,
      "inputs": [
        {
          "name": "_amount",
          "type": "uint256"
        }
      ],
      "name": "withinExecutionLimit",
      "outputs": [
        {
          "name": "",
          "type": "bool"
        }
      ],
      "payable": false,
      "stateMutability": "view",
      "type": "function"
    },
    {
      "constant": true,
      "inputs": [],
      "name": "executionMaxPerTx",
      "outputs": [
        {
          "name": "",
          "type": "uint256"
        }
      ],
      "payable": false,
      "stateMutability": "view",
      "type": "function"
    },
    {
      "constant": true,
      "inputs": [],
      "name": "requiredSignatures",
      "outputs": [
        {
          "name": "",
          "type": "uint256"
        }
      ],
      "payable": false,
      "stateMutability": "view",
      "type": "function"
    },
    {
      "constant": true,
      "inputs": [],
      "name": "owner",
      "outputs": [
        {
          "name": "",
          "type": "address"
        }
      ],
      "payable": false,
      "stateMutability": "view",
      "type": "function"
    },
    {
      "constant": true,
      "inputs": [],
      "name": "maxAvailablePerTx",
      "outputs": [
        {
          "name": "",
          "type": "uint256"
        }
      ],
      "payable": false,
      "stateMutability": "view",
      "type": "function"
    },
    {
      "constant": true,
      "inputs": [],
      "name": "validatorContract",
      "outputs": [
        {
          "name": "",
          "type": "address"
        }
      ],
      "payable": false,
      "stateMutability": "view",
      "type": "function"
    },
    {
      "constant": true,
      "inputs": [],
      "name": "deployedAtBlock",
      "outputs": [
        {
          "name": "",
          "type": "uint256"
        }
      ],
      "payable": false,
      "stateMutability": "view",
      "type": "function"
    },
    {
      "constant": true,
      "inputs": [],
      "name": "getBridgeInterfacesVersion",
      "outputs": [
        {
          "name": "major",
          "type": "uint64"
        },
        {
          "name": "minor",
          "type": "uint64"
        },
        {
          "name": "patch",
          "type": "uint64"
        }
      ],
      "payable": false,
      "stateMutability": "pure",
      "type": "function"
    },
    {
      "constant": false,
      "inputs": [
        {
          "name": "_minPerTx",
          "type": "uint256"
        }
      ],
      "name": "setMinPerTx",
      "outputs": [],
      "payable": false,
      "stateMutability": "nonpayable",
      "type": "function"
    },
    {
      "constant": false,
      "inputs": [
        {
          "name": "_blockConfirmations",
          "type": "uint256"
        }
      ],
      "name": "setRequiredBlockConfirmations",
      "outputs": [],
      "payable": false,
      "stateMutability": "nonpayable",
      "type": "function"
    },
    {
      "constant": false,
      "inputs": [
        {
          "name": "_dailyLimit",
          "type": "uint256"
        }
      ],
      "name": "setDailyLimit",
      "outputs": [],
      "payable": false,
      "stateMutability": "nonpayable",
      "type": "function"
    },
    {
      "constant": false,
      "inputs": [
        {
          "name": "_gasPrice",
          "type": "uint256"
        }
      ],
      "name": "setGasPrice",
      "outputs": [],
      "payable": false,
      "stateMutability": "nonpayable",
      "type": "function"
    },
    {
      "constant": false,
      "inputs": [
        {
          "name": "_maxPerTx",
          "type": "uint256"
        }
      ],
      "name": "setMaxPerTx",
      "outputs": [],
      "payable": false,
      "stateMutability": "nonpayable",
      "type": "function"
    },
    {
      "constant": true,
      "inputs": [],
      "name": "decimalShift",
      "outputs": [
        {
          "name": "",
          "type": "int256"
        }
      ],
      "payable": false,
      "stateMutability": "view",
      "type": "function"
    },
    {
      "constant": true,
      "inputs": [],
      "name": "minPerTx",
      "outputs": [
        {
          "name": "",
          "type": "uint256"
        }
      ],
      "payable": false,
      "stateMutability": "view",
      "type": "function"
    },
    {
      "constant": true,
      "inputs": [
        {
          "name": "_amount",
          "type": "uint256"
        }
      ],
      "name": "withinLimit",
      "outputs": [
        {
          "name": "",
          "type": "bool"
        }
      ],
      "payable": false,
      "stateMutability": "view",
      "type": "function"
    },
    {
      "constant": false,
      "inputs": [
        {
          "name": "_maxPerTx",
          "type": "uint256"
        }
      ],
      "name": "setExecutionMaxPerTx",
      "outputs": [],
      "payable": false,
      "stateMutability": "nonpayable",
      "type": "function"
    },
    {
      "constant": false,
      "inputs": [
        {
          "name": "newOwner",
          "type": "address"
        }
      ],
      "name": "transferOwnership",
      "outputs": [],
      "payable": false,
      "stateMutability": "nonpayable",
      "type": "function"
    },
    {
      "constant": true,
      "inputs": [],
      "name": "maxPerTx",
      "outputs": [
        {
          "name": "",
          "type": "uint256"
        }
      ],
      "payable": false,
      "stateMutability": "view",
      "type": "function"
    },
    {
      "constant": true,
      "inputs": [],
      "name": "gasPrice",
      "outputs": [
        {
          "name": "",
          "type": "uint256"
        }
      ],
      "payable": false,
      "stateMutability": "view",
      "type": "function"
    },
    {
      "anonymous": false,
      "inputs": [
        {
          "indexed": false,
          "name": "recipient",
          "type": "address"
        },
        {
          "indexed": false,
          "name": "value",
          "type": "uint256"
        },
        {
          "indexed": false,
          "name": "transactionHash",
          "type": "bytes32"
        }
      ],
      "name": "RelayedMessage",
      "type": "event"
    },
    {
      "anonymous": false,
      "inputs": [
        {
          "indexed": false,
          "name": "recipient",
          "type": "address"
        },
        {
          "indexed": false,
          "name": "value",
          "type": "uint256"
        }
      ],
      "name": "UserRequestForAffirmation",
      "type": "event"
    },
    {
      "anonymous": false,
      "inputs": [
        {
          "indexed": false,
          "name": "newLimit",
          "type": "uint256"
        }
      ],
      "name": "DailyLimitChanged",
      "type": "event"
    },
    {
      "anonymous": false,
      "inputs": [
        {
          "indexed": false,
          "name": "newLimit",
          "type": "uint256"
        }
      ],
      "name": "ExecutionDailyLimitChanged",
      "type": "event"
    },
    {
      "anonymous": false,
      "inputs": [
        {
          "indexed": false,
          "name": "gasPrice",
          "type": "uint256"
        }
      ],
      "name": "GasPriceChanged",
      "type": "event"
    },
    {
      "anonymous": false,
      "inputs": [
        {
          "indexed": false,
          "name": "requiredBlockConfirmations",
          "type": "uint256"
        }
      ],
      "name": "RequiredBlockConfirmationChanged",
      "type": "event"
    },
    {
      "anonymous": false,
      "inputs": [
        {
          "indexed": false,
          "name": "previousOwner",
          "type": "address"
        },
        {
          "indexed": false,
          "name": "newOwner",
          "type": "address"
        }
      ],
      "name": "OwnershipTransferred",
      "type": "event"
    }
  ],
  "bytecode": "0x608060405234801561001057600080fd5b50612a49806100206000396000f30060806040526004361061019d5763ffffffff60e060020a60003504166301e4f53a81146101a25780631dcea427146101c857806321d800ec146101f95780632bd0bb0514610225578063392e53cd1461024f5780633dd95d1b146102645780633e6968b61461027c5780633f0a9f65146102915780633f7658fd146102a6578063437764df146102d257806343b37dd31461031c5780634fb3fef71461033157806367eeba0c1461034957806369ffa08a1461035e5780636da8b99614610385578063879ce676146103cd5780638aa1949a146103e55780638d068043146103fa5780638da5cb5b1461040f57806395e54a171461042457806399439089146104395780639a454b991461044e5780639cb7595a14610463578063a2a6ca27146104a4578063acf5c689146104bc578063b20d30a9146104d4578063bf1fe420146104ec578063c6f6f21614610504578063dae5f0fd1461051c578063df25f3f014610531578063ea9f496814610546578063f20151e11461055e578063f2fde38b14610576578063f968adbe14610597578063fe173b97146105ac575b600080fd5b3480156101ae57600080fd5b506101c6600160a060020a03600435166024356105c1565b005b3480156101d457600080fd5b506101dd61072b565b60408051600160a060020a039092168252519081900360200190f35b34801561020557600080fd5b50610211600435610782565b604080519115158252519081900360200190f35b34801561023157600080fd5b5061023d60043561084b565b60408051918252519081900360200190f35b34801561025b57600080fd5b50610211610908565b34801561027057600080fd5b506101c6600435610959565b34801561028857600080fd5b5061023d610a19565b34801561029d57600080fd5b5061023d610a22565b3480156102b257600080fd5b506101c66024600480358281019290820135918135918201910135610a70565b3480156102de57600080fd5b506102e7610be5565b604080517fffffffff000000000000000000000000000000000000000000000000000000009092168252519081900360200190f35b34801561032857600080fd5b5061023d610c09565b34801561033d57600080fd5b5061023d600435610c57565b34801561035557600080fd5b5061023d610cd2565b34801561036a57600080fd5b506101c6600160a060020a0360043581169060243516610d20565b34801561039157600080fd5b50610211600160a060020a03600435811690602435811690604435906064359060849060e4906101243581169061014435906101643516610dcc565b3480156103d957600080fd5b506102116004356110a4565b3480156103f157600080fd5b5061023d6110ee565b34801561040657600080fd5b5061023d61113c565b34801561041b57600080fd5b506101dd6111b4565b34801561043057600080fd5b5061023d61120b565b34801561044557600080fd5b506101dd611265565b34801561045a57600080fd5b5061023d6112bc565b34801561046f57600080fd5b5061047861130a565b6040805167ffffffffffffffff9485168152928416602084015292168183015290519081900360600190f35b3480156104b057600080fd5b506101c6600435611315565b3480156104c857600080fd5b506101c66004356113b1565b3480156104e057600080fd5b506101c66004356113d9565b3480156104f857600080fd5b506101c6600435611499565b34801561051057600080fd5b506101c66004356114be565b34801561052857600080fd5b5061023d611556565b34801561053d57600080fd5b5061023d6115a4565b34801561055257600080fd5b506102116004356115f2565b34801561056a57600080fd5b506101c660043561163d565b34801561058257600080fd5b506101c6600160a060020a03600435166116b9565b3480156105a357600080fd5b5061023d6116de565b3480156105b857600080fd5b5061023d61172c565b6105c961177a565b600160a060020a03838116911614156105e157600080fd5b600160a060020a03821615156105f657600080fd5b600160a060020a03821630141561060c57600080fd5b6000811161061957600080fd5b610622816115f2565b151561062d57600080fd5b61063e610638610a19565b826117d1565b61064661072b565b604080517f23b872dd000000000000000000000000000000000000000000000000000000008152336004820152306024820152604481018490529051600160a060020a0392909216916323b872dd916064808201926020929091908290030181600087803b1580156106b757600080fd5b505af11580156106cb573d6000803e3d6000fd5b505050506040513d60208110156106e157600080fd5b505060408051600160a060020a03841681526020810183905281517f1d491a427d1f8cc0d447496f300fac39f7306122481d8e663451eb268274146b929181900390910190a15050565b7f15d63b18dbc21bf4438b7972d80076747e1d93c4f87552fe498c90cbde51665e60005260026020527f70dfdbaec92bfd068fb9a67f8c22440e995abe75330f5b6b79a478c9bc8ccbd154600160a060020a031690565b6000600460008360405160200180807f72656c617965644d657373616765730000000000000000000000000000000000815250600f0182600019166000191681526020019150506040516020818303038152906040526040518082805190602001908083835b602083106108075780518252601f1990920191602091820191016107e8565b51815160209384036101000a600019018019909216911617905260408051929094018290039091208652850195909552929092016000205460ff1695945050505050565b60008060008360405160200180807f746f74616c5370656e74506572446179000000000000000000000000000000008152506010018281526020019150506040516020818303038152906040526040518082805190602001908083835b602083106108c75780518252601f1990920191602091820191016108a8565b51815160209384036101000a600019018019909216911617905260408051929094018290039091208652850195909552929092016000205495945050505050565b7f0a6f646cd611241d8073675e00d1a1ff700fbf1b53fcf473de56d1e6e4b714ba60005260046020527f078d888f9b66f3f8bfa10909e31f1e16240db73449f0500afdbbe3a70da457cc5460ff1690565b6109616111b4565b600160a060020a0316331461097557600080fd5b61097d6110ee565b811180610988575080155b151561099357600080fd5b7f21dbcab260e413c20dc13c28b7db95e2b423d1135f42bb8b7d5214a92270d237600090815260209081527fadd938dbd083a16bae12238cd914fca0afc7a30edb55b1cd5c7f1823f1b0e4218290556040805183815290517f9bebf928b90863f24cc31f726a3a7545efd409f1dcf552301b1ee3710da70d3b929181900390910190a150565b62015180420490565b7f916daedf6915000ff68ced2f0b6773fe6f2582237f92c3c95bb4d7940723007160009081526020527fd2ea0feb732edb0ffe32efd33a6b9d24d46b16eb34a4d07ce256537b6f131e425490565b600080600080610ae888888080601f0160208091040260200160405190810160405280939291908181526020018383808284375050604080516020601f8e018190048102820181019092528c815294508c93508b9250829150840183828082843750610ae194506112659350505050565b600061189a565b610b2188888080601f01602080910402602001604051908101604052809392919081815260200183838082843750611b24945050505050565b92965090945092509050610b34836110a4565b15610bd057600160a060020a0381163014610b4e57600080fd5b610b5782610782565b15610b6157600080fd5b610b6c826001611b5f565b610b77848484611c31565b1515610b8257600080fd5b60408051600160a060020a03861681526020810185905280820184905290517f4ab7d581336d92edbea22636a613e8e76c99ac7f91137c1523db38dbfb3bf3299181900360600190a1610bdb565b610bdb84848461019d565b5050505050505050565b7f18762d460000000000000000000000000000000000000000000000000000000090565b7f21dbcab260e413c20dc13c28b7db95e2b423d1135f42bb8b7d5214a92270d23760009081526020527fadd938dbd083a16bae12238cd914fca0afc7a30edb55b1cd5c7f1823f1b0e4215490565b60008060008360405160200180807f746f74616c457865637574656450657244617900000000000000000000000000815250601301828152602001915050604051602081830303815290604052604051808280519060200190808383602083106108c75780518252601f1990920191602091820191016108a8565b7f4a6a899679f26b73530d8cf1001e83b6f7702e04b6fdb98f3c62dc7e47e041a560009081526020527f1ab29a5cca988aee50edccdd61c5bcaa7ad4b29a03b7ee50f298ceccfe14cc4e5490565b30600160a060020a0316636fde82026040518163ffffffff1660e060020a028152600401602060405180830381600087803b158015610d5e57600080fd5b505af1158015610d72573d6000803e3d6000fd5b505050506040513d6020811015610d8857600080fd5b5051600160a060020a03163314610d9e57600080fd5b610da661072b565b600160a060020a0383811691161415610dbe57600080fd5b610dc88282611cea565b5050565b60408051600481526024810182526020810180517bffffffffffffffffffffffffffffffffffffffffffffffffffffffff167f6fde8202000000000000000000000000000000000000000000000000000000001781529151815160009330939291829190808383895b83811015610e4d578181015183820152602001610e35565b50505050905090810190601f168015610e7a5780820380516001836020036101000a031916815260200191505b509150506000604051808303816000865af19150501580610f0c575030600160a060020a0316636fde82026040518163ffffffff1660e060020a028152600401602060405180830381600087803b158015610ed457600080fd5b505af1158015610ee8573d6000803e3d6000fd5b505050506040513d6020811015610efe57600080fd5b5051600160a060020a031633145b80610f1657503330145b1515610f2157600080fd5b610f29610908565b15610f3357600080fd5b610f3c8a611d2d565b1515610f4757600080fd5b7f5a74bb7e202fb8e4bf311841c7d64ec19df195fee77d7e7ae749b27921b6ddfe60005260026020527fab54f3fbbe62c59b7876a9bf9bd5e0c22dbae93f4d8ee0438f7ce62b198eb0e0805473ffffffffffffffffffffffffffffffffffffffff1916600160a060020a038c16179055610fc089611d35565b7fb120ceec05576ad0c710bc6e85f1768535e27554458f05dcbb5c65b8c7a749b06000908152602052437fe66bef0282a446f9848e2903380099bb6e431483ee78778868f33b4a154c818b5561101588611dc0565b61101e87611e53565b604080516060818101909252611046918890600390839083908082843750611e699350505050565b60408051808201825261106b918790600290839083908082843750611fc69350505050565b6110748361209b565b61107d84612104565b611086826121db565b61108e612267565b611096610908565b9a9950505050505050505050565b6000806110c7836110bb6110b6610a19565b610c57565b9063ffffffff6122be16565b9050806110d2610c09565b101580156110e757506110e36110ee565b8311155b9392505050565b7fc0ed44c192c86d1cc1ba51340b032c2766b4a2b0041031de13c46dd7104888d560009081526020527ff8e983ee86e5e377e9e34c9131b266382c3f04113d20de077f9e12663c7a646b5490565b6000611146611265565b600160a060020a0316638d0680436040518163ffffffff1660e060020a028152600401602060405180830381600087803b15801561118357600080fd5b505af1158015611197573d6000803e3d6000fd5b505050506040513d60208110156111ad57600080fd5b5051905090565b7f02016836a56b71f0d02689e69e326f4f4c1b9057164ef592671cf0d37c8040c060005260026020527fb7802e97e87ef2842a6cce7da7ffaeaedaa2f61a6a7870b23d9d01fc9b73712e54600160a060020a031690565b600080600080600061121b6116de565b9350611225610cd2565b9250611237611232610a19565b61084b565b915081831161124757600061124b565b8183035b905080841061125a578061125c565b835b94505050505090565b7f5a74bb7e202fb8e4bf311841c7d64ec19df195fee77d7e7ae749b27921b6ddfe60005260026020527fab54f3fbbe62c59b7876a9bf9bd5e0c22dbae93f4d8ee0438f7ce62b198eb0e054600160a060020a031690565b7fb120ceec05576ad0c710bc6e85f1768535e27554458f05dcbb5c65b8c7a749b060009081526020527fe66bef0282a446f9848e2903380099bb6e431483ee78778868f33b4a154c818b5490565b600660016000909192565b61131d6111b4565b600160a060020a0316331461133157600080fd5b6000811180156113475750611344610cd2565b81105b801561135957506113566116de565b81105b151561136457600080fd5b7fbbb088c505d18e049d114c7c91f11724e69c55ad6c5397e2b929e68b41fa05d160009081526020527f8df5c48c6b6e11d97548adc824ba0c99103ec09830fa5d53a179984085e6eaa055565b6113b96111b4565b600160a060020a031633146113cd57600080fd5b6113d681611dc0565b50565b6113e16111b4565b600160a060020a031633146113f557600080fd5b6113fd6116de565b811180611408575080155b151561141357600080fd5b7f4a6a899679f26b73530d8cf1001e83b6f7702e04b6fdb98f3c62dc7e47e041a5600090815260209081527f1ab29a5cca988aee50edccdd61c5bcaa7ad4b29a03b7ee50f298ceccfe14cc4e8290556040805183815290517fad4123ae17c414d9c6d2fec478b402e6b01856cc250fd01fbfd252fda0089d3c929181900390910190a150565b6114a16111b4565b600160a060020a031633146114b557600080fd5b6113d681611e53565b6114c66111b4565b600160a060020a031633146114da57600080fd5b8015806114fe57506114ea6115a4565b811180156114fe57506114fb610cd2565b81105b151561150957600080fd5b7f0f8803acad17c63ee38bf2de71e1888bc7a079a6f73658e274b08018bea4e29c60009081526020527f9de0f81379b4d8e60fe509315d071b56e7b732abaf193e74e0d15808b0951d0955565b7f1e8ecaafaddea96ed9ac6d2642dcdfe1bebe58a930b1085842d8fc122b371ee560009081526020527fd5c78dd9468716ca9bb96be25d56436811b20aab3523a9904b12deef1cab239d5490565b7fbbb088c505d18e049d114c7c91f11724e69c55ad6c5397e2b929e68b41fa05d160009081526020527f8df5c48c6b6e11d97548adc824ba0c99103ec09830fa5d53a179984085e6eaa05490565b600080611604836110bb611232610a19565b90508061160f610cd2565b1015801561162457506116206116de565b8311155b80156110e757506116336115a4565b9092101592915050565b6116456111b4565b600160a060020a0316331461165957600080fd5b611661610c09565b811061166c57600080fd5b7fc0ed44c192c86d1cc1ba51340b032c2766b4a2b0041031de13c46dd7104888d560009081526020527ff8e983ee86e5e377e9e34c9131b266382c3f04113d20de077f9e12663c7a646b55565b6116c16111b4565b600160a060020a031633146116d557600080fd5b6113d681612104565b7f0f8803acad17c63ee38bf2de71e1888bc7a079a6f73658e274b08018bea4e29c60009081526020527f9de0f81379b4d8e60fe509315d071b56e7b732abaf193e74e0d15808b0951d095490565b7f55b3774520b5993024893d303890baa4e84b1244a43c60034d1ced2d3cf2b04b60009081526020527ff7d5eefab3776d7f0450bd0193564bcb4f832ce313ff2836c450fc63a4b944195490565b7f71483949fe7a14d16644d63320f24d10cf1d60abecc30cc677a340e82b699dd260005260026020527f21ffdf150a5d180f96d98d16f50e7b4dd63e2a067adc8386cf5af55dcecd8dd954600160a060020a031690565b6117de816110bb8461084b565b6000808460405160200180807f746f74616c5370656e74506572446179000000000000000000000000000000008152506010018281526020019150506040516020818303038152906040526040518082805190602001908083835b602083106118585780518252601f199092019160209182019101611839565b51815160209384036101000a60001901801990921691161790526040805192909401829003909120865285019590955292909201600020939093555050505050565b6000806000606060008060008060008060008b806118bc57506118bc8f6122d1565b15156118c757600080fd5b8c600160a060020a0316638d0680436040518163ffffffff1660e060020a028152600401602060405180830381600087803b15801561190557600080fd5b505af1158015611919573d6000803e3d6000fd5b505050506040513d602081101561192f57600080fd5b505160018f0151909b5060ff1699508a8a101561194b57600080fd5b6119558f8d6122e5565b98508a604051908082528060200260200182016040528015611981578160200160208202803883390190505b509750600096505b8a871015611b1357866020028a6021010192508960200283019150866002018e01519550828e01519450818e01519350600189878787604051600081526020016040526040518085600019166000191681526020018460ff1660ff1681526020018360001916600019168152602001826000191660001916815260200194505050505060206040516020810390808403906000865af1158015611a30573d6000803e3d6000fd5b5050506020604051035190508c600160a060020a031663facd743b826040518263ffffffff1660e060020a0281526004018082600160a060020a0316600160a060020a03168152602001915050602060405180830381600087803b158015611a9757600080fd5b505af1158015611aab573d6000803e3d6000fd5b505050506040513d6020811015611ac157600080fd5b50511515611ace57600080fd5b611ad888826124ff565b15611ae257600080fd5b808888815181101515611af157fe5b600160a060020a03909216602092830290910190910152600190960195611989565b505050505050505050505050505050565b600080600080611b33856122d1565b1515611b3e57600080fd5b50505050601481015160348201516054830151606890930151919390929190565b80600460008460405160200180807f72656c617965644d657373616765730000000000000000000000000000000000815250600f0182600019166000191681526020019150506040516020818303038152906040526040518082805190602001908083835b60208310611be35780518252601f199092019160209182019101611bc4565b51815160209384036101000a60001901801990921691161790526040805192909401829003909120865285019590955292909201600020805460ff1916941515949094179093555050505050565b6000611c44611c3e610a19565b8461255a565b611c4c61072b565b600160a060020a031663a9059cbb85611c64866125e0565b6040518363ffffffff1660e060020a0281526004018083600160a060020a0316600160a060020a0316815260200182815260200192505050602060405180830381600087803b158015611cb657600080fd5b505af1158015611cca573d6000803e3d6000fd5b505050506040513d6020811015611ce057600080fd5b5051949350505050565b80600160a060020a0381161515611d0057600080fd5b600160a060020a0383161515611d1e57611d19826125f6565b611d28565b611d288383612602565b505050565b6000903b1190565b611d3e81611d2d565b1515611d4957600080fd5b7f15d63b18dbc21bf4438b7972d80076747e1d93c4f87552fe498c90cbde51665e60005260026020527f70dfdbaec92bfd068fb9a67f8c22440e995abe75330f5b6b79a478c9bc8ccbd1805473ffffffffffffffffffffffffffffffffffffffff1916600160a060020a0392909216919091179055565b60008111611dcd57600080fd5b7f916daedf6915000ff68ced2f0b6773fe6f2582237f92c3c95bb4d79407230071600090815260209081527fd2ea0feb732edb0ffe32efd33a6b9d24d46b16eb34a4d07ce256537b6f131e428290556040805183815290517f4fb76205cd57c896b21511d2114137d8e901b4ccd659e1a0f97d6306795264fb929181900390910190a150565b60008111611e6057600080fd5b6113d6816126b5565b60408101516000108015611e84575060408101516020820151115b8015611e94575060208101518151115b1515611e9f57600080fd5b80517f4a6a899679f26b73530d8cf1001e83b6f7702e04b6fdb98f3c62dc7e47e041a5600090815260208181527f1ab29a5cca988aee50edccdd61c5bcaa7ad4b29a03b7ee50f298ceccfe14cc4e92909255908201517f0f8803acad17c63ee38bf2de71e1888bc7a079a6f73658e274b08018bea4e29c82527f9de0f81379b4d8e60fe509315d071b56e7b732abaf193e74e0d15808b0951d095560408201517fbbb088c505d18e049d114c7c91f11724e69c55ad6c5397e2b929e68b41fa05d182527f8df5c48c6b6e11d97548adc824ba0c99103ec09830fa5d53a179984085e6eaa0557fad4123ae17c414d9c6d2fec478b402e6b01856cc250fd01fbfd252fda0089d3c9082905b60200201516040518082815260200191505060405180910390a150565b8051602082015110611fd757600080fd5b80517f21dbcab260e413c20dc13c28b7db95e2b423d1135f42bb8b7d5214a92270d237600090815260208181527fadd938dbd083a16bae12238cd914fca0afc7a30edb55b1cd5c7f1823f1b0e42192909255908201517fc0ed44c192c86d1cc1ba51340b032c2766b4a2b0041031de13c46dd7104888d582527ff8e983ee86e5e377e9e34c9131b266382c3f04113d20de077f9e12663c7a646b557f9bebf928b90863f24cc31f726a3a7545efd409f1dcf552301b1ee3710da70d3b908290611fa9565b604c19811380156120ac5750604d81125b15156120b757600080fd5b7f1e8ecaafaddea96ed9ac6d2642dcdfe1bebe58a930b1085842d8fc122b371ee560009081526020527fd5c78dd9468716ca9bb96be25d56436811b20aab3523a9904b12deef1cab239d55565b600160a060020a038116151561211957600080fd5b7f8be0079c531659141344cd1fd0a4f28419497f9722a3daafe3b4186f6b6457e06121426111b4565b60408051600160a060020a03928316815291841660208301528051918290030190a17f02016836a56b71f0d02689e69e326f4f4c1b9057164ef592671cf0d37c8040c060005260026020527fb7802e97e87ef2842a6cce7da7ffaeaedaa2f61a6a7870b23d9d01fc9b73712e805473ffffffffffffffffffffffffffffffffffffffff1916600160a060020a0392909216919091179055565b600160a060020a03811615156121f057600080fd5b7f71483949fe7a14d16644d63320f24d10cf1d60abecc30cc677a340e82b699dd260005260026020527f21ffdf150a5d180f96d98d16f50e7b4dd63e2a067adc8386cf5af55dcecd8dd9805473ffffffffffffffffffffffffffffffffffffffff1916600160a060020a0392909216919091179055565b7f0a6f646cd611241d8073675e00d1a1ff700fbf1b53fcf473de56d1e6e4b714ba60005260046020527f078d888f9b66f3f8bfa10909e31f1e16240db73449f0500afdbbe3a70da457cc805460ff19166001179055565b818101828110156122cb57fe5b92915050565b60006122db61273b565b8251149050919050565b60408051808201909152601a81527f19457468657265756d205369676e6564204d6573736167653a0a00000000000060208201526000906060831561248b578161232f8651612740565b866040516020018084805190602001908083835b602083106123625780518252601f199092019160209182019101612343565b51815160209384036101000a600019018019909216911617905286519190930192860191508083835b602083106123aa5780518252601f19909201916020918201910161238b565b51815160209384036101000a600019018019909216911617905285519190930192850191508083835b602083106123f25780518252601f1990920191602091820191016123d3565b6001836020036101000a03801982511681845116808217855250505050505090500193505050506040516020818303038152906040526040518082805190602001908083835b602083106124575780518252601f199092019160209182019101612438565b6001836020036101000a038019825116818451168082178552505050505050905001915050604051809103902092506124f7565b6040805190810160405280600381526020017f31303400000000000000000000000000000000000000000000000000000000008152509050818186604051602001808480519060200190808383602083106123625780518252601f199092019160209182019101612343565b505092915050565b6000805b835181101561254e5782600160a060020a0316848281518110151561252457fe5b90602001906020020151600160a060020a031614156125465760019150612553565b600101612503565b600091505b5092915050565b612567816110bb84610c57565b6000808460405160200180807f746f74616c457865637574656450657244617900000000000000000000000000815250601301828152602001915050604051602081830303815290604052604051808280519060200190808383602083106118585780518252601f199092019160209182019101611839565b60006122cb826125ee611556565b600003612867565b3031610dc882826128b2565b604080517f70a0823100000000000000000000000000000000000000000000000000000000815230600482015290518391600091600160a060020a038416916370a0823191602480830192602092919082900301818787803b15801561266757600080fd5b505af115801561267b573d6000803e3d6000fd5b505050506040513d602081101561269157600080fd5b505190506126af600160a060020a038516848363ffffffff61291a16565b50505050565b7f55b3774520b5993024893d303890baa4e84b1244a43c60034d1ced2d3cf2b04b600090815260209081527ff7d5eefab3776d7f0450bd0193564bcb4f832ce313ff2836c450fc63a4b944198290556040805183815290517f52264b89e0fceafb26e79fd49ef8a366eb6297483bf4035b027f0c99a7ad512e929181900390910190a150565b606890565b606060008082818515156127895760408051808201909152600181527f30000000000000000000000000000000000000000000000000000000000000006020820152945061285e565b8593505b83156127a457600190920191600a8404935061278d565b826040519080825280601f01601f1916602001820160405280156127d2578160200160208202803883390190505b5091505060001982015b851561285a5781516000198201917f01000000000000000000000000000000000000000000000000000000000000006030600a8a06010291849190811061281f57fe5b9060200101907effffffffffffffffffffffffffffffffffffffffffffffffffffffffffffff1916908160001a905350600a860495506127dc565b8194505b50505050919050565b60008115156128775750816122cb565b600082131561289b5761289483600a84900a63ffffffff6129af16565b90506122cb565b6110e7836000849003600a0a63ffffffff6129d816565b604051600160a060020a0383169082156108fc029083906000818181858888f193505050501515610dc85780826128e76129ed565b600160a060020a039091168152604051908190036020019082f080158015612913573d6000803e3d6000fd5b5050505050565b82600160a060020a031663a9059cbb83836040518363ffffffff1660e060020a0281526004018083600160a060020a0316600160a060020a0316815260200182815260200192505050600060405180830381600087803b15801561297d57600080fd5b505af1158015612991573d6000803e3d6000fd5b505050503d15611d285760206000803e6000511515611d2857600080fd5b60008215156129c0575060006122cb565b508181028183828115156129d057fe5b04146122cb57fe5b600081838115156129e557fe5b049392505050565b6040516021806129fd833901905600608060405260405160208060218339810160405251600160a060020a038116ff00a165627a7a72305820d968591f41abdfd513b090445d79ccdbd852d6ddd6fb35fab1420b46bec783e50029",
  "linkReferences": {},
  "deployedLinkReferences": {}
}