{
  "_format": "hh-sol-artifact-1",
  "contractName": "ERC20Mock",
  "sourceName": "contracts/mocks/ERC20Mock.sol",
  "abi": [
    {
      "constant": true,
      "inputs": [],
      "name": "mintingFinished",
      "outputs": [
        {
          "name": "",
          "type": "bool"
        }
      ],
      "payable": false,
      "stateMutability": "view",
      "type": "function"
    },
    {
      "constant": true,
      "inputs": [],
      "name": "name",
      "outputs": [
        {
          "name": "",
          "type": "string"
        }
      ],
      "payable": false,
      "stateMutability": "view",
      "type": "function"
    },
    {
      "constant": false,
      "inputs": [
        {
          "name": "_spender",
          "type": "address"
        },
        {
          "name": "_value",
          "type": "uint256"
        }
      ],
      "name": "approve",
      "outputs": [
        {
          "name": "",
          "type": "bool"
        }
      ],
      "payable": false,
      "stateMutability": "nonpayable",
      "type": "function"
    },
    {
      "constant": true,
      "inputs": [],
      "name": "totalSupply",
      "outputs": [
        {
          "name": "",
          "type": "uint256"
        }
      ],
      "payable": false,
      "stateMutability": "view",
      "type": "function"
    },
    {
      "constant": false,
      "inputs": [
        {
          "name": "_from",
          "type": "address"
        },
        {
          "name": "_to",
          "type": "address"
        },
        {
          "name": "_value",
          "type": "uint256"
        }
      ],
      "name": "transferFrom",
      "outputs": [
        {
          "name": "",
          "type": "bool"
        }
      ],
      "payable": false,
      "stateMutability": "nonpayable",
      "type": "function"
    },
    {
      "constant": true,
      "inputs": [],
      "name": "decimals",
      "outputs": [
        {
          "name": "",
          "type": "uint8"
        }
      ],
      "payable": false,
      "stateMutability": "view",
      "type": "function"
    },
    {
      "constant": false,
      "inputs": [
        {
          "name": "_to",
          "type": "address"
        },
        {
          "name": "_amount",
          "type": "uint256"
        }
      ],
      "name": "mint",
      "outputs": [
        {
          "name": "",
          "type": "bool"
        }
      ],
      "payable": false,
      "stateMutability": "nonpayable",
      "type": "function"
    },
    {
      "constant": false,
      "inputs": [
        {
          "name": "_value",
          "type": "uint256"
        }
      ],
      "name": "burn",
      "outputs": [],
      "payable": false,
      "stateMutability": "nonpayable",
      "type": "function"
    },
    {
      "constant": false,
      "inputs": [
        {
          "name": "_spender",
          "type": "address"
        },
        {
          "name": "_subtractedValue",
          "type": "uint256"
        }
      ],
      "name": "decreaseApproval",
      "outputs": [
        {
          "name": "",
          "type": "bool"
        }
      ],
      "payable": false,
      "stateMutability": "nonpayable",
      "type": "function"
    },
    {
      "constant": true,
      "inputs": [
        {
          "name": "_owner",
          "type": "address"
        }
      ],
      "name": "balanceOf",
      "outputs": [
        {
          "name": "",
          "type": "uint256"
        }
      ],
      "payable": false,
      "stateMutability": "view",
      "type": "function"
    },
    {
      "constant": false,
      "inputs": [],
      "name": "renounceOwnership",
      "outputs": [],
      "payable": false,
      "stateMutability": "nonpayable",
      "type": "function"
    },
    {
      "constant": false,
      "inputs": [],
      "name": "finishMinting",
      "outputs": [
        {
          "name": "",
          "type": "bool"
        }
      ],
      "payable": false,
      "stateMutability": "nonpayable",
      "type": "function"
    },
    {
      "constant": true,
      "inputs": [],
      "name": "owner",
      "outputs": [
        {
          "name": "",
          "type": "address"
        }
      ],
      "payable": false,
      "stateMutability": "view",
      "type": "function"
    },
    {
      "constant": true,
      "inputs": [],
      "name": "symbol",
      "outputs": [
        {
          "name": "",
          "type": "string"
        }
      ],
      "payable": false,
      "stateMutability": "view",
      "type": "function"
    },
    {
      "constant": false,
      "inputs": [
        {
          "name": "_to",
          "type": "address"
        },
        {
          "name": "_value",
          "type": "uint256"
        }
      ],
      "name": "transfer",
      "outputs": [
        {
          "name": "",
          "type": "bool"
        }
      ],
      "payable": false,
      "stateMutability": "nonpayable",
      "type": "function"
    },
    {
      "constant": false,
      "inputs": [
        {
          "name": "_spender",
          "type": "address"
        },
        {
          "name": "_addedValue",
          "type": "uint256"
        }
      ],
      "name": "increaseApproval",
      "outputs": [
        {
          "name": "",
          "type": "bool"
        }
      ],
      "payable": false,
      "stateMutability": "nonpayable",
      "type": "function"
    },
    {
      "constant": true,
      "inputs": [
        {
          "name": "_owner",
          "type": "address"
        },
        {
          "name": "_spender",
          "type": "address"
        }
      ],
      "name": "allowance",
      "outputs": [
        {
          "name": "",
          "type": "uint256"
        }
      ],
      "payable": false,
      "stateMutability": "view",
      "type": "function"
    },
    {
      "constant": false,
      "inputs": [
        {
          "name": "_newOwner",
          "type": "address"
        }
      ],
      "name": "transferOwnership",
      "outputs": [],
      "payable": false,
      "stateMutability": "nonpayable",
      "type": "function"
    },
    {
      "inputs": [
        {
          "name": "_name",
          "type": "string"
        },
        {
          "name": "_symbol",
          "type": "string"
        },
        {
          "name": "_decimals",
          "type": "uint8"
        }
      ],
      "payable": false,
      "stateMutability": "nonpayable",
      "type": "constructor"
    },
    {
      "anonymous": false,
      "inputs": [
        {
          "indexed": true,
          "name": "to",
          "type": "address"
        },
        {
          "indexed": false,
          "name": "amount",
          "type": "uint256"
        }
      ],
      "name": "Mint",
      "type": "event"
    },
    {
      "anonymous": false,
      "inputs": [],
      "name": "MintFinished",
      "type": "event"
    },
    {
      "anonymous": false,
      "inputs": [
        {
          "indexed": true,
          "name": "previousOwner",
          "type": "address"
        }
      ],
      "name": "OwnershipRenounced",
      "type": "event"
    },
    {
      "anonymous": false,
      "inputs": [
        {
          "indexed": true,
          "name": "previousOwner",
          "type": "address"
        },
        {
          "indexed": true,
          "name": "newOwner",
          "type": "address"
        }
      ],
      "name": "OwnershipTransferred",
      "type": "event"
    },
    {
      "anonymous": false,
      "inputs": [
        {
          "indexed": true,
          "name": "burner",
          "type": "address"
        },
        {
          "indexed": false,
          "name": "value",
          "type": "uint256"
        }
      ],
      "name": "Burn",
      "type": "event"
    },
    {
      "anonymous": false,
      "inputs": [
        {
          "indexed": true,
          "name": "owner",
          "type": "address"
        },
        {
          "indexed": true,
          "name": "spender",
          "type": "address"
        },
        {
          "indexed": false,
          "name": "value",
          "type": "uint256"
        }
      ],
      "name": "Approval",
      "type": "event"
    },
    {
      "anonymous": false,
      "inputs": [
        {
          "indexed": true,
          "name": "from",
          "type": "address"
        },
        {
          "indexed": true,
          "name": "to",
          "type": "address"
        },
        {
          "indexed": false,
          "name": "value",
          "type": "uint256"
        }
      ],
      "name": "Transfer",
      "type": "event"
    }
  ],
  "bytecode": "0x60806040526006805460a060020a60ff021916905534801561002057600080fd5b50604051610f03380380610f03833981016040908152815160208084015192840151918401805190949390930192849184918491610063916000918601906100aa565b5081516100779060019060208501906100aa565b506002805460ff90921660ff19909216919091179055505060068054600160a060020a0319163317905550610145915050565b828054600181600116156101000203166002900490600052602060002090601f016020900481019282601f106100eb57805160ff1916838001178555610118565b82800160010185558215610118579182015b828111156101185782518255916020019190600101906100fd565b50610124929150610128565b5090565b61014291905b80821115610124576000815560010161012e565b90565b610daf806101546000396000f3006080604052600436106100fb5763ffffffff7c010000000000000000000000000000000000000000000000000000000060003504166305d2035b811461010057806306fdde0314610129578063095ea7b3146101b357806318160ddd146101d757806323b872dd146101fe578063313ce5671461022857806340c10f191461025357806342966c6814610277578063661884631461029157806370a08231146102b5578063715018a6146102d65780637d64bcb4146102eb5780638da5cb5b1461030057806395d89b4114610331578063a9059cbb14610346578063d73dd6231461036a578063dd62ed3e1461038e578063f2fde38b146103b5575b600080fd5b34801561010c57600080fd5b506101156103d6565b604080519115158252519081900360200190f35b34801561013557600080fd5b5061013e6103f7565b6040805160208082528351818301528351919283929083019185019080838360005b83811015610178578181015183820152602001610160565b50505050905090810190601f1680156101a55780820380516001836020036101000a031916815260200191505b509250505060405180910390f35b3480156101bf57600080fd5b50610115600160a060020a0360043516602435610485565b3480156101e357600080fd5b506101ec6104eb565b60408051918252519081900360200190f35b34801561020a57600080fd5b50610115600160a060020a03600435811690602435166044356104f1565b34801561023457600080fd5b5061023d610656565b6040805160ff9092168252519081900360200190f35b34801561025f57600080fd5b50610115600160a060020a036004351660243561065f565b34801561028357600080fd5b5061028f60043561078a565b005b34801561029d57600080fd5b50610115600160a060020a0360043516602435610797565b3480156102c157600080fd5b506101ec600160a060020a0360043516610886565b3480156102e257600080fd5b5061028f6108a1565b3480156102f757600080fd5b5061011561090f565b34801561030c57600080fd5b506103156109b5565b60408051600160a060020a039092168252519081900360200190f35b34801561033d57600080fd5b5061013e6109c4565b34801561035257600080fd5b50610115600160a060020a0360043516602435610a1e565b34801561037657600080fd5b50610115600160a060020a0360043516602435610aed565b34801561039a57600080fd5b506101ec600160a060020a0360043581169060243516610b86565b3480156103c157600080fd5b5061028f600160a060020a0360043516610bb1565b60065474010000000000000000000000000000000000000000900460ff1681565b6000805460408051602060026001851615610100026000190190941693909304601f8101849004840282018401909252818152929183018282801561047d5780601f106104525761010080835404028352916020019161047d565b820191906000526020600020905b81548152906001019060200180831161046057829003601f168201915b505050505081565b336000818152600560209081526040808320600160a060020a038716808552908352818420869055815186815291519394909390927f8c5be1e5ebec7d5bd14f71427d1e84f3dd0314c0f7b2291e5b200ac8c7c3b925928290030190a350600192915050565b60045490565b600160a060020a03831660009081526003602052604081205482111561051657600080fd5b600160a060020a038416600090815260056020908152604080832033845290915290205482111561054657600080fd5b600160a060020a038316151561055b57600080fd5b600160a060020a038416600090815260036020526040902054610584908363ffffffff610bd116565b600160a060020a0380861660009081526003602052604080822093909355908516815220546105b9908363ffffffff610be316565b600160a060020a0380851660009081526003602090815260408083209490945591871681526005825282812033825290915220546105fd908363ffffffff610bd116565b600160a060020a0380861660008181526005602090815260408083203384528252918290209490945580518681529051928716939192600080516020610d64833981519152929181900390910190a35060019392505050565b60025460ff1681565b600654600090600160a060020a031633148061068e57507306af07097c9eeb7fd685c692751d5c66db49c21533145b151561069957600080fd5b60065474010000000000000000000000000000000000000000900460ff16156106c157600080fd5b6004546106d4908363ffffffff610be316565b600455600160a060020a038316600090815260036020526040902054610700908363ffffffff610be316565b600160a060020a038416600081815260036020908152604091829020939093558051858152905191927f0f6798a560793a54c3bcfe86a93cde1e73087d944c0ea20544137d412139688592918290030190a2604080518381529051600160a060020a03851691600091600080516020610d648339815191529181900360200190a350600192915050565b6107943382610bf6565b50565b336000908152600560209081526040808320600160a060020a03861684529091528120548083106107eb57336000908152600560209081526040808320600160a060020a0388168452909152812055610820565b6107fb818463ffffffff610bd116565b336000908152600560209081526040808320600160a060020a03891684529091529020555b336000818152600560209081526040808320600160a060020a0389168085529083529281902054815190815290519293927f8c5be1e5ebec7d5bd14f71427d1e84f3dd0314c0f7b2291e5b200ac8c7c3b925929181900390910190a35060019392505050565b600160a060020a031660009081526003602052604090205490565b600654600160a060020a031633146108b857600080fd5b600654604051600160a060020a03909116907ff8df31144d9c2f0f6b59d69b8b98abd5459d07f2742c4df920b25aae33c6482090600090a26006805473ffffffffffffffffffffffffffffffffffffffff19169055565b600654600090600160a060020a0316331461092957600080fd5b60065474010000000000000000000000000000000000000000900460ff161561095157600080fd5b6006805474ff00000000000000000000000000000000000000001916740100000000000000000000000000000000000000001790556040517fae5184fba832cb2b1f702aca6117b8d265eaf03ad33eb133f19dde0f5920fa0890600090a150600190565b600654600160a060020a031681565b60018054604080516020600284861615610100026000190190941693909304601f8101849004840282018401909252818152929183018282801561047d5780601f106104525761010080835404028352916020019161047d565b33600090815260036020526040812054821115610a3a57600080fd5b600160a060020a0383161515610a4f57600080fd5b33600090815260036020526040902054610a6f908363ffffffff610bd116565b3360009081526003602052604080822092909255600160a060020a03851681522054610aa1908363ffffffff610be316565b600160a060020a038416600081815260036020908152604091829020939093558051858152905191923392600080516020610d648339815191529281900390910190a350600192915050565b336000908152600560209081526040808320600160a060020a0386168452909152812054610b21908363ffffffff610be316565b336000818152600560209081526040808320600160a060020a0389168085529083529281902085905580519485525191937f8c5be1e5ebec7d5bd14f71427d1e84f3dd0314c0f7b2291e5b200ac8c7c3b925929081900390910190a350600192915050565b600160a060020a03918216600090815260056020908152604080832093909416825291909152205490565b600654600160a060020a03163314610bc857600080fd5b61079481610ce5565b600082821115610bdd57fe5b50900390565b81810182811015610bf057fe5b92915050565b600160a060020a038216600090815260036020526040902054811115610c1b57600080fd5b600160a060020a038216600090815260036020526040902054610c44908263ffffffff610bd116565b600160a060020a038316600090815260036020526040902055600454610c70908263ffffffff610bd116565b600455604080518281529051600160a060020a038416917fcc16f5dbb4873280815c1ee09dbd06736cffcc184412cf7a71a0fdb75d397ca5919081900360200190a2604080518281529051600091600160a060020a03851691600080516020610d648339815191529181900360200190a35050565b600160a060020a0381161515610cfa57600080fd5b600654604051600160a060020a038084169216907f8be0079c531659141344cd1fd0a4f28419497f9722a3daafe3b4186f6b6457e090600090a36006805473ffffffffffffffffffffffffffffffffffffffff1916600160a060020a03929092169190911790555600ddf252ad1be2c89b69c2b068fc378daa952ba7f163c4a11628f55a4df523b3efa165627a7a72305820c63739a27ff1c819867b7b5f8a4d76ae2d51d880d3f82b67321e5e5abd49aaf90029",
  "linkReferences": {},
  "deployedLinkReferences": {}
}