{
  "_format": "hh-sol-artifact-1",
  "contractName": "ForeignAMBWithGasToken",
  "sourceName": "contracts/upgradeable_contracts/arbitrary_message/ForeignAMBWithGasToken.sol",
  "abi": [
    {
      "constant": true,
      "inputs": [],
      "name": "transactionHash",
      "outputs": [
        {
          "name": "",
          "type": "bytes32"
        }
      ],
      "payable": false,
      "stateMutability": "view",
      "type": "function"
    },
    {
      "constant": true,
      "inputs": [],
      "name": "sourceChainId",
      "outputs": [
        {
          "name": "",
          "type": "uint256"
        }
      ],
      "payable": false,
      "stateMutability": "view",
      "type": "function"
    },
    {
      "constant": true,
      "inputs": [
        {
          "name": "_txHash",
          "type": "bytes32"
        }
      ],
      "name": "relayedMessages",
      "outputs": [
        {
          "name": "",
          "type": "bool"
        }
      ],
      "payable": false,
      "stateMutability": "view",
      "type": "function"
    },
    {
      "constant": false,
      "inputs": [
        {
          "name": "_targetMintValue",
          "type": "uint256"
        }
      ],
      "name": "setGasTokenTargetMintValue",
      "outputs": [],
      "payable": false,
      "stateMutability": "nonpayable",
      "type": "function"
    },
    {
      "constant": false,
      "inputs": [
        {
          "name": "_data",
          "type": "bytes"
        },
        {
          "name": "_signatures",
          "type": "bytes"
        }
      ],
      "name": "safeExecuteSignaturesWithAutoGasLimit",
      "outputs": [],
      "payable": false,
      "stateMutability": "nonpayable",
      "type": "function"
    },
    {
      "constant": false,
      "inputs": [
        {
          "name": "_sourceChainId",
          "type": "uint256"
        },
        {
          "name": "_destinationChainId",
          "type": "uint256"
        },
        {
          "name": "_validatorContract",
          "type": "address"
        },
        {
          "name": "_maxGasPerTx",
          "type": "uint256"
        },
        {
          "name": "_gasPrice",
          "type": "uint256"
        },
        {
          "name": "_requiredBlockConfirmations",
          "type": "uint256"
        },
        {
          "name": "_owner",
          "type": "address"
        }
      ],
      "name": "initialize",
      "outputs": [
        {
          "name": "",
          "type": "bool"
        }
      ],
      "payable": false,
      "stateMutability": "nonpayable",
      "type": "function"
    },
    {
      "constant": true,
      "inputs": [],
      "name": "isInitialized",
      "outputs": [
        {
          "name": "",
          "type": "bool"
        }
      ],
      "payable": false,
      "stateMutability": "view",
      "type": "function"
    },
    {
      "constant": true,
      "inputs": [],
      "name": "requiredBlockConfirmations",
      "outputs": [
        {
          "name": "",
          "type": "uint256"
        }
      ],
      "payable": false,
      "stateMutability": "view",
      "type": "function"
    },
    {
      "constant": false,
      "inputs": [
        {
          "name": "_data",
          "type": "bytes"
        },
        {
          "name": "_signatures",
          "type": "bytes"
        }
      ],
      "name": "executeSignatures",
      "outputs": [],
      "payable": false,
      "stateMutability": "nonpayable",
      "type": "function"
    },
    {
      "constant": true,
      "inputs": [
        {
          "name": "_messageId",
          "type": "bytes32"
        }
      ],
      "name": "failedMessageReceiver",
      "outputs": [
        {
          "name": "",
          "type": "address"
        }
      ],
      "payable": false,
      "stateMutability": "view",
      "type": "function"
    },
    {
      "constant": true,
      "inputs": [],
      "name": "getBridgeMode",
      "outputs": [
        {
          "name": "_data",
          "type": "bytes4"
        }
      ],
      "payable": false,
      "stateMutability": "pure",
      "type": "function"
    },
    {
      "constant": false,
      "inputs": [
        {
          "name": "_sourceChainId",
          "type": "uint256"
        },
        {
          "name": "_destinationChainId",
          "type": "uint256"
        }
      ],
      "name": "setChainIds",
      "outputs": [],
      "payable": false,
      "stateMutability": "nonpayable",
      "type": "function"
    },
    {
      "constant": true,
      "inputs": [
        {
          "name": "_messageId",
          "type": "bytes32"
        }
      ],
      "name": "failedMessageSender",
      "outputs": [
        {
          "name": "",
          "type": "address"
        }
      ],
      "payable": false,
      "stateMutability": "view",
      "type": "function"
    },
    {
      "constant": true,
      "inputs": [],
      "name": "allowReentrantRequests",
      "outputs": [
        {
          "name": "",
          "type": "bool"
        }
      ],
      "payable": false,
      "stateMutability": "view",
      "type": "function"
    },
    {
      "constant": true,
      "inputs": [],
      "name": "messageId",
      "outputs": [
        {
          "name": "id",
          "type": "bytes32"
        }
      ],
      "payable": false,
      "stateMutability": "view",
      "type": "function"
    },
    {
      "constant": false,
      "inputs": [
        {
          "name": "_token",
          "type": "address"
        },
        {
          "name": "_to",
          "type": "address"
        }
      ],
      "name": "claimTokens",
      "outputs": [],
      "payable": false,
      "stateMutability": "nonpayable",
      "type": "function"
    },
    {
      "constant": true,
      "inputs": [],
      "name": "gasTokenReceiver",
      "outputs": [
        {
          "name": "",
          "type": "address"
        }
      ],
      "payable": false,
      "stateMutability": "view",
      "type": "function"
    },
    {
      "constant": false,
      "inputs": [
        {
          "name": "_maxGasPerTx",
          "type": "uint256"
        }
      ],
      "name": "setMaxGasPerTx",
      "outputs": [],
      "payable": false,
      "stateMutability": "nonpayable",
      "type": "function"
    },
    {
      "constant": true,
      "inputs": [],
      "name": "requiredSignatures",
      "outputs": [
        {
          "name": "",
          "type": "uint256"
        }
      ],
      "payable": false,
      "stateMutability": "view",
      "type": "function"
    },
    {
      "constant": true,
      "inputs": [],
      "name": "owner",
      "outputs": [
        {
          "name": "",
          "type": "address"
        }
      ],
      "payable": false,
      "stateMutability": "view",
      "type": "function"
    },
    {
      "constant": true,
      "inputs": [],
      "name": "validatorContract",
      "outputs": [
        {
          "name": "",
          "type": "address"
        }
      ],
      "payable": false,
      "stateMutability": "view",
      "type": "function"
    },
    {
      "constant": true,
      "inputs": [],
      "name": "deployedAtBlock",
      "outputs": [
        {
          "name": "",
          "type": "uint256"
        }
      ],
      "payable": false,
      "stateMutability": "view",
      "type": "function"
    },
    {
      "constant": true,
      "inputs": [],
      "name": "getBridgeInterfacesVersion",
      "outputs": [
        {
          "name": "major",
          "type": "uint64"
        },
        {
          "name": "minor",
          "type": "uint64"
        },
        {
          "name": "patch",
          "type": "uint64"
        }
      ],
      "payable": false,
      "stateMutability": "pure",
      "type": "function"
    },
    {
      "constant": true,
      "inputs": [],
      "name": "messageSourceChainId",
      "outputs": [
        {
          "name": "id",
          "type": "uint256"
        }
      ],
      "payable": false,
      "stateMutability": "view",
      "type": "function"
    },
    {
      "constant": false,
      "inputs": [
        {
          "name": "_receiver",
          "type": "address"
        }
      ],
      "name": "setGasTokenReceiver",
      "outputs": [],
      "payable": false,
      "stateMutability": "nonpayable",
      "type": "function"
    },
    {
      "constant": false,
      "inputs": [
        {
          "name": "_blockConfirmations",
          "type": "uint256"
        }
      ],
      "name": "setRequiredBlockConfirmations",
      "outputs": [],
      "payable": false,
      "stateMutability": "nonpayable",
      "type": "function"
    },
    {
      "constant": true,
      "inputs": [],
      "name": "destinationChainId",
      "outputs": [
        {
          "name": "",
          "type": "uint256"
        }
      ],
      "payable": false,
      "stateMutability": "view",
      "type": "function"
    },
    {
      "constant": false,
      "inputs": [
        {
          "name": "_gasPrice",
          "type": "uint256"
        }
      ],
      "name": "setGasPrice",
      "outputs": [],
      "payable": false,
      "stateMutability": "nonpayable",
      "type": "function"
    },
    {
      "constant": false,
      "inputs": [
        {
          "name": "_enable",
          "type": "bool"
        }
      ],
      "name": "setAllowReentrantRequests",
      "outputs": [],
      "payable": false,
      "stateMutability": "nonpayable",
      "type": "function"
    },
    {
      "constant": true,
      "inputs": [],
      "name": "gasToken",
      "outputs": [
        {
          "name": "",
          "type": "address"
        }
      ],
      "payable": false,
      "stateMutability": "pure",
      "type": "function"
    },
    {
      "constant": true,
      "inputs": [
        {
          "name": "_messageId",
          "type": "bytes32"
        }
      ],
      "name": "messageCallStatus",
      "outputs": [
        {
          "name": "",
          "type": "bool"
        }
      ],
      "payable": false,
      "stateMutability": "view",
      "type": "function"
    },
    {
      "constant": true,
      "inputs": [],
      "name": "messageSender",
      "outputs": [
        {
          "name": "sender",
          "type": "address"
        }
      ],
      "payable": false,
      "stateMutability": "view",
      "type": "function"
    },
    {
      "constant": true,
      "inputs": [],
      "name": "decimalShift",
      "outputs": [
        {
          "name": "",
          "type": "int256"
        }
      ],
      "payable": false,
      "stateMutability": "view",
      "type": "function"
    },
    {
      "constant": false,
      "inputs": [
        {
          "name": "_contract",
          "type": "address"
        },
        {
          "name": "_data",
          "type": "bytes"
        },
        {
          "name": "_gas",
          "type": "uint256"
        }
      ],
      "name": "requireToPassMessage",
      "outputs": [
        {
          "name": "messageId",
          "type": "bytes32"
        }
      ],
      "payable": false,
      "stateMutability": "nonpayable",
      "type": "function"
    },
    {
      "constant": true,
      "inputs": [],
      "name": "gasTokenTargetMintValue",
      "outputs": [
        {
          "name": "",
          "type": "uint256"
        }
      ],
      "payable": false,
      "stateMutability": "view",
      "type": "function"
    },
    {
      "constant": true,
      "inputs": [
        {
          "name": "_messageId",
          "type": "bytes32"
        }
      ],
      "name": "failedMessageDataHash",
      "outputs": [
        {
          "name": "",
          "type": "bytes32"
        }
      ],
      "payable": false,
      "stateMutability": "view",
      "type": "function"
    },
    {
      "constant": true,
      "inputs": [],
      "name": "maxGasPerTx",
      "outputs": [
        {
          "name": "",
          "type": "uint256"
        }
      ],
      "payable": false,
      "stateMutability": "view",
      "type": "function"
    },
    {
      "constant": false,
      "inputs": [
        {
          "name": "_data",
          "type": "bytes"
        },
        {
          "name": "_signatures",
          "type": "bytes"
        },
        {
          "name": "_gas",
          "type": "uint32"
        }
      ],
      "name": "safeExecuteSignaturesWithGasLimit",
      "outputs": [],
      "payable": false,
      "stateMutability": "nonpayable",
      "type": "function"
    },
    {
      "constant": false,
      "inputs": [
        {
          "name": "_data",
          "type": "bytes"
        },
        {
          "name": "_signatures",
          "type": "bytes"
        }
      ],
      "name": "safeExecuteSignatures",
      "outputs": [],
      "payable": false,
      "stateMutability": "nonpayable",
      "type": "function"
    },
    {
      "constant": false,
      "inputs": [
        {
          "name": "_targetMintValue",
          "type": "uint256"
        },
        {
          "name": "_receiver",
          "type": "address"
        }
      ],
      "name": "setGasTokenParameters",
      "outputs": [],
      "payable": false,
      "stateMutability": "nonpayable",
      "type": "function"
    },
    {
      "constant": false,
      "inputs": [
        {
          "name": "newOwner",
          "type": "address"
        }
      ],
      "name": "transferOwnership",
      "outputs": [],
      "payable": false,
      "stateMutability": "nonpayable",
      "type": "function"
    },
    {
      "constant": true,
      "inputs": [],
      "name": "gasPrice",
      "outputs": [
        {
          "name": "",
          "type": "uint256"
        }
      ],
      "payable": false,
      "stateMutability": "view",
      "type": "function"
    },
    {
      "anonymous": false,
      "inputs": [
        {
          "indexed": true,
          "name": "messageId",
          "type": "bytes32"
        },
        {
          "indexed": false,
          "name": "encodedData",
          "type": "bytes"
        }
      ],
      "name": "UserRequestForAffirmation",
      "type": "event"
    },
    {
      "anonymous": false,
      "inputs": [
        {
          "indexed": true,
          "name": "sender",
          "type": "address"
        },
        {
          "indexed": true,
          "name": "executor",
          "type": "address"
        },
        {
          "indexed": true,
          "name": "messageId",
          "type": "bytes32"
        },
        {
          "indexed": false,
          "name": "status",
          "type": "bool"
        }
      ],
      "name": "RelayedMessage",
      "type": "event"
    },
    {
      "anonymous": false,
      "inputs": [
        {
          "indexed": false,
          "name": "gasPrice",
          "type": "uint256"
        }
      ],
      "name": "GasPriceChanged",
      "type": "event"
    },
    {
      "anonymous": false,
      "inputs": [
        {
          "indexed": false,
          "name": "requiredBlockConfirmations",
          "type": "uint256"
        }
      ],
      "name": "RequiredBlockConfirmationChanged",
      "type": "event"
    },
    {
      "anonymous": false,
      "inputs": [
        {
          "indexed": false,
          "name": "previousOwner",
          "type": "address"
        },
        {
          "indexed": false,
          "name": "newOwner",
          "type": "address"
        }
      ],
      "name": "OwnershipTransferred",
      "type": "event"
    }
  ],
  "bytecode": "0x608060405234801561001057600080fd5b5061364e806100206000396000f3006080604052600436106101ea5763ffffffff60e060020a6000350416630ac1c31381146101ef5780631544298e1461021657806321d800ec1461022b57806323b4a1fd1461025757806323caab491461027157806325fbf4ee1461029d578063392e53cd146102d65780633f0a9f65146102eb5780633f7658fd146103005780633f9a8e7e14610397578063437764df146103cb578063467ad35a146104125780634a610b041461042d5780634d4cb7a214610445578063669f618b1461045a57806369ffa08a1461046f5780636c388e54146104965780637bac29c7146104ab5780638d068043146104c35780638da5cb5b146104d857806399439089146104ed5780639a454b99146105025780639cb7595a146105175780639e307dff146105585780639f1ed0c71461056d578063acf5c6891461058e578063b0750611146105a6578063bf1fe420146105bb578063c2231ad2146105d3578063c91d59fe146105ed578063cb08a10c14610602578063d67bdd251461061a578063dae5f0fd1461062f578063dc8601b314610644578063de6e02b8146106ad578063e37c3289146106c2578063e5789d03146106da578063e6d562a1146106ef578063eaa820d71461078e578063ee033614146107ba578063f2fde38b146107de578063fe173b97146107ff575b600080fd5b3480156101fb57600080fd5b50610204610814565b60408051918252519081900360200190f35b34801561022257600080fd5b50610204610823565b34801561023757600080fd5b50610243600435610871565b604080519115158252519081900360200190f35b34801561026357600080fd5b5061026f60043561093a565b005b34801561027d57600080fd5b5061026f60246004803582810192908201359181359182019101356109a3565b3480156102a957600080fd5b50610243600435602435600160a060020a03604435811690606435906084359060a4359060c43516610a16565b3480156102e257600080fd5b50610243610c8a565b3480156102f757600080fd5b50610204610cdb565b34801561030c57600080fd5b506040805160206004803580820135601f810184900484028501840190955284845261026f94369492936024939284019190819084018382808284375050604080516020601f89358b018035918201839004830284018301909452808352979a999881019791965091820194509250829150840183828082843750949750610d299650505050505050565b3480156103a357600080fd5b506103af600435610d79565b60408051600160a060020a039092168252519081900360200190f35b3480156103d757600080fd5b506103e0610e48565b604080517bffffffffffffffffffffffffffffffffffffffffffffffffffffffff199092168252519081900360200190f35b34801561041e57600080fd5b5061026f600435602435610e6c565b34801561043957600080fd5b506103af600435610e96565b34801561045157600080fd5b50610243610f1a565b34801561046657600080fd5b50610204610f6b565b34801561047b57600080fd5b5061026f600160a060020a0360043581169060243516610f90565b3480156104a257600080fd5b506103af611018565b3480156104b757600080fd5b5061026f60043561106f565b3480156104cf57600080fd5b506102046110d8565b3480156104e457600080fd5b506103af611150565b3480156104f957600080fd5b506103af6111a7565b34801561050e57600080fd5b506102046111fe565b34801561052357600080fd5b5061052c61124c565b6040805167ffffffffffffffff9485168152928416602084015292168183015290519081900360600190f35b34801561056457600080fd5b50610204611257565b34801561057957600080fd5b5061026f600160a060020a036004351661127c565b34801561059a57600080fd5b5061026f60043561130f565b3480156105b257600080fd5b50610204611337565b3480156105c757600080fd5b5061026f600435611385565b3480156105df57600080fd5b5061026f60043515156113aa565b3480156105f957600080fd5b506103af611421565b34801561060e57600080fd5b50610243600435611434565b34801561062657600080fd5b506103af6114b8565b34801561063b57600080fd5b506102046114dd565b34801561065057600080fd5b5060408051602060046024803582810135601f8101859004850286018501909652858552610204958335600160a060020a0316953695604494919390910191908190840183828082843750949750509335945061152b9350505050565b3480156106b957600080fd5b50610204611549565b3480156106ce57600080fd5b50610204600435611597565b3480156106e657600080fd5b5061020461165c565b3480156106fb57600080fd5b506040805160206004803580820135601f810184900484028501840190955284845261026f94369492936024939284019190819084018382808284375050604080516020601f89358b018035918201839004830284018301909452808352979a9998810197919650918201945092508291508401838280828437509497505050923563ffffffff1693506116aa92505050565b34801561079a57600080fd5b5061026f60246004803582810192908201359181359182019101356116f0565b3480156107c657600080fd5b5061026f600435600160a060020a0360243516611757565b3480156107ea57600080fd5b5061026f600160a060020a036004351661180e565b34801561080b57600080fd5b50610204611833565b600061081e610f6b565b905090565b7f67d6f42a1ed69c62022f2d160ddc6f2f0acd37ad1db0c24f4702d7d3343a4add60009081526020527ff6c66672b1a9fe5622677597b0da8fd180a2c85696efbcf7fe4b1e0f4f0f61085490565b6000600460008360405160200180807f72656c617965644d657373616765730000000000000000000000000000000000815250600f0182600019166000191681526020019150506040516020818303038152906040526040518082805190602001908083835b602083106108f65780518252601f1990920191602091820191016108d7565b51815160209384036101000a600019018019909216911617905260408051929094018290039091208652850195909552929092016000205460ff1695945050505050565b610942611150565b600160a060020a0316331461095657600080fd5b7f7188f1264c90762deb4dbddcab803d6487a8f108fbcdec3ff08c642d35826f9f60009081526020527f508af815a456b6ded512875db9df6b2d5693ac1edc789fb62dc528b792885e5155565b610a1084848080601f0160208091040260200160405190810160405280939291908181526020018383808284375050604080516020601f8a01819004810282018101909252888152945088935087925082915084018382808284375063ffffffff94506116aa9350505050565b50505050565b60408051600481526024810182526020810180517bffffffffffffffffffffffffffffffffffffffffffffffffffffffff167f6fde8202000000000000000000000000000000000000000000000000000000001781529151815160009330939291829190808383895b83811015610a97578181015183820152602001610a7f565b50505050905090810190601f168015610ac45780820380516001836020036101000a031916815260200191505b509150506000604051808303816000865af19150501580610b56575030600160a060020a0316636fde82026040518163ffffffff1660e060020a028152600401602060405180830381600087803b158015610b1e57600080fd5b505af1158015610b32573d6000803e3d6000fd5b505050506040513d6020811015610b4857600080fd5b5051600160a060020a031633145b80610b6057503330145b1515610b6b57600080fd5b610b73610c8a565b15610b7d57600080fd5b610b8686611881565b1515610b9157600080fd5b610b9b8888611889565b7fab54f3fbbe62c59b7876a9bf9bd5e0c22dbae93f4d8ee0438f7ce62b198eb0e0805473ffffffffffffffffffffffffffffffffffffffff1916600160a060020a03881617905560006020819052437fe66bef0282a446f9848e2903380099bb6e431483ee78778868f33b4a154c818b557f2670ecc91ec356e32067fd27b36614132d727b84a1e03e08f412a4f2cf07597490527f3d7fe2ee9790702383ef0118b516833ef2542132d3ca4ac6c77f62f1230fa610859055610c5c846119d9565b610c65836119ef565b610c6e82611a82565b610c76611b59565b610c7e610c8a565b98975050505050505050565b7f0a6f646cd611241d8073675e00d1a1ff700fbf1b53fcf473de56d1e6e4b714ba60005260046020527f078d888f9b66f3f8bfa10909e31f1e16240db73449f0500afdbbe3a70da457cc5460ff1690565b7f916daedf6915000ff68ced2f0b6773fe6f2582237f92c3c95bb4d7940723007160009081526020527fd2ea0feb732edb0ffe32efd33a6b9d24d46b16eb34a4d07ce256537b6f131e425490565b6000806000806000610d396135d7565b6060610d458989611bb0565b610d4e89611bd8565b959c50939a509198509650945092509050610d6e87878787878787611cb8565b505050505050505050565b6000600260008360405160200180807f6661696c65644d6573736167655265636569766572000000000000000000000081525060150182600019166000191681526020019150506040516020818303038152906040526040518082805190602001908083835b60208310610dfe5780518252601f199092019160209182019101610ddf565b51815160209384036101000a6000190180199092169116179052604080519290940182900390912086528501959095529290920160002054600160a060020a031695945050505050565b7f2544fbb90000000000000000000000000000000000000000000000000000000090565b610e74611150565b600160a060020a03163314610e8857600080fd5b610e928282611889565b5050565b6000600260008360405160200180807f6661696c65644d65737361676553656e64657200000000000000000000000000815250601301826000191660001916815260200191505060405160208183030381529060405260405180828051906020019080838360208310610dfe5780518252601f199092019160209182019101610ddf565b7fffa3a5a0e192028fc343362a39c5688e5a60819a4dc5ab3ee70c25bc25b78dd660005260046020527f265a43ea29ede07170a30cb6d77d0ab5810eee752b72432f7be348bde74aa08f5460ff1690565b7fe34bb2103dc34f2c144cc216c132d6ffb55dac57575c22e089161bbe650833045490565b30600160a060020a0316636fde82026040518163ffffffff1660e060020a028152600401602060405180830381600087803b158015610fce57600080fd5b505af1158015610fe2573d6000803e3d6000fd5b505050506040513d6020811015610ff857600080fd5b5051600160a060020a0316331461100e57600080fd5b610e928282611d28565b7f6778a39b83358b10315b40840597142f1db77a44f312ed9c0e45ee7af3bbc55260005260026020527fd0cda424605c5e6787a1f6db37df501d2e0a58cfcd57eff91a537a67146f164f54600160a060020a031690565b611077611150565b600160a060020a0316331461108b57600080fd5b7f2670ecc91ec356e32067fd27b36614132d727b84a1e03e08f412a4f2cf07597460009081526020527f3d7fe2ee9790702383ef0118b516833ef2542132d3ca4ac6c77f62f1230fa61055565b60006110e26111a7565b600160a060020a0316638d0680436040518163ffffffff1660e060020a028152600401602060405180830381600087803b15801561111f57600080fd5b505af1158015611133573d6000803e3d6000fd5b505050506040513d602081101561114957600080fd5b5051905090565b7f02016836a56b71f0d02689e69e326f4f4c1b9057164ef592671cf0d37c8040c060005260026020527fb7802e97e87ef2842a6cce7da7ffaeaedaa2f61a6a7870b23d9d01fc9b73712e54600160a060020a031690565b7f5a74bb7e202fb8e4bf311841c7d64ec19df195fee77d7e7ae749b27921b6ddfe60005260026020527fab54f3fbbe62c59b7876a9bf9bd5e0c22dbae93f4d8ee0438f7ce62b198eb0e054600160a060020a031690565b7fb120ceec05576ad0c710bc6e85f1768535e27554458f05dcbb5c65b8c7a749b060009081526020527fe66bef0282a446f9848e2903380099bb6e431483ee78778868f33b4a154c818b5490565b600660026000909192565b7f7f0fcd9e49860f055dd0c1682d635d309ecb5e3011654c716d9eb59a7ddec7d25490565b611284611150565b600160a060020a0316331461129857600080fd5b7f6778a39b83358b10315b40840597142f1db77a44f312ed9c0e45ee7af3bbc55260005260026020527fd0cda424605c5e6787a1f6db37df501d2e0a58cfcd57eff91a537a67146f164f805473ffffffffffffffffffffffffffffffffffffffff1916600160a060020a0392909216919091179055565b611317611150565b600160a060020a0316331461132b57600080fd5b611334816119ef565b50565b7fbbd454018e72a3f6c02bbd785bacc49e46292744f3f6761276723823aa33232060009081526020527f242329173dfc316001df0a0c3d5a8f58a7ffb1a8b7d99c268303b9a741bacdf95490565b61138d611150565b600160a060020a031633146113a157600080fd5b611334816119d9565b6113b2611150565b600160a060020a031633146113c657600080fd5b7fffa3a5a0e192028fc343362a39c5688e5a60819a4dc5ab3ee70c25bc25b78dd660005260046020527f265a43ea29ede07170a30cb6d77d0ab5810eee752b72432f7be348bde74aa08f805460ff1916911515919091179055565b6eb3f879cb30fe243b4dfee438691c0490565b6000600460008360405160200180807f6d65737361676543616c6c5374617475730000000000000000000000000000008152506011018260001916600019168152602001915050604051602081830303815290604052604051808280519060200190808383602083106108f65780518252601f1990920191602091820191016108d7565b7f7b58b2a669d8e0992eae9eaef641092c0f686fd31070e7236865557fa1571b5b5490565b7f1e8ecaafaddea96ed9ac6d2642dcdfe1bebe58a930b1085842d8fc122b371ee560009081526020527fd5c78dd9468716ca9bb96be25d56436811b20aab3523a9904b12deef1cab239d5490565b6000611538848484611d6b565b9050611542611d82565b9392505050565b7f7188f1264c90762deb4dbddcab803d6487a8f108fbcdec3ff08c642d35826f9f60009081526020527f508af815a456b6ded512875db9df6b2d5693ac1edc789fb62dc528b792885e515490565b60008060008360405160200180807f6661696c65644d6573736167654461746148617368000000000000000000000081525060150182600019166000191681526020019150506040516020818303038152906040526040518082805190602001908083835b6020831061161b5780518252601f1990920191602091820191016115fc565b51815160209384036101000a600019018019909216911617905260408051929094018290039091208652850195909552929092016000205495945050505050565b7f2670ecc91ec356e32067fd27b36614132d727b84a1e03e08f412a4f2cf07597460009081526020527f3d7fe2ee9790702383ef0118b516833ef2542132d3ca4ac6c77f62f1230fa6105490565b6000806000806116b86135d7565b60606116c48989611bb0565b6116cd89611bd8565b959b50939950919750909550909350909150610d6e90508686868a878787611cb8565b610a1084848080601f0160208091040260200160405190810160405280939291908181526020018383808284375050604080516020601f8a018190048102820181019092528881529450889350879250829150840183828082843750610d29945050505050565b61175f611150565b600160a060020a0316331461177357600080fd5b7f508af815a456b6ded512875db9df6b2d5693ac1edc789fb62dc528b792885e51919091557f6778a39b83358b10315b40840597142f1db77a44f312ed9c0e45ee7af3bbc55260005260026020527fd0cda424605c5e6787a1f6db37df501d2e0a58cfcd57eff91a537a67146f164f805473ffffffffffffffffffffffffffffffffffffffff1916600160a060020a03909216919091179055565b611816611150565b600160a060020a0316331461182a57600080fd5b61133481611a82565b7f55b3774520b5993024893d303890baa4e84b1244a43c60034d1ced2d3cf2b04b60009081526020527ff7d5eefab3776d7f0450bd0193564bcb4f832ce313ff2836c450fc63a4b944195490565b6000903b1190565b60008060008060008611801561189f5750600085115b15156118aa57600080fd5b858514156118b757600080fd5b506000925082915060ff905060015b8315806118d1575082155b1561191957831580156118e5575085828716145b156118ee578093505b821580156118fd575084828616145b15611906578092505b6101009190910260ff17906001016118c6565b5050600060208190527ff6c66672b1a9fe5622677597b0da8fd180a2c85696efbcf7fe4b1e0f4f0f6108949094557f2f30286a16f86ee067618e1a246990e40c07b7749418a6dd3133f9cfb7e814cc919091557f242329173dfc316001df0a0c3d5a8f58a7ffb1a8b7d99c268303b9a741bacdf9919091557ffb792ae4ad11102b93f26a51b3749c2b3667f8b561566a4806d49896928115949091527f7b62b32ff48350e85ce95b571fde6f8b1096bc44a26db769ad6d0b3a26bf1c6d55565b600081116119e657600080fd5b611334816121b4565b600081116119fc57600080fd5b7f916daedf6915000ff68ced2f0b6773fe6f2582237f92c3c95bb4d79407230071600090815260209081527fd2ea0feb732edb0ffe32efd33a6b9d24d46b16eb34a4d07ce256537b6f131e428290556040805183815290517f4fb76205cd57c896b21511d2114137d8e901b4ccd659e1a0f97d6306795264fb929181900390910190a150565b600160a060020a0381161515611a9757600080fd5b7f8be0079c531659141344cd1fd0a4f28419497f9722a3daafe3b4186f6b6457e0611ac0611150565b60408051600160a060020a03928316815291841660208301528051918290030190a17f02016836a56b71f0d02689e69e326f4f4c1b9057164ef592671cf0d37c8040c060005260026020527fb7802e97e87ef2842a6cce7da7ffaeaedaa2f61a6a7870b23d9d01fc9b73712e805473ffffffffffffffffffffffffffffffffffffffff1916600160a060020a0392909216919091179055565b7f0a6f646cd611241d8073675e00d1a1ff700fbf1b53fcf473de56d1e6e4b714ba60005260046020527f078d888f9b66f3f8bfa10909e31f1e16240db73449f0500afdbbe3a70da457cc805460ff19166001179055565b6000611bba610f6b565b14611bc457600080fd5b610e928282611bd16111a7565b600161223a565b6000806000806000611be86135d7565b6060600080604f915060208a01519850600160a060020a0360348b015116975060548a01518060601c975063ffffffff8160401c16965080601a1a95508060181a6001808260031b1b03818501945080858e01511687528260191a91506001808360031b1b039050818501945080858e0151166020880152848d51039350505050806040519080825280601f01601f191660200182016040528015611c97578160200160208202803883390190505b50925060248201915080826004350160208501375050919395979092949650565b611cc1876124c4565b1515611ccc57600080fd5b6020820151611cda9061250a565b1515611ce557600080fd5b611cee87610871565b15611cf857600080fd5b611d0387600161251c565b611d1f86868963ffffffff8816878760006020020151876125ee565b50505050505050565b80600160a060020a0381161515611d3e57600080fd5b600160a060020a0383161515611d5c57611d5782612645565b611d66565b611d668383612651565b505050565b6000611d7a84848460006126fe565b949350505050565b600080600080611d90611549565b9350831515611d9e57610a10565b611da6611018565b9250600160a060020a0383161515611dbd57610a10565b611dc5611421565b604080517fdd62ed3e0000000000000000000000000000000000000000000000000000000081523360048201523060248201529051919350600160a060020a0384169163dd62ed3e916044808201926020929091908290030181600087803b158015611e3057600080fd5b505af1158015611e44573d6000803e3d6000fd5b505050506040513d6020811015611e5a57600080fd5b50519050838110611f1357604080517f23b872dd000000000000000000000000000000000000000000000000000000008152336004820152600160a060020a038581166024830152604482018790529151918416916323b872dd916064808201926020929091908290030181600087803b158015611ed757600080fd5b505af1158015611eeb573d6000803e3d6000fd5b505050506040513d6020811015611f0157600080fd5b50511515611f0e57600080fd5b6120be565b6000811115611fc157604080517f23b872dd000000000000000000000000000000000000000000000000000000008152336004820152306024820152604481018390529051600160a060020a038416916323b872dd9160648083019260209291908290030181600087803b158015611f8a57600080fd5b505af1158015611f9e573d6000803e3d6000fd5b505050506040513d6020811015611fb457600080fd5b50511515611fc157600080fd5b81600160a060020a031663a0712d688286036040518263ffffffff1660e060020a02815260040180828152602001915050600060405180830381600087803b15801561200c57600080fd5b505af1158015612020573d6000803e3d6000fd5b5050505081600160a060020a031663a9059cbb84866040518363ffffffff1660e060020a0281526004018083600160a060020a0316600160a060020a0316815260200182815260200192505050602060405180830381600087803b15801561208757600080fd5b505af115801561209b573d6000803e3d6000fd5b505050506040513d60208110156120b157600080fd5b505115156120be57600080fd5b604080513060248201526044810186905260606064820152600060848201819052825180830360a401815260c490920183526020820180517bffffffffffffffffffffffffffffffffffffffffffffffffffffffff167fa4c0ed360000000000000000000000000000000000000000000000000000000017815292518251600160a060020a038816949192839291908190849084905b8381101561216c578181015183820152602001612154565b50505050905090810190601f1680156121995780820380516001836020036101000a031916815260200191505b509150506000604051808303816000865af150505050505050565b7f55b3774520b5993024893d303890baa4e84b1244a43c60034d1ced2d3cf2b04b600090815260209081527ff7d5eefab3776d7f0450bd0193564bcb4f832ce313ff2836c450fc63a4b944198290556040805183815290517f52264b89e0fceafb26e79fd49ef8a366eb6297483bf4035b027f0c99a7ad512e929181900390910190a150565b6000806000606060008060008060008060008b8061225c575061225c8f612884565b151561226757600080fd5b8c600160a060020a0316638d0680436040518163ffffffff1660e060020a028152600401602060405180830381600087803b1580156122a557600080fd5b505af11580156122b9573d6000803e3d6000fd5b505050506040513d60208110156122cf57600080fd5b505160018f0151909b5060ff1699508a8a10156122eb57600080fd5b6122f58f8d612898565b98508a604051908082528060200260200182016040528015612321578160200160208202803883390190505b509750600096505b8a8710156124b357866020028a6021010192508960200283019150866002018e01519550828e01519450818e01519350600189878787604051600081526020016040526040518085600019166000191681526020018460ff1660ff1681526020018360001916600019168152602001826000191660001916815260200194505050505060206040516020810390808403906000865af11580156123d0573d6000803e3d6000fd5b5050506020604051035190508c600160a060020a031663facd743b826040518263ffffffff1660e060020a0281526004018082600160a060020a0316600160a060020a03168152602001915050602060405180830381600087803b15801561243757600080fd5b505af115801561244b573d6000803e3d6000fd5b505050506040513d602081101561246157600080fd5b5051151561246e57600080fd5b6124788882612ab2565b1561248257600080fd5b80888881518110151561249157fe5b600160a060020a03909216602092830290910190910152600190960195612329565b505050505050505050505050505050565b7bffffffffffffffffffffffffffffffffffffffffffffffffffffffff1981167e0500000000000000000000000000000000000000000000000000000000000014919050565b6000612514610823565b909114919050565b80600460008460405160200180807f72656c617965644d657373616765730000000000000000000000000000000000815250600f0182600019166000191681526020019150506040516020818303038152906040526040518082805190602001908083835b602083106125a05780518252601f199092019160209182019101612581565b51815160209384036101000a60001901801990921691161790526040805192909401829003909120865285019590955292909201600020805460ff1916941515949094179093555050505050565b60006125fe888884888a88612b0d565b905061260a8682612c03565b80151561262f5761261b8683612c86565b6126258688612d95565b61262f8689612e83565b61263b88888884612f06565b5050505050505050565b3031610e928282612f54565b604080517f70a0823100000000000000000000000000000000000000000000000000000000815230600482015290518391600091600160a060020a038416916370a0823191602480830192602092919082900301818787803b1580156126b657600080fd5b505af11580156126ca573d6000803e3d6000fd5b505050506040513d60208110156126e057600080fd5b50519050610a10600160a060020a038516848363ffffffff612fbc16565b600080806060808261270e610f6b565b148061271d575061271d610f1a565b151561272857600080fd5b60648710158015612740575061273c61165c565b8711155b151561274b57600080fd5b63ffffffff60048901511693508363a9059cbb1415801561277057508363095ea7b314155b80156127805750836323b872dd14155b8015612790575083634000aea014155b80156127a057508363cae9ca5114155b15156127ab57600080fd5b6127b6898888613051565b9250925081886040516020018083805190602001908083835b602083106127ee5780518252601f1990920191602091820191016127cf565b51815160209384036101000a600019018019909216911617905285519190930192850191508083835b602083106128365780518252601f199092019160209182019101612817565b6001836020036101000a0380198251168184511680821785525050505050509050019250505060405160208183030381529060405290506128778382613107565b5090979650505050505050565b600061288e6131a4565b8251149050919050565b60408051808201909152601a81527f19457468657265756d205369676e6564204d6573736167653a0a000000000000602082015260009060608315612a3e57816128e286516131a9565b866040516020018084805190602001908083835b602083106129155780518252601f1990920191602091820191016128f6565b51815160209384036101000a600019018019909216911617905286519190930192860191508083835b6020831061295d5780518252601f19909201916020918201910161293e565b51815160209384036101000a600019018019909216911617905285519190930192850191508083835b602083106129a55780518252601f199092019160209182019101612986565b6001836020036101000a03801982511681845116808217855250505050505090500193505050506040516020818303038152906040526040518082805190602001908083835b60208310612a0a5780518252601f1990920191602091820191016129eb565b6001836020036101000a03801982511681845116808217855250505050505090500191505060405180910390209250612aaa565b6040805190810160405280600381526020017f31303400000000000000000000000000000000000000000000000000000000008152509050818186604051602001808480519060200190808383602083106129155780518252601f1990920191602091820191016128f6565b505092915050565b6000805b8351811015612b015782600160a060020a03168482815181101515612ad757fe5b90602001906020020151600160a060020a03161415612af95760019150612b06565b600101612ab6565b600091505b5092915050565b600080612b19886132d0565b612b22846132f4565b612b2b83613318565b8463ffffffff1480612b4b57508460405a603f02811515612b4857fe5b04115b1515612b5657600080fd5b86600160a060020a0316858760405180828051906020019080838360005b83811015612b8c578181015183820152602001612b74565b50505050905090810190601f168015612bb95780820380516001836020036101000a031916815260200191505b5091505060006040518083038160008787f1925050509050612bda8161333c565b612be460006132d0565b612bee60006132f4565b612bf86000613318565b979650505050505050565b80600460008460405160200180807f6d65737361676543616c6c5374617475730000000000000000000000000000008152506011018260001916600019168152602001915050604051602081830303815290604052604051808280519060200190808383602083106125a05780518252601f199092019160209182019101612581565b806040518082805190602001908083835b60208310612cb65780518252601f199092019160209182019101612c97565b51815160209384036101000a6000190180199092169116179052604080519290940182900382207f6661696c65644d657373616765446174614861736800000000000000000000008383015260358084018a905285518085039091018152605590930194859052825190965060009550859492935082918401908083835b60208310612d535780518252601f199092019160209182019101612d34565b51815160209384036101000a60001901801990921691161790526040805192909401829003909120865285019590955292909201600020939093555050505050565b80600260008460405160200180807f6661696c65644d6573736167655265636569766572000000000000000000000081525060150182600019166000191681526020019150506040516020818303038152906040526040518082805190602001908083835b60208310612e195780518252601f199092019160209182019101612dfa565b51815160209384036101000a60001901801990921691161790526040805192909401829003909120865285019590955292909201600020805473ffffffffffffffffffffffffffffffffffffffff1916600160a060020a0395909516949094179093555050505050565b80600260008460405160200180807f6661696c65644d65737361676553656e64657200000000000000000000000000815250601301826000191660001916815260200191505060405160208183030381529060405260405180828051906020019080838360208310612e195780518252601f199092019160209182019101612dfa565b60408051821515815290518391600160a060020a0380871692908816917f27333edb8bdcd40a0ae944fb121b5e2d62ea782683946654a0f5e607a908d578919081900360200190a450505050565b604051600160a060020a0383169082156108fc029083906000818181858888f193505050501515610e92578082612f896135f2565b600160a060020a039091168152604051908190036020019082f080158015612fb5573d6000803e3d6000fd5b5050505050565b82600160a060020a031663a9059cbb83836040518363ffffffff1660e060020a0281526004018083600160a060020a0316600160a060020a0316815260200182815260200192505050600060405180830381600087803b15801561301f57600080fd5b505af1158015613033573d6000803e3d6000fd5b505050503d15611d665760206000803e6000511515611d6657600080fd5b60006060600080600080613063610823565b935061306d613393565b9250613077611337565b91506130816133e1565b905061308c8461342f565b95508083604f01016040519080825280601f01601f1916602001820160405280156130c1578160200160208202803883390190505b50945084518501828152848282035287604f87015281604e87015283604d87015288604c8701528960488701523360348701528660208701525050505050935093915050565b604080516020808252835181830152835185937f482515ce3d9494a37ce83f18b72b363449458435fafdd7a53ddea7460fe01b589386939092839283019185019080838360005b8381101561316657818101518382015260200161314e565b50505050905090810190601f1680156131935780820380516001836020036101000a031916815260200191505b509250505060405180910390a25050565b606890565b606060008082818515156131f25760408051808201909152600181527f3000000000000000000000000000000000000000000000000000000000000000602082015294506132c7565b8593505b831561320d57600190920191600a840493506131f6565b826040519080825280601f01601f19166020018201604052801561323b578160200160208202803883390190505b5091505060001982015b85156132c35781516000198201917f01000000000000000000000000000000000000000000000000000000000000006030600a8a06010291849190811061328857fe5b9060200101907effffffffffffffffffffffffffffffffffffffffffffffffffffffffffffff1916908160001a905350600a86049550613245565b8194505b50505050919050565b7f7b58b2a669d8e0992eae9eaef641092c0f686fd31070e7236865557fa1571b5b55565b7fe34bb2103dc34f2c144cc216c132d6ffb55dac57575c22e089161bbe6508330455565b7f7f0fcd9e49860f055dd0c1682d635d309ecb5e3011654c716d9eb59a7ddec7d255565b808061338857506000357bffffffffffffffffffffffffffffffffffffffffffffffffffffffff19167f3f7658fd00000000000000000000000000000000000000000000000000000000145b151561133457600080fd5b7fe504ae1fd6471eea80f18b8532a61a9bb91fba4f5b837f80a1cfb6752350af4460009081526020527f2f30286a16f86ee067618e1a246990e40c07b7749418a6dd3133f9cfb7e814cc5490565b7ffb792ae4ad11102b93f26a51b3749c2b3667f8b561566a4806d498969281159460009081526020527f7b62b32ff48350e85ce95b571fde6f8b1096bc44a26db769ad6d0b3a26bf1c6d5490565b600080600061343c613532565b915061344a82600101613580565b6040805160208082018790526c0100000000000000000000000030028284015282516034818403018152605490920192839052815191929182918401908083835b602083106134aa5780518252601f19909201916020918201910161348b565b5181516000196020949094036101000a93909301928316921916919091179052604051920182900390912067ffffffffffffffff86167bffffffffffffffffffffffffffffffffffffffff00000000000000009091169081177e0500000000000000000000000000000000000000000000000000000000000017965093505050505050919050565b7f7ab1577440dd7bedf920cb6de2f9fc6bf7ba98c78c85a3fa1f8311aac95e175960009081526020527fa9b0f75b23e377b9b22d27feaca5d8a12329c0049ebce1dc695b905f3aa4cd005490565b7f7ab1577440dd7bedf920cb6de2f9fc6bf7ba98c78c85a3fa1f8311aac95e1759600090815260205267ffffffffffffffff167fa9b0f75b23e377b9b22d27feaca5d8a12329c0049ebce1dc695b905f3aa4cd0055565b60408051808201825290600290829080388339509192915050565b604051602180613602833901905600608060405260405160208060218339810160405251600160a060020a038116ff00a165627a7a723058209ec692e479fe7435564a4c6d9c94ceb29ca3da0e621b1f0fbff0c8bd94b36e9b0029",
  "linkReferences": {},
  "deployedLinkReferences": {}
}