{
  "_format": "hh-sol-artifact-1",
  "contractName": "GasTokenMock",
  "sourceName": "contracts/mocks/GasTokenMock.sol",
  "abi": [
    {
      "constant": true,
      "inputs": [],
      "name": "name",
      "outputs": [
        {
          "name": "",
          "type": "string"
        }
      ],
      "payable": false,
      "stateMutability": "view",
      "type": "function"
    },
    {
      "constant": false,
      "inputs": [
        {
          "name": "from",
          "type": "address"
        },
        {
          "name": "value",
          "type": "uint256"
        }
      ],
      "name": "freeFromUpTo",
      "outputs": [
        {
          "name": "freed",
          "type": "uint256"
        }
      ],
      "payable": false,
      "stateMutability": "nonpayable",
      "type": "function"
    },
    {
      "constant": false,
      "inputs": [
        {
          "name": "spender",
          "type": "address"
        },
        {
          "name": "value",
          "type": "uint256"
        }
      ],
      "name": "approve",
      "outputs": [
        {
          "name": "success",
          "type": "bool"
        }
      ],
      "payable": false,
      "stateMutability": "nonpayable",
      "type": "function"
    },
    {
      "constant": true,
      "inputs": [],
      "name": "totalSupply",
      "outputs": [
        {
          "name": "supply",
          "type": "uint256"
        }
      ],
      "payable": false,
      "stateMutability": "view",
      "type": "function"
    },
    {
      "constant": false,
      "inputs": [
        {
          "name": "from",
          "type": "address"
        },
        {
          "name": "to",
          "type": "address"
        },
        {
          "name": "value",
          "type": "uint256"
        }
      ],
      "name": "transferFrom",
      "outputs": [
        {
          "name": "success",
          "type": "bool"
        }
      ],
      "payable": false,
      "stateMutability": "nonpayable",
      "type": "function"
    },
    {
      "constant": true,
      "inputs": [],
      "name": "decimals",
      "outputs": [
        {
          "name": "",
          "type": "uint8"
        }
      ],
      "payable": false,
      "stateMutability": "view",
      "type": "function"
    },
    {
      "constant": false,
      "inputs": [
        {
          "name": "from",
          "type": "address"
        },
        {
          "name": "value",
          "type": "uint256"
        }
      ],
      "name": "freeFrom",
      "outputs": [
        {
          "name": "success",
          "type": "bool"
        }
      ],
      "payable": false,
      "stateMutability": "nonpayable",
      "type": "function"
    },
    {
      "constant": false,
      "inputs": [
        {
          "name": "value",
          "type": "uint256"
        }
      ],
      "name": "freeUpTo",
      "outputs": [
        {
          "name": "freed",
          "type": "uint256"
        }
      ],
      "payable": false,
      "stateMutability": "nonpayable",
      "type": "function"
    },
    {
      "constant": true,
      "inputs": [
        {
          "name": "owner",
          "type": "address"
        }
      ],
      "name": "balanceOf",
      "outputs": [
        {
          "name": "balance",
          "type": "uint256"
        }
      ],
      "payable": false,
      "stateMutability": "view",
      "type": "function"
    },
    {
      "constant": true,
      "inputs": [],
      "name": "symbol",
      "outputs": [
        {
          "name": "",
          "type": "string"
        }
      ],
      "payable": false,
      "stateMutability": "view",
      "type": "function"
    },
    {
      "constant": false,
      "inputs": [
        {
          "name": "value",
          "type": "uint256"
        }
      ],
      "name": "mint",
      "outputs": [],
      "payable": false,
      "stateMutability": "nonpayable",
      "type": "function"
    },
    {
      "constant": false,
      "inputs": [
        {
          "name": "to",
          "type": "address"
        },
        {
          "name": "value",
          "type": "uint256"
        }
      ],
      "name": "transfer",
      "outputs": [
        {
          "name": "success",
          "type": "bool"
        }
      ],
      "payable": false,
      "stateMutability": "nonpayable",
      "type": "function"
    },
    {
      "constant": false,
      "inputs": [
        {
          "name": "value",
          "type": "uint256"
        }
      ],
      "name": "free",
      "outputs": [
        {
          "name": "success",
          "type": "bool"
        }
      ],
      "payable": false,
      "stateMutability": "nonpayable",
      "type": "function"
    },
    {
      "constant": true,
      "inputs": [
        {
          "name": "owner",
          "type": "address"
        },
        {
          "name": "spender",
          "type": "address"
        }
      ],
      "name": "allowance",
      "outputs": [
        {
          "name": "remaining",
          "type": "uint256"
        }
      ],
      "payable": false,
      "stateMutability": "view",
      "type": "function"
    },
    {
      "anonymous": false,
      "inputs": [
        {
          "indexed": true,
          "name": "from",
          "type": "address"
        },
        {
          "indexed": true,
          "name": "to",
          "type": "address"
        },
        {
          "indexed": false,
          "name": "value",
          "type": "uint256"
        }
      ],
      "name": "Transfer",
      "type": "event"
    },
    {
      "anonymous": false,
      "inputs": [
        {
          "indexed": true,
          "name": "owner",
          "type": "address"
        },
        {
          "indexed": true,
          "name": "spender",
          "type": "address"
        },
        {
          "indexed": false,
          "name": "value",
          "type": "uint256"
        }
      ],
      "name": "Approval",
      "type": "event"
    }
  ],
  "bytecode": "0x608060405234801561001057600080fd5b506109b8806100206000396000f3006080604052600436106100cf5763ffffffff7c010000000000000000000000000000000000000000000000000000000060003504166306fdde0381146100d4578063079d229f1461015e578063095ea7b31461019457806318160ddd146101cc57806323b872dd146101e1578063313ce5671461020b5780635f2e2b45146102365780636366b9361461025a57806370a082311461027257806395d89b4114610293578063a0712d68146102a8578063a9059cbb146102c2578063d8ccd0f3146102e6578063dd62ed3e146102fe575b600080fd5b3480156100e057600080fd5b506100e9610325565b6040805160208082528351818301528351919283929083019185019080838360005b8381101561012357818101518382015260200161010b565b50505050905090810190601f1680156101505780820380516001836020036101000a031916815260200191505b509250505060405180910390f35b34801561016a57600080fd5b50610182600160a060020a036004351660243561035c565b60408051918252519081900360200190f35b3480156101a057600080fd5b506101b8600160a060020a03600435166024356103ff565b604080519115158252519081900360200190f35b3480156101d857600080fd5b506101826104ac565b3480156101ed57600080fd5b506101b8600160a060020a03600435811690602435166044356104b6565b34801561021757600080fd5b50610220610536565b6040805160ff9092168252519081900360200190f35b34801561024257600080fd5b506101b8600160a060020a036004351660243561053b565b34801561026657600080fd5b506101826004356105e5565b34801561027e57600080fd5b50610182600160a060020a0360043516610628565b34801561029f57600080fd5b506100e9610643565b3480156102b457600080fd5b506102c060043561067a565b005b3480156102ce57600080fd5b506101b8600160a060020a03600435166024356106b7565b3480156102f257600080fd5b506101b86004356106cd565b34801561030a57600080fd5b50610182600160a060020a0360043581169060243516610712565b60408051808201909152600b81527f476173746f6b656e2e696f000000000000000000000000000000000000000000602082015281565b600160a060020a0382166000908152602081905260408120543390828082861115610385578295505b5050600160a060020a038086166000908152600160209081526040808320938616835290839052902054808611156103bb578095505b6103c48661073d565b600160a060020a038088166000908152602081815260408083208a8803905592871682528490522086820390558594505b5050505092915050565b60003382158015906104355750600160a060020a0380821660009081526001602090815260408083209388168352929052205415155b1561044357600091506104a5565b600160a060020a03808216600081815260016020908152604080832094891680845294825291829020879055815187815291517f8c5be1e5ebec7d5bd14f71427d1e84f3dd0314c0f7b2291e5b200ac8c7c3b9259281900390910190a3600191505b5092915050565b6003546002540390565b600160a060020a038316600090815260016020908152604080832033808552925282205483118015906104ef57506104ef858585610784565b1561052957600160a060020a038086166000908152600160208181526040808420948616845293905291902080548590039055915061052e565b600091505b509392505050565b600281565b600160a060020a038216600090815260208190526040812054339082808286111561056957600094506103f5565b5050600160a060020a038086166000908152600160209081526040808320938616835290839052902054808611156105a457600094506103f5565b6105ad8661073d565b600160a060020a0396871660009081526020818152604080832095899003909555949097168752925290932091909203905550600190565b3360009081526020819052604081205480831115610601578092505b61060a8361073d565b33600090815260208190526040902083820390558291505b50919050565b600160a060020a031660009081526020819052604090205490565b60408051808201909152600481527f4753543200000000000000000000000000000000000000000000000000000000602082015281565b60005b818110156106965761068d61081b565b5060010161067d565b50600280548201905533600090815260208190526040902080549091019055565b6000336106c5818585610784565b949350505050565b33600090815260208190526040812054808311156106ee5760009150610622565b6106f78361073d565b33600090815260208190526040902092900390915550600190565b600160a060020a03918216600090815260016020908152604080832093909416825291909152205490565b600354600181015b818301811161077d576107583082610851565b600160a060020a03166040516000604051808303816000865af1505050600101610745565b5001600355565b600160a060020a038316600090815260208190526040812054821161081057600160a060020a0380851660008181526020818152604080832080548890039055938716808352918490208054870190558351868152935191937fddf252ad1be2c89b69c2b068fc378daa952ba7f163c4a11628f55a4df523b3ef929081900390910190a3506001610814565b5060005b9392505050565b60006040517e756eb3f879cb30fe243b4dfee438691c043310585733ff6000526016600af38152601f600182016000f091505090565b6000808080808068ffffffffffffffffff87111561086e57600080fd5b86600010801561087e5750608087105b156108905760019450600193506108a2565b6108998761096f565b94508460010193505b6015840192507f010000000000000000000000000000000000000000000000000000000000000060d58501026a0100000000000000000000600160a060020a038a1602017e940000000000000000000000000000000000000000000000000000000000000191506000871180156109195750608087105b15610934578669010000000000000000000282019150610957565b8460800169010000000000000000000282019150846009036101000a8702820191505b50604051908152600191909101902095945050505050565b60008060015b8084106104a55760019190910190610100026109755600a165627a7a723058204b4131940e22f2f927e107e442437b4b6ab8ad37e95fac031463a393793bcc070029",
  "linkReferences": {},
  "deployedLinkReferences": {}
}