{
  "_format": "hh-sol-artifact-1",
  "contractName": "OldBlockReward",
  "sourceName": "contracts/mocks/OldBlockReward.sol",
  "abi": [
    {
      "constant": true,
      "inputs": [],
      "name": "bridgesAllowedLength",
      "outputs": [
        {
          "name": "",
          "type": "uint256"
        }
      ],
      "payable": false,
      "stateMutability": "view",
      "type": "function"
    }
  ],
  "bytecode": "0x6080604052348015600f57600080fd5b5060988061001e6000396000f300608060405260043610603e5763ffffffff7c010000000000000000000000000000000000000000000000000000000060003504166310f2ee7c81146043575b600080fd5b348015604e57600080fd5b5060556067565b60408051918252519081900360200190f35b6003905600a165627a7a723058205a07964aa9547ea42221dacdec7dd0fad4940fc01d055772b865029d833fda2b0029",
  "linkReferences": {},
  "deployedLinkReferences": {}
}