{
  "_format": "hh-sol-artifact-1",
  "contractName": "XDaiForeignBridge",
  "sourceName": "contracts/upgradeable_contracts/erc20_to_native/XDaiForeignBridge.sol",
  "abi": [
    {
      "constant": false,
      "inputs": [
        {
          "name": "_receiver",
          "type": "address"
        },
        {
          "name": "_amount",
          "type": "uint256"
        }
      ],
      "name": "relayTokens",
      "outputs": [],
      "payable": false,
      "stateMutability": "nonpayable",
      "type": "function"
    },
    {
      "constant": false,
      "inputs": [
        {
          "name": "_token",
          "type": "address"
        }
      ],
      "name": "invest",
      "outputs": [],
      "payable": false,
      "stateMutability": "nonpayable",
      "type": "function"
    },
    {
      "constant": true,
      "inputs": [],
      "name": "erc20token",
      "outputs": [
        {
          "name": "",
          "type": "address"
        }
      ],
      "payable": false,
      "stateMutability": "view",
      "type": "function"
    },
    {
      "constant": false,
      "inputs": [
        {
          "name": "message",
          "type": "bytes"
        },
        {
          "name": "signatures",
          "type": "bytes"
        },
        {
          "name": "maxTokensFee",
          "type": "uint256"
        }
      ],
      "name": "executeSignaturesGSN",
      "outputs": [],
      "payable": false,
      "stateMutability": "nonpayable",
      "type": "function"
    },
    {
      "constant": true,
      "inputs": [
        {
          "name": "_txHash",
          "type": "bytes32"
        }
      ],
      "name": "relayedMessages",
      "outputs": [
        {
          "name": "",
          "type": "bool"
        }
      ],
      "payable": false,
      "stateMutability": "view",
      "type": "function"
    },
    {
      "constant": true,
      "inputs": [
        {
          "name": "_day",
          "type": "uint256"
        }
      ],
      "name": "totalSpentPerDay",
      "outputs": [
        {
          "name": "",
          "type": "uint256"
        }
      ],
      "payable": false,
      "stateMutability": "view",
      "type": "function"
    },
    {
      "constant": true,
      "inputs": [],
      "name": "isInitialized",
      "outputs": [
        {
          "name": "",
          "type": "bool"
        }
      ],
      "payable": false,
      "stateMutability": "view",
      "type": "function"
    },
    {
      "constant": false,
      "inputs": [
        {
          "name": "_dailyLimit",
          "type": "uint256"
        }
      ],
      "name": "setExecutionDailyLimit",
      "outputs": [],
      "payable": false,
      "stateMutability": "nonpayable",
      "type": "function"
    },
    {
      "constant": true,
      "inputs": [],
      "name": "getCurrentDay",
      "outputs": [
        {
          "name": "",
          "type": "uint256"
        }
      ],
      "payable": false,
      "stateMutability": "view",
      "type": "function"
    },
    {
      "constant": true,
      "inputs": [],
      "name": "requiredBlockConfirmations",
      "outputs": [
        {
          "name": "",
          "type": "uint256"
        }
      ],
      "payable": false,
      "stateMutability": "view",
      "type": "function"
    },
    {
      "constant": false,
      "inputs": [
        {
          "name": "message",
          "type": "bytes"
        },
        {
          "name": "signatures",
          "type": "bytes"
        }
      ],
      "name": "executeSignatures",
      "outputs": [],
      "payable": false,
      "stateMutability": "nonpayable",
      "type": "function"
    },
    {
      "constant": true,
      "inputs": [],
      "name": "getBridgeMode",
      "outputs": [
        {
          "name": "_data",
          "type": "bytes4"
        }
      ],
      "payable": false,
      "stateMutability": "pure",
      "type": "function"
    },
    {
      "constant": true,
      "inputs": [],
      "name": "executionDailyLimit",
      "outputs": [
        {
          "name": "",
          "type": "uint256"
        }
      ],
      "payable": false,
      "stateMutability": "view",
      "type": "function"
    },
    {
      "constant": true,
      "inputs": [
        {
          "name": "_token",
          "type": "address"
        }
      ],
      "name": "minInterestPaid",
      "outputs": [
        {
          "name": "",
          "type": "uint256"
        }
      ],
      "payable": false,
      "stateMutability": "view",
      "type": "function"
    },
    {
      "constant": true,
      "inputs": [],
      "name": "versionRecipient",
      "outputs": [
        {
          "name": "",
          "type": "string"
        }
      ],
      "payable": false,
      "stateMutability": "view",
      "type": "function"
    },
    {
      "constant": true,
      "inputs": [
        {
          "name": "_day",
          "type": "uint256"
        }
      ],
      "name": "totalExecutedPerDay",
      "outputs": [
        {
          "name": "",
          "type": "uint256"
        }
      ],
      "payable": false,
      "stateMutability": "view",
      "type": "function"
    },
    {
      "constant": true,
      "inputs": [
        {
          "name": "_token",
          "type": "address"
        }
      ],
      "name": "minCashThreshold",
      "outputs": [
        {
          "name": "",
          "type": "uint256"
        }
      ],
      "payable": false,
      "stateMutability": "view",
      "type": "function"
    },
    {
      "constant": true,
      "inputs": [
        {
          "name": "forwarder",
          "type": "address"
        }
      ],
      "name": "isTrustedForwarder",
      "outputs": [
        {
          "name": "",
          "type": "bool"
        }
      ],
      "payable": false,
      "stateMutability": "view",
      "type": "function"
    },
    {
      "constant": true,
      "inputs": [],
      "name": "comptroller",
      "outputs": [
        {
          "name": "",
          "type": "address"
        }
      ],
      "payable": false,
      "stateMutability": "pure",
      "type": "function"
    },
    {
      "constant": true,
      "inputs": [],
      "name": "compToken",
      "outputs": [
        {
          "name": "",
          "type": "address"
        }
      ],
      "payable": false,
      "stateMutability": "pure",
      "type": "function"
    },
    {
      "constant": true,
      "inputs": [],
      "name": "dailyLimit",
      "outputs": [
        {
          "name": "",
          "type": "uint256"
        }
      ],
      "payable": false,
      "stateMutability": "view",
      "type": "function"
    },
    {
      "constant": false,
      "inputs": [
        {
          "name": "_token",
          "type": "address"
        },
        {
          "name": "_to",
          "type": "address"
        }
      ],
      "name": "claimTokens",
      "outputs": [],
      "payable": false,
      "stateMutability": "nonpayable",
      "type": "function"
    },
    {
      "constant": false,
      "inputs": [
        {
          "name": "_validatorContract",
          "type": "address"
        },
        {
          "name": "_erc20token",
          "type": "address"
        },
        {
          "name": "_requiredBlockConfirmations",
          "type": "uint256"
        },
        {
          "name": "_gasPrice",
          "type": "uint256"
        },
        {
          "name": "_dailyLimitMaxPerTxMinPerTxArray",
          "type": "uint256[3]"
        },
        {
          "name": "_homeDailyLimitHomeMaxPerTxArray",
          "type": "uint256[2]"
        },
        {
          "name": "_owner",
          "type": "address"
        },
        {
          "name": "_decimalShift",
          "type": "int256"
        },
        {
          "name": "_bridgeOnOtherSide",
          "type": "address"
        }
      ],
      "name": "initialize",
      "outputs": [
        {
          "name": "",
          "type": "bool"
        }
      ],
      "payable": false,
      "stateMutability": "nonpayable",
      "type": "function"
    },
    {
      "constant": false,
      "inputs": [],
      "name": "investDai",
      "outputs": [],
      "payable": false,
      "stateMutability": "nonpayable",
      "type": "function"
    },
    {
      "constant": false,
      "inputs": [],
      "name": "claimCompAndPay",
      "outputs": [],
      "payable": false,
      "stateMutability": "nonpayable",
      "type": "function"
    },
    {
      "constant": false,
      "inputs": [
        {
          "name": "_paymaster",
          "type": "address"
        }
      ],
      "name": "setPayMaster",
      "outputs": [],
      "payable": false,
      "stateMutability": "nonpayable",
      "type": "function"
    },
    {
      "constant": true,
      "inputs": [
        {
          "name": "_amount",
          "type": "uint256"
        }
      ],
      "name": "withinExecutionLimit",
      "outputs": [
        {
          "name": "",
          "type": "bool"
        }
      ],
      "payable": false,
      "stateMutability": "view",
      "type": "function"
    },
    {
      "constant": true,
      "inputs": [],
      "name": "executionMaxPerTx",
      "outputs": [
        {
          "name": "",
          "type": "uint256"
        }
      ],
      "payable": false,
      "stateMutability": "view",
      "type": "function"
    },
    {
      "constant": false,
      "inputs": [
        {
          "name": "_interestReceiver",
          "type": "address"
        }
      ],
      "name": "upgradeTo530",
      "outputs": [],
      "payable": false,
      "stateMutability": "nonpayable",
      "type": "function"
    },
    {
      "constant": true,
      "inputs": [],
      "name": "requiredSignatures",
      "outputs": [
        {
          "name": "",
          "type": "uint256"
        }
      ],
      "payable": false,
      "stateMutability": "view",
      "type": "function"
    },
    {
      "constant": true,
      "inputs": [],
      "name": "owner",
      "outputs": [
        {
          "name": "",
          "type": "address"
        }
      ],
      "payable": false,
      "stateMutability": "view",
      "type": "function"
    },
    {
      "constant": false,
      "inputs": [
        {
          "name": "_token",
          "type": "address"
        },
        {
          "name": "_receiver",
          "type": "address"
        }
      ],
      "name": "setInterestReceiver",
      "outputs": [],
      "payable": false,
      "stateMutability": "nonpayable",
      "type": "function"
    },
    {
      "constant": true,
      "inputs": [],
      "name": "maxAvailablePerTx",
      "outputs": [
        {
          "name": "",
          "type": "uint256"
        }
      ],
      "payable": false,
      "stateMutability": "view",
      "type": "function"
    },
    {
      "constant": true,
      "inputs": [],
      "name": "validatorContract",
      "outputs": [
        {
          "name": "",
          "type": "address"
        }
      ],
      "payable": false,
      "stateMutability": "view",
      "type": "function"
    },
    {
      "constant": true,
      "inputs": [],
      "name": "deployedAtBlock",
      "outputs": [
        {
          "name": "",
          "type": "uint256"
        }
      ],
      "payable": false,
      "stateMutability": "view",
      "type": "function"
    },
    {
      "constant": true,
      "inputs": [],
      "name": "getBridgeInterfacesVersion",
      "outputs": [
        {
          "name": "major",
          "type": "uint64"
        },
        {
          "name": "minor",
          "type": "uint64"
        },
        {
          "name": "patch",
          "type": "uint64"
        }
      ],
      "payable": false,
      "stateMutability": "pure",
      "type": "function"
    },
    {
      "constant": false,
      "inputs": [
        {
          "name": "_minPerTx",
          "type": "uint256"
        }
      ],
      "name": "setMinPerTx",
      "outputs": [],
      "payable": false,
      "stateMutability": "nonpayable",
      "type": "function"
    },
    {
      "constant": false,
      "inputs": [
        {
          "name": "_token",
          "type": "address"
        },
        {
          "name": "_minInterestPaid",
          "type": "uint256"
        }
      ],
      "name": "setMinInterestPaid",
      "outputs": [],
      "payable": false,
      "stateMutability": "nonpayable",
      "type": "function"
    },
    {
      "constant": false,
      "inputs": [
        {
          "name": "_token",
          "type": "address"
        },
        {
          "name": "_minCashThreshold",
          "type": "uint256"
        }
      ],
      "name": "setMinCashThreshold",
      "outputs": [],
      "payable": false,
      "stateMutability": "nonpayable",
      "type": "function"
    },
    {
      "constant": true,
      "inputs": [
        {
          "name": "_token",
          "type": "address"
        }
      ],
      "name": "interestReceiver",
      "outputs": [
        {
          "name": "",
          "type": "address"
        }
      ],
      "payable": false,
      "stateMutability": "view",
      "type": "function"
    },
    {
      "constant": false,
      "inputs": [
        {
          "name": "_blockConfirmations",
          "type": "uint256"
        }
      ],
      "name": "setRequiredBlockConfirmations",
      "outputs": [],
      "payable": false,
      "stateMutability": "nonpayable",
      "type": "function"
    },
    {
      "constant": false,
      "inputs": [
        {
          "name": "_dailyLimit",
          "type": "uint256"
        }
      ],
      "name": "setDailyLimit",
      "outputs": [],
      "payable": false,
      "stateMutability": "nonpayable",
      "type": "function"
    },
    {
      "constant": true,
      "inputs": [],
      "name": "cDaiToken",
      "outputs": [
        {
          "name": "",
          "type": "address"
        }
      ],
      "payable": false,
      "stateMutability": "pure",
      "type": "function"
    },
    {
      "constant": true,
      "inputs": [],
      "name": "daiToken",
      "outputs": [
        {
          "name": "",
          "type": "address"
        }
      ],
      "payable": false,
      "stateMutability": "pure",
      "type": "function"
    },
    {
      "constant": false,
      "inputs": [
        {
          "name": "_gasPrice",
          "type": "uint256"
        }
      ],
      "name": "setGasPrice",
      "outputs": [],
      "payable": false,
      "stateMutability": "nonpayable",
      "type": "function"
    },
    {
      "constant": false,
      "inputs": [
        {
          "name": "_maxPerTx",
          "type": "uint256"
        }
      ],
      "name": "setMaxPerTx",
      "outputs": [],
      "payable": false,
      "stateMutability": "nonpayable",
      "type": "function"
    },
    {
      "constant": true,
      "inputs": [
        {
          "name": "_token",
          "type": "address"
        }
      ],
      "name": "interestAmount",
      "outputs": [
        {
          "name": "",
          "type": "uint256"
        }
      ],
      "payable": false,
      "stateMutability": "view",
      "type": "function"
    },
    {
      "constant": false,
      "inputs": [
        {
          "name": "_token",
          "type": "address"
        },
        {
          "name": "_minCashThreshold",
          "type": "uint256"
        },
        {
          "name": "_minInterestPaid",
          "type": "uint256"
        },
        {
          "name": "_interestReceiver",
          "type": "address"
        }
      ],
      "name": "initializeInterest",
      "outputs": [],
      "payable": false,
      "stateMutability": "nonpayable",
      "type": "function"
    },
    {
      "constant": true,
      "inputs": [],
      "name": "getTrustedForwarder",
      "outputs": [
        {
          "name": "",
          "type": "address"
        }
      ],
      "payable": false,
      "stateMutability": "view",
      "type": "function"
    },
    {
      "constant": true,
      "inputs": [
        {
          "name": "_token",
          "type": "address"
        }
      ],
      "name": "investedAmount",
      "outputs": [
        {
          "name": "",
          "type": "uint256"
        }
      ],
      "payable": false,
      "stateMutability": "view",
      "type": "function"
    },
    {
      "constant": false,
      "inputs": [
        {
          "name": "_token",
          "type": "address"
        }
      ],
      "name": "payInterest",
      "outputs": [],
      "payable": false,
      "stateMutability": "nonpayable",
      "type": "function"
    },
    {
      "constant": true,
      "inputs": [
        {
          "name": "_token",
          "type": "address"
        }
      ],
      "name": "isInterestEnabled",
      "outputs": [
        {
          "name": "",
          "type": "bool"
        }
      ],
      "payable": false,
      "stateMutability": "view",
      "type": "function"
    },
    {
      "constant": false,
      "inputs": [
        {
          "name": "_trustedForwarder",
          "type": "address"
        }
      ],
      "name": "setTrustedForwarder",
      "outputs": [],
      "payable": false,
      "stateMutability": "nonpayable",
      "type": "function"
    },
    {
      "constant": true,
      "inputs": [],
      "name": "decimalShift",
      "outputs": [
        {
          "name": "",
          "type": "int256"
        }
      ],
      "payable": false,
      "stateMutability": "view",
      "type": "function"
    },
    {
      "constant": true,
      "inputs": [],
      "name": "minPerTx",
      "outputs": [
        {
          "name": "",
          "type": "uint256"
        }
      ],
      "payable": false,
      "stateMutability": "view",
      "type": "function"
    },
    {
      "constant": true,
      "inputs": [
        {
          "name": "_amount",
          "type": "uint256"
        }
      ],
      "name": "withinLimit",
      "outputs": [
        {
          "name": "",
          "type": "bool"
        }
      ],
      "payable": false,
      "stateMutability": "view",
      "type": "function"
    },
    {
      "constant": false,
      "inputs": [
        {
          "name": "_maxPerTx",
          "type": "uint256"
        }
      ],
      "name": "setExecutionMaxPerTx",
      "outputs": [],
      "payable": false,
      "stateMutability": "nonpayable",
      "type": "function"
    },
    {
      "constant": false,
      "inputs": [
        {
          "name": "newOwner",
          "type": "address"
        }
      ],
      "name": "transferOwnership",
      "outputs": [],
      "payable": false,
      "stateMutability": "nonpayable",
      "type": "function"
    },
    {
      "constant": false,
      "inputs": [
        {
          "name": "_token",
          "type": "address"
        }
      ],
      "name": "disableInterest",
      "outputs": [],
      "payable": false,
      "stateMutability": "nonpayable",
      "type": "function"
    },
    {
      "constant": true,
      "inputs": [],
      "name": "maxPerTx",
      "outputs": [
        {
          "name": "",
          "type": "uint256"
        }
      ],
      "payable": false,
      "stateMutability": "view",
      "type": "function"
    },
    {
      "constant": true,
      "inputs": [],
      "name": "gasPrice",
      "outputs": [
        {
          "name": "",
          "type": "uint256"
        }
      ],
      "payable": false,
      "stateMutability": "view",
      "type": "function"
    },
    {
      "anonymous": false,
      "inputs": [
        {
          "indexed": true,
          "name": "token",
          "type": "address"
        },
        {
          "indexed": false,
          "name": "to",
          "type": "address"
        },
        {
          "indexed": false,
          "name": "value",
          "type": "uint256"
        }
      ],
      "name": "PaidInterest",
      "type": "event"
    },
    {
      "anonymous": false,
      "inputs": [
        {
          "indexed": false,
          "name": "recipient",
          "type": "address"
        },
        {
          "indexed": false,
          "name": "value",
          "type": "uint256"
        },
        {
          "indexed": false,
          "name": "transactionHash",
          "type": "bytes32"
        }
      ],
      "name": "RelayedMessage",
      "type": "event"
    },
    {
      "anonymous": false,
      "inputs": [
        {
          "indexed": false,
          "name": "recipient",
          "type": "address"
        },
        {
          "indexed": false,
          "name": "value",
          "type": "uint256"
        }
      ],
      "name": "UserRequestForAffirmation",
      "type": "event"
    },
    {
      "anonymous": false,
      "inputs": [
        {
          "indexed": false,
          "name": "newLimit",
          "type": "uint256"
        }
      ],
      "name": "DailyLimitChanged",
      "type": "event"
    },
    {
      "anonymous": false,
      "inputs": [
        {
          "indexed": false,
          "name": "newLimit",
          "type": "uint256"
        }
      ],
      "name": "ExecutionDailyLimitChanged",
      "type": "event"
    },
    {
      "anonymous": false,
      "inputs": [
        {
          "indexed": false,
          "name": "gasPrice",
          "type": "uint256"
        }
      ],
      "name": "GasPriceChanged",
      "type": "event"
    },
    {
      "anonymous": false,
      "inputs": [
        {
          "indexed": false,
          "name": "requiredBlockConfirmations",
          "type": "uint256"
        }
      ],
      "name": "RequiredBlockConfirmationChanged",
      "type": "event"
    },
    {
      "anonymous": false,
      "inputs": [
        {
          "indexed": false,
          "name": "previousOwner",
          "type": "address"
        },
        {
          "indexed": false,
          "name": "newOwner",
          "type": "address"
        }
      ],
      "name": "OwnershipTransferred",
      "type": "event"
    }
  ],
  "bytecode": "0x608060405234801561001057600080fd5b50614454806100206000396000f3006080604052600436106102bb5763ffffffff60e060020a60003504166301e4f53a81146102c057806303f9c793146102e65780631dcea427146103075780631e86b2911461033857806321d800ec146103675780632bd0bb0514610393578063392e53cd146103bd5780633dd95d1b146103d25780633e6968b6146103ea5780633f0a9f65146103ff5780633f7658fd14610414578063437764df1461044057806343b37dd31461048a5780634774f5631461049f578063486ff0cd146104c05780634fb3fef71461054a5780635726ff3014610562578063572b6c05146105835780635fe3b567146105a45780636605dfa7146105b957806367eeba0c146105ce57806369ffa08a146105e35780636da8b9961461060a57806374948c5214610652578063840b6b9b1461066757806384fe8ab21461067c578063879ce6761461069d5780638aa1949a146106b55780638c85c780146106ca5780638d068043146106eb5780638da5cb5b14610700578063904377ec1461071557806395e54a171461073c57806399439089146107515780639a454b99146107665780639cb7595a1461077b578063a2a6ca27146107bc578063a36b85fd146107d4578063a4b4b233146107f8578063a83bb2361461081c578063acf5c6891461083d578063b20d30a914610855578063ba266b131461086d578063be22f54614610882578063bf1fe42014610897578063c6f6f216146108af578063c779c1c3146108c7578063cd0fc033146108e8578063ce1b815f14610917578063cff774441461092c578063d007c6441461094d578063d2ef86601461096e578063da7422281461098f578063dae5f0fd146109b0578063df25f3f0146109c5578063ea9f4968146109da578063f20151e1146109f2578063f2fde38b14610a0a578063f50dace614610a2b578063f968adbe14610a4c578063fe173b9714610a61575b600080fd5b3480156102cc57600080fd5b506102e4600160a060020a0360043516602435610a76565b005b3480156102f257600080fd5b506102e4600160a060020a0360043516610be0565b34801561031357600080fd5b5061031c610c54565b60408051600160a060020a039092168252519081900360200190f35b34801561034457600080fd5b506102e46024600480358281019290820135918135918201910135604435610c63565b34801561037357600080fd5b5061037f600435610e5c565b604080519115158252519081900360200190f35b34801561039f57600080fd5b506103ab600435610f25565b60408051918252519081900360200190f35b3480156103c957600080fd5b5061037f610fe2565b3480156103de57600080fd5b506102e4600435611033565b3480156103f657600080fd5b506103ab6110f3565b34801561040b57600080fd5b506103ab6110fc565b34801561042057600080fd5b506102e4602460048035828101929082013591813591820191013561114a565b34801561044c57600080fd5b506104556112b8565b604080517fffffffff000000000000000000000000000000000000000000000000000000009092168252519081900360200190f35b34801561049657600080fd5b506103ab6112dc565b3480156104ab57600080fd5b506103ab600160a060020a036004351661132a565b3480156104cc57600080fd5b506104d56113bd565b6040805160208082528351818301528351919283929083019185019080838360005b8381101561050f5781810151838201526020016104f7565b50505050905090810190601f16801561053c5780820380516001836020036101000a031916815260200191505b509250505060405180910390f35b34801561055657600080fd5b506103ab6004356113f4565b34801561056e57600080fd5b506103ab600160a060020a036004351661146f565b34801561058f57600080fd5b5061037f600160a060020a0360043516611502565b3480156105b057600080fd5b5061031c61155e565b3480156105c557600080fd5b5061031c611576565b3480156105da57600080fd5b506103ab61158e565b3480156105ef57600080fd5b506102e4600160a060020a03600435811690602435166115dc565b34801561061657600080fd5b5061037f600160a060020a03600435811690602435811690604435906064359060849060e4906101243581169061014435906101643516611700565b34801561065e57600080fd5b506102e46119c7565b34801561067357600080fd5b506102e46119d9565b34801561068857600080fd5b506102e4600160a060020a0360043516611bbf565b3480156106a957600080fd5b5061037f600435611c52565b3480156106c157600080fd5b506103ab611c90565b3480156106d657600080fd5b506102e4600160a060020a0360043516611cde565b3480156106f757600080fd5b506103ab611d62565b34801561070c57600080fd5b5061031c611dda565b34801561072157600080fd5b506102e4600160a060020a0360043581169060243516611e31565b34801561074857600080fd5b506103ab611e5b565b34801561075d57600080fd5b5061031c611eb5565b34801561077257600080fd5b506103ab611f0c565b34801561078757600080fd5b50610790611f5a565b6040805167ffffffffffffffff9485168152928416602084015292168183015290519081900360600190f35b3480156107c857600080fd5b506102e4600435611f65565b3480156107e057600080fd5b506102e4600160a060020a0360043516602435612001565b34801561080457600080fd5b506102e4600160a060020a0360043516602435612027565b34801561082857600080fd5b5061031c600160a060020a036004351661204d565b34801561084957600080fd5b506102e460043561212c565b34801561086157600080fd5b506102e4600435612154565b34801561087957600080fd5b5061031c612214565b34801561088e57600080fd5b5061031c61222c565b3480156108a357600080fd5b506102e4600435612244565b3480156108bb57600080fd5b506102e4600435612269565b3480156108d357600080fd5b506103ab600160a060020a0360043516612301565b3480156108f457600080fd5b506102e4600160a060020a036004358116906024359060443590606435166123c5565b34801561092357600080fd5b5061031c612431565b34801561093857600080fd5b506103ab600160a060020a0360043516612488565b34801561095957600080fd5b506102e4600160a060020a036004351661251b565b34801561097a57600080fd5b5061037f600160a060020a0360043516612575565b34801561099b57600080fd5b506102e4600160a060020a0360043516612609565b3480156109bc57600080fd5b506103ab61269c565b3480156109d157600080fd5b506103ab6126ea565b3480156109e657600080fd5b5061037f600435612738565b3480156109fe57600080fd5b506102e4600435612783565b348015610a1657600080fd5b506102e4600160a060020a03600435166127ff565b348015610a3757600080fd5b506102e4600160a060020a0360043516612824565b348015610a5857600080fd5b506103ab612857565b348015610a6d57600080fd5b506103ab6128a5565b610a7e6128f3565b600160a060020a0383811691161415610a9657600080fd5b600160a060020a0382161515610aab57600080fd5b600160a060020a038216301415610ac157600080fd5b60008111610ace57600080fd5b610ad781612738565b1515610ae257600080fd5b610af3610aed6110f3565b8261294a565b610afb610c54565b604080517f23b872dd000000000000000000000000000000000000000000000000000000008152336004820152306024820152604481018490529051600160a060020a0392909216916323b872dd916064808201926020929091908290030181600087803b158015610b6c57600080fd5b505af1158015610b80573d6000803e3d6000fd5b505050506040513d6020811015610b9657600080fd5b505060408051600160a060020a03841681526020810183905281517f1d491a427d1f8cc0d447496f300fac39f7306122481d8e663451eb268274146b929181900390910190a15050565b600080600083610bef81612575565b1515610bfa57600080fd5b610c0385612a13565b9350610c0e8561146f565b9250828411610c1c57600080fd5b8284039150610c4385610c3e84610c3289612488565b9063ffffffff612aa916565b612abc565b610c4d8583612b4e565b5050505050565b6000610c5e61222c565b905090565b600080600080610c7233611502565b1515610cdf57604080517f08c379a000000000000000000000000000000000000000000000000000000000815260206004820152601160248201527f696e76616c696420666f72776172646572000000000000000000000000000000604482015290519081900360640190fd5b610d5189898080601f0160208091040260200160405190810160405280939291908181526020018383808284375050604080516020601f8f018190048102820181019092528d815294508d93508c9250829150840183828082843750610d4a9450611eb59350505050565b6000612c74565b610d8a89898080601f01602080910402602001604051908101604052809392919081815260200183838082843750612efe945050505050565b92965090945092509050610d9d83611c52565b15610e465782851115610daf57600080fd5b600160a060020a0381163014610dc457600080fd5b610dcd82610e5c565b15610dd757600080fd5b610de2826001612f39565b610ded84848761300b565b1515610df857600080fd5b60408051600160a060020a03861681526020810185905280820184905290517f4ab7d581336d92edbea22636a613e8e76c99ac7f91137c1523db38dbfb3bf3299181900360600190a1610e51565b610e518484846102bb565b505050505050505050565b6000600460008360405160200180807f72656c617965644d657373616765730000000000000000000000000000000000815250600f0182600019166000191681526020019150506040516020818303038152906040526040518082805190602001908083835b60208310610ee15780518252601f199092019160209182019101610ec2565b51815160209384036101000a600019018019909216911617905260408051929094018290039091208652850195909552929092016000205460ff1695945050505050565b60008060008360405160200180807f746f74616c5370656e74506572446179000000000000000000000000000000008152506010018281526020019150506040516020818303038152906040526040518082805190602001908083835b60208310610fa15780518252601f199092019160209182019101610f82565b51815160209384036101000a600019018019909216911617905260408051929094018290039091208652850195909552929092016000205495945050505050565b7f0a6f646cd611241d8073675e00d1a1ff700fbf1b53fcf473de56d1e6e4b714ba60005260046020527f078d888f9b66f3f8bfa10909e31f1e16240db73449f0500afdbbe3a70da457cc5460ff1690565b61103b611dda565b600160a060020a0316331461104f57600080fd5b611057611c90565b811180611062575080155b151561106d57600080fd5b7f21dbcab260e413c20dc13c28b7db95e2b423d1135f42bb8b7d5214a92270d237600090815260209081527fadd938dbd083a16bae12238cd914fca0afc7a30edb55b1cd5c7f1823f1b0e4218290556040805183815290517f9bebf928b90863f24cc31f726a3a7545efd409f1dcf552301b1ee3710da70d3b929181900390910190a150565b62015180420490565b7f916daedf6915000ff68ced2f0b6773fe6f2582237f92c3c95bb4d7940723007160009081526020527fd2ea0feb732edb0ffe32efd33a6b9d24d46b16eb34a4d07ce256537b6f131e425490565b6000806000806111bb88888080601f0160208091040260200160405190810160405280939291908181526020018383808284375050604080516020601f8e018190048102820181019092528c815294508c93508b9250829150840183828082843750610d4a9450611eb59350505050565b6111f488888080601f01602080910402602001604051908101604052809392919081815260200183838082843750612efe945050505050565b9296509094509250905061120783611c52565b156112a357600160a060020a038116301461122157600080fd5b61122a82610e5c565b1561123457600080fd5b61123f826001612f39565b61124a848484613029565b151561125557600080fd5b60408051600160a060020a03861681526020810185905280820184905290517f4ab7d581336d92edbea22636a613e8e76c99ac7f91137c1523db38dbfb3bf3299181900360600190a16112ae565b6112ae8484846102bb565b5050505050505050565b7f18762d460000000000000000000000000000000000000000000000000000000090565b7f21dbcab260e413c20dc13c28b7db95e2b423d1135f42bb8b7d5214a92270d23760009081526020527fadd938dbd083a16bae12238cd914fca0afc7a30edb55b1cd5c7f1823f1b0e4215490565b60008060008360405160200180807f6d696e496e746572657374506169640000000000000000000000000000000000815250600f0182600160a060020a0316600160a060020a0316606060020a02815260140191505060405160208183030381529060405260405180828051906020019080838360208310610fa15780518252601f199092019160209182019101610f82565b60408051808201909152600581527f312e302e31000000000000000000000000000000000000000000000000000000602082015290565b60008060008360405160200180807f746f74616c45786563757465645065724461790000000000000000000000000081525060130182815260200191505060405160208183030381529060405260405180828051906020019080838360208310610fa15780518252601f199092019160209182019101610f82565b60008060008360405160200180807f6d696e436173685468726573686f6c640000000000000000000000000000000081525060100182600160a060020a0316600160a060020a0316606060020a02815260140191505060405160208183030381529060405260405180828051906020019080838360208310610fa15780518252601f199092019160209182019101610f82565b7f222cb212229f0f9bcd249029717af6845ea3d3a84f22b54e5744ac25ef224c9260005260026020527fb3492a958ebdd65bd9a0b8ebca07c67a2ad3af56a28fc2944e214aa69ec9581b54600160a060020a0390811691161490565b733d9819210a31b4961b30ef54be2aed79b9c9cd3b90565b73c00e94cb662c3520282e6f5717214004a7f2688890565b7f4a6a899679f26b73530d8cf1001e83b6f7702e04b6fdb98f3c62dc7e47e041a560009081526020527f1ab29a5cca988aee50edccdd61c5bcaa7ad4b29a03b7ee50f298ceccfe14cc4e5490565b600030600160a060020a0316636fde82026040518163ffffffff1660e060020a028152600401602060405180830381600087803b15801561161c57600080fd5b505af1158015611630573d6000803e3d6000fd5b505050506040513d602081101561164657600080fd5b5051600160a060020a0316331461165c57600080fd5b61166461222c565b9050600160a060020a03838116908216141561167f57600080fd5b611687612214565b600160a060020a031683600160a060020a03161415806116ad57506116ab81612575565b155b15156116b857600080fd5b6116c0611576565b600160a060020a031683600160a060020a03161415806116e657506116e481612575565b155b15156116f157600080fd5b6116fb83836130e9565b505050565b60408051600481526024810182526020810180517bffffffffffffffffffffffffffffffffffffffffffffffffffffffff167f6fde8202000000000000000000000000000000000000000000000000000000001781529151815160009330939291829190808383895b83811015611781578181015183820152602001611769565b50505050905090810190601f1680156117ae5780820380516001836020036101000a031916815260200191505b509150506000604051808303816000865af19150501580611840575030600160a060020a0316636fde82026040518163ffffffff1660e060020a028152600401602060405180830381600087803b15801561180857600080fd5b505af115801561181c573d6000803e3d6000fd5b505050506040513d602081101561183257600080fd5b5051600160a060020a031633145b8061184a57503330145b151561185557600080fd5b61185d610fe2565b1561186757600080fd5b6118708a613127565b151561187b57600080fd5b61188361222c565b600160a060020a038a811691161461189a57600080fd5b82156118a557600080fd5b7fab54f3fbbe62c59b7876a9bf9bd5e0c22dbae93f4d8ee0438f7ce62b198eb0e0805473ffffffffffffffffffffffffffffffffffffffff1916600160a060020a038c161790557fb120ceec05576ad0c710bc6e85f1768535e27554458f05dcbb5c65b8c7a749b06000908152602052437fe66bef0282a446f9848e2903380099bb6e431483ee78778868f33b4a154c818b556119418861312f565b61194a876131c2565b6040805160608181019092526119729188906003908390839080828437506131d89350505050565b6040805180820182526119979187906002908390839080828437506133359350505050565b6119a08461340a565b6119a9826134e1565b6119b161356d565b6119b9610fe2565b9a9950505050505050505050565b6119d76119d261222c565b610be0565b565b6060806000803332146119eb57600080fd5b604080516001808252818301909252906020808301908038833901905050935030846000815181101515611a1b57fe5b600160a060020a0392909216602092830291909101820152604080516001808252818301909252918281019080388339019050509250611a59612214565b836000815181101515611a6857fe5b600160a060020a03909216602092830290910190910152611a8761155e565b600160a060020a0316636810dfa68585600060016040518563ffffffff1660e060020a0281526004018080602001806020018515151515815260200184151515158152602001838103835287818151815260200191508051906020019060200280838360005b83811015611b05578181015183820152602001611aed565b50505050905001838103825286818151815260200191508051906020019060200280838360005b83811015611b44578181015183820152602001611b2c565b505050509050019650505050505050600060405180830381600087803b158015611b6d57600080fd5b505af1158015611b81573d6000803e3d6000fd5b50505050611b8d611576565b9150611b9882612a13565b9050611ba38261132a565b811015611baf57600080fd5b611bb982826135c4565b50505050565b611bc7611dda565b600160a060020a03163314611bdb57600080fd5b7ffefcc139ed357999ed60c6a013947328d52e7d9751e93fd0274a2bfae5cbcb1260005260026020527ff215aff72f0a1a7d74fcd807336e100b80bbb56cdfb43843ade07ecf211a979f805473ffffffffffffffffffffffffffffffffffffffff1916600160a060020a0392909216919091179055565b600080611c6983610c32611c646110f3565b6113f4565b905080611c746112dc565b10158015611c895750611c85611c90565b8311155b9392505050565b7fc0ed44c192c86d1cc1ba51340b032c2766b4a2b0041031de13c46dd7104888d560009081526020527ff8e983ee86e5e377e9e34c9131b266382c3f04113d20de077f9e12663c7a646b5490565b600080333014611ced57600080fd5b611cf561222c565b9150611cff611576565b9050611d0c826001613743565b611d208269d3c21bcecceda10000006137d6565b611d3382683635c9adc5dea00000613868565b611d3d82846138fa565b611d4f81670de0b6b3a7640000613868565b611d5981846138fa565b6116fb82610be0565b6000611d6c611eb5565b600160a060020a0316638d0680436040518163ffffffff1660e060020a028152600401602060405180830381600087803b158015611da957600080fd5b505af1158015611dbd573d6000803e3d6000fd5b505050506040513d6020811015611dd357600080fd5b5051905090565b7f02016836a56b71f0d02689e69e326f4f4c1b9057164ef592671cf0d37c8040c060005260026020527fb7802e97e87ef2842a6cce7da7ffaeaedaa2f61a6a7870b23d9d01fc9b73712e54600160a060020a031690565b611e39611dda565b600160a060020a03163314611e4d57600080fd5b611e5782826138fa565b5050565b6000806000806000611e6b612857565b9350611e7561158e565b9250611e87611e826110f3565b610f25565b9150818311611e97576000611e9b565b8183035b9050808410611eaa5780611eac565b835b94505050505090565b7f5a74bb7e202fb8e4bf311841c7d64ec19df195fee77d7e7ae749b27921b6ddfe60005260026020527fab54f3fbbe62c59b7876a9bf9bd5e0c22dbae93f4d8ee0438f7ce62b198eb0e054600160a060020a031690565b7fb120ceec05576ad0c710bc6e85f1768535e27554458f05dcbb5c65b8c7a749b060009081526020527fe66bef0282a446f9848e2903380099bb6e431483ee78778868f33b4a154c818b5490565b600660016000909192565b611f6d611dda565b600160a060020a03163314611f8157600080fd5b600081118015611f975750611f9461158e565b81105b8015611fa95750611fa6612857565b81105b1515611fb457600080fd5b7fbbb088c505d18e049d114c7c91f11724e69c55ad6c5397e2b929e68b41fa05d160009081526020527f8df5c48c6b6e11d97548adc824ba0c99103ec09830fa5d53a179984085e6eaa055565b612009611dda565b600160a060020a0316331461201d57600080fd5b611e578282613868565b61202f611dda565b600160a060020a0316331461204357600080fd5b611e5782826137d6565b6000600260008360405160200180807f696e74657265737452656365697665720000000000000000000000000000000081525060100182600160a060020a0316600160a060020a0316606060020a0281526014019150506040516020818303038152906040526040518082805190602001908083835b602083106120e25780518252601f1990920191602091820191016120c3565b51815160209384036101000a6000190180199092169116179052604080519290940182900390912086528501959095529290920160002054600160a060020a031695945050505050565b612134611dda565b600160a060020a0316331461214857600080fd5b6121518161312f565b50565b61215c611dda565b600160a060020a0316331461217057600080fd5b612178612857565b811180612183575080155b151561218e57600080fd5b7f4a6a899679f26b73530d8cf1001e83b6f7702e04b6fdb98f3c62dc7e47e041a5600090815260209081527f1ab29a5cca988aee50edccdd61c5bcaa7ad4b29a03b7ee50f298ceccfe14cc4e8290556040805183815290517fad4123ae17c414d9c6d2fec478b402e6b01856cc250fd01fbfd252fda0089d3c929181900390910190a150565b735d3a536e4d6dbd6114cc1ead35777bab948e364390565b736b175474e89094c44da98b954eedeac495271d0f90565b61224c611dda565b600160a060020a0316331461226057600080fd5b612151816131c2565b612271611dda565b600160a060020a0316331461228557600080fd5b8015806122a957506122956126ea565b811180156122a957506122a661158e565b81105b15156122b457600080fd5b7f0f8803acad17c63ee38bf2de71e1888bc7a079a6f73658e274b08018bea4e29c60009081526020527f9de0f81379b4d8e60fe509315d071b56e7b732abaf193e74e0d15808b0951d0955565b600080600061230e612214565b600160a060020a0316633af9e669306040518263ffffffff1660e060020a0281526004018082600160a060020a0316600160a060020a03168152602001915050602060405180830381600087803b15801561236857600080fd5b505af115801561237c573d6000803e3d6000fd5b505050506040513d602081101561239257600080fd5b5051915061239f84612488565b670de0b6b3a76400000190508082116123b95760006123bd565b8082035b949350505050565b6123cd611dda565b600160a060020a031633146123e157600080fd5b6123ea84613a0e565b15156123f557600080fd5b6123fe84612575565b1561240857600080fd5b612413846001613743565b61241d84846137d6565b6124278483613868565b611bb984826138fa565b7f222cb212229f0f9bcd249029717af6845ea3d3a84f22b54e5744ac25ef224c9260005260026020527fb3492a958ebdd65bd9a0b8ebca07c67a2ad3af56a28fc2944e214aa69ec9581b54600160a060020a031690565b60008060008360405160200180807f696e766573746564416d6f756e74000000000000000000000000000000000000815250600e0182600160a060020a0316600160a060020a0316606060020a02815260140191505060405160208183030381529060405260405180828051906020019080838360208310610fa15780518252601f199092019160209182019101610f82565b60008033321461252a57600080fd5b8261253481612575565b151561253f57600080fd5b61254884612301565b92506125538461132a565b83101561255f57600080fd5b6125698484613a33565b9150611bb984836135c4565b6000600460008360405160200180807f696e746572657374456e61626c65640000000000000000000000000000000000815250600f0182600160a060020a0316600160a060020a0316606060020a02815260140191505060405160208183030381529060405260405180828051906020019080838360208310610ee15780518252601f199092019160209182019101610ec2565b612611611dda565b600160a060020a0316331461262557600080fd5b7f222cb212229f0f9bcd249029717af6845ea3d3a84f22b54e5744ac25ef224c9260005260026020527fb3492a958ebdd65bd9a0b8ebca07c67a2ad3af56a28fc2944e214aa69ec9581b805473ffffffffffffffffffffffffffffffffffffffff1916600160a060020a0392909216919091179055565b7f1e8ecaafaddea96ed9ac6d2642dcdfe1bebe58a930b1085842d8fc122b371ee560009081526020527fd5c78dd9468716ca9bb96be25d56436811b20aab3523a9904b12deef1cab239d5490565b7fbbb088c505d18e049d114c7c91f11724e69c55ad6c5397e2b929e68b41fa05d160009081526020527f8df5c48c6b6e11d97548adc824ba0c99103ec09830fa5d53a179984085e6eaa05490565b60008061274a83610c32611e826110f3565b90508061275561158e565b1015801561276a5750612766612857565b8311155b8015611c8957506127796126ea565b9092101592915050565b61278b611dda565b600160a060020a0316331461279f57600080fd5b6127a76112dc565b81106127b257600080fd5b7fc0ed44c192c86d1cc1ba51340b032c2766b4a2b0041031de13c46dd7104888d560009081526020527ff8e983ee86e5e377e9e34c9131b266382c3f04113d20de077f9e12663c7a646b55565b612807611dda565b600160a060020a0316331461281b57600080fd5b6121518161340a565b61282c611dda565b600160a060020a0316331461284057600080fd5b61284c81600019613a73565b612151816000613743565b7f0f8803acad17c63ee38bf2de71e1888bc7a079a6f73658e274b08018bea4e29c60009081526020527f9de0f81379b4d8e60fe509315d071b56e7b732abaf193e74e0d15808b0951d095490565b7f55b3774520b5993024893d303890baa4e84b1244a43c60034d1ced2d3cf2b04b60009081526020527ff7d5eefab3776d7f0450bd0193564bcb4f832ce313ff2836c450fc63a4b944195490565b7f71483949fe7a14d16644d63320f24d10cf1d60abecc30cc677a340e82b699dd260005260026020527f21ffdf150a5d180f96d98d16f50e7b4dd63e2a067adc8386cf5af55dcecd8dd954600160a060020a031690565b61295781610c3284610f25565b6000808460405160200180807f746f74616c5370656e74506572446179000000000000000000000000000000008152506010018281526020019150506040516020818303038152906040526040518082805190602001908083835b602083106129d15780518252601f1990920191602091820191016129b2565b51815160209384036101000a60001901801990921691161790526040805192909401829003909120865285019590955292909201600020939093555050505050565b604080517f70a082310000000000000000000000000000000000000000000000000000000081523060048201529051600091600160a060020a038416916370a082319160248082019260209290919082900301818787803b158015612a7757600080fd5b505af1158015612a8b573d6000803e3d6000fd5b505050506040513d6020811015612aa157600080fd5b505192915050565b81810182811015612ab657fe5b92915050565b806000808460405160200180807f696e766573746564416d6f756e74000000000000000000000000000000000000815250600e0182600160a060020a0316600160a060020a0316606060020a028152601401915050604051602081830303815290604052604051808280519060200190808383602083106129d15780518252601f1990920191602091820191016129b2565b612b5661222c565b600160a060020a031663095ea7b3612b6c612214565b836040518363ffffffff1660e060020a0281526004018083600160a060020a0316600160a060020a0316815260200182815260200192505050602060405180830381600087803b158015612bbf57600080fd5b505af1158015612bd3573d6000803e3d6000fd5b505050506040513d6020811015612be957600080fd5b5060009050612bf6612214565b600160a060020a031663a0712d68836040518263ffffffff1660e060020a02815260040180828152602001915050602060405180830381600087803b158015612c3e57600080fd5b505af1158015612c52573d6000803e3d6000fd5b505050506040513d6020811015612c6857600080fd5b505114611e5757600080fd5b6000806000606060008060008060008060008b80612c965750612c968f613ac5565b1515612ca157600080fd5b8c600160a060020a0316638d0680436040518163ffffffff1660e060020a028152600401602060405180830381600087803b158015612cdf57600080fd5b505af1158015612cf3573d6000803e3d6000fd5b505050506040513d6020811015612d0957600080fd5b505160018f0151909b5060ff1699508a8a1015612d2557600080fd5b612d2f8f8d613ad9565b98508a604051908082528060200260200182016040528015612d5b578160200160208202803883390190505b509750600096505b8a871015612eed57866020028a6021010192508960200283019150866002018e01519550828e01519450818e01519350600189878787604051600081526020016040526040518085600019166000191681526020018460ff1660ff1681526020018360001916600019168152602001826000191660001916815260200194505050505060206040516020810390808403906000865af1158015612e0a573d6000803e3d6000fd5b5050506020604051035190508c600160a060020a031663facd743b826040518263ffffffff1660e060020a0281526004018082600160a060020a0316600160a060020a03168152602001915050602060405180830381600087803b158015612e7157600080fd5b505af1158015612e85573d6000803e3d6000fd5b505050506040513d6020811015612e9b57600080fd5b50511515612ea857600080fd5b612eb28882613ceb565b15612ebc57600080fd5b808888815181101515612ecb57fe5b600160a060020a03909216602092830290910190910152600190960195612d63565b505050505050505050505050505050565b600080600080612f0d85613ac5565b1515612f1857600080fd5b50505050601481015160348201516054830151606890930151919390929190565b80600460008460405160200180807f72656c617965644d657373616765730000000000000000000000000000000000815250600f0182600019166000191681526020019150506040516020818303038152906040526040518082805190602001908083835b60208310612fbd5780518252601f199092019160209182019101612f9e565b51815160209384036101000a60001901801990921691161790526040805192909401829003909120865285019590955292909201600020805460ff1916941515949094179093555050505050565b600061301e61301861222c565b84613d46565b6123bd848484613e08565b60008061303d6130376110f3565b85613fbf565b61304561222c565b90506130518185613d46565b80600160a060020a031663a9059cbb86866040518363ffffffff1660e060020a0281526004018083600160a060020a0316600160a060020a0316815260200182815260200192505050602060405180830381600087803b1580156130b457600080fd5b505af11580156130c8573d6000803e3d6000fd5b505050506040513d60208110156130de57600080fd5b505195945050505050565b80600160a060020a03811615156130ff57600080fd5b600160a060020a038316151561311d5761311882614045565b6116fb565b6116fb8383614051565b6000903b1190565b6000811161313c57600080fd5b7f916daedf6915000ff68ced2f0b6773fe6f2582237f92c3c95bb4d79407230071600090815260209081527fd2ea0feb732edb0ffe32efd33a6b9d24d46b16eb34a4d07ce256537b6f131e428290556040805183815290517f4fb76205cd57c896b21511d2114137d8e901b4ccd659e1a0f97d6306795264fb929181900390910190a150565b600081116131cf57600080fd5b612151816140fe565b604081015160001080156131f3575060408101516020820151115b8015613203575060208101518151115b151561320e57600080fd5b80517f4a6a899679f26b73530d8cf1001e83b6f7702e04b6fdb98f3c62dc7e47e041a5600090815260208181527f1ab29a5cca988aee50edccdd61c5bcaa7ad4b29a03b7ee50f298ceccfe14cc4e92909255908201517f0f8803acad17c63ee38bf2de71e1888bc7a079a6f73658e274b08018bea4e29c82527f9de0f81379b4d8e60fe509315d071b56e7b732abaf193e74e0d15808b0951d095560408201517fbbb088c505d18e049d114c7c91f11724e69c55ad6c5397e2b929e68b41fa05d182527f8df5c48c6b6e11d97548adc824ba0c99103ec09830fa5d53a179984085e6eaa0557fad4123ae17c414d9c6d2fec478b402e6b01856cc250fd01fbfd252fda0089d3c9082905b60200201516040518082815260200191505060405180910390a150565b805160208201511061334657600080fd5b80517f21dbcab260e413c20dc13c28b7db95e2b423d1135f42bb8b7d5214a92270d237600090815260208181527fadd938dbd083a16bae12238cd914fca0afc7a30edb55b1cd5c7f1823f1b0e42192909255908201517fc0ed44c192c86d1cc1ba51340b032c2766b4a2b0041031de13c46dd7104888d582527ff8e983ee86e5e377e9e34c9131b266382c3f04113d20de077f9e12663c7a646b557f9bebf928b90863f24cc31f726a3a7545efd409f1dcf552301b1ee3710da70d3b908290613318565b600160a060020a038116151561341f57600080fd5b7f8be0079c531659141344cd1fd0a4f28419497f9722a3daafe3b4186f6b6457e0613448611dda565b60408051600160a060020a03928316815291841660208301528051918290030190a17f02016836a56b71f0d02689e69e326f4f4c1b9057164ef592671cf0d37c8040c060005260026020527fb7802e97e87ef2842a6cce7da7ffaeaedaa2f61a6a7870b23d9d01fc9b73712e805473ffffffffffffffffffffffffffffffffffffffff1916600160a060020a0392909216919091179055565b600160a060020a03811615156134f657600080fd5b7f71483949fe7a14d16644d63320f24d10cf1d60abecc30cc677a340e82b699dd260005260026020527f21ffdf150a5d180f96d98d16f50e7b4dd63e2a067adc8386cf5af55dcecd8dd9805473ffffffffffffffffffffffffffffffffffffffff1916600160a060020a0392909216919091179055565b7f0a6f646cd611241d8073675e00d1a1ff700fbf1b53fcf473de56d1e6e4b714ba60005260046020527f078d888f9b66f3f8bfa10909e31f1e16240db73449f0500afdbbe3a70da457cc805460ff19166001179055565b60006135cf8361204d565b9050600160a060020a03811615156135e657600080fd5b82600160a060020a031663a9059cbb82846040518363ffffffff1660e060020a0281526004018083600160a060020a0316600160a060020a0316815260200182815260200192505050602060405180830381600087803b15801561364957600080fd5b505af115801561365d573d6000803e3d6000fd5b505050506040513d602081101561367357600080fd5b5061367f905081613127565b156136f85780600160a060020a03166381e3f276846040518263ffffffff1660e060020a0281526004018082600160a060020a0316600160a060020a03168152602001915050600060405180830381600087803b1580156136df57600080fd5b505af11580156136f3573d6000803e3d6000fd5b505050505b60408051600160a060020a038381168252602082018590528251908616927f222348fe8b30f078a8a4da2f55f16d24d70bc40d3ec49d295d7ad1d11e666887928290030190a2505050565b80600460008460405160200180807f696e746572657374456e61626c65640000000000000000000000000000000000815250600f0182600160a060020a0316600160a060020a0316606060020a02815260140191505060405160208183030381529060405260405180828051906020019080838360208310612fbd5780518252601f199092019160209182019101612f9e565b806000808460405160200180807f6d696e436173685468726573686f6c640000000000000000000000000000000081525060100182600160a060020a0316600160a060020a0316606060020a028152601401915050604051602081830303815290604052604051808280519060200190808383602083106129d15780518252601f1990920191602091820191016129b2565b806000808460405160200180807f6d696e496e746572657374506169640000000000000000000000000000000000815250600f0182600160a060020a0316600160a060020a0316606060020a028152601401915050604051602081830303815290604052604051808280519060200190808383602083106129d15780518252601f1990920191602091820191016129b2565b600160a060020a03811630141561391057600080fd5b80600260008460405160200180807f696e74657265737452656365697665720000000000000000000000000000000081525060100182600160a060020a0316600160a060020a0316606060020a0281526014019150506040516020818303038152906040526040518082805190602001908083835b602083106139a45780518252601f199092019160209182019101613985565b51815160209384036101000a60001901801990921691161790526040805192909401829003909120865285019590955292909201600020805473ffffffffffffffffffffffffffffffffffffffff1916600160a060020a0395909516949094179093555050505050565b6000613a1861222c565b600160a060020a031682600160a060020a0316149050919050565b6000806000613a4185612a13565b9150613a4d8585614184565b81613a5786612a13565b03905083811015613a6757600080fd5b8092505b505092915050565b60008080831515613a8357610c4d565b613a8c85612488565b9250828411613a9b5783613a9d565b825b9150613aa98583613a33565b9050610c4d85828511613abd576000610c3e565b828503612abc565b6000613acf6141d6565b8251149050919050565b60408051808201909152601a81527f19457468657265756d205369676e6564204d6573736167653a0a000000000000602082015260009060608315613c7f5781613b2386516141db565b866040516020018084805190602001908083835b60208310613b565780518252601f199092019160209182019101613b37565b51815160209384036101000a600019018019909216911617905286519190930192860191508083835b60208310613b9e5780518252601f199092019160209182019101613b7f565b51815160209384036101000a600019018019909216911617905285519190930192850191508083835b60208310613be65780518252601f199092019160209182019101613bc7565b6001836020036101000a03801982511681845116808217855250505050505090500193505050506040516020818303038152906040526040518082805190602001908083835b60208310613c4b5780518252601f199092019160209182019101613c2c565b6001836020036101000a03801982511681845116808217855250505050505090500191505060405180910390209250613a6b565b6040805190810160405280600381526020017f3130340000000000000000000000000000000000000000000000000000000000815250905081818660405160200180848051906020019080838360208310613b565780518252601f199092019160209182019101613b37565b6000805b8351811015613d3a5782600160a060020a03168482815181101515613d1057fe5b90602001906020020151600160a060020a03161415613d325760019150613d3f565b600101613cef565b600091505b5092915050565b604080517f70a0823100000000000000000000000000000000000000000000000000000000815230600482015290516000918291600160a060020a038616916370a0823191602480830192602092919082900301818787803b158015613dab57600080fd5b505af1158015613dbf573d6000803e3d6000fd5b505050506040513d6020811015613dd557600080fd5b5051915082821015611bb957613dfc613ded8561146f565b8385039063ffffffff612aa916565b9050611bb98482613a73565b600080600080613e1f613e196110f3565b87613fbf565b613e27610c54565b7ffefcc139ed357999ed60c6a013947328d52e7d9751e93fd0274a2bfae5cbcb126000908152600260209081527ff215aff72f0a1a7d74fcd807336e100b80bbb56cdfb43843ade07ecf211a979f54604080517fa9059cbb000000000000000000000000000000000000000000000000000000008152600160a060020a039283166004820152602481018b905290519497509087169363a9059cbb93604480840194938390030190829087803b158015613ee057600080fd5b505af1158015613ef4573d6000803e3d6000fd5b505050506040513d6020811015613f0a57600080fd5b5051604080517fa9059cbb000000000000000000000000000000000000000000000000000000008152600160a060020a038a81166004830152888a03602483015291519294509085169163a9059cbb916044808201926020929091908290030181600087803b158015613f7c57600080fd5b505af1158015613f90573d6000803e3d6000fd5b505050506040513d6020811015613fa657600080fd5b50519050818015613fb45750805b979650505050505050565b613fcc81610c32846113f4565b6000808460405160200180807f746f74616c457865637574656450657244617900000000000000000000000000815250601301828152602001915050604051602081830303815290604052604051808280519060200190808383602083106129d15780518252601f1990920191602091820191016129b2565b3031611e578282614302565b604080517f70a0823100000000000000000000000000000000000000000000000000000000815230600482015290518391600091600160a060020a038416916370a0823191602480830192602092919082900301818787803b1580156140b657600080fd5b505af11580156140ca573d6000803e3d6000fd5b505050506040513d60208110156140e057600080fd5b50519050611bb9600160a060020a038516848363ffffffff61436316565b7f55b3774520b5993024893d303890baa4e84b1244a43c60034d1ced2d3cf2b04b600090815260209081527ff7d5eefab3776d7f0450bd0193564bcb4f832ce313ff2836c450fc63a4b944198290556040805183815290517f52264b89e0fceafb26e79fd49ef8a366eb6297483bf4035b027f0c99a7ad512e929181900390910190a150565b600061418e612214565b600160a060020a031663852a12e3836040518263ffffffff1660e060020a02815260040180828152602001915050602060405180830381600087803b158015612c3e57600080fd5b606890565b606060008082818515156142245760408051808201909152600181527f3000000000000000000000000000000000000000000000000000000000000000602082015294506142f9565b8593505b831561423f57600190920191600a84049350614228565b826040519080825280601f01601f19166020018201604052801561426d578160200160208202803883390190505b5091505060001982015b85156142f55781516000198201917f01000000000000000000000000000000000000000000000000000000000000006030600a8a0601029184919081106142ba57fe5b9060200101907effffffffffffffffffffffffffffffffffffffffffffffffffffffffffffff1916908160001a905350600a86049550614277565b8194505b50505050919050565b604051600160a060020a0383169082156108fc029083906000818181858888f193505050501515611e575780826143376143f8565b600160a060020a039091168152604051908190036020019082f080158015610c4d573d6000803e3d6000fd5b82600160a060020a031663a9059cbb83836040518363ffffffff1660e060020a0281526004018083600160a060020a0316600160a060020a0316815260200182815260200192505050600060405180830381600087803b1580156143c657600080fd5b505af11580156143da573d6000803e3d6000fd5b505050503d156116fb5760206000803e60005115156116fb57600080fd5b604051602180614408833901905600608060405260405160208060218339810160405251600160a060020a038116ff00a165627a7a72305820d7e49bf45f99852684ea0ac47cafb5ecf496c80428357f48ebcb298326927ff20029",
  "linkReferences": {},
  "deployedLinkReferences": {}
}