{
  "_format": "hh-sol-artifact-1",
  "contractName": "RewardableBridge",
  "sourceName": "contracts/upgradeable_contracts/RewardableBridge.sol",
  "abi": [
    {
      "constant": false,
      "inputs": [
        {
          "name": "_feeManager",
          "type": "address"
        }
      ],
      "name": "setFeeManagerContract",
      "outputs": [],
      "payable": false,
      "stateMutability": "nonpayable",
      "type": "function"
    },
    {
      "constant": true,
      "inputs": [],
      "name": "owner",
      "outputs": [
        {
          "name": "",
          "type": "address"
        }
      ],
      "payable": false,
      "stateMutability": "view",
      "type": "function"
    },
    {
      "constant": true,
      "inputs": [],
      "name": "feeManagerContract",
      "outputs": [
        {
          "name": "",
          "type": "address"
        }
      ],
      "payable": false,
      "stateMutability": "view",
      "type": "function"
    },
    {
      "constant": true,
      "inputs": [],
      "name": "getFeeManagerMode",
      "outputs": [
        {
          "name": "mode",
          "type": "bytes4"
        }
      ],
      "payable": false,
      "stateMutability": "view",
      "type": "function"
    },
    {
      "constant": false,
      "inputs": [
        {
          "name": "newOwner",
          "type": "address"
        }
      ],
      "name": "transferOwnership",
      "outputs": [],
      "payable": false,
      "stateMutability": "nonpayable",
      "type": "function"
    },
    {
      "anonymous": false,
      "inputs": [
        {
          "indexed": false,
          "name": "feeAmount",
          "type": "uint256"
        },
        {
          "indexed": true,
          "name": "transactionHash",
          "type": "bytes32"
        }
      ],
      "name": "FeeDistributedFromAffirmation",
      "type": "event"
    },
    {
      "anonymous": false,
      "inputs": [
        {
          "indexed": false,
          "name": "feeAmount",
          "type": "uint256"
        },
        {
          "indexed": true,
          "name": "transactionHash",
          "type": "bytes32"
        }
      ],
      "name": "FeeDistributedFromSignatures",
      "type": "event"
    },
    {
      "anonymous": false,
      "inputs": [
        {
          "indexed": false,
          "name": "previousOwner",
          "type": "address"
        },
        {
          "indexed": false,
          "name": "newOwner",
          "type": "address"
        }
      ],
      "name": "OwnershipTransferred",
      "type": "event"
    }
  ],
  "bytecode": "0x608060405234801561001057600080fd5b50610469806100206000396000f30060806040526004361061006c5763ffffffff7c010000000000000000000000000000000000000000000000000000000060003504166360756f7c81146100715780638da5cb5b14610094578063dbe03a8b146100c5578063f2ba9561146100da578063f2fde38b14610124575b600080fd5b34801561007d57600080fd5b50610092600160a060020a0360043516610145565b005b3480156100a057600080fd5b506100a96101fd565b60408051600160a060020a039092168252519081900360200190f35b3480156100d157600080fd5b506100a9610254565b3480156100e657600080fd5b506100ef6102ab565b604080517fffffffff000000000000000000000000000000000000000000000000000000009092168252519081900360200190f35b34801561013057600080fd5b50610092600160a060020a0360043516610336565b61014d6101fd565b600160a060020a0316331461016157600080fd5b600160a060020a038116158061017b575061017b8161035e565b151561018657600080fd5b7f779a349c5bee7817f04c960f525ee3e2f2516078c38c68a3149787976ee837e560005260026020527fc155b21a14c4592b97825e495fbe0d2705fb46420018cac5bfa7a09c43fae517805473ffffffffffffffffffffffffffffffffffffffff1916600160a060020a0392909216919091179055565b7f02016836a56b71f0d02689e69e326f4f4c1b9057164ef592671cf0d37c8040c060005260026020527fb7802e97e87ef2842a6cce7da7ffaeaedaa2f61a6a7870b23d9d01fc9b73712e54600160a060020a031690565b7f779a349c5bee7817f04c960f525ee3e2f2516078c38c68a3149787976ee837e560005260026020527fc155b21a14c4592b97825e495fbe0d2705fb46420018cac5bfa7a09c43fae51754600160a060020a031690565b6040805160048152602481019091526020810180517bffffffffffffffffffffffffffffffffffffffffffffffffffffffff167ff2ba9561000000000000000000000000000000000000000000000000000000001790526000908161030e610254565b9050600460008351602085016000855af28060203d1416156103305760005193505b50505090565b61033e6101fd565b600160a060020a0316331461035257600080fd5b61035b81610366565b50565b6000903b1190565b600160a060020a038116151561037b57600080fd5b7f8be0079c531659141344cd1fd0a4f28419497f9722a3daafe3b4186f6b6457e06103a46101fd565b60408051600160a060020a03928316815291841660208301528051918290030190a17f02016836a56b71f0d02689e69e326f4f4c1b9057164ef592671cf0d37c8040c060005260026020527fb7802e97e87ef2842a6cce7da7ffaeaedaa2f61a6a7870b23d9d01fc9b73712e805473ffffffffffffffffffffffffffffffffffffffff1916600160a060020a03929092169190911790555600a165627a7a7230582091be6bde5278b8abee08684cacf254f8cb5a2489294762408b7431b9a62007870029",
  "linkReferences": {},
  "deployedLinkReferences": {}
}