{"contracts/mocks/OldBlockReward.sol":{"OldBlockReward":{"abi":[{"constant":true,"inputs":[],"name":"bridgesAllowedLength","outputs":[{"name":"","type":"uint256"}],"payable":false,"stateMutability":"view","type":"function"}],"evm":{"bytecode":{"linkReferences":{},"object":"6080604052348015600f57600080fd5b5060988061001e6000396000f300608060405260043610603e5763ffffffff7c010000000000000000000000000000000000000000000000000000000060003504166310f2ee7c81146043575b600080fd5b348015604e57600080fd5b5060556067565b60408051918252519081900360200190f35b6003905600a165627a7a723058205a07964aa9547ea42221dacdec7dd0fad4940fc01d055772b865029d833fda2b0029","opcodes":"PUSH1 0x80 PUSH1 0x40 MSTORE CALLVALUE DUP1 ISZERO PUSH1 0xF JUMPI PUSH1 0x0 DUP1 REVERT JUMPDEST POP PUSH1 0x98 DUP1 PUSH2 0x1E PUSH1 0x0 CODECOPY PUSH1 0x0 RETURN STOP PUSH1 0x80 PUSH1 0x40 MSTORE PUSH1 0x4 CALLDATASIZE LT PUSH1 0x3E JUMPI PUSH4 0xFFFFFFFF PUSH29 0x100000000000000000000000000000000000000000000000000000000 PUSH1 0x0 CALLDATALOAD DIV AND PUSH4 0x10F2EE7C DUP2 EQ PUSH1 0x43 JUMPI JUMPDEST PUSH1 0x0 DUP1 REVERT JUMPDEST CALLVALUE DUP1 ISZERO PUSH1 0x4E JUMPI PUSH1 0x0 DUP1 REVERT JUMPDEST POP PUSH1 0x55 PUSH1 0x67 JUMP JUMPDEST PUSH1 0x40 DUP1 MLOAD SWAP2 DUP3 MSTORE MLOAD SWAP1 DUP2 SWAP1 SUB PUSH1 0x20 ADD SWAP1 RETURN JUMPDEST PUSH1 0x3 SWAP1 JUMP STOP LOG1 PUSH6 0x627A7A723058 KECCAK256 GAS SMOD SWAP7 0x4a 0xa9 SLOAD PUSH31 0xA42221DACDEC7DD0FAD4940FC01D055772B865029D833FDA2B002900000000 "},"methodIdentifiers":{"bridgesAllowedLength()":"10f2ee7c"}}}}}