{"contracts/routers/WETHOmnibridgeRouterV2/WETHOmnibridgeRouterV2.sol":{"WETHOmnibridgeRouterV2":{"abi":[{"inputs":[{"internalType":"contract IOmnibridge","name":"_bridge","type":"address"},{"internalType":"contract IWETH","name":"_weth","type":"address"},{"internalType":"address","name":"_owner","type":"address"}],"stateMutability":"nonpayable","type":"constructor"},{"inputs":[{"internalType":"address","name":"target","type":"address"}],"name":"AddressEmptyCode","type":"error"},{"inputs":[{"internalType":"address","name":"account","type":"address"}],"name":"AddressInsufficientBalance","type":"error"},{"inputs":[],"name":"FailedInnerCall","type":"error"},{"inputs":[],"name":"NotPayable","type":"error"},{"inputs":[],"name":"ReentrancyGuard","type":"error"},{"inputs":[{"internalType":"address","name":"token","type":"address"}],"name":"SafeERC20FailedOperation","type":"error"},{"inputs":[],"name":"RUNNER_SLOT","outputs":[{"internalType":"bytes32","name":"","type":"bytes32"}],"stateMutability":"view","type":"function"},{"inputs":[],"name":"WETH","outputs":[{"internalType":"contract IWETH","name":"","type":"address"}],"stateMutability":"view","type":"function"},{"inputs":[],"name":"bridge","outputs":[{"internalType":"contract IOmnibridge","name":"","type":"address"}],"stateMutability":"view","type":"function"},{"inputs":[{"internalType":"address","name":"_token","type":"address"},{"internalType":"address","name":"_to","type":"address"}],"name":"claimTokens","outputs":[],"stateMutability":"nonpayable","type":"function"},{"inputs":[{"internalType":"address","name":"","type":"address"}],"name":"isValidator","outputs":[{"internalType":"bool","name":"","type":"bool"}],"stateMutability":"view","type":"function"},{"inputs":[{"internalType":"address","name":"_token","type":"address"},{"internalType":"uint256","name":"_value","type":"uint256"},{"internalType":"bytes","name":"_data","type":"bytes"}],"name":"onTokenBridged","outputs":[],"stateMutability":"payable","type":"function"},{"inputs":[],"name":"owner","outputs":[{"internalType":"address","name":"","type":"address"}],"stateMutability":"view","type":"function"},{"inputs":[{"internalType":"address","name":"_receiver","type":"address"},{"internalType":"bytes","name":"_data","type":"bytes"}],"name":"relayTokensAndCall","outputs":[],"stateMutability":"payable","type":"function"},{"inputs":[{"internalType":"address","name":"runner","type":"address"},{"internalType":"bytes","name":"_data","type":"bytes"},{"internalType":"bytes","name":"_signatures","type":"bytes"}],"name":"safeExecuteSignaturesWithAutoGasLimit","outputs":[],"stateMutability":"payable","type":"function"},{"inputs":[{"internalType":"address","name":"_validator","type":"address"},{"internalType":"bool","name":"_isValidator","type":"bool"}],"name":"setValidatorStatus","outputs":[],"stateMutability":"payable","type":"function"},{"inputs":[{"internalType":"address","name":"_validatorsFilter","type":"address"}],"name":"setValidatorsFilter","outputs":[],"stateMutability":"payable","type":"function"},{"inputs":[{"internalType":"address","name":"_newOwner","type":"address"}],"name":"transferOwnership","outputs":[],"stateMutability":"nonpayable","type":"function"},{"inputs":[],"name":"validatorsFilter","outputs":[{"internalType":"address","name":"","type":"address"}],"stateMutability":"view","type":"function"},{"inputs":[],"name":"wrapAndRelayTokens","outputs":[],"stateMutability":"payable","type":"function"},{"inputs":[{"internalType":"address","name":"_receiver","type":"address"}],"name":"wrapAndRelayTokens","outputs":[],"stateMutability":"payable","type":"function"},{"stateMutability":"payable","type":"receive"}],"evm":{"bytecode":{"linkReferences":{},"object":"60c06040523480156200001157600080fd5b5060405162001521380380620015218339810160408190526200003491620000f4565b600080546001600160a01b0319166001600160a01b0383811691909117909155838116608081905290831660a081905260405163095ea7b360e01b8152600481019290925260001960248301529063095ea7b390604401600060405180830381600087803b158015620000a657600080fd5b505af1158015620000bb573d6000803e3d6000fd5b5050600180546001600160a01b0319163017905550620001489350505050565b6001600160a01b0381168114620000f157600080fd5b50565b6000806000606084860312156200010a57600080fd5b83516200011781620000db565b60208501519093506200012a81620000db565b60408501519092506200013d81620000db565b809150509250925092565b60805160a05161137c620001a56000396000818160fc015281816102330152818161071f01528181610797015281816109960152610a4c01526000818161027a015281816104c6015281816107570152610a1c015261137c6000f3fe6080604052600436106100ec5760003560e01c80639562de591161008a578063e78cea9211610059578063e78cea9214610268578063f2fde38b1461029c578063f52cbf0e146102bc578063facd743b146102cf57600080fd5b80639562de59146101fb578063aca2490b1461020e578063ad5c464814610221578063db7af8541461025557600080fd5b8063633a8fa9116100c6578063633a8fa91461015b57806369ffa08a1461018357806370502107146101a35780638da5cb5b146101db57600080fd5b806301a754ff1461012d57806336768d3e146101355780634309b7141461014857600080fd5b3661012857336001600160a01b037f0000000000000000000000000000000000000000000000000000000000000000161461012657600080fd5b005b600080fd5b61012661030f565b610126610143366004610ddf565b61032a565b610126610156366004610e45565b6103cd565b34801561016757600080fd5b506101706105b7565b6040519081526020015b60405180910390f35b34801561018f57600080fd5b5061012661019e366004610ec8565b6105df565b3480156101af57600080fd5b506001546101c3906001600160a01b031681565b6040516001600160a01b03909116815260200161017a565b3480156101e757600080fd5b506000546101c3906001600160a01b031681565b610126610209366004610f01565b610604565b61012661021c366004610f64565b610649565b34801561022d57600080fd5b506101c37f000000000000000000000000000000000000000000000000000000000000000081565b610126610263366004610fd9565b61068b565b34801561027457600080fd5b506101c37f000000000000000000000000000000000000000000000000000000000000000081565b3480156102a857600080fd5b506101266102b7366004610ddf565b61093f565b6101266102ca366004610ddf565b610978565b3480156102db57600080fd5b506102ff6102ea366004610ddf565b60026020526000908152604090205460ff1681565b604051901515815260200161017a565b6103283360405180602001604052806000815250610994565b565b6000546001600160a01b0316331461034157600080fd5b60405163facd743b60e01b8152600060048201526001600160a01b0382169063facd743b90602401602060405180830381865afa158015610386573d6000803e3d6000fd5b505050506040513d601f19601f820116820180604052508101906103aa919061108a565b50600180546001600160a01b0319166001600160a01b0392909216919091179055565b6040516020016103dc906110a7565b604051602081830303815290604052805190602001206060866001600160a01b0316901b5a6bffffffffffffffffffffffff1617600082805490915015610436576040516345f5ce8b60e11b815260040160405180910390fd5b81815560015460405163facd743b60e01b81526001600160a01b038a811660048301529091169063facd743b90602401602060405180830381865afa158015610483573d6000803e3d6000fd5b505050506040513d601f19601f820116820180604052508101906104a7919061108a565b6104c457604051631574f9f360e01b815260040160405180910390fd5b7f00000000000000000000000000000000000000000000000000000000000000006001600160a01b031663cd5965836040518163ffffffff1660e01b8152600401602060405180830381865afa158015610522573d6000803e3d6000fd5b505050506040513d601f19601f8201168201806040525081019061054691906110de565b6001600160a01b03166323caab49888888886040518563ffffffff1660e01b81526004016105779493929190611124565b600060405180830381600087803b15801561059157600080fd5b505af11580156105a5573d6000803e3d6000fd5b50506000909255505050505050505050565b6040516020016105c6906110a7565b6040516020818303038152906040528051906020012081565b6000546001600160a01b031633146105f657600080fd5b6106008282610ab0565b5050565b6106448383838080601f01602080910402602001604051908101604052809392919081815260200183838082843760009201919091525061099492505050565b505050565b6000546001600160a01b0316331461066057600080fd5b6001600160a01b03919091166000908152600260205260409020805460ff1916911515919091179055565b60006106e16040516020016106c8906020808252601490820152731c99595b9d1c985b98de4b9d1c985b9cda595b9d60621b604082015260600190565b6040516020818303038152906040528051906020012090565b805490915060ff1615610707576040516345f5ce8b60e11b815260040160405180910390fd5b805460ff191660011781556001600160a01b038481167f0000000000000000000000000000000000000000000000000000000000000000919091161461074c57600080fd5b336001600160a01b037f0000000000000000000000000000000000000000000000000000000000000000161461078157600080fd5b604051632e1a7d4d60e01b8152600481018490527f00000000000000000000000000000000000000000000000000000000000000006001600160a01b031690632e1a7d4d90602401600060405180830381600087803b1580156107e357600080fd5b505af11580156107f7573d6000803e3d6000fd5b50505050815160140361081d57610818610812836014015190565b84610ae5565b610932565b60006108316040516020016106c8906110a7565b6000015490506000808590506000858060200190518101906108539190611156565b905083156109045780602001511561087157806040015192506108e6565b60005a61088c906bffffffffffffffffffffffff87166111e1565b905048670de0b6b3a764000083606001518361c3506108ab91906111f4565b6108b59190611207565b6108bf919061121e565b6108c99190611207565b9350816040015184116108dc57836108e2565b81604001515b9350505b8683116108f357826108f5565b865b925061090183886111e1565b91505b81156109165780516109169083610ae5565b821561092d57606084901c61092b8185610ae5565b505b505050505b805460ff19169055505050565b6000546001600160a01b0316331461095657600080fd5b600080546001600160a01b0319166001600160a01b0392909216919091179055565b6109918160405180602001604052806000815250610994565b50565b7f00000000000000000000000000000000000000000000000000000000000000006001600160a01b031663d0e30db0346040518263ffffffff1660e01b81526004016000604051808303818588803b1580156109ef57600080fd5b505af1158015610a03573d6000803e3d6000fd5b505060405163d740548160e01b81526001600160a01b037f000000000000000000000000000000000000000000000000000000000000000016935063d74054819250610a7a91507f000000000000000000000000000000000000000000000000000000000000000090869034908790600401611264565b600060405180830381600087803b158015610a9457600080fd5b505af1158015610aa8573d6000803e3d6000fd5b505050505050565b806001600160a01b038116610ac457600080fd5b6001600160a01b038316610adb5761064482610b4f565b6106448383610b5a565b6040516001600160a01b0383169082156108fc029083906000818181858888f19350505050610600578082604051610b1c90610dbe565b6001600160a01b0390911681526020016040518091039082f0905080158015610b49573d6000803e3d6000fd5b50505050565b476106008282610ae5565b6040516370a0823160e01b815230600482015282906000906001600160a01b038316906370a0823190602401602060405180830381865afa158015610ba3573d6000803e3d6000fd5b505050506040513d601f19601f82011682018060405250810190610bc791906112b8565b604080516001600160a01b03868116602483015260448083018590528351808403909101815260649092019092526020810180516001600160e01b031663a9059cbb60e01b179052919250610b499190841690859084906106449084906000610c308383610c83565b90508051600014158015610c55575080806020019051810190610c53919061108a565b155b1561064457604051635274afe760e01b81526001600160a01b03841660048201526024015b60405180910390fd5b6060610c9183836000610c9a565b90505b92915050565b606081471015610cbf5760405163cd78605960e01b8152306004820152602401610c7a565b600080856001600160a01b03168486604051610cdb91906112d1565b60006040518083038185875af1925050503d8060008114610d18576040519150601f19603f3d011682016040523d82523d6000602084013e610d1d565b606091505b5091509150610d2d868383610d39565b925050505b9392505050565b606082610d4e57610d4982610d95565b610d32565b8151158015610d6557506001600160a01b0384163b155b15610d8e57604051639996b31560e01b81526001600160a01b0385166004820152602401610c7a565b5080610d32565b805115610da55780518082602001fd5b604051630a12f52160e11b815260040160405180910390fd5b6059806112ee83390190565b6001600160a01b038116811461099157600080fd5b600060208284031215610df157600080fd5b8135610d3281610dca565b60008083601f840112610e0e57600080fd5b50813567ffffffffffffffff811115610e2657600080fd5b602083019150836020828501011115610e3e57600080fd5b9250929050565b600080600080600060608688031215610e5d57600080fd5b8535610e6881610dca565b9450602086013567ffffffffffffffff80821115610e8557600080fd5b610e9189838a01610dfc565b90965094506040880135915080821115610eaa57600080fd5b50610eb788828901610dfc565b969995985093965092949392505050565b60008060408385031215610edb57600080fd5b8235610ee681610dca565b91506020830135610ef681610dca565b809150509250929050565b600080600060408486031215610f1657600080fd5b8335610f2181610dca565b9250602084013567ffffffffffffffff811115610f3d57600080fd5b610f4986828701610dfc565b9497909650939450505050565b801515811461099157600080fd5b60008060408385031215610f7757600080fd5b8235610f8281610dca565b91506020830135610ef681610f56565b634e487b7160e01b600052604160045260246000fd5b604051601f8201601f1916810167ffffffffffffffff81118282101715610fd157610fd1610f92565b604052919050565b600080600060608486031215610fee57600080fd5b8335610ff981610dca565b92506020848101359250604085013567ffffffffffffffff8082111561101e57600080fd5b818701915087601f83011261103257600080fd5b81358181111561104457611044610f92565b611056601f8201601f19168501610fa8565b9150808252888482850101111561106c57600080fd5b80848401858401376000848284010152508093505050509250925092565b60006020828403121561109c57600080fd5b8151610d3281610f56565b60208082526017908201527f6f6d6e69627269646765726f757465722e72756e6e6572000000000000000000604082015260600190565b6000602082840312156110f057600080fd5b8151610d3281610dca565b81835281816020850137506000828201602090810191909152601f909101601f19169091010190565b6040815260006111386040830186886110fb565b828103602084015261114b8185876110fb565b979650505050505050565b60006080828403121561116857600080fd5b6040516080810181811067ffffffffffffffff8211171561118b5761118b610f92565b604052825161119981610dca565b815260208301516111a981610f56565b6020820152604083810151908201526060928301519281019290925250919050565b634e487b7160e01b600052601160045260246000fd5b81810381811115610c9457610c946111cb565b80820180821115610c9457610c946111cb565b8082028115828204841417610c9457610c946111cb565b60008261123b57634e487b7160e01b600052601260045260246000fd5b500490565b60005b8381101561125b578181015183820152602001611243565b50506000910152565b600060018060a01b0380871683528086166020840152508360408301526080606083015282518060808401526112a18160a0850160208701611240565b601f01601f19169190910160a00195945050505050565b6000602082840312156112ca57600080fd5b5051919050565b600082516112e3818460208701611240565b919091019291505056fe608060405260405160593803806059833981016040819052601e91602a565b806001600160a01b0316ff5b600060208284031215603b57600080fd5b81516001600160a01b0381168114605157600080fd5b939250505056fea26469706673582212203edfa939ed42c6d8696a51fcd20e93a882bde7fac5c58b617ea2630ccbe9664e64736f6c63430008180033","opcodes":"PUSH1 0xC0 PUSH1 0x40 MSTORE CALLVALUE DUP1 ISZERO PUSH3 0x11 JUMPI PUSH1 0x0 DUP1 REVERT JUMPDEST POP PUSH1 0x40 MLOAD PUSH3 0x1521 CODESIZE SUB DUP1 PUSH3 0x1521 DUP4 CODECOPY DUP2 ADD PUSH1 0x40 DUP2 SWAP1 MSTORE PUSH3 0x34 SWAP2 PUSH3 0xF4 JUMP JUMPDEST PUSH1 0x0 DUP1 SLOAD PUSH1 0x1 PUSH1 0x1 PUSH1 0xA0 SHL SUB NOT AND PUSH1 0x1 PUSH1 0x1 PUSH1 0xA0 SHL SUB DUP4 DUP2 AND SWAP2 SWAP1 SWAP2 OR SWAP1 SWAP2 SSTORE DUP4 DUP2 AND PUSH1 0x80 DUP2 SWAP1 MSTORE SWAP1 DUP4 AND PUSH1 0xA0 DUP2 SWAP1 MSTORE PUSH1 0x40 MLOAD PUSH4 0x95EA7B3 PUSH1 0xE0 SHL DUP2 MSTORE PUSH1 0x4 DUP2 ADD SWAP3 SWAP1 SWAP3 MSTORE PUSH1 0x0 NOT PUSH1 0x24 DUP4 ADD MSTORE SWAP1 PUSH4 0x95EA7B3 SWAP1 PUSH1 0x44 ADD PUSH1 0x0 PUSH1 0x40 MLOAD DUP1 DUP4 SUB DUP2 PUSH1 0x0 DUP8 DUP1 EXTCODESIZE ISZERO DUP1 ISZERO PUSH3 0xA6 JUMPI PUSH1 0x0 DUP1 REVERT JUMPDEST POP GAS CALL ISZERO DUP1 ISZERO PUSH3 0xBB JUMPI RETURNDATASIZE PUSH1 0x0 DUP1 RETURNDATACOPY RETURNDATASIZE PUSH1 0x0 REVERT JUMPDEST POP POP PUSH1 0x1 DUP1 SLOAD PUSH1 0x1 PUSH1 0x1 PUSH1 0xA0 SHL SUB NOT AND ADDRESS OR SWAP1 SSTORE POP PUSH3 0x148 SWAP4 POP POP POP POP JUMP JUMPDEST PUSH1 0x1 PUSH1 0x1 PUSH1 0xA0 SHL SUB DUP2 AND DUP2 EQ PUSH3 0xF1 JUMPI PUSH1 0x0 DUP1 REVERT JUMPDEST POP JUMP JUMPDEST PUSH1 0x0 DUP1 PUSH1 0x0 PUSH1 0x60 DUP5 DUP7 SUB SLT ISZERO PUSH3 0x10A JUMPI PUSH1 0x0 DUP1 REVERT JUMPDEST DUP4 MLOAD PUSH3 0x117 DUP2 PUSH3 0xDB JUMP JUMPDEST PUSH1 0x20 DUP6 ADD MLOAD SWAP1 SWAP4 POP PUSH3 0x12A DUP2 PUSH3 0xDB JUMP JUMPDEST PUSH1 0x40 DUP6 ADD MLOAD SWAP1 SWAP3 POP PUSH3 0x13D DUP2 PUSH3 0xDB JUMP JUMPDEST DUP1 SWAP2 POP POP SWAP3 POP SWAP3 POP SWAP3 JUMP JUMPDEST PUSH1 0x80 MLOAD PUSH1 0xA0 MLOAD PUSH2 0x137C PUSH3 0x1A5 PUSH1 0x0 CODECOPY PUSH1 0x0 DUP2 DUP2 PUSH1 0xFC ADD MSTORE DUP2 DUP2 PUSH2 0x233 ADD MSTORE DUP2 DUP2 PUSH2 0x71F ADD MSTORE DUP2 DUP2 PUSH2 0x797 ADD MSTORE DUP2 DUP2 PUSH2 0x996 ADD MSTORE PUSH2 0xA4C ADD MSTORE PUSH1 0x0 DUP2 DUP2 PUSH2 0x27A ADD MSTORE DUP2 DUP2 PUSH2 0x4C6 ADD MSTORE DUP2 DUP2 PUSH2 0x757 ADD MSTORE PUSH2 0xA1C ADD MSTORE PUSH2 0x137C PUSH1 0x0 RETURN INVALID PUSH1 0x80 PUSH1 0x40 MSTORE PUSH1 0x4 CALLDATASIZE LT PUSH2 0xEC JUMPI PUSH1 0x0 CALLDATALOAD PUSH1 0xE0 SHR DUP1 PUSH4 0x9562DE59 GT PUSH2 0x8A JUMPI DUP1 PUSH4 0xE78CEA92 GT PUSH2 0x59 JUMPI DUP1 PUSH4 0xE78CEA92 EQ PUSH2 0x268 JUMPI DUP1 PUSH4 0xF2FDE38B EQ PUSH2 0x29C JUMPI DUP1 PUSH4 0xF52CBF0E EQ PUSH2 0x2BC JUMPI DUP1 PUSH4 0xFACD743B EQ PUSH2 0x2CF JUMPI PUSH1 0x0 DUP1 REVERT JUMPDEST DUP1 PUSH4 0x9562DE59 EQ PUSH2 0x1FB JUMPI DUP1 PUSH4 0xACA2490B EQ PUSH2 0x20E JUMPI DUP1 PUSH4 0xAD5C4648 EQ PUSH2 0x221 JUMPI DUP1 PUSH4 0xDB7AF854 EQ PUSH2 0x255 JUMPI PUSH1 0x0 DUP1 REVERT JUMPDEST DUP1 PUSH4 0x633A8FA9 GT PUSH2 0xC6 JUMPI DUP1 PUSH4 0x633A8FA9 EQ PUSH2 0x15B JUMPI DUP1 PUSH4 0x69FFA08A EQ PUSH2 0x183 JUMPI DUP1 PUSH4 0x70502107 EQ PUSH2 0x1A3 JUMPI DUP1 PUSH4 0x8DA5CB5B EQ PUSH2 0x1DB JUMPI PUSH1 0x0 DUP1 REVERT JUMPDEST DUP1 PUSH4 0x1A754FF EQ PUSH2 0x12D JUMPI DUP1 PUSH4 0x36768D3E EQ PUSH2 0x135 JUMPI DUP1 PUSH4 0x4309B714 EQ PUSH2 0x148 JUMPI PUSH1 0x0 DUP1 REVERT JUMPDEST CALLDATASIZE PUSH2 0x128 JUMPI CALLER PUSH1 0x1 PUSH1 0x1 PUSH1 0xA0 SHL SUB PUSH32 0x0 AND EQ PUSH2 0x126 JUMPI PUSH1 0x0 DUP1 REVERT JUMPDEST STOP JUMPDEST PUSH1 0x0 DUP1 REVERT JUMPDEST PUSH2 0x126 PUSH2 0x30F JUMP JUMPDEST PUSH2 0x126 PUSH2 0x143 CALLDATASIZE PUSH1 0x4 PUSH2 0xDDF JUMP JUMPDEST PUSH2 0x32A JUMP JUMPDEST PUSH2 0x126 PUSH2 0x156 CALLDATASIZE PUSH1 0x4 PUSH2 0xE45 JUMP JUMPDEST PUSH2 0x3CD JUMP JUMPDEST CALLVALUE DUP1 ISZERO PUSH2 0x167 JUMPI PUSH1 0x0 DUP1 REVERT JUMPDEST POP PUSH2 0x170 PUSH2 0x5B7 JUMP JUMPDEST PUSH1 0x40 MLOAD SWAP1 DUP2 MSTORE PUSH1 0x20 ADD JUMPDEST PUSH1 0x40 MLOAD DUP1 SWAP2 SUB SWAP1 RETURN JUMPDEST CALLVALUE DUP1 ISZERO PUSH2 0x18F JUMPI PUSH1 0x0 DUP1 REVERT JUMPDEST POP PUSH2 0x126 PUSH2 0x19E CALLDATASIZE PUSH1 0x4 PUSH2 0xEC8 JUMP JUMPDEST PUSH2 0x5DF JUMP JUMPDEST CALLVALUE DUP1 ISZERO PUSH2 0x1AF JUMPI PUSH1 0x0 DUP1 REVERT JUMPDEST POP PUSH1 0x1 SLOAD PUSH2 0x1C3 SWAP1 PUSH1 0x1 PUSH1 0x1 PUSH1 0xA0 SHL SUB AND DUP2 JUMP JUMPDEST PUSH1 0x40 MLOAD PUSH1 0x1 PUSH1 0x1 PUSH1 0xA0 SHL SUB SWAP1 SWAP2 AND DUP2 MSTORE PUSH1 0x20 ADD PUSH2 0x17A JUMP JUMPDEST CALLVALUE DUP1 ISZERO PUSH2 0x1E7 JUMPI PUSH1 0x0 DUP1 REVERT JUMPDEST POP PUSH1 0x0 SLOAD PUSH2 0x1C3 SWAP1 PUSH1 0x1 PUSH1 0x1 PUSH1 0xA0 SHL SUB AND DUP2 JUMP JUMPDEST PUSH2 0x126 PUSH2 0x209 CALLDATASIZE PUSH1 0x4 PUSH2 0xF01 JUMP JUMPDEST PUSH2 0x604 JUMP JUMPDEST PUSH2 0x126 PUSH2 0x21C CALLDATASIZE PUSH1 0x4 PUSH2 0xF64 JUMP JUMPDEST PUSH2 0x649 JUMP JUMPDEST CALLVALUE DUP1 ISZERO PUSH2 0x22D JUMPI PUSH1 0x0 DUP1 REVERT JUMPDEST POP PUSH2 0x1C3 PUSH32 0x0 DUP2 JUMP JUMPDEST PUSH2 0x126 PUSH2 0x263 CALLDATASIZE PUSH1 0x4 PUSH2 0xFD9 JUMP JUMPDEST PUSH2 0x68B JUMP JUMPDEST CALLVALUE DUP1 ISZERO PUSH2 0x274 JUMPI PUSH1 0x0 DUP1 REVERT JUMPDEST POP PUSH2 0x1C3 PUSH32 0x0 DUP2 JUMP JUMPDEST CALLVALUE DUP1 ISZERO PUSH2 0x2A8 JUMPI PUSH1 0x0 DUP1 REVERT JUMPDEST POP PUSH2 0x126 PUSH2 0x2B7 CALLDATASIZE PUSH1 0x4 PUSH2 0xDDF JUMP JUMPDEST PUSH2 0x93F JUMP JUMPDEST PUSH2 0x126 PUSH2 0x2CA CALLDATASIZE PUSH1 0x4 PUSH2 0xDDF JUMP JUMPDEST PUSH2 0x978 JUMP JUMPDEST CALLVALUE DUP1 ISZERO PUSH2 0x2DB JUMPI PUSH1 0x0 DUP1 REVERT JUMPDEST POP PUSH2 0x2FF PUSH2 0x2EA CALLDATASIZE PUSH1 0x4 PUSH2 0xDDF JUMP JUMPDEST PUSH1 0x2 PUSH1 0x20 MSTORE PUSH1 0x0 SWAP1 DUP2 MSTORE PUSH1 0x40 SWAP1 KECCAK256 SLOAD PUSH1 0xFF AND DUP2 JUMP JUMPDEST PUSH1 0x40 MLOAD SWAP1 ISZERO ISZERO DUP2 MSTORE PUSH1 0x20 ADD PUSH2 0x17A JUMP JUMPDEST PUSH2 0x328 CALLER PUSH1 0x40 MLOAD DUP1 PUSH1 0x20 ADD PUSH1 0x40 MSTORE DUP1 PUSH1 0x0 DUP2 MSTORE POP PUSH2 0x994 JUMP JUMPDEST JUMP JUMPDEST PUSH1 0x0 SLOAD PUSH1 0x1 PUSH1 0x1 PUSH1 0xA0 SHL SUB AND CALLER EQ PUSH2 0x341 JUMPI PUSH1 0x0 DUP1 REVERT JUMPDEST PUSH1 0x40 MLOAD PUSH4 0xFACD743B PUSH1 0xE0 SHL DUP2 MSTORE PUSH1 0x0 PUSH1 0x4 DUP3 ADD MSTORE PUSH1 0x1 PUSH1 0x1 PUSH1 0xA0 SHL SUB DUP3 AND SWAP1 PUSH4 0xFACD743B SWAP1 PUSH1 0x24 ADD PUSH1 0x20 PUSH1 0x40 MLOAD DUP1 DUP4 SUB DUP2 DUP7 GAS STATICCALL ISZERO DUP1 ISZERO PUSH2 0x386 JUMPI RETURNDATASIZE PUSH1 0x0 DUP1 RETURNDATACOPY RETURNDATASIZE PUSH1 0x0 REVERT JUMPDEST POP POP POP POP PUSH1 0x40 MLOAD RETURNDATASIZE PUSH1 0x1F NOT PUSH1 0x1F DUP3 ADD AND DUP3 ADD DUP1 PUSH1 0x40 MSTORE POP DUP2 ADD SWAP1 PUSH2 0x3AA SWAP2 SWAP1 PUSH2 0x108A JUMP JUMPDEST POP PUSH1 0x1 DUP1 SLOAD PUSH1 0x1 PUSH1 0x1 PUSH1 0xA0 SHL SUB NOT AND PUSH1 0x1 PUSH1 0x1 PUSH1 0xA0 SHL SUB SWAP3 SWAP1 SWAP3 AND SWAP2 SWAP1 SWAP2 OR SWAP1 SSTORE JUMP JUMPDEST PUSH1 0x40 MLOAD PUSH1 0x20 ADD PUSH2 0x3DC SWAP1 PUSH2 0x10A7 JUMP JUMPDEST PUSH1 0x40 MLOAD PUSH1 0x20 DUP2 DUP4 SUB SUB DUP2 MSTORE SWAP1 PUSH1 0x40 MSTORE DUP1 MLOAD SWAP1 PUSH1 0x20 ADD KECCAK256 PUSH1 0x60 DUP7 PUSH1 0x1 PUSH1 0x1 PUSH1 0xA0 SHL SUB AND SWAP1 SHL GAS PUSH12 0xFFFFFFFFFFFFFFFFFFFFFFFF AND OR PUSH1 0x0 DUP3 DUP1 SLOAD SWAP1 SWAP2 POP ISZERO PUSH2 0x436 JUMPI PUSH1 0x40 MLOAD PUSH4 0x45F5CE8B PUSH1 0xE1 SHL DUP2 MSTORE PUSH1 0x4 ADD PUSH1 0x40 MLOAD DUP1 SWAP2 SUB SWAP1 REVERT JUMPDEST DUP2 DUP2 SSTORE PUSH1 0x1 SLOAD PUSH1 0x40 MLOAD PUSH4 0xFACD743B PUSH1 0xE0 SHL DUP2 MSTORE PUSH1 0x1 PUSH1 0x1 PUSH1 0xA0 SHL SUB DUP11 DUP2 AND PUSH1 0x4 DUP4 ADD MSTORE SWAP1 SWAP2 AND SWAP1 PUSH4 0xFACD743B SWAP1 PUSH1 0x24 ADD PUSH1 0x20 PUSH1 0x40 MLOAD DUP1 DUP4 SUB DUP2 DUP7 GAS STATICCALL ISZERO DUP1 ISZERO PUSH2 0x483 JUMPI RETURNDATASIZE PUSH1 0x0 DUP1 RETURNDATACOPY RETURNDATASIZE PUSH1 0x0 REVERT JUMPDEST POP POP POP POP PUSH1 0x40 MLOAD RETURNDATASIZE PUSH1 0x1F NOT PUSH1 0x1F DUP3 ADD AND DUP3 ADD DUP1 PUSH1 0x40 MSTORE POP DUP2 ADD SWAP1 PUSH2 0x4A7 SWAP2 SWAP1 PUSH2 0x108A JUMP JUMPDEST PUSH2 0x4C4 JUMPI PUSH1 0x40 MLOAD PUSH4 0x1574F9F3 PUSH1 0xE0 SHL DUP2 MSTORE PUSH1 0x4 ADD PUSH1 0x40 MLOAD DUP1 SWAP2 SUB SWAP1 REVERT JUMPDEST PUSH32 0x0 PUSH1 0x1 PUSH1 0x1 PUSH1 0xA0 SHL SUB AND PUSH4 0xCD596583 PUSH1 0x40 MLOAD DUP2 PUSH4 0xFFFFFFFF AND PUSH1 0xE0 SHL DUP2 MSTORE PUSH1 0x4 ADD PUSH1 0x20 PUSH1 0x40 MLOAD DUP1 DUP4 SUB DUP2 DUP7 GAS STATICCALL ISZERO DUP1 ISZERO PUSH2 0x522 JUMPI RETURNDATASIZE PUSH1 0x0 DUP1 RETURNDATACOPY RETURNDATASIZE PUSH1 0x0 REVERT JUMPDEST POP POP POP POP PUSH1 0x40 MLOAD RETURNDATASIZE PUSH1 0x1F NOT PUSH1 0x1F DUP3 ADD AND DUP3 ADD DUP1 PUSH1 0x40 MSTORE POP DUP2 ADD SWAP1 PUSH2 0x546 SWAP2 SWAP1 PUSH2 0x10DE JUMP JUMPDEST PUSH1 0x1 PUSH1 0x1 PUSH1 0xA0 SHL SUB AND PUSH4 0x23CAAB49 DUP9 DUP9 DUP9 DUP9 PUSH1 0x40 MLOAD DUP6 PUSH4 0xFFFFFFFF AND PUSH1 0xE0 SHL DUP2 MSTORE PUSH1 0x4 ADD PUSH2 0x577 SWAP5 SWAP4 SWAP3 SWAP2 SWAP1 PUSH2 0x1124 JUMP JUMPDEST PUSH1 0x0 PUSH1 0x40 MLOAD DUP1 DUP4 SUB DUP2 PUSH1 0x0 DUP8 DUP1 EXTCODESIZE ISZERO DUP1 ISZERO PUSH2 0x591 JUMPI PUSH1 0x0 DUP1 REVERT JUMPDEST POP GAS CALL ISZERO DUP1 ISZERO PUSH2 0x5A5 JUMPI RETURNDATASIZE PUSH1 0x0 DUP1 RETURNDATACOPY RETURNDATASIZE PUSH1 0x0 REVERT JUMPDEST POP POP PUSH1 0x0 SWAP1 SWAP3 SSTORE POP POP POP POP POP POP POP POP POP JUMP JUMPDEST PUSH1 0x40 MLOAD PUSH1 0x20 ADD PUSH2 0x5C6 SWAP1 PUSH2 0x10A7 JUMP JUMPDEST PUSH1 0x40 MLOAD PUSH1 0x20 DUP2 DUP4 SUB SUB DUP2 MSTORE SWAP1 PUSH1 0x40 MSTORE DUP1 MLOAD SWAP1 PUSH1 0x20 ADD KECCAK256 DUP2 JUMP JUMPDEST PUSH1 0x0 SLOAD PUSH1 0x1 PUSH1 0x1 PUSH1 0xA0 SHL SUB AND CALLER EQ PUSH2 0x5F6 JUMPI PUSH1 0x0 DUP1 REVERT JUMPDEST PUSH2 0x600 DUP3 DUP3 PUSH2 0xAB0 JUMP JUMPDEST POP POP JUMP JUMPDEST PUSH2 0x644 DUP4 DUP4 DUP4 DUP1 DUP1 PUSH1 0x1F ADD PUSH1 0x20 DUP1 SWAP2 DIV MUL PUSH1 0x20 ADD PUSH1 0x40 MLOAD SWAP1 DUP2 ADD PUSH1 0x40 MSTORE DUP1 SWAP4 SWAP3 SWAP2 SWAP1 DUP2 DUP2 MSTORE PUSH1 0x20 ADD DUP4 DUP4 DUP1 DUP3 DUP5 CALLDATACOPY PUSH1 0x0 SWAP3 ADD SWAP2 SWAP1 SWAP2 MSTORE POP PUSH2 0x994 SWAP3 POP POP POP JUMP JUMPDEST POP POP POP JUMP JUMPDEST PUSH1 0x0 SLOAD PUSH1 0x1 PUSH1 0x1 PUSH1 0xA0 SHL SUB AND CALLER EQ PUSH2 0x660 JUMPI PUSH1 0x0 DUP1 REVERT JUMPDEST PUSH1 0x1 PUSH1 0x1 PUSH1 0xA0 SHL SUB SWAP2 SWAP1 SWAP2 AND PUSH1 0x0 SWAP1 DUP2 MSTORE PUSH1 0x2 PUSH1 0x20 MSTORE PUSH1 0x40 SWAP1 KECCAK256 DUP1 SLOAD PUSH1 0xFF NOT AND SWAP2 ISZERO ISZERO SWAP2 SWAP1 SWAP2 OR SWAP1 SSTORE JUMP JUMPDEST PUSH1 0x0 PUSH2 0x6E1 PUSH1 0x40 MLOAD PUSH1 0x20 ADD PUSH2 0x6C8 SWAP1 PUSH1 0x20 DUP1 DUP3 MSTORE PUSH1 0x14 SWAP1 DUP3 ADD MSTORE PUSH20 0x1C99595B9D1C985B98DE4B9D1C985B9CDA595B9D PUSH1 0x62 SHL PUSH1 0x40 DUP3 ADD MSTORE PUSH1 0x60 ADD SWAP1 JUMP JUMPDEST PUSH1 0x40 MLOAD PUSH1 0x20 DUP2 DUP4 SUB SUB DUP2 MSTORE SWAP1 PUSH1 0x40 MSTORE DUP1 MLOAD SWAP1 PUSH1 0x20 ADD KECCAK256 SWAP1 JUMP JUMPDEST DUP1 SLOAD SWAP1 SWAP2 POP PUSH1 0xFF AND ISZERO PUSH2 0x707 JUMPI PUSH1 0x40 MLOAD PUSH4 0x45F5CE8B PUSH1 0xE1 SHL DUP2 MSTORE PUSH1 0x4 ADD PUSH1 0x40 MLOAD DUP1 SWAP2 SUB SWAP1 REVERT JUMPDEST DUP1 SLOAD PUSH1 0xFF NOT AND PUSH1 0x1 OR DUP2 SSTORE PUSH1 0x1 PUSH1 0x1 PUSH1 0xA0 SHL SUB DUP5 DUP2 AND PUSH32 0x0 SWAP2 SWAP1 SWAP2 AND EQ PUSH2 0x74C JUMPI PUSH1 0x0 DUP1 REVERT JUMPDEST CALLER PUSH1 0x1 PUSH1 0x1 PUSH1 0xA0 SHL SUB PUSH32 0x0 AND EQ PUSH2 0x781 JUMPI PUSH1 0x0 DUP1 REVERT JUMPDEST PUSH1 0x40 MLOAD PUSH4 0x2E1A7D4D PUSH1 0xE0 SHL DUP2 MSTORE PUSH1 0x4 DUP2 ADD DUP5 SWAP1 MSTORE PUSH32 0x0 PUSH1 0x1 PUSH1 0x1 PUSH1 0xA0 SHL SUB AND SWAP1 PUSH4 0x2E1A7D4D SWAP1 PUSH1 0x24 ADD PUSH1 0x0 PUSH1 0x40 MLOAD DUP1 DUP4 SUB DUP2 PUSH1 0x0 DUP8 DUP1 EXTCODESIZE ISZERO DUP1 ISZERO PUSH2 0x7E3 JUMPI PUSH1 0x0 DUP1 REVERT JUMPDEST POP GAS CALL ISZERO DUP1 ISZERO PUSH2 0x7F7 JUMPI RETURNDATASIZE PUSH1 0x0 DUP1 RETURNDATACOPY RETURNDATASIZE PUSH1 0x0 REVERT JUMPDEST POP POP POP POP DUP2 MLOAD PUSH1 0x14 SUB PUSH2 0x81D JUMPI PUSH2 0x818 PUSH2 0x812 DUP4 PUSH1 0x14 ADD MLOAD SWAP1 JUMP JUMPDEST DUP5 PUSH2 0xAE5 JUMP JUMPDEST PUSH2 0x932 JUMP JUMPDEST PUSH1 0x0 PUSH2 0x831 PUSH1 0x40 MLOAD PUSH1 0x20 ADD PUSH2 0x6C8 SWAP1 PUSH2 0x10A7 JUMP JUMPDEST PUSH1 0x0 ADD SLOAD SWAP1 POP PUSH1 0x0 DUP1 DUP6 SWAP1 POP PUSH1 0x0 DUP6 DUP1 PUSH1 0x20 ADD SWAP1 MLOAD DUP2 ADD SWAP1 PUSH2 0x853 SWAP2 SWAP1 PUSH2 0x1156 JUMP JUMPDEST SWAP1 POP DUP4 ISZERO PUSH2 0x904 JUMPI DUP1 PUSH1 0x20 ADD MLOAD ISZERO PUSH2 0x871 JUMPI DUP1 PUSH1 0x40 ADD MLOAD SWAP3 POP PUSH2 0x8E6 JUMP JUMPDEST PUSH1 0x0 GAS PUSH2 0x88C SWAP1 PUSH12 0xFFFFFFFFFFFFFFFFFFFFFFFF DUP8 AND PUSH2 0x11E1 JUMP JUMPDEST SWAP1 POP BASEFEE PUSH8 0xDE0B6B3A7640000 DUP4 PUSH1 0x60 ADD MLOAD DUP4 PUSH2 0xC350 PUSH2 0x8AB SWAP2 SWAP1 PUSH2 0x11F4 JUMP JUMPDEST PUSH2 0x8B5 SWAP2 SWAP1 PUSH2 0x1207 JUMP JUMPDEST PUSH2 0x8BF SWAP2 SWAP1 PUSH2 0x121E JUMP JUMPDEST PUSH2 0x8C9 SWAP2 SWAP1 PUSH2 0x1207 JUMP JUMPDEST SWAP4 POP DUP2 PUSH1 0x40 ADD MLOAD DUP5 GT PUSH2 0x8DC JUMPI DUP4 PUSH2 0x8E2 JUMP JUMPDEST DUP2 PUSH1 0x40 ADD MLOAD JUMPDEST SWAP4 POP POP JUMPDEST DUP7 DUP4 GT PUSH2 0x8F3 JUMPI DUP3 PUSH2 0x8F5 JUMP JUMPDEST DUP7 JUMPDEST SWAP3 POP PUSH2 0x901 DUP4 DUP9 PUSH2 0x11E1 JUMP JUMPDEST SWAP2 POP JUMPDEST DUP2 ISZERO PUSH2 0x916 JUMPI DUP1 MLOAD PUSH2 0x916 SWAP1 DUP4 PUSH2 0xAE5 JUMP JUMPDEST DUP3 ISZERO PUSH2 0x92D JUMPI PUSH1 0x60 DUP5 SWAP1 SHR PUSH2 0x92B DUP2 DUP6 PUSH2 0xAE5 JUMP JUMPDEST POP JUMPDEST POP POP POP POP JUMPDEST DUP1 SLOAD PUSH1 0xFF NOT AND SWAP1 SSTORE POP POP POP JUMP JUMPDEST PUSH1 0x0 SLOAD PUSH1 0x1 PUSH1 0x1 PUSH1 0xA0 SHL SUB AND CALLER EQ PUSH2 0x956 JUMPI PUSH1 0x0 DUP1 REVERT JUMPDEST PUSH1 0x0 DUP1 SLOAD PUSH1 0x1 PUSH1 0x1 PUSH1 0xA0 SHL SUB NOT AND PUSH1 0x1 PUSH1 0x1 PUSH1 0xA0 SHL SUB SWAP3 SWAP1 SWAP3 AND SWAP2 SWAP1 SWAP2 OR SWAP1 SSTORE JUMP JUMPDEST PUSH2 0x991 DUP2 PUSH1 0x40 MLOAD DUP1 PUSH1 0x20 ADD PUSH1 0x40 MSTORE DUP1 PUSH1 0x0 DUP2 MSTORE POP PUSH2 0x994 JUMP JUMPDEST POP JUMP JUMPDEST PUSH32 0x0 PUSH1 0x1 PUSH1 0x1 PUSH1 0xA0 SHL SUB AND PUSH4 0xD0E30DB0 CALLVALUE PUSH1 0x40 MLOAD DUP3 PUSH4 0xFFFFFFFF AND PUSH1 0xE0 SHL DUP2 MSTORE PUSH1 0x4 ADD PUSH1 0x0 PUSH1 0x40 MLOAD DUP1 DUP4 SUB DUP2 DUP6 DUP9 DUP1 EXTCODESIZE ISZERO DUP1 ISZERO PUSH2 0x9EF JUMPI PUSH1 0x0 DUP1 REVERT JUMPDEST POP GAS CALL ISZERO DUP1 ISZERO PUSH2 0xA03 JUMPI RETURNDATASIZE PUSH1 0x0 DUP1 RETURNDATACOPY RETURNDATASIZE PUSH1 0x0 REVERT JUMPDEST POP POP PUSH1 0x40 MLOAD PUSH4 0xD7405481 PUSH1 0xE0 SHL DUP2 MSTORE PUSH1 0x1 PUSH1 0x1 PUSH1 0xA0 SHL SUB PUSH32 0x0 AND SWAP4 POP PUSH4 0xD7405481 SWAP3 POP PUSH2 0xA7A SWAP2 POP PUSH32 0x0 SWAP1 DUP7 SWAP1 CALLVALUE SWAP1 DUP8 SWAP1 PUSH1 0x4 ADD PUSH2 0x1264 JUMP JUMPDEST PUSH1 0x0 PUSH1 0x40 MLOAD DUP1 DUP4 SUB DUP2 PUSH1 0x0 DUP8 DUP1 EXTCODESIZE ISZERO DUP1 ISZERO PUSH2 0xA94 JUMPI PUSH1 0x0 DUP1 REVERT JUMPDEST POP GAS CALL ISZERO DUP1 ISZERO PUSH2 0xAA8 JUMPI RETURNDATASIZE PUSH1 0x0 DUP1 RETURNDATACOPY RETURNDATASIZE PUSH1 0x0 REVERT JUMPDEST POP POP POP POP POP POP JUMP JUMPDEST DUP1 PUSH1 0x1 PUSH1 0x1 PUSH1 0xA0 SHL SUB DUP2 AND PUSH2 0xAC4 JUMPI PUSH1 0x0 DUP1 REVERT JUMPDEST PUSH1 0x1 PUSH1 0x1 PUSH1 0xA0 SHL SUB DUP4 AND PUSH2 0xADB JUMPI PUSH2 0x644 DUP3 PUSH2 0xB4F JUMP JUMPDEST PUSH2 0x644 DUP4 DUP4 PUSH2 0xB5A JUMP JUMPDEST PUSH1 0x40 MLOAD PUSH1 0x1 PUSH1 0x1 PUSH1 0xA0 SHL SUB DUP4 AND SWAP1 DUP3 ISZERO PUSH2 0x8FC MUL SWAP1 DUP4 SWAP1 PUSH1 0x0 DUP2 DUP2 DUP2 DUP6 DUP9 DUP9 CALL SWAP4 POP POP POP POP PUSH2 0x600 JUMPI DUP1 DUP3 PUSH1 0x40 MLOAD PUSH2 0xB1C SWAP1 PUSH2 0xDBE JUMP JUMPDEST PUSH1 0x1 PUSH1 0x1 PUSH1 0xA0 SHL SUB SWAP1 SWAP2 AND DUP2 MSTORE PUSH1 0x20 ADD PUSH1 0x40 MLOAD DUP1 SWAP2 SUB SWAP1 DUP3 CREATE SWAP1 POP DUP1 ISZERO DUP1 ISZERO PUSH2 0xB49 JUMPI RETURNDATASIZE PUSH1 0x0 DUP1 RETURNDATACOPY RETURNDATASIZE PUSH1 0x0 REVERT JUMPDEST POP POP POP POP JUMP JUMPDEST SELFBALANCE PUSH2 0x600 DUP3 DUP3 PUSH2 0xAE5 JUMP JUMPDEST PUSH1 0x40 MLOAD PUSH4 0x70A08231 PUSH1 0xE0 SHL DUP2 MSTORE ADDRESS PUSH1 0x4 DUP3 ADD MSTORE DUP3 SWAP1 PUSH1 0x0 SWAP1 PUSH1 0x1 PUSH1 0x1 PUSH1 0xA0 SHL SUB DUP4 AND SWAP1 PUSH4 0x70A08231 SWAP1 PUSH1 0x24 ADD PUSH1 0x20 PUSH1 0x40 MLOAD DUP1 DUP4 SUB DUP2 DUP7 GAS STATICCALL ISZERO DUP1 ISZERO PUSH2 0xBA3 JUMPI RETURNDATASIZE PUSH1 0x0 DUP1 RETURNDATACOPY RETURNDATASIZE PUSH1 0x0 REVERT JUMPDEST POP POP POP POP PUSH1 0x40 MLOAD RETURNDATASIZE PUSH1 0x1F NOT PUSH1 0x1F DUP3 ADD AND DUP3 ADD DUP1 PUSH1 0x40 MSTORE POP DUP2 ADD SWAP1 PUSH2 0xBC7 SWAP2 SWAP1 PUSH2 0x12B8 JUMP JUMPDEST PUSH1 0x40 DUP1 MLOAD PUSH1 0x1 PUSH1 0x1 PUSH1 0xA0 SHL SUB DUP7 DUP2 AND PUSH1 0x24 DUP4 ADD MSTORE PUSH1 0x44 DUP1 DUP4 ADD DUP6 SWAP1 MSTORE DUP4 MLOAD DUP1 DUP5 SUB SWAP1 SWAP2 ADD DUP2 MSTORE PUSH1 0x64 SWAP1 SWAP3 ADD SWAP1 SWAP3 MSTORE PUSH1 0x20 DUP2 ADD DUP1 MLOAD PUSH1 0x1 PUSH1 0x1 PUSH1 0xE0 SHL SUB AND PUSH4 0xA9059CBB PUSH1 0xE0 SHL OR SWAP1 MSTORE SWAP2 SWAP3 POP PUSH2 0xB49 SWAP2 SWAP1 DUP5 AND SWAP1 DUP6 SWAP1 DUP5 SWAP1 PUSH2 0x644 SWAP1 DUP5 SWAP1 PUSH1 0x0 PUSH2 0xC30 DUP4 DUP4 PUSH2 0xC83 JUMP JUMPDEST SWAP1 POP DUP1 MLOAD PUSH1 0x0 EQ ISZERO DUP1 ISZERO PUSH2 0xC55 JUMPI POP DUP1 DUP1 PUSH1 0x20 ADD SWAP1 MLOAD DUP2 ADD SWAP1 PUSH2 0xC53 SWAP2 SWAP1 PUSH2 0x108A JUMP JUMPDEST ISZERO JUMPDEST ISZERO PUSH2 0x644 JUMPI PUSH1 0x40 MLOAD PUSH4 0x5274AFE7 PUSH1 0xE0 SHL DUP2 MSTORE PUSH1 0x1 PUSH1 0x1 PUSH1 0xA0 SHL SUB DUP5 AND PUSH1 0x4 DUP3 ADD MSTORE PUSH1 0x24 ADD JUMPDEST PUSH1 0x40 MLOAD DUP1 SWAP2 SUB SWAP1 REVERT JUMPDEST PUSH1 0x60 PUSH2 0xC91 DUP4 DUP4 PUSH1 0x0 PUSH2 0xC9A JUMP JUMPDEST SWAP1 POP JUMPDEST SWAP3 SWAP2 POP POP JUMP JUMPDEST PUSH1 0x60 DUP2 SELFBALANCE LT ISZERO PUSH2 0xCBF JUMPI PUSH1 0x40 MLOAD PUSH4 0xCD786059 PUSH1 0xE0 SHL DUP2 MSTORE ADDRESS PUSH1 0x4 DUP3 ADD MSTORE PUSH1 0x24 ADD PUSH2 0xC7A JUMP JUMPDEST PUSH1 0x0 DUP1 DUP6 PUSH1 0x1 PUSH1 0x1 PUSH1 0xA0 SHL SUB AND DUP5 DUP7 PUSH1 0x40 MLOAD PUSH2 0xCDB SWAP2 SWAP1 PUSH2 0x12D1 JUMP JUMPDEST PUSH1 0x0 PUSH1 0x40 MLOAD DUP1 DUP4 SUB DUP2 DUP6 DUP8 GAS CALL SWAP3 POP POP POP RETURNDATASIZE DUP1 PUSH1 0x0 DUP2 EQ PUSH2 0xD18 JUMPI PUSH1 0x40 MLOAD SWAP2 POP PUSH1 0x1F NOT PUSH1 0x3F RETURNDATASIZE ADD AND DUP3 ADD PUSH1 0x40 MSTORE RETURNDATASIZE DUP3 MSTORE RETURNDATASIZE PUSH1 0x0 PUSH1 0x20 DUP5 ADD RETURNDATACOPY PUSH2 0xD1D JUMP JUMPDEST PUSH1 0x60 SWAP2 POP JUMPDEST POP SWAP2 POP SWAP2 POP PUSH2 0xD2D DUP7 DUP4 DUP4 PUSH2 0xD39 JUMP JUMPDEST SWAP3 POP POP POP JUMPDEST SWAP4 SWAP3 POP POP POP JUMP JUMPDEST PUSH1 0x60 DUP3 PUSH2 0xD4E JUMPI PUSH2 0xD49 DUP3 PUSH2 0xD95 JUMP JUMPDEST PUSH2 0xD32 JUMP JUMPDEST DUP2 MLOAD ISZERO DUP1 ISZERO PUSH2 0xD65 JUMPI POP PUSH1 0x1 PUSH1 0x1 PUSH1 0xA0 SHL SUB DUP5 AND EXTCODESIZE ISZERO JUMPDEST ISZERO PUSH2 0xD8E JUMPI PUSH1 0x40 MLOAD PUSH4 0x9996B315 PUSH1 0xE0 SHL DUP2 MSTORE PUSH1 0x1 PUSH1 0x1 PUSH1 0xA0 SHL SUB DUP6 AND PUSH1 0x4 DUP3 ADD MSTORE PUSH1 0x24 ADD PUSH2 0xC7A JUMP JUMPDEST POP DUP1 PUSH2 0xD32 JUMP JUMPDEST DUP1 MLOAD ISZERO PUSH2 0xDA5 JUMPI DUP1 MLOAD DUP1 DUP3 PUSH1 0x20 ADD REVERT JUMPDEST PUSH1 0x40 MLOAD PUSH4 0xA12F521 PUSH1 0xE1 SHL DUP2 MSTORE PUSH1 0x4 ADD PUSH1 0x40 MLOAD DUP1 SWAP2 SUB SWAP1 REVERT JUMPDEST PUSH1 0x59 DUP1 PUSH2 0x12EE DUP4 CODECOPY ADD SWAP1 JUMP JUMPDEST PUSH1 0x1 PUSH1 0x1 PUSH1 0xA0 SHL SUB DUP2 AND DUP2 EQ PUSH2 0x991 JUMPI PUSH1 0x0 DUP1 REVERT JUMPDEST PUSH1 0x0 PUSH1 0x20 DUP3 DUP5 SUB SLT ISZERO PUSH2 0xDF1 JUMPI PUSH1 0x0 DUP1 REVERT JUMPDEST DUP2 CALLDATALOAD PUSH2 0xD32 DUP2 PUSH2 0xDCA JUMP JUMPDEST PUSH1 0x0 DUP1 DUP4 PUSH1 0x1F DUP5 ADD SLT PUSH2 0xE0E JUMPI PUSH1 0x0 DUP1 REVERT JUMPDEST POP DUP2 CALLDATALOAD PUSH8 0xFFFFFFFFFFFFFFFF DUP2 GT ISZERO PUSH2 0xE26 JUMPI PUSH1 0x0 DUP1 REVERT JUMPDEST PUSH1 0x20 DUP4 ADD SWAP2 POP DUP4 PUSH1 0x20 DUP3 DUP6 ADD ADD GT ISZERO PUSH2 0xE3E JUMPI PUSH1 0x0 DUP1 REVERT JUMPDEST SWAP3 POP SWAP3 SWAP1 POP JUMP JUMPDEST PUSH1 0x0 DUP1 PUSH1 0x0 DUP1 PUSH1 0x0 PUSH1 0x60 DUP7 DUP9 SUB SLT ISZERO PUSH2 0xE5D JUMPI PUSH1 0x0 DUP1 REVERT JUMPDEST DUP6 CALLDATALOAD PUSH2 0xE68 DUP2 PUSH2 0xDCA JUMP JUMPDEST SWAP5 POP PUSH1 0x20 DUP7 ADD CALLDATALOAD PUSH8 0xFFFFFFFFFFFFFFFF DUP1 DUP3 GT ISZERO PUSH2 0xE85 JUMPI PUSH1 0x0 DUP1 REVERT JUMPDEST PUSH2 0xE91 DUP10 DUP4 DUP11 ADD PUSH2 0xDFC JUMP JUMPDEST SWAP1 SWAP7 POP SWAP5 POP PUSH1 0x40 DUP9 ADD CALLDATALOAD SWAP2 POP DUP1 DUP3 GT ISZERO PUSH2 0xEAA JUMPI PUSH1 0x0 DUP1 REVERT JUMPDEST POP PUSH2 0xEB7 DUP9 DUP3 DUP10 ADD PUSH2 0xDFC JUMP JUMPDEST SWAP7 SWAP10 SWAP6 SWAP9 POP SWAP4 SWAP7 POP SWAP3 SWAP5 SWAP4 SWAP3 POP POP POP JUMP JUMPDEST PUSH1 0x0 DUP1 PUSH1 0x40 DUP4 DUP6 SUB SLT ISZERO PUSH2 0xEDB JUMPI PUSH1 0x0 DUP1 REVERT JUMPDEST DUP3 CALLDATALOAD PUSH2 0xEE6 DUP2 PUSH2 0xDCA JUMP JUMPDEST SWAP2 POP PUSH1 0x20 DUP4 ADD CALLDATALOAD PUSH2 0xEF6 DUP2 PUSH2 0xDCA JUMP JUMPDEST DUP1 SWAP2 POP POP SWAP3 POP SWAP3 SWAP1 POP JUMP JUMPDEST PUSH1 0x0 DUP1 PUSH1 0x0 PUSH1 0x40 DUP5 DUP7 SUB SLT ISZERO PUSH2 0xF16 JUMPI PUSH1 0x0 DUP1 REVERT JUMPDEST DUP4 CALLDATALOAD PUSH2 0xF21 DUP2 PUSH2 0xDCA JUMP JUMPDEST SWAP3 POP PUSH1 0x20 DUP5 ADD CALLDATALOAD PUSH8 0xFFFFFFFFFFFFFFFF DUP2 GT ISZERO PUSH2 0xF3D JUMPI PUSH1 0x0 DUP1 REVERT JUMPDEST PUSH2 0xF49 DUP7 DUP3 DUP8 ADD PUSH2 0xDFC JUMP JUMPDEST SWAP5 SWAP8 SWAP1 SWAP7 POP SWAP4 SWAP5 POP POP POP POP JUMP JUMPDEST DUP1 ISZERO ISZERO DUP2 EQ PUSH2 0x991 JUMPI PUSH1 0x0 DUP1 REVERT JUMPDEST PUSH1 0x0 DUP1 PUSH1 0x40 DUP4 DUP6 SUB SLT ISZERO PUSH2 0xF77 JUMPI PUSH1 0x0 DUP1 REVERT JUMPDEST DUP3 CALLDATALOAD PUSH2 0xF82 DUP2 PUSH2 0xDCA JUMP JUMPDEST SWAP2 POP PUSH1 0x20 DUP4 ADD CALLDATALOAD PUSH2 0xEF6 DUP2 PUSH2 0xF56 JUMP JUMPDEST PUSH4 0x4E487B71 PUSH1 0xE0 SHL PUSH1 0x0 MSTORE PUSH1 0x41 PUSH1 0x4 MSTORE PUSH1 0x24 PUSH1 0x0 REVERT JUMPDEST PUSH1 0x40 MLOAD PUSH1 0x1F DUP3 ADD PUSH1 0x1F NOT AND DUP2 ADD PUSH8 0xFFFFFFFFFFFFFFFF DUP2 GT DUP3 DUP3 LT OR ISZERO PUSH2 0xFD1 JUMPI PUSH2 0xFD1 PUSH2 0xF92 JUMP JUMPDEST PUSH1 0x40 MSTORE SWAP2 SWAP1 POP JUMP JUMPDEST PUSH1 0x0 DUP1 PUSH1 0x0 PUSH1 0x60 DUP5 DUP7 SUB SLT ISZERO PUSH2 0xFEE JUMPI PUSH1 0x0 DUP1 REVERT JUMPDEST DUP4 CALLDATALOAD PUSH2 0xFF9 DUP2 PUSH2 0xDCA JUMP JUMPDEST SWAP3 POP PUSH1 0x20 DUP5 DUP2 ADD CALLDATALOAD SWAP3 POP PUSH1 0x40 DUP6 ADD CALLDATALOAD PUSH8 0xFFFFFFFFFFFFFFFF DUP1 DUP3 GT ISZERO PUSH2 0x101E JUMPI PUSH1 0x0 DUP1 REVERT JUMPDEST DUP2 DUP8 ADD SWAP2 POP DUP8 PUSH1 0x1F DUP4 ADD SLT PUSH2 0x1032 JUMPI PUSH1 0x0 DUP1 REVERT JUMPDEST DUP2 CALLDATALOAD DUP2 DUP2 GT ISZERO PUSH2 0x1044 JUMPI PUSH2 0x1044 PUSH2 0xF92 JUMP JUMPDEST PUSH2 0x1056 PUSH1 0x1F DUP3 ADD PUSH1 0x1F NOT AND DUP6 ADD PUSH2 0xFA8 JUMP JUMPDEST SWAP2 POP DUP1 DUP3 MSTORE DUP9 DUP5 DUP3 DUP6 ADD ADD GT ISZERO PUSH2 0x106C JUMPI PUSH1 0x0 DUP1 REVERT JUMPDEST DUP1 DUP5 DUP5 ADD DUP6 DUP5 ADD CALLDATACOPY PUSH1 0x0 DUP5 DUP3 DUP5 ADD ADD MSTORE POP DUP1 SWAP4 POP POP POP POP SWAP3 POP SWAP3 POP SWAP3 JUMP JUMPDEST PUSH1 0x0 PUSH1 0x20 DUP3 DUP5 SUB SLT ISZERO PUSH2 0x109C JUMPI PUSH1 0x0 DUP1 REVERT JUMPDEST DUP2 MLOAD PUSH2 0xD32 DUP2 PUSH2 0xF56 JUMP JUMPDEST PUSH1 0x20 DUP1 DUP3 MSTORE PUSH1 0x17 SWAP1 DUP3 ADD MSTORE PUSH32 0x6F6D6E69627269646765726F757465722E72756E6E6572000000000000000000 PUSH1 0x40 DUP3 ADD MSTORE PUSH1 0x60 ADD SWAP1 JUMP JUMPDEST PUSH1 0x0 PUSH1 0x20 DUP3 DUP5 SUB SLT ISZERO PUSH2 0x10F0 JUMPI PUSH1 0x0 DUP1 REVERT JUMPDEST DUP2 MLOAD PUSH2 0xD32 DUP2 PUSH2 0xDCA JUMP JUMPDEST DUP2 DUP4 MSTORE DUP2 DUP2 PUSH1 0x20 DUP6 ADD CALLDATACOPY POP PUSH1 0x0 DUP3 DUP3 ADD PUSH1 0x20 SWAP1 DUP2 ADD SWAP2 SWAP1 SWAP2 MSTORE PUSH1 0x1F SWAP1 SWAP2 ADD PUSH1 0x1F NOT AND SWAP1 SWAP2 ADD ADD SWAP1 JUMP JUMPDEST PUSH1 0x40 DUP2 MSTORE PUSH1 0x0 PUSH2 0x1138 PUSH1 0x40 DUP4 ADD DUP7 DUP9 PUSH2 0x10FB JUMP JUMPDEST DUP3 DUP2 SUB PUSH1 0x20 DUP5 ADD MSTORE PUSH2 0x114B DUP2 DUP6 DUP8 PUSH2 0x10FB JUMP JUMPDEST SWAP8 SWAP7 POP POP POP POP POP POP POP JUMP JUMPDEST PUSH1 0x0 PUSH1 0x80 DUP3 DUP5 SUB SLT ISZERO PUSH2 0x1168 JUMPI PUSH1 0x0 DUP1 REVERT JUMPDEST PUSH1 0x40 MLOAD PUSH1 0x80 DUP2 ADD DUP2 DUP2 LT PUSH8 0xFFFFFFFFFFFFFFFF DUP3 GT OR ISZERO PUSH2 0x118B JUMPI PUSH2 0x118B PUSH2 0xF92 JUMP JUMPDEST PUSH1 0x40 MSTORE DUP3 MLOAD PUSH2 0x1199 DUP2 PUSH2 0xDCA JUMP JUMPDEST DUP2 MSTORE PUSH1 0x20 DUP4 ADD MLOAD PUSH2 0x11A9 DUP2 PUSH2 0xF56 JUMP JUMPDEST PUSH1 0x20 DUP3 ADD MSTORE PUSH1 0x40 DUP4 DUP2 ADD MLOAD SWAP1 DUP3 ADD MSTORE PUSH1 0x60 SWAP3 DUP4 ADD MLOAD SWAP3 DUP2 ADD SWAP3 SWAP1 SWAP3 MSTORE POP SWAP2 SWAP1 POP JUMP JUMPDEST PUSH4 0x4E487B71 PUSH1 0xE0 SHL PUSH1 0x0 MSTORE PUSH1 0x11 PUSH1 0x4 MSTORE PUSH1 0x24 PUSH1 0x0 REVERT JUMPDEST DUP2 DUP2 SUB DUP2 DUP2 GT ISZERO PUSH2 0xC94 JUMPI PUSH2 0xC94 PUSH2 0x11CB JUMP JUMPDEST DUP1 DUP3 ADD DUP1 DUP3 GT ISZERO PUSH2 0xC94 JUMPI PUSH2 0xC94 PUSH2 0x11CB JUMP JUMPDEST DUP1 DUP3 MUL DUP2 ISZERO DUP3 DUP3 DIV DUP5 EQ OR PUSH2 0xC94 JUMPI PUSH2 0xC94 PUSH2 0x11CB JUMP JUMPDEST PUSH1 0x0 DUP3 PUSH2 0x123B JUMPI PUSH4 0x4E487B71 PUSH1 0xE0 SHL PUSH1 0x0 MSTORE PUSH1 0x12 PUSH1 0x4 MSTORE PUSH1 0x24 PUSH1 0x0 REVERT JUMPDEST POP DIV SWAP1 JUMP JUMPDEST PUSH1 0x0 JUMPDEST DUP4 DUP2 LT ISZERO PUSH2 0x125B JUMPI DUP2 DUP2 ADD MLOAD DUP4 DUP3 ADD MSTORE PUSH1 0x20 ADD PUSH2 0x1243 JUMP JUMPDEST POP POP PUSH1 0x0 SWAP2 ADD MSTORE JUMP JUMPDEST PUSH1 0x0 PUSH1 0x1 DUP1 PUSH1 0xA0 SHL SUB DUP1 DUP8 AND DUP4 MSTORE DUP1 DUP7 AND PUSH1 0x20 DUP5 ADD MSTORE POP DUP4 PUSH1 0x40 DUP4 ADD MSTORE PUSH1 0x80 PUSH1 0x60 DUP4 ADD MSTORE DUP3 MLOAD DUP1 PUSH1 0x80 DUP5 ADD MSTORE PUSH2 0x12A1 DUP2 PUSH1 0xA0 DUP6 ADD PUSH1 0x20 DUP8 ADD PUSH2 0x1240 JUMP JUMPDEST PUSH1 0x1F ADD PUSH1 0x1F NOT AND SWAP2 SWAP1 SWAP2 ADD PUSH1 0xA0 ADD SWAP6 SWAP5 POP POP POP POP POP JUMP JUMPDEST PUSH1 0x0 PUSH1 0x20 DUP3 DUP5 SUB SLT ISZERO PUSH2 0x12CA JUMPI PUSH1 0x0 DUP1 REVERT JUMPDEST POP MLOAD SWAP2 SWAP1 POP JUMP JUMPDEST PUSH1 0x0 DUP3 MLOAD PUSH2 0x12E3 DUP2 DUP5 PUSH1 0x20 DUP8 ADD PUSH2 0x1240 JUMP JUMPDEST SWAP2 SWAP1 SWAP2 ADD SWAP3 SWAP2 POP POP JUMP INVALID PUSH1 0x80 PUSH1 0x40 MSTORE PUSH1 0x40 MLOAD PUSH1 0x59 CODESIZE SUB DUP1 PUSH1 0x59 DUP4 CODECOPY DUP2 ADD PUSH1 0x40 DUP2 SWAP1 MSTORE PUSH1 0x1E SWAP2 PUSH1 0x2A JUMP JUMPDEST DUP1 PUSH1 0x1 PUSH1 0x1 PUSH1 0xA0 SHL SUB AND SELFDESTRUCT JUMPDEST PUSH1 0x0 PUSH1 0x20 DUP3 DUP5 SUB SLT ISZERO PUSH1 0x3B JUMPI PUSH1 0x0 DUP1 REVERT JUMPDEST DUP2 MLOAD PUSH1 0x1 PUSH1 0x1 PUSH1 0xA0 SHL SUB DUP2 AND DUP2 EQ PUSH1 0x51 JUMPI PUSH1 0x0 DUP1 REVERT JUMPDEST SWAP4 SWAP3 POP POP POP JUMP INVALID LOG2 PUSH5 0x6970667358 0x22 SLT KECCAK256 RETURNDATACOPY 0xDF 0xA9 CODECOPY 0xED TIMESTAMP 0xC6 0xD8 PUSH10 0x6A51FCD20E93A882BDE7 STATICCALL 0xC5 0xC5 DUP12 PUSH2 0x7EA2 PUSH4 0xCCBE966 0x4E PUSH5 0x736F6C6343 STOP ADDMOD XOR STOP CALLER "},"methodIdentifiers":{"RUNNER_SLOT()":"633a8fa9","WETH()":"ad5c4648","bridge()":"e78cea92","claimTokens(address,address)":"69ffa08a","isValidator(address)":"facd743b","onTokenBridged(address,uint256,bytes)":"db7af854","owner()":"8da5cb5b","relayTokensAndCall(address,bytes)":"9562de59","safeExecuteSignaturesWithAutoGasLimit(address,bytes,bytes)":"4309b714","setValidatorStatus(address,bool)":"aca2490b","setValidatorsFilter(address)":"36768d3e","transferOwnership(address)":"f2fde38b","validatorsFilter()":"70502107","wrapAndRelayTokens()":"01a754ff","wrapAndRelayTokens(address)":"f52cbf0e"}}}}}