{"contracts/mocks/GasTokenMock.sol":{"GasTokenMock":{"abi":[{"constant":true,"inputs":[],"name":"name","outputs":[{"name":"","type":"string"}],"payable":false,"stateMutability":"view","type":"function"},{"constant":false,"inputs":[{"name":"from","type":"address"},{"name":"value","type":"uint256"}],"name":"freeFromUpTo","outputs":[{"name":"freed","type":"uint256"}],"payable":false,"stateMutability":"nonpayable","type":"function"},{"constant":false,"inputs":[{"name":"spender","type":"address"},{"name":"value","type":"uint256"}],"name":"approve","outputs":[{"name":"success","type":"bool"}],"payable":false,"stateMutability":"nonpayable","type":"function"},{"constant":true,"inputs":[],"name":"totalSupply","outputs":[{"name":"supply","type":"uint256"}],"payable":false,"stateMutability":"view","type":"function"},{"constant":false,"inputs":[{"name":"from","type":"address"},{"name":"to","type":"address"},{"name":"value","type":"uint256"}],"name":"transferFrom","outputs":[{"name":"success","type":"bool"}],"payable":false,"stateMutability":"nonpayable","type":"function"},{"constant":true,"inputs":[],"name":"decimals","outputs":[{"name":"","type":"uint8"}],"payable":false,"stateMutability":"view","type":"function"},{"constant":false,"inputs":[{"name":"from","type":"address"},{"name":"value","type":"uint256"}],"name":"freeFrom","outputs":[{"name":"success","type":"bool"}],"payable":false,"stateMutability":"nonpayable","type":"function"},{"constant":false,"inputs":[{"name":"value","type":"uint256"}],"name":"freeUpTo","outputs":[{"name":"freed","type":"uint256"}],"payable":false,"stateMutability":"nonpayable","type":"function"},{"constant":true,"inputs":[{"name":"owner","type":"address"}],"name":"balanceOf","outputs":[{"name":"balance","type":"uint256"}],"payable":false,"stateMutability":"view","type":"function"},{"constant":true,"inputs":[],"name":"symbol","outputs":[{"name":"","type":"string"}],"payable":false,"stateMutability":"view","type":"function"},{"constant":false,"inputs":[{"name":"value","type":"uint256"}],"name":"mint","outputs":[],"payable":false,"stateMutability":"nonpayable","type":"function"},{"constant":false,"inputs":[{"name":"to","type":"address"},{"name":"value","type":"uint256"}],"name":"transfer","outputs":[{"name":"success","type":"bool"}],"payable":false,"stateMutability":"nonpayable","type":"function"},{"constant":false,"inputs":[{"name":"value","type":"uint256"}],"name":"free","outputs":[{"name":"success","type":"bool"}],"payable":false,"stateMutability":"nonpayable","type":"function"},{"constant":true,"inputs":[{"name":"owner","type":"address"},{"name":"spender","type":"address"}],"name":"allowance","outputs":[{"name":"remaining","type":"uint256"}],"payable":false,"stateMutability":"view","type":"function"},{"anonymous":false,"inputs":[{"indexed":true,"name":"from","type":"address"},{"indexed":true,"name":"to","type":"address"},{"indexed":false,"name":"value","type":"uint256"}],"name":"Transfer","type":"event"},{"anonymous":false,"inputs":[{"indexed":true,"name":"owner","type":"address"},{"indexed":true,"name":"spender","type":"address"},{"indexed":false,"name":"value","type":"uint256"}],"name":"Approval","type":"event"}],"evm":{"bytecode":{"linkReferences":{},"object":"608060405234801561001057600080fd5b506109b8806100206000396000f3006080604052600436106100cf5763ffffffff7c010000000000000000000000000000000000000000000000000000000060003504166306fdde0381146100d4578063079d229f1461015e578063095ea7b31461019457806318160ddd146101cc57806323b872dd146101e1578063313ce5671461020b5780635f2e2b45146102365780636366b9361461025a57806370a082311461027257806395d89b4114610293578063a0712d68146102a8578063a9059cbb146102c2578063d8ccd0f3146102e6578063dd62ed3e146102fe575b600080fd5b3480156100e057600080fd5b506100e9610325565b6040805160208082528351818301528351919283929083019185019080838360005b8381101561012357818101518382015260200161010b565b50505050905090810190601f1680156101505780820380516001836020036101000a031916815260200191505b509250505060405180910390f35b34801561016a57600080fd5b50610182600160a060020a036004351660243561035c565b60408051918252519081900360200190f35b3480156101a057600080fd5b506101b8600160a060020a03600435166024356103ff565b604080519115158252519081900360200190f35b3480156101d857600080fd5b506101826104ac565b3480156101ed57600080fd5b506101b8600160a060020a03600435811690602435166044356104b6565b34801561021757600080fd5b50610220610536565b6040805160ff9092168252519081900360200190f35b34801561024257600080fd5b506101b8600160a060020a036004351660243561053b565b34801561026657600080fd5b506101826004356105e5565b34801561027e57600080fd5b50610182600160a060020a0360043516610628565b34801561029f57600080fd5b506100e9610643565b3480156102b457600080fd5b506102c060043561067a565b005b3480156102ce57600080fd5b506101b8600160a060020a03600435166024356106b7565b3480156102f257600080fd5b506101b86004356106cd565b34801561030a57600080fd5b50610182600160a060020a0360043581169060243516610712565b60408051808201909152600b81527f476173746f6b656e2e696f000000000000000000000000000000000000000000602082015281565b600160a060020a0382166000908152602081905260408120543390828082861115610385578295505b5050600160a060020a038086166000908152600160209081526040808320938616835290839052902054808611156103bb578095505b6103c48661073d565b600160a060020a038088166000908152602081815260408083208a8803905592871682528490522086820390558594505b5050505092915050565b60003382158015906104355750600160a060020a0380821660009081526001602090815260408083209388168352929052205415155b1561044357600091506104a5565b600160a060020a03808216600081815260016020908152604080832094891680845294825291829020879055815187815291517f8c5be1e5ebec7d5bd14f71427d1e84f3dd0314c0f7b2291e5b200ac8c7c3b9259281900390910190a3600191505b5092915050565b6003546002540390565b600160a060020a038316600090815260016020908152604080832033808552925282205483118015906104ef57506104ef858585610784565b1561052957600160a060020a038086166000908152600160208181526040808420948616845293905291902080548590039055915061052e565b600091505b509392505050565b600281565b600160a060020a038216600090815260208190526040812054339082808286111561056957600094506103f5565b5050600160a060020a038086166000908152600160209081526040808320938616835290839052902054808611156105a457600094506103f5565b6105ad8661073d565b600160a060020a0396871660009081526020818152604080832095899003909555949097168752925290932091909203905550600190565b3360009081526020819052604081205480831115610601578092505b61060a8361073d565b33600090815260208190526040902083820390558291505b50919050565b600160a060020a031660009081526020819052604090205490565b60408051808201909152600481527f4753543200000000000000000000000000000000000000000000000000000000602082015281565b60005b818110156106965761068d61081b565b5060010161067d565b50600280548201905533600090815260208190526040902080549091019055565b6000336106c5818585610784565b949350505050565b33600090815260208190526040812054808311156106ee5760009150610622565b6106f78361073d565b33600090815260208190526040902092900390915550600190565b600160a060020a03918216600090815260016020908152604080832093909416825291909152205490565b600354600181015b818301811161077d576107583082610851565b600160a060020a03166040516000604051808303816000865af1505050600101610745565b5001600355565b600160a060020a038316600090815260208190526040812054821161081057600160a060020a0380851660008181526020818152604080832080548890039055938716808352918490208054870190558351868152935191937fddf252ad1be2c89b69c2b068fc378daa952ba7f163c4a11628f55a4df523b3ef929081900390910190a3506001610814565b5060005b9392505050565b60006040517e756eb3f879cb30fe243b4dfee438691c043310585733ff6000526016600af38152601f600182016000f091505090565b6000808080808068ffffffffffffffffff87111561086e57600080fd5b86600010801561087e5750608087105b156108905760019450600193506108a2565b6108998761096f565b94508460010193505b6015840192507f010000000000000000000000000000000000000000000000000000000000000060d58501026a0100000000000000000000600160a060020a038a1602017e940000000000000000000000000000000000000000000000000000000000000191506000871180156109195750608087105b15610934578669010000000000000000000282019150610957565b8460800169010000000000000000000282019150846009036101000a8702820191505b50604051908152600191909101902095945050505050565b60008060015b8084106104a55760019190910190610100026109755600a165627a7a723058204b4131940e22f2f927e107e442437b4b6ab8ad37e95fac031463a393793bcc070029","opcodes":"PUSH1 0x80 PUSH1 0x40 MSTORE CALLVALUE DUP1 ISZERO PUSH2 0x10 JUMPI PUSH1 0x0 DUP1 REVERT JUMPDEST POP PUSH2 0x9B8 DUP1 PUSH2 0x20 PUSH1 0x0 CODECOPY PUSH1 0x0 RETURN STOP PUSH1 0x80 PUSH1 0x40 MSTORE PUSH1 0x4 CALLDATASIZE LT PUSH2 0xCF JUMPI PUSH4 0xFFFFFFFF PUSH29 0x100000000000000000000000000000000000000000000000000000000 PUSH1 0x0 CALLDATALOAD DIV AND PUSH4 0x6FDDE03 DUP2 EQ PUSH2 0xD4 JUMPI DUP1 PUSH4 0x79D229F EQ PUSH2 0x15E JUMPI DUP1 PUSH4 0x95EA7B3 EQ PUSH2 0x194 JUMPI DUP1 PUSH4 0x18160DDD EQ PUSH2 0x1CC JUMPI DUP1 PUSH4 0x23B872DD EQ PUSH2 0x1E1 JUMPI DUP1 PUSH4 0x313CE567 EQ PUSH2 0x20B JUMPI DUP1 PUSH4 0x5F2E2B45 EQ PUSH2 0x236 JUMPI DUP1 PUSH4 0x6366B936 EQ PUSH2 0x25A JUMPI DUP1 PUSH4 0x70A08231 EQ PUSH2 0x272 JUMPI DUP1 PUSH4 0x95D89B41 EQ PUSH2 0x293 JUMPI DUP1 PUSH4 0xA0712D68 EQ PUSH2 0x2A8 JUMPI DUP1 PUSH4 0xA9059CBB EQ PUSH2 0x2C2 JUMPI DUP1 PUSH4 0xD8CCD0F3 EQ PUSH2 0x2E6 JUMPI DUP1 PUSH4 0xDD62ED3E EQ PUSH2 0x2FE JUMPI JUMPDEST PUSH1 0x0 DUP1 REVERT JUMPDEST CALLVALUE DUP1 ISZERO PUSH2 0xE0 JUMPI PUSH1 0x0 DUP1 REVERT JUMPDEST POP PUSH2 0xE9 PUSH2 0x325 JUMP JUMPDEST PUSH1 0x40 DUP1 MLOAD PUSH1 0x20 DUP1 DUP3 MSTORE DUP4 MLOAD DUP2 DUP4 ADD MSTORE DUP4 MLOAD SWAP2 SWAP3 DUP4 SWAP3 SWAP1 DUP4 ADD SWAP2 DUP6 ADD SWAP1 DUP1 DUP4 DUP4 PUSH1 0x0 JUMPDEST DUP4 DUP2 LT ISZERO PUSH2 0x123 JUMPI DUP2 DUP2 ADD MLOAD DUP4 DUP3 ADD MSTORE PUSH1 0x20 ADD PUSH2 0x10B JUMP JUMPDEST POP POP POP POP SWAP1 POP SWAP1 DUP2 ADD SWAP1 PUSH1 0x1F AND DUP1 ISZERO PUSH2 0x150 JUMPI DUP1 DUP3 SUB DUP1 MLOAD PUSH1 0x1 DUP4 PUSH1 0x20 SUB PUSH2 0x100 EXP SUB NOT AND DUP2 MSTORE PUSH1 0x20 ADD SWAP2 POP JUMPDEST POP SWAP3 POP POP POP PUSH1 0x40 MLOAD DUP1 SWAP2 SUB SWAP1 RETURN JUMPDEST CALLVALUE DUP1 ISZERO PUSH2 0x16A JUMPI PUSH1 0x0 DUP1 REVERT JUMPDEST POP PUSH2 0x182 PUSH1 0x1 PUSH1 0xA0 PUSH1 0x2 EXP SUB PUSH1 0x4 CALLDATALOAD AND PUSH1 0x24 CALLDATALOAD PUSH2 0x35C JUMP JUMPDEST PUSH1 0x40 DUP1 MLOAD SWAP2 DUP3 MSTORE MLOAD SWAP1 DUP2 SWAP1 SUB PUSH1 0x20 ADD SWAP1 RETURN JUMPDEST CALLVALUE DUP1 ISZERO PUSH2 0x1A0 JUMPI PUSH1 0x0 DUP1 REVERT JUMPDEST POP PUSH2 0x1B8 PUSH1 0x1 PUSH1 0xA0 PUSH1 0x2 EXP SUB PUSH1 0x4 CALLDATALOAD AND PUSH1 0x24 CALLDATALOAD PUSH2 0x3FF JUMP JUMPDEST PUSH1 0x40 DUP1 MLOAD SWAP2 ISZERO ISZERO DUP3 MSTORE MLOAD SWAP1 DUP2 SWAP1 SUB PUSH1 0x20 ADD SWAP1 RETURN JUMPDEST CALLVALUE DUP1 ISZERO PUSH2 0x1D8 JUMPI PUSH1 0x0 DUP1 REVERT JUMPDEST POP PUSH2 0x182 PUSH2 0x4AC JUMP JUMPDEST CALLVALUE DUP1 ISZERO PUSH2 0x1ED JUMPI PUSH1 0x0 DUP1 REVERT JUMPDEST POP PUSH2 0x1B8 PUSH1 0x1 PUSH1 0xA0 PUSH1 0x2 EXP SUB PUSH1 0x4 CALLDATALOAD DUP2 AND SWAP1 PUSH1 0x24 CALLDATALOAD AND PUSH1 0x44 CALLDATALOAD PUSH2 0x4B6 JUMP JUMPDEST CALLVALUE DUP1 ISZERO PUSH2 0x217 JUMPI PUSH1 0x0 DUP1 REVERT JUMPDEST POP PUSH2 0x220 PUSH2 0x536 JUMP JUMPDEST PUSH1 0x40 DUP1 MLOAD PUSH1 0xFF SWAP1 SWAP3 AND DUP3 MSTORE MLOAD SWAP1 DUP2 SWAP1 SUB PUSH1 0x20 ADD SWAP1 RETURN JUMPDEST CALLVALUE DUP1 ISZERO PUSH2 0x242 JUMPI PUSH1 0x0 DUP1 REVERT JUMPDEST POP PUSH2 0x1B8 PUSH1 0x1 PUSH1 0xA0 PUSH1 0x2 EXP SUB PUSH1 0x4 CALLDATALOAD AND PUSH1 0x24 CALLDATALOAD PUSH2 0x53B JUMP JUMPDEST CALLVALUE DUP1 ISZERO PUSH2 0x266 JUMPI PUSH1 0x0 DUP1 REVERT JUMPDEST POP PUSH2 0x182 PUSH1 0x4 CALLDATALOAD PUSH2 0x5E5 JUMP JUMPDEST CALLVALUE DUP1 ISZERO PUSH2 0x27E JUMPI PUSH1 0x0 DUP1 REVERT JUMPDEST POP PUSH2 0x182 PUSH1 0x1 PUSH1 0xA0 PUSH1 0x2 EXP SUB PUSH1 0x4 CALLDATALOAD AND PUSH2 0x628 JUMP JUMPDEST CALLVALUE DUP1 ISZERO PUSH2 0x29F JUMPI PUSH1 0x0 DUP1 REVERT JUMPDEST POP PUSH2 0xE9 PUSH2 0x643 JUMP JUMPDEST CALLVALUE DUP1 ISZERO PUSH2 0x2B4 JUMPI PUSH1 0x0 DUP1 REVERT JUMPDEST POP PUSH2 0x2C0 PUSH1 0x4 CALLDATALOAD PUSH2 0x67A JUMP JUMPDEST STOP JUMPDEST CALLVALUE DUP1 ISZERO PUSH2 0x2CE JUMPI PUSH1 0x0 DUP1 REVERT JUMPDEST POP PUSH2 0x1B8 PUSH1 0x1 PUSH1 0xA0 PUSH1 0x2 EXP SUB PUSH1 0x4 CALLDATALOAD AND PUSH1 0x24 CALLDATALOAD PUSH2 0x6B7 JUMP JUMPDEST CALLVALUE DUP1 ISZERO PUSH2 0x2F2 JUMPI PUSH1 0x0 DUP1 REVERT JUMPDEST POP PUSH2 0x1B8 PUSH1 0x4 CALLDATALOAD PUSH2 0x6CD JUMP JUMPDEST CALLVALUE DUP1 ISZERO PUSH2 0x30A JUMPI PUSH1 0x0 DUP1 REVERT JUMPDEST POP PUSH2 0x182 PUSH1 0x1 PUSH1 0xA0 PUSH1 0x2 EXP SUB PUSH1 0x4 CALLDATALOAD DUP2 AND SWAP1 PUSH1 0x24 CALLDATALOAD AND PUSH2 0x712 JUMP JUMPDEST PUSH1 0x40 DUP1 MLOAD DUP1 DUP3 ADD SWAP1 SWAP2 MSTORE PUSH1 0xB DUP2 MSTORE PUSH32 0x476173746F6B656E2E696F000000000000000000000000000000000000000000 PUSH1 0x20 DUP3 ADD MSTORE DUP2 JUMP JUMPDEST PUSH1 0x1 PUSH1 0xA0 PUSH1 0x2 EXP SUB DUP3 AND PUSH1 0x0 SWAP1 DUP2 MSTORE PUSH1 0x20 DUP2 SWAP1 MSTORE PUSH1 0x40 DUP2 KECCAK256 SLOAD CALLER SWAP1 DUP3 DUP1 DUP3 DUP7 GT ISZERO PUSH2 0x385 JUMPI DUP3 SWAP6 POP JUMPDEST POP POP PUSH1 0x1 PUSH1 0xA0 PUSH1 0x2 EXP SUB DUP1 DUP7 AND PUSH1 0x0 SWAP1 DUP2 MSTORE PUSH1 0x1 PUSH1 0x20 SWAP1 DUP2 MSTORE PUSH1 0x40 DUP1 DUP4 KECCAK256 SWAP4 DUP7 AND DUP4 MSTORE SWAP1 DUP4 SWAP1 MSTORE SWAP1 KECCAK256 SLOAD DUP1 DUP7 GT ISZERO PUSH2 0x3BB JUMPI DUP1 SWAP6 POP JUMPDEST PUSH2 0x3C4 DUP7 PUSH2 0x73D JUMP JUMPDEST PUSH1 0x1 PUSH1 0xA0 PUSH1 0x2 EXP SUB DUP1 DUP9 AND PUSH1 0x0 SWAP1 DUP2 MSTORE PUSH1 0x20 DUP2 DUP2 MSTORE PUSH1 0x40 DUP1 DUP4 KECCAK256 DUP11 DUP9 SUB SWAP1 SSTORE SWAP3 DUP8 AND DUP3 MSTORE DUP5 SWAP1 MSTORE KECCAK256 DUP7 DUP3 SUB SWAP1 SSTORE DUP6 SWAP5 POP JUMPDEST POP POP POP POP SWAP3 SWAP2 POP POP JUMP JUMPDEST PUSH1 0x0 CALLER DUP3 ISZERO DUP1 ISZERO SWAP1 PUSH2 0x435 JUMPI POP PUSH1 0x1 PUSH1 0xA0 PUSH1 0x2 EXP SUB DUP1 DUP3 AND PUSH1 0x0 SWAP1 DUP2 MSTORE PUSH1 0x1 PUSH1 0x20 SWAP1 DUP2 MSTORE PUSH1 0x40 DUP1 DUP4 KECCAK256 SWAP4 DUP9 AND DUP4 MSTORE SWAP3 SWAP1 MSTORE KECCAK256 SLOAD ISZERO ISZERO JUMPDEST ISZERO PUSH2 0x443 JUMPI PUSH1 0x0 SWAP2 POP PUSH2 0x4A5 JUMP JUMPDEST PUSH1 0x1 PUSH1 0xA0 PUSH1 0x2 EXP SUB DUP1 DUP3 AND PUSH1 0x0 DUP2 DUP2 MSTORE PUSH1 0x1 PUSH1 0x20 SWAP1 DUP2 MSTORE PUSH1 0x40 DUP1 DUP4 KECCAK256 SWAP5 DUP10 AND DUP1 DUP5 MSTORE SWAP5 DUP3 MSTORE SWAP2 DUP3 SWAP1 KECCAK256 DUP8 SWAP1 SSTORE DUP2 MLOAD DUP8 DUP2 MSTORE SWAP2 MLOAD PUSH32 0x8C5BE1E5EBEC7D5BD14F71427D1E84F3DD0314C0F7B2291E5B200AC8C7C3B925 SWAP3 DUP2 SWAP1 SUB SWAP1 SWAP2 ADD SWAP1 LOG3 PUSH1 0x1 SWAP2 POP JUMPDEST POP SWAP3 SWAP2 POP POP JUMP JUMPDEST PUSH1 0x3 SLOAD PUSH1 0x2 SLOAD SUB SWAP1 JUMP JUMPDEST PUSH1 0x1 PUSH1 0xA0 PUSH1 0x2 EXP SUB DUP4 AND PUSH1 0x0 SWAP1 DUP2 MSTORE PUSH1 0x1 PUSH1 0x20 SWAP1 DUP2 MSTORE PUSH1 0x40 DUP1 DUP4 KECCAK256 CALLER DUP1 DUP6 MSTORE SWAP3 MSTORE DUP3 KECCAK256 SLOAD DUP4 GT DUP1 ISZERO SWAP1 PUSH2 0x4EF JUMPI POP PUSH2 0x4EF DUP6 DUP6 DUP6 PUSH2 0x784 JUMP JUMPDEST ISZERO PUSH2 0x529 JUMPI PUSH1 0x1 PUSH1 0xA0 PUSH1 0x2 EXP SUB DUP1 DUP7 AND PUSH1 0x0 SWAP1 DUP2 MSTORE PUSH1 0x1 PUSH1 0x20 DUP2 DUP2 MSTORE PUSH1 0x40 DUP1 DUP5 KECCAK256 SWAP5 DUP7 AND DUP5 MSTORE SWAP4 SWAP1 MSTORE SWAP2 SWAP1 KECCAK256 DUP1 SLOAD DUP6 SWAP1 SUB SWAP1 SSTORE SWAP2 POP PUSH2 0x52E JUMP JUMPDEST PUSH1 0x0 SWAP2 POP JUMPDEST POP SWAP4 SWAP3 POP POP POP JUMP JUMPDEST PUSH1 0x2 DUP2 JUMP JUMPDEST PUSH1 0x1 PUSH1 0xA0 PUSH1 0x2 EXP SUB DUP3 AND PUSH1 0x0 SWAP1 DUP2 MSTORE PUSH1 0x20 DUP2 SWAP1 MSTORE PUSH1 0x40 DUP2 KECCAK256 SLOAD CALLER SWAP1 DUP3 DUP1 DUP3 DUP7 GT ISZERO PUSH2 0x569 JUMPI PUSH1 0x0 SWAP5 POP PUSH2 0x3F5 JUMP JUMPDEST POP POP PUSH1 0x1 PUSH1 0xA0 PUSH1 0x2 EXP SUB DUP1 DUP7 AND PUSH1 0x0 SWAP1 DUP2 MSTORE PUSH1 0x1 PUSH1 0x20 SWAP1 DUP2 MSTORE PUSH1 0x40 DUP1 DUP4 KECCAK256 SWAP4 DUP7 AND DUP4 MSTORE SWAP1 DUP4 SWAP1 MSTORE SWAP1 KECCAK256 SLOAD DUP1 DUP7 GT ISZERO PUSH2 0x5A4 JUMPI PUSH1 0x0 SWAP5 POP PUSH2 0x3F5 JUMP JUMPDEST PUSH2 0x5AD DUP7 PUSH2 0x73D JUMP JUMPDEST PUSH1 0x1 PUSH1 0xA0 PUSH1 0x2 EXP SUB SWAP7 DUP8 AND PUSH1 0x0 SWAP1 DUP2 MSTORE PUSH1 0x20 DUP2 DUP2 MSTORE PUSH1 0x40 DUP1 DUP4 KECCAK256 SWAP6 DUP10 SWAP1 SUB SWAP1 SWAP6 SSTORE SWAP5 SWAP1 SWAP8 AND DUP8 MSTORE SWAP3 MSTORE SWAP1 SWAP4 KECCAK256 SWAP2 SWAP1 SWAP3 SUB SWAP1 SSTORE POP PUSH1 0x1 SWAP1 JUMP JUMPDEST CALLER PUSH1 0x0 SWAP1 DUP2 MSTORE PUSH1 0x20 DUP2 SWAP1 MSTORE PUSH1 0x40 DUP2 KECCAK256 SLOAD DUP1 DUP4 GT ISZERO PUSH2 0x601 JUMPI DUP1 SWAP3 POP JUMPDEST PUSH2 0x60A DUP4 PUSH2 0x73D JUMP JUMPDEST CALLER PUSH1 0x0 SWAP1 DUP2 MSTORE PUSH1 0x20 DUP2 SWAP1 MSTORE PUSH1 0x40 SWAP1 KECCAK256 DUP4 DUP3 SUB SWAP1 SSTORE DUP3 SWAP2 POP JUMPDEST POP SWAP2 SWAP1 POP JUMP JUMPDEST PUSH1 0x1 PUSH1 0xA0 PUSH1 0x2 EXP SUB AND PUSH1 0x0 SWAP1 DUP2 MSTORE PUSH1 0x20 DUP2 SWAP1 MSTORE PUSH1 0x40 SWAP1 KECCAK256 SLOAD SWAP1 JUMP JUMPDEST PUSH1 0x40 DUP1 MLOAD DUP1 DUP3 ADD SWAP1 SWAP2 MSTORE PUSH1 0x4 DUP2 MSTORE PUSH32 0x4753543200000000000000000000000000000000000000000000000000000000 PUSH1 0x20 DUP3 ADD MSTORE DUP2 JUMP JUMPDEST PUSH1 0x0 JUMPDEST DUP2 DUP2 LT ISZERO PUSH2 0x696 JUMPI PUSH2 0x68D PUSH2 0x81B JUMP JUMPDEST POP PUSH1 0x1 ADD PUSH2 0x67D JUMP JUMPDEST POP PUSH1 0x2 DUP1 SLOAD DUP3 ADD SWAP1 SSTORE CALLER PUSH1 0x0 SWAP1 DUP2 MSTORE PUSH1 0x20 DUP2 SWAP1 MSTORE PUSH1 0x40 SWAP1 KECCAK256 DUP1 SLOAD SWAP1 SWAP2 ADD SWAP1 SSTORE JUMP JUMPDEST PUSH1 0x0 CALLER PUSH2 0x6C5 DUP2 DUP6 DUP6 PUSH2 0x784 JUMP JUMPDEST SWAP5 SWAP4 POP POP POP POP JUMP JUMPDEST CALLER PUSH1 0x0 SWAP1 DUP2 MSTORE PUSH1 0x20 DUP2 SWAP1 MSTORE PUSH1 0x40 DUP2 KECCAK256 SLOAD DUP1 DUP4 GT ISZERO PUSH2 0x6EE JUMPI PUSH1 0x0 SWAP2 POP PUSH2 0x622 JUMP JUMPDEST PUSH2 0x6F7 DUP4 PUSH2 0x73D JUMP JUMPDEST CALLER PUSH1 0x0 SWAP1 DUP2 MSTORE PUSH1 0x20 DUP2 SWAP1 MSTORE PUSH1 0x40 SWAP1 KECCAK256 SWAP3 SWAP1 SUB SWAP1 SWAP2 SSTORE POP PUSH1 0x1 SWAP1 JUMP JUMPDEST PUSH1 0x1 PUSH1 0xA0 PUSH1 0x2 EXP SUB SWAP2 DUP3 AND PUSH1 0x0 SWAP1 DUP2 MSTORE PUSH1 0x1 PUSH1 0x20 SWAP1 DUP2 MSTORE PUSH1 0x40 DUP1 DUP4 KECCAK256 SWAP4 SWAP1 SWAP5 AND DUP3 MSTORE SWAP2 SWAP1 SWAP2 MSTORE KECCAK256 SLOAD SWAP1 JUMP JUMPDEST PUSH1 0x3 SLOAD PUSH1 0x1 DUP2 ADD JUMPDEST DUP2 DUP4 ADD DUP2 GT PUSH2 0x77D JUMPI PUSH2 0x758 ADDRESS DUP3 PUSH2 0x851 JUMP JUMPDEST PUSH1 0x1 PUSH1 0xA0 PUSH1 0x2 EXP SUB AND PUSH1 0x40 MLOAD PUSH1 0x0 PUSH1 0x40 MLOAD DUP1 DUP4 SUB DUP2 PUSH1 0x0 DUP7 GAS CALL POP POP POP PUSH1 0x1 ADD PUSH2 0x745 JUMP JUMPDEST POP ADD PUSH1 0x3 SSTORE JUMP JUMPDEST PUSH1 0x1 PUSH1 0xA0 PUSH1 0x2 EXP SUB DUP4 AND PUSH1 0x0 SWAP1 DUP2 MSTORE PUSH1 0x20 DUP2 SWAP1 MSTORE PUSH1 0x40 DUP2 KECCAK256 SLOAD DUP3 GT PUSH2 0x810 JUMPI PUSH1 0x1 PUSH1 0xA0 PUSH1 0x2 EXP SUB DUP1 DUP6 AND PUSH1 0x0 DUP2 DUP2 MSTORE PUSH1 0x20 DUP2 DUP2 MSTORE PUSH1 0x40 DUP1 DUP4 KECCAK256 DUP1 SLOAD DUP9 SWAP1 SUB SWAP1 SSTORE SWAP4 DUP8 AND DUP1 DUP4 MSTORE SWAP2 DUP5 SWAP1 KECCAK256 DUP1 SLOAD DUP8 ADD SWAP1 SSTORE DUP4 MLOAD DUP7 DUP2 MSTORE SWAP4 MLOAD SWAP2 SWAP4 PUSH32 0xDDF252AD1BE2C89B69C2B068FC378DAA952BA7F163C4A11628F55A4DF523B3EF SWAP3 SWAP1 DUP2 SWAP1 SUB SWAP1 SWAP2 ADD SWAP1 LOG3 POP PUSH1 0x1 PUSH2 0x814 JUMP JUMPDEST POP PUSH1 0x0 JUMPDEST SWAP4 SWAP3 POP POP POP JUMP JUMPDEST PUSH1 0x0 PUSH1 0x40 MLOAD PUSH31 0x756EB3F879CB30FE243B4DFEE438691C043310585733FF6000526016600AF3 DUP2 MSTORE PUSH1 0x1F PUSH1 0x1 DUP3 ADD PUSH1 0x0 CREATE SWAP2 POP POP SWAP1 JUMP JUMPDEST PUSH1 0x0 DUP1 DUP1 DUP1 DUP1 DUP1 PUSH9 0xFFFFFFFFFFFFFFFFFF DUP8 GT ISZERO PUSH2 0x86E JUMPI PUSH1 0x0 DUP1 REVERT JUMPDEST DUP7 PUSH1 0x0 LT DUP1 ISZERO PUSH2 0x87E JUMPI POP PUSH1 0x80 DUP8 LT JUMPDEST ISZERO PUSH2 0x890 JUMPI PUSH1 0x1 SWAP5 POP PUSH1 0x1 SWAP4 POP PUSH2 0x8A2 JUMP JUMPDEST PUSH2 0x899 DUP8 PUSH2 0x96F JUMP JUMPDEST SWAP5 POP DUP5 PUSH1 0x1 ADD SWAP4 POP JUMPDEST PUSH1 0x15 DUP5 ADD SWAP3 POP PUSH32 0x100000000000000000000000000000000000000000000000000000000000000 PUSH1 0xD5 DUP6 ADD MUL PUSH11 0x100000000000000000000 PUSH1 0x1 PUSH1 0xA0 PUSH1 0x2 EXP SUB DUP11 AND MUL ADD PUSH31 0x94000000000000000000000000000000000000000000000000000000000000 ADD SWAP2 POP PUSH1 0x0 DUP8 GT DUP1 ISZERO PUSH2 0x919 JUMPI POP PUSH1 0x80 DUP8 LT JUMPDEST ISZERO PUSH2 0x934 JUMPI DUP7 PUSH10 0x1000000000000000000 MUL DUP3 ADD SWAP2 POP PUSH2 0x957 JUMP JUMPDEST DUP5 PUSH1 0x80 ADD PUSH10 0x1000000000000000000 MUL DUP3 ADD SWAP2 POP DUP5 PUSH1 0x9 SUB PUSH2 0x100 EXP DUP8 MUL DUP3 ADD SWAP2 POP JUMPDEST POP PUSH1 0x40 MLOAD SWAP1 DUP2 MSTORE PUSH1 0x1 SWAP2 SWAP1 SWAP2 ADD SWAP1 KECCAK256 SWAP6 SWAP5 POP POP POP POP POP JUMP JUMPDEST PUSH1 0x0 DUP1 PUSH1 0x1 JUMPDEST DUP1 DUP5 LT PUSH2 0x4A5 JUMPI PUSH1 0x1 SWAP2 SWAP1 SWAP2 ADD SWAP1 PUSH2 0x100 MUL PUSH2 0x975 JUMP STOP LOG1 PUSH6 0x627A7A723058 KECCAK256 0x4b COINBASE BALANCE SWAP5 0xe 0x22 CALLCODE 0xf9 0x27 0xe1 SMOD 0xe4 TIMESTAMP NUMBER PUSH28 0x4B6AB8AD37E95FAC031463A393793BCC070029000000000000000000 "},"methodIdentifiers":{"allowance(address,address)":"dd62ed3e","approve(address,uint256)":"095ea7b3","balanceOf(address)":"70a08231","decimals()":"313ce567","free(uint256)":"d8ccd0f3","freeFrom(address,uint256)":"5f2e2b45","freeFromUpTo(address,uint256)":"079d229f","freeUpTo(uint256)":"6366b936","mint(uint256)":"a0712d68","name()":"06fdde03","symbol()":"95d89b41","totalSupply()":"18160ddd","transfer(address,uint256)":"a9059cbb","transferFrom(address,address,uint256)":"23b872dd"}}}}}