{"contracts/routers/TokenOmnibridgeRouter/TokenOmnibridgeRouter.sol":{"TokenOmnibridgeRouter":{"abi":[{"inputs":[{"internalType":"contract IOmnibridge","name":"_bridge","type":"address"},{"internalType":"contract IWETH","name":"_wNative","type":"address"},{"internalType":"address","name":"_owner","type":"address"},{"internalType":"bool","name":"_EIP1559_ENABLED","type":"bool"}],"stateMutability":"nonpayable","type":"constructor"},{"inputs":[{"internalType":"address","name":"target","type":"address"}],"name":"AddressEmptyCode","type":"error"},{"inputs":[{"internalType":"address","name":"account","type":"address"}],"name":"AddressInsufficientBalance","type":"error"},{"inputs":[],"name":"FailedInnerCall","type":"error"},{"inputs":[],"name":"InvalidValue","type":"error"},{"inputs":[],"name":"NotPayable","type":"error"},{"inputs":[],"name":"ReentrancyGuard","type":"error"},{"inputs":[{"internalType":"address","name":"token","type":"address"}],"name":"SafeERC20FailedOperation","type":"error"},{"inputs":[],"name":"EIP1559_ENABLED","outputs":[{"internalType":"bool","name":"","type":"bool"}],"stateMutability":"view","type":"function"},{"inputs":[],"name":"RUNNER_SLOT","outputs":[{"internalType":"bytes32","name":"","type":"bytes32"}],"stateMutability":"view","type":"function"},{"inputs":[{"internalType":"bool","name":"excludePriority","type":"bool"}],"name":"baseFee","outputs":[{"internalType":"uint256","name":"","type":"uint256"}],"stateMutability":"view","type":"function"},{"inputs":[],"name":"bridge","outputs":[{"internalType":"contract IOmnibridge","name":"","type":"address"}],"stateMutability":"view","type":"function"},{"inputs":[{"internalType":"address","name":"_token","type":"address"},{"internalType":"address","name":"_to","type":"address"}],"name":"claimTokens","outputs":[],"stateMutability":"nonpayable","type":"function"},{"inputs":[{"internalType":"bool","name":"toNative","type":"bool"},{"internalType":"uint256","name":"_value","type":"uint256"},{"internalType":"uint256","name":"runner","type":"uint256"},{"components":[{"internalType":"address","name":"recipient","type":"address"},{"internalType":"uint256","name":"settings","type":"uint256"},{"internalType":"uint256","name":"limit","type":"uint256"},{"internalType":"uint256","name":"multiplier","type":"uint256"}],"internalType":"struct TokenOmnibridgeRouter.FeeDirector","name":"feeDirector","type":"tuple"}],"name":"feeInfo","outputs":[{"internalType":"uint256","name":"","type":"uint256"},{"internalType":"uint256","name":"","type":"uint256"}],"stateMutability":"view","type":"function"},{"inputs":[{"internalType":"address","name":"","type":"address"}],"name":"isValidator","outputs":[{"internalType":"bool","name":"","type":"bool"}],"stateMutability":"view","type":"function"},{"inputs":[{"internalType":"address","name":"_token","type":"address"},{"internalType":"uint256","name":"_value","type":"uint256"},{"internalType":"bytes","name":"_data","type":"bytes"}],"name":"onTokenBridged","outputs":[],"stateMutability":"payable","type":"function"},{"inputs":[],"name":"owner","outputs":[{"internalType":"address","name":"","type":"address"}],"stateMutability":"view","type":"function"},{"inputs":[{"internalType":"address","name":"_receiver","type":"address"},{"internalType":"bytes","name":"_data","type":"bytes"}],"name":"relayTokensAndCall","outputs":[],"stateMutability":"payable","type":"function"},{"inputs":[{"internalType":"address","name":"runner","type":"address"},{"internalType":"bytes","name":"_data","type":"bytes"},{"internalType":"bytes","name":"_signatures","type":"bytes"}],"name":"safeExecuteSignaturesWithAutoGasLimit","outputs":[],"stateMutability":"payable","type":"function"},{"inputs":[{"internalType":"address","name":"_validator","type":"address"},{"internalType":"bool","name":"_isValidator","type":"bool"}],"name":"setValidatorStatus","outputs":[],"stateMutability":"payable","type":"function"},{"inputs":[{"internalType":"address","name":"_validatorsFilter","type":"address"}],"name":"setValidatorsFilter","outputs":[],"stateMutability":"payable","type":"function"},{"inputs":[{"internalType":"address","name":"_newOwner","type":"address"}],"name":"transferOwnership","outputs":[],"stateMutability":"nonpayable","type":"function"},{"inputs":[],"name":"validatorsFilter","outputs":[{"internalType":"address","name":"","type":"address"}],"stateMutability":"view","type":"function"},{"inputs":[],"name":"wNative","outputs":[{"internalType":"contract IWETH","name":"","type":"address"}],"stateMutability":"view","type":"function"},{"inputs":[],"name":"wrapAndRelayTokens","outputs":[],"stateMutability":"payable","type":"function"},{"inputs":[{"internalType":"address","name":"_receiver","type":"address"}],"name":"wrapAndRelayTokens","outputs":[],"stateMutability":"payable","type":"function"},{"stateMutability":"payable","type":"receive"}],"evm":{"bytecode":{"linkReferences":{},"object":"60e06040523480156200001157600080fd5b50604051620019de380380620019de8339810160408190526200003491620000f9565b600080546001600160a01b0319166001600160a01b038481169190911790915584811660a081905290841660c081905260405163095ea7b360e01b8152600481019290925260001960248301529063095ea7b390604401600060405180830381600087803b158015620000a657600080fd5b505af1158015620000bb573d6000803e3d6000fd5b5050600280546001600160a01b03191630179055505015156080525062000165915050565b6001600160a01b0381168114620000f657600080fd5b50565b600080600080608085870312156200011057600080fd5b84516200011d81620000e0565b60208601519094506200013081620000e0565b60408601519093506200014381620000e0565b606086015190925080151581146200015a57600080fd5b939692955090935050565b60805160a05160c0516117f5620001e96000396000818161011d01528181610168015281816107cf01528181610821015281816108db015281816109110152818161096001528181610b4b0152610c010152600081816102bb015281816105a20152818161079a0152610bd10152600081816102ef0152610c6901526117f56000f3fe60806040526004361061010d5760003560e01c80639562de5911610095578063ed5a97d311610064578063ed5a97d3146102dd578063f2fde38b14610321578063f52cbf0e14610341578063facd743b14610354578063fba9770a1461038457600080fd5b80639562de5914610270578063aca2490b14610283578063db7af85414610296578063e78cea92146102a957600080fd5b80634309b714116100dc5780634309b714146101e8578063633a8fa9146101fb57806369ffa08a1461021057806370502107146102305780638da5cb5b1461025057600080fd5b806301a754ff1461014e5780632d68efc914610156578063351bb549146101a757806336768d3e146101d557600080fd5b3661014957336001600160a01b037f0000000000000000000000000000000000000000000000000000000000000000161461014757600080fd5b005b600080fd5b6101476103b9565b34801561016257600080fd5b5061018a7f000000000000000000000000000000000000000000000000000000000000000081565b6040516001600160a01b0390911681526020015b60405180910390f35b3480156101b357600080fd5b506101c76101c236600461118c565b6103d4565b60405190815260200161019e565b6101476101e33660046111be565b6103e5565b6101476101f6366004611224565b610488565b34801561020757600080fd5b506101c7610693565b34801561021c57600080fd5b5061014761022b3660046112a7565b6106bb565b34801561023c57600080fd5b5060025461018a906001600160a01b031681565b34801561025c57600080fd5b5060005461018a906001600160a01b031681565b61014761027e3660046112e0565b6106e0565b610147610291366004611335565b610725565b6101476102a43660046113d3565b610767565b3480156102b557600080fd5b5061018a7f000000000000000000000000000000000000000000000000000000000000000081565b3480156102e957600080fd5b506103117f000000000000000000000000000000000000000000000000000000000000000081565b604051901515815260200161019e565b34801561032d57600080fd5b5061014761033c3660046111be565b610aca565b61014761034f3660046111be565b610b03565b34801561036057600080fd5b5061031161036f3660046111be565b60036020526000908152604090205460ff1681565b34801561039057600080fd5b506103a461039f366004611484565b610b1f565b6040805192835260208301919091520161019e565b6103d23360405180602001604052806000815250610b49565b565b60006103df82610c65565b92915050565b6000546001600160a01b031633146103fc57600080fd5b60405163facd743b60e01b8152600060048201526001600160a01b0382169063facd743b90602401602060405180830381865afa158015610441573d6000803e3d6000fd5b505050506040513d601f19601f8201168201806040525081019061046591906114d6565b50600280546001600160a01b0319166001600160a01b0392909216919091179055565b604051602001610497906114f3565b604051602081830303815290604052805190602001206060866001600160a01b0316901b5a6bffffffffffffffffffffffff161760028110156104ed57604051632a9ffab760e21b815260040160405180910390fd5b8154829060011015610512576040516345f5ce8b60e11b815260040160405180910390fd5b81815560025460405163facd743b60e01b81526001600160a01b038a811660048301529091169063facd743b90602401602060405180830381865afa15801561055f573d6000803e3d6000fd5b505050506040513d601f19601f8201168201806040525081019061058391906114d6565b6105a057604051631574f9f360e01b815260040160405180910390fd5b7f00000000000000000000000000000000000000000000000000000000000000006001600160a01b031663cd5965836040518163ffffffff1660e01b8152600401602060405180830381865afa1580156105fe573d6000803e3d6000fd5b505050506040513d601f19601f82011682018060405250810190610622919061152a565b6001600160a01b03166323caab49888888886040518563ffffffff1660e01b81526004016106539493929190611570565b600060405180830381600087803b15801561066d57600080fd5b505af1158015610681573d6000803e3d6000fd5b50506001909255505050505050505050565b6040516020016106a2906114f3565b6040516020818303038152906040528051906020012081565b6000546001600160a01b031633146106d257600080fd5b6106dc8282610ca2565b5050565b6107208383838080601f016020809104026020016040519081016040528093929190818152602001838380828437600092019190915250610b4992505050565b505050565b6000546001600160a01b0316331461073c57600080fd5b6001600160a01b03919091166000908152600360205260409020805460ff1916911515919091179055565b60018054111561078a576040516345f5ce8b60e11b815260040160405180910390fd5b6002600155336001600160a01b037f000000000000000000000000000000000000000000000000000000000000000016146107c457600080fd5b805160140361089e577f00000000000000000000000000000000000000000000000000000000000000006001600160a01b0316836001600160a01b03161461080b57600080fd5b604051632e1a7d4d60e01b8152600481018390527f00000000000000000000000000000000000000000000000000000000000000006001600160a01b031690632e1a7d4d90602401600060405180830381600087803b15801561086d57600080fd5b505af1158015610881573d6000803e3d6000fd5b50505050610899610893826014015190565b83610cd7565b610ac1565b6000818060200190518101906108b491906115a2565b9050600060ff60fe8360200151901b901c60011480156109055750846001600160a01b03167f00000000000000000000000000000000000000000000000000000000000000006001600160a01b0316145b905080801561094557507f00000000000000000000000000000000000000000000000000000000000000006001600160a01b0316856001600160a01b0316145b156109c957604051632e1a7d4d60e01b8152600481018590527f00000000000000000000000000000000000000000000000000000000000000006001600160a01b031690632e1a7d4d90602401600060405180830381600087803b1580156109ac57600080fd5b505af11580156109c0573d6000803e3d6000fd5b50505050610a44565b6040516370a0823160e01b81523060048201526000906001600160a01b038716906370a0823190602401602060405180830381865afa158015610a10573d6000803e3d6000fd5b505050506040513d601f19601f82011682018060405250810190610a3491906115f3565b905084811015610a42578094505b505b6000610a71604051602001610a58906114f3565b6040516020818303038152906040528051906020012090565b5490506000858215610a8f57610a8984888588610d41565b90925090505b8015610aa557610aa58489876000015184610e6c565b8115610abb57610abb8489606086901c85610e6c565b50505050505b50506001805550565b6000546001600160a01b03163314610ae157600080fd5b600080546001600160a01b0319166001600160a01b0392909216919091179055565b610b1c8160405180602001604052806000815250610b49565b50565b600080610b3c868686610b373688900388018861160c565b610d41565b9150915094509492505050565b7f00000000000000000000000000000000000000000000000000000000000000006001600160a01b031663d0e30db0346040518263ffffffff1660e01b81526004016000604051808303818588803b158015610ba457600080fd5b505af1158015610bb8573d6000803e3d6000fd5b505060405163d740548160e01b81526001600160a01b037f000000000000000000000000000000000000000000000000000000000000000016935063d74054819250610c2f91507f000000000000000000000000000000000000000000000000000000000000000090869034908790600401611681565b600060405180830381600087803b158015610c4957600080fd5b505af1158015610c5d573d6000803e3d6000fd5b505050505050565b60007f00000000000000000000000000000000000000000000000000000000000000008015610c915750815b610c9b573a6103df565b4892915050565b806001600160a01b038116610cb657600080fd5b6001600160a01b038316610ccd5761072082610f00565b6107208383610f0b565b6040516001600160a01b0383169082156108fc029083906000818181858888f193505050506106dc578082604051610d0e90611172565b6001600160a01b0390911681526020016040518091039082f0905080158015610d3b573d6000803e3d6000fd5b50505050565b60008060ff808460200151901b901c600103610d635782604001519150610e46565b60ff60fc8460200151901b901c600103610da157670de0b6b3a7640000836060015186610d9091906116eb565b610d9a9190611702565b9150610e46565b60005a610dbc906bffffffffffffffffffffffff8716611724565b90506000610dd860ff60fd8760200151901b901c600114610c65565b9050670de0b6b3a76400008186606001518a610df757620186a0610dfb565b61c3505b610e0a9062ffffff1686611737565b610e1491906116eb565b610e1e91906116eb565b610e289190611702565b935084604001518411610e3b5783610e41565b84604001515b935050505b848211610e535781610e55565b845b9150610e618286611724565b905094509492505050565b8315610eec576000826001600160a01b03168260405160006040518083038185875af1925050503d8060008114610ebf576040519150601f19603f3d011682016040523d82523d6000602084013e610ec4565b606091505b5050905080610ee657604051631574f9f360e01b815260040160405180910390fd5b50610d3b565b610d3b6001600160a01b0384168383610f8a565b476106dc8282610cd7565b6040516370a0823160e01b815230600482015282906000906001600160a01b038316906370a0823190602401602060405180830381865afa158015610f54573d6000803e3d6000fd5b505050506040513d601f19601f82011682018060405250810190610f7891906115f3565b9050610d3b6001600160a01b03831684835b604080516001600160a01b03848116602483015260448083018590528351808403909101815260649092019092526020810180516001600160e01b031663a9059cbb60e01b17905261072091859190600090610fe89084168361103b565b9050805160001415801561100d57508080602001905181019061100b91906114d6565b155b1561072057604051635274afe760e01b81526001600160a01b03841660048201526024015b60405180910390fd5b606061104983836000611050565b9392505050565b6060814710156110755760405163cd78605960e01b8152306004820152602401611032565b600080856001600160a01b03168486604051611091919061174a565b60006040518083038185875af1925050503d80600081146110ce576040519150601f19603f3d011682016040523d82523d6000602084013e6110d3565b606091505b50915091506110e38683836110ed565b9695505050505050565b606082611102576110fd82611149565b611049565b815115801561111957506001600160a01b0384163b155b1561114257604051639996b31560e01b81526001600160a01b0385166004820152602401611032565b5080611049565b8051156111595780518082602001fd5b604051630a12f52160e11b815260040160405180910390fd5b60598061176783390190565b8015158114610b1c57600080fd5b60006020828403121561119e57600080fd5b81356110498161117e565b6001600160a01b0381168114610b1c57600080fd5b6000602082840312156111d057600080fd5b8135611049816111a9565b60008083601f8401126111ed57600080fd5b50813567ffffffffffffffff81111561120557600080fd5b60208301915083602082850101111561121d57600080fd5b9250929050565b60008060008060006060868803121561123c57600080fd5b8535611247816111a9565b9450602086013567ffffffffffffffff8082111561126457600080fd5b61127089838a016111db565b9096509450604088013591508082111561128957600080fd5b50611296888289016111db565b969995985093965092949392505050565b600080604083850312156112ba57600080fd5b82356112c5816111a9565b915060208301356112d5816111a9565b809150509250929050565b6000806000604084860312156112f557600080fd5b8335611300816111a9565b9250602084013567ffffffffffffffff81111561131c57600080fd5b611328868287016111db565b9497909650939450505050565b6000806040838503121561134857600080fd5b8235611353816111a9565b915060208301356112d58161117e565b634e487b7160e01b600052604160045260246000fd5b6040516080810167ffffffffffffffff8111828210171561139c5761139c611363565b60405290565b604051601f8201601f1916810167ffffffffffffffff811182821017156113cb576113cb611363565b604052919050565b6000806000606084860312156113e857600080fd5b83356113f3816111a9565b92506020848101359250604085013567ffffffffffffffff8082111561141857600080fd5b818701915087601f83011261142c57600080fd5b81358181111561143e5761143e611363565b611450601f8201601f191685016113a2565b9150808252888482850101111561146657600080fd5b80848401858401376000848284010152508093505050509250925092565b60008060008084860360e081121561149b57600080fd5b85356114a68161117e565b945060208601359350604086013592506080605f19820112156114c857600080fd5b509295919450926060019150565b6000602082840312156114e857600080fd5b81516110498161117e565b60208082526017908201527f6f6d6e69627269646765726f757465722e72756e6e6572000000000000000000604082015260600190565b60006020828403121561153c57600080fd5b8151611049816111a9565b81835281816020850137506000828201602090810191909152601f909101601f19169091010190565b604081526000611584604083018688611547565b8281036020840152611597818587611547565b979650505050505050565b6000608082840312156115b457600080fd5b6115bc611379565b82516115c7816111a9565b808252506020830151602082015260408301516040820152606083015160608201528091505092915050565b60006020828403121561160557600080fd5b5051919050565b60006080828403121561161e57600080fd5b611626611379565b8235611631816111a9565b808252506020830135602082015260408301356040820152606083013560608201528091505092915050565b60005b83811015611678578181015183820152602001611660565b50506000910152565b600060018060a01b0380871683528086166020840152508360408301526080606083015282518060808401526116be8160a085016020870161165d565b601f01601f19169190910160a00195945050505050565b634e487b7160e01b600052601160045260246000fd5b80820281158282048414176103df576103df6116d5565b60008261171f57634e487b7160e01b600052601260045260246000fd5b500490565b818103818111156103df576103df6116d5565b808201808211156103df576103df6116d5565b6000825161175c81846020870161165d565b919091019291505056fe608060405260405160593803806059833981016040819052601e91602a565b806001600160a01b0316ff5b600060208284031215603b57600080fd5b81516001600160a01b0381168114605157600080fd5b939250505056fea2646970667358221220d189a07f7b197258070fb36fae64d58d210aa4908b6dd7dc904f22d03796af7664736f6c63430008180033","opcodes":"PUSH1 0xE0 PUSH1 0x40 MSTORE CALLVALUE DUP1 ISZERO PUSH3 0x11 JUMPI PUSH1 0x0 DUP1 REVERT JUMPDEST POP PUSH1 0x40 MLOAD PUSH3 0x19DE CODESIZE SUB DUP1 PUSH3 0x19DE DUP4 CODECOPY DUP2 ADD PUSH1 0x40 DUP2 SWAP1 MSTORE PUSH3 0x34 SWAP2 PUSH3 0xF9 JUMP JUMPDEST PUSH1 0x0 DUP1 SLOAD PUSH1 0x1 PUSH1 0x1 PUSH1 0xA0 SHL SUB NOT AND PUSH1 0x1 PUSH1 0x1 PUSH1 0xA0 SHL SUB DUP5 DUP2 AND SWAP2 SWAP1 SWAP2 OR SWAP1 SWAP2 SSTORE DUP5 DUP2 AND PUSH1 0xA0 DUP2 SWAP1 MSTORE SWAP1 DUP5 AND PUSH1 0xC0 DUP2 SWAP1 MSTORE PUSH1 0x40 MLOAD PUSH4 0x95EA7B3 PUSH1 0xE0 SHL DUP2 MSTORE PUSH1 0x4 DUP2 ADD SWAP3 SWAP1 SWAP3 MSTORE PUSH1 0x0 NOT PUSH1 0x24 DUP4 ADD MSTORE SWAP1 PUSH4 0x95EA7B3 SWAP1 PUSH1 0x44 ADD PUSH1 0x0 PUSH1 0x40 MLOAD DUP1 DUP4 SUB DUP2 PUSH1 0x0 DUP8 DUP1 EXTCODESIZE ISZERO DUP1 ISZERO PUSH3 0xA6 JUMPI PUSH1 0x0 DUP1 REVERT JUMPDEST POP GAS CALL ISZERO DUP1 ISZERO PUSH3 0xBB JUMPI RETURNDATASIZE PUSH1 0x0 DUP1 RETURNDATACOPY RETURNDATASIZE PUSH1 0x0 REVERT JUMPDEST POP POP PUSH1 0x2 DUP1 SLOAD PUSH1 0x1 PUSH1 0x1 PUSH1 0xA0 SHL SUB NOT AND ADDRESS OR SWAP1 SSTORE POP POP ISZERO ISZERO PUSH1 0x80 MSTORE POP PUSH3 0x165 SWAP2 POP POP JUMP JUMPDEST PUSH1 0x1 PUSH1 0x1 PUSH1 0xA0 SHL SUB DUP2 AND DUP2 EQ PUSH3 0xF6 JUMPI PUSH1 0x0 DUP1 REVERT JUMPDEST POP JUMP JUMPDEST PUSH1 0x0 DUP1 PUSH1 0x0 DUP1 PUSH1 0x80 DUP6 DUP8 SUB SLT ISZERO PUSH3 0x110 JUMPI PUSH1 0x0 DUP1 REVERT JUMPDEST DUP5 MLOAD PUSH3 0x11D DUP2 PUSH3 0xE0 JUMP JUMPDEST PUSH1 0x20 DUP7 ADD MLOAD SWAP1 SWAP5 POP PUSH3 0x130 DUP2 PUSH3 0xE0 JUMP JUMPDEST PUSH1 0x40 DUP7 ADD MLOAD SWAP1 SWAP4 POP PUSH3 0x143 DUP2 PUSH3 0xE0 JUMP JUMPDEST PUSH1 0x60 DUP7 ADD MLOAD SWAP1 SWAP3 POP DUP1 ISZERO ISZERO DUP2 EQ PUSH3 0x15A JUMPI PUSH1 0x0 DUP1 REVERT JUMPDEST SWAP4 SWAP7 SWAP3 SWAP6 POP SWAP1 SWAP4 POP POP JUMP JUMPDEST PUSH1 0x80 MLOAD PUSH1 0xA0 MLOAD PUSH1 0xC0 MLOAD PUSH2 0x17F5 PUSH3 0x1E9 PUSH1 0x0 CODECOPY PUSH1 0x0 DUP2 DUP2 PUSH2 0x11D ADD MSTORE DUP2 DUP2 PUSH2 0x168 ADD MSTORE DUP2 DUP2 PUSH2 0x7CF ADD MSTORE DUP2 DUP2 PUSH2 0x821 ADD MSTORE DUP2 DUP2 PUSH2 0x8DB ADD MSTORE DUP2 DUP2 PUSH2 0x911 ADD MSTORE DUP2 DUP2 PUSH2 0x960 ADD MSTORE DUP2 DUP2 PUSH2 0xB4B ADD MSTORE PUSH2 0xC01 ADD MSTORE PUSH1 0x0 DUP2 DUP2 PUSH2 0x2BB ADD MSTORE DUP2 DUP2 PUSH2 0x5A2 ADD MSTORE DUP2 DUP2 PUSH2 0x79A ADD MSTORE PUSH2 0xBD1 ADD MSTORE PUSH1 0x0 DUP2 DUP2 PUSH2 0x2EF ADD MSTORE PUSH2 0xC69 ADD MSTORE PUSH2 0x17F5 PUSH1 0x0 RETURN INVALID PUSH1 0x80 PUSH1 0x40 MSTORE PUSH1 0x4 CALLDATASIZE LT PUSH2 0x10D JUMPI PUSH1 0x0 CALLDATALOAD PUSH1 0xE0 SHR DUP1 PUSH4 0x9562DE59 GT PUSH2 0x95 JUMPI DUP1 PUSH4 0xED5A97D3 GT PUSH2 0x64 JUMPI DUP1 PUSH4 0xED5A97D3 EQ PUSH2 0x2DD JUMPI DUP1 PUSH4 0xF2FDE38B EQ PUSH2 0x321 JUMPI DUP1 PUSH4 0xF52CBF0E EQ PUSH2 0x341 JUMPI DUP1 PUSH4 0xFACD743B EQ PUSH2 0x354 JUMPI DUP1 PUSH4 0xFBA9770A EQ PUSH2 0x384 JUMPI PUSH1 0x0 DUP1 REVERT JUMPDEST DUP1 PUSH4 0x9562DE59 EQ PUSH2 0x270 JUMPI DUP1 PUSH4 0xACA2490B EQ PUSH2 0x283 JUMPI DUP1 PUSH4 0xDB7AF854 EQ PUSH2 0x296 JUMPI DUP1 PUSH4 0xE78CEA92 EQ PUSH2 0x2A9 JUMPI PUSH1 0x0 DUP1 REVERT JUMPDEST DUP1 PUSH4 0x4309B714 GT PUSH2 0xDC JUMPI DUP1 PUSH4 0x4309B714 EQ PUSH2 0x1E8 JUMPI DUP1 PUSH4 0x633A8FA9 EQ PUSH2 0x1FB JUMPI DUP1 PUSH4 0x69FFA08A EQ PUSH2 0x210 JUMPI DUP1 PUSH4 0x70502107 EQ PUSH2 0x230 JUMPI DUP1 PUSH4 0x8DA5CB5B EQ PUSH2 0x250 JUMPI PUSH1 0x0 DUP1 REVERT JUMPDEST DUP1 PUSH4 0x1A754FF EQ PUSH2 0x14E JUMPI DUP1 PUSH4 0x2D68EFC9 EQ PUSH2 0x156 JUMPI DUP1 PUSH4 0x351BB549 EQ PUSH2 0x1A7 JUMPI DUP1 PUSH4 0x36768D3E EQ PUSH2 0x1D5 JUMPI PUSH1 0x0 DUP1 REVERT JUMPDEST CALLDATASIZE PUSH2 0x149 JUMPI CALLER PUSH1 0x1 PUSH1 0x1 PUSH1 0xA0 SHL SUB PUSH32 0x0 AND EQ PUSH2 0x147 JUMPI PUSH1 0x0 DUP1 REVERT JUMPDEST STOP JUMPDEST PUSH1 0x0 DUP1 REVERT JUMPDEST PUSH2 0x147 PUSH2 0x3B9 JUMP JUMPDEST CALLVALUE DUP1 ISZERO PUSH2 0x162 JUMPI PUSH1 0x0 DUP1 REVERT JUMPDEST POP PUSH2 0x18A PUSH32 0x0 DUP2 JUMP JUMPDEST PUSH1 0x40 MLOAD PUSH1 0x1 PUSH1 0x1 PUSH1 0xA0 SHL SUB SWAP1 SWAP2 AND DUP2 MSTORE PUSH1 0x20 ADD JUMPDEST PUSH1 0x40 MLOAD DUP1 SWAP2 SUB SWAP1 RETURN JUMPDEST CALLVALUE DUP1 ISZERO PUSH2 0x1B3 JUMPI PUSH1 0x0 DUP1 REVERT JUMPDEST POP PUSH2 0x1C7 PUSH2 0x1C2 CALLDATASIZE PUSH1 0x4 PUSH2 0x118C JUMP JUMPDEST PUSH2 0x3D4 JUMP JUMPDEST PUSH1 0x40 MLOAD SWAP1 DUP2 MSTORE PUSH1 0x20 ADD PUSH2 0x19E JUMP JUMPDEST PUSH2 0x147 PUSH2 0x1E3 CALLDATASIZE PUSH1 0x4 PUSH2 0x11BE JUMP JUMPDEST PUSH2 0x3E5 JUMP JUMPDEST PUSH2 0x147 PUSH2 0x1F6 CALLDATASIZE PUSH1 0x4 PUSH2 0x1224 JUMP JUMPDEST PUSH2 0x488 JUMP JUMPDEST CALLVALUE DUP1 ISZERO PUSH2 0x207 JUMPI PUSH1 0x0 DUP1 REVERT JUMPDEST POP PUSH2 0x1C7 PUSH2 0x693 JUMP JUMPDEST CALLVALUE DUP1 ISZERO PUSH2 0x21C JUMPI PUSH1 0x0 DUP1 REVERT JUMPDEST POP PUSH2 0x147 PUSH2 0x22B CALLDATASIZE PUSH1 0x4 PUSH2 0x12A7 JUMP JUMPDEST PUSH2 0x6BB JUMP JUMPDEST CALLVALUE DUP1 ISZERO PUSH2 0x23C JUMPI PUSH1 0x0 DUP1 REVERT JUMPDEST POP PUSH1 0x2 SLOAD PUSH2 0x18A SWAP1 PUSH1 0x1 PUSH1 0x1 PUSH1 0xA0 SHL SUB AND DUP2 JUMP JUMPDEST CALLVALUE DUP1 ISZERO PUSH2 0x25C JUMPI PUSH1 0x0 DUP1 REVERT JUMPDEST POP PUSH1 0x0 SLOAD PUSH2 0x18A SWAP1 PUSH1 0x1 PUSH1 0x1 PUSH1 0xA0 SHL SUB AND DUP2 JUMP JUMPDEST PUSH2 0x147 PUSH2 0x27E CALLDATASIZE PUSH1 0x4 PUSH2 0x12E0 JUMP JUMPDEST PUSH2 0x6E0 JUMP JUMPDEST PUSH2 0x147 PUSH2 0x291 CALLDATASIZE PUSH1 0x4 PUSH2 0x1335 JUMP JUMPDEST PUSH2 0x725 JUMP JUMPDEST PUSH2 0x147 PUSH2 0x2A4 CALLDATASIZE PUSH1 0x4 PUSH2 0x13D3 JUMP JUMPDEST PUSH2 0x767 JUMP JUMPDEST CALLVALUE DUP1 ISZERO PUSH2 0x2B5 JUMPI PUSH1 0x0 DUP1 REVERT JUMPDEST POP PUSH2 0x18A PUSH32 0x0 DUP2 JUMP JUMPDEST CALLVALUE DUP1 ISZERO PUSH2 0x2E9 JUMPI PUSH1 0x0 DUP1 REVERT JUMPDEST POP PUSH2 0x311 PUSH32 0x0 DUP2 JUMP JUMPDEST PUSH1 0x40 MLOAD SWAP1 ISZERO ISZERO DUP2 MSTORE PUSH1 0x20 ADD PUSH2 0x19E JUMP JUMPDEST CALLVALUE DUP1 ISZERO PUSH2 0x32D JUMPI PUSH1 0x0 DUP1 REVERT JUMPDEST POP PUSH2 0x147 PUSH2 0x33C CALLDATASIZE PUSH1 0x4 PUSH2 0x11BE JUMP JUMPDEST PUSH2 0xACA JUMP JUMPDEST PUSH2 0x147 PUSH2 0x34F CALLDATASIZE PUSH1 0x4 PUSH2 0x11BE JUMP JUMPDEST PUSH2 0xB03 JUMP JUMPDEST CALLVALUE DUP1 ISZERO PUSH2 0x360 JUMPI PUSH1 0x0 DUP1 REVERT JUMPDEST POP PUSH2 0x311 PUSH2 0x36F CALLDATASIZE PUSH1 0x4 PUSH2 0x11BE JUMP JUMPDEST PUSH1 0x3 PUSH1 0x20 MSTORE PUSH1 0x0 SWAP1 DUP2 MSTORE PUSH1 0x40 SWAP1 KECCAK256 SLOAD PUSH1 0xFF AND DUP2 JUMP JUMPDEST CALLVALUE DUP1 ISZERO PUSH2 0x390 JUMPI PUSH1 0x0 DUP1 REVERT JUMPDEST POP PUSH2 0x3A4 PUSH2 0x39F CALLDATASIZE PUSH1 0x4 PUSH2 0x1484 JUMP JUMPDEST PUSH2 0xB1F JUMP JUMPDEST PUSH1 0x40 DUP1 MLOAD SWAP3 DUP4 MSTORE PUSH1 0x20 DUP4 ADD SWAP2 SWAP1 SWAP2 MSTORE ADD PUSH2 0x19E JUMP JUMPDEST PUSH2 0x3D2 CALLER PUSH1 0x40 MLOAD DUP1 PUSH1 0x20 ADD PUSH1 0x40 MSTORE DUP1 PUSH1 0x0 DUP2 MSTORE POP PUSH2 0xB49 JUMP JUMPDEST JUMP JUMPDEST PUSH1 0x0 PUSH2 0x3DF DUP3 PUSH2 0xC65 JUMP JUMPDEST SWAP3 SWAP2 POP POP JUMP JUMPDEST PUSH1 0x0 SLOAD PUSH1 0x1 PUSH1 0x1 PUSH1 0xA0 SHL SUB AND CALLER EQ PUSH2 0x3FC JUMPI PUSH1 0x0 DUP1 REVERT JUMPDEST PUSH1 0x40 MLOAD PUSH4 0xFACD743B PUSH1 0xE0 SHL DUP2 MSTORE PUSH1 0x0 PUSH1 0x4 DUP3 ADD MSTORE PUSH1 0x1 PUSH1 0x1 PUSH1 0xA0 SHL SUB DUP3 AND SWAP1 PUSH4 0xFACD743B SWAP1 PUSH1 0x24 ADD PUSH1 0x20 PUSH1 0x40 MLOAD DUP1 DUP4 SUB DUP2 DUP7 GAS STATICCALL ISZERO DUP1 ISZERO PUSH2 0x441 JUMPI RETURNDATASIZE PUSH1 0x0 DUP1 RETURNDATACOPY RETURNDATASIZE PUSH1 0x0 REVERT JUMPDEST POP POP POP POP PUSH1 0x40 MLOAD RETURNDATASIZE PUSH1 0x1F NOT PUSH1 0x1F DUP3 ADD AND DUP3 ADD DUP1 PUSH1 0x40 MSTORE POP DUP2 ADD SWAP1 PUSH2 0x465 SWAP2 SWAP1 PUSH2 0x14D6 JUMP JUMPDEST POP PUSH1 0x2 DUP1 SLOAD PUSH1 0x1 PUSH1 0x1 PUSH1 0xA0 SHL SUB NOT AND PUSH1 0x1 PUSH1 0x1 PUSH1 0xA0 SHL SUB SWAP3 SWAP1 SWAP3 AND SWAP2 SWAP1 SWAP2 OR SWAP1 SSTORE JUMP JUMPDEST PUSH1 0x40 MLOAD PUSH1 0x20 ADD PUSH2 0x497 SWAP1 PUSH2 0x14F3 JUMP JUMPDEST PUSH1 0x40 MLOAD PUSH1 0x20 DUP2 DUP4 SUB SUB DUP2 MSTORE SWAP1 PUSH1 0x40 MSTORE DUP1 MLOAD SWAP1 PUSH1 0x20 ADD KECCAK256 PUSH1 0x60 DUP7 PUSH1 0x1 PUSH1 0x1 PUSH1 0xA0 SHL SUB AND SWAP1 SHL GAS PUSH12 0xFFFFFFFFFFFFFFFFFFFFFFFF AND OR PUSH1 0x2 DUP2 LT ISZERO PUSH2 0x4ED JUMPI PUSH1 0x40 MLOAD PUSH4 0x2A9FFAB7 PUSH1 0xE2 SHL DUP2 MSTORE PUSH1 0x4 ADD PUSH1 0x40 MLOAD DUP1 SWAP2 SUB SWAP1 REVERT JUMPDEST DUP2 SLOAD DUP3 SWAP1 PUSH1 0x1 LT ISZERO PUSH2 0x512 JUMPI PUSH1 0x40 MLOAD PUSH4 0x45F5CE8B PUSH1 0xE1 SHL DUP2 MSTORE PUSH1 0x4 ADD PUSH1 0x40 MLOAD DUP1 SWAP2 SUB SWAP1 REVERT JUMPDEST DUP2 DUP2 SSTORE PUSH1 0x2 SLOAD PUSH1 0x40 MLOAD PUSH4 0xFACD743B PUSH1 0xE0 SHL DUP2 MSTORE PUSH1 0x1 PUSH1 0x1 PUSH1 0xA0 SHL SUB DUP11 DUP2 AND PUSH1 0x4 DUP4 ADD MSTORE SWAP1 SWAP2 AND SWAP1 PUSH4 0xFACD743B SWAP1 PUSH1 0x24 ADD PUSH1 0x20 PUSH1 0x40 MLOAD DUP1 DUP4 SUB DUP2 DUP7 GAS STATICCALL ISZERO DUP1 ISZERO PUSH2 0x55F JUMPI RETURNDATASIZE PUSH1 0x0 DUP1 RETURNDATACOPY RETURNDATASIZE PUSH1 0x0 REVERT JUMPDEST POP POP POP POP PUSH1 0x40 MLOAD RETURNDATASIZE PUSH1 0x1F NOT PUSH1 0x1F DUP3 ADD AND DUP3 ADD DUP1 PUSH1 0x40 MSTORE POP DUP2 ADD SWAP1 PUSH2 0x583 SWAP2 SWAP1 PUSH2 0x14D6 JUMP JUMPDEST PUSH2 0x5A0 JUMPI PUSH1 0x40 MLOAD PUSH4 0x1574F9F3 PUSH1 0xE0 SHL DUP2 MSTORE PUSH1 0x4 ADD PUSH1 0x40 MLOAD DUP1 SWAP2 SUB SWAP1 REVERT JUMPDEST PUSH32 0x0 PUSH1 0x1 PUSH1 0x1 PUSH1 0xA0 SHL SUB AND PUSH4 0xCD596583 PUSH1 0x40 MLOAD DUP2 PUSH4 0xFFFFFFFF AND PUSH1 0xE0 SHL DUP2 MSTORE PUSH1 0x4 ADD PUSH1 0x20 PUSH1 0x40 MLOAD DUP1 DUP4 SUB DUP2 DUP7 GAS STATICCALL ISZERO DUP1 ISZERO PUSH2 0x5FE JUMPI RETURNDATASIZE PUSH1 0x0 DUP1 RETURNDATACOPY RETURNDATASIZE PUSH1 0x0 REVERT JUMPDEST POP POP POP POP PUSH1 0x40 MLOAD RETURNDATASIZE PUSH1 0x1F NOT PUSH1 0x1F DUP3 ADD AND DUP3 ADD DUP1 PUSH1 0x40 MSTORE POP DUP2 ADD SWAP1 PUSH2 0x622 SWAP2 SWAP1 PUSH2 0x152A JUMP JUMPDEST PUSH1 0x1 PUSH1 0x1 PUSH1 0xA0 SHL SUB AND PUSH4 0x23CAAB49 DUP9 DUP9 DUP9 DUP9 PUSH1 0x40 MLOAD DUP6 PUSH4 0xFFFFFFFF AND PUSH1 0xE0 SHL DUP2 MSTORE PUSH1 0x4 ADD PUSH2 0x653 SWAP5 SWAP4 SWAP3 SWAP2 SWAP1 PUSH2 0x1570 JUMP JUMPDEST PUSH1 0x0 PUSH1 0x40 MLOAD DUP1 DUP4 SUB DUP2 PUSH1 0x0 DUP8 DUP1 EXTCODESIZE ISZERO DUP1 ISZERO PUSH2 0x66D JUMPI PUSH1 0x0 DUP1 REVERT JUMPDEST POP GAS CALL ISZERO DUP1 ISZERO PUSH2 0x681 JUMPI RETURNDATASIZE PUSH1 0x0 DUP1 RETURNDATACOPY RETURNDATASIZE PUSH1 0x0 REVERT JUMPDEST POP POP PUSH1 0x1 SWAP1 SWAP3 SSTORE POP POP POP POP POP POP POP POP POP JUMP JUMPDEST PUSH1 0x40 MLOAD PUSH1 0x20 ADD PUSH2 0x6A2 SWAP1 PUSH2 0x14F3 JUMP JUMPDEST PUSH1 0x40 MLOAD PUSH1 0x20 DUP2 DUP4 SUB SUB DUP2 MSTORE SWAP1 PUSH1 0x40 MSTORE DUP1 MLOAD SWAP1 PUSH1 0x20 ADD KECCAK256 DUP2 JUMP JUMPDEST PUSH1 0x0 SLOAD PUSH1 0x1 PUSH1 0x1 PUSH1 0xA0 SHL SUB AND CALLER EQ PUSH2 0x6D2 JUMPI PUSH1 0x0 DUP1 REVERT JUMPDEST PUSH2 0x6DC DUP3 DUP3 PUSH2 0xCA2 JUMP JUMPDEST POP POP JUMP JUMPDEST PUSH2 0x720 DUP4 DUP4 DUP4 DUP1 DUP1 PUSH1 0x1F ADD PUSH1 0x20 DUP1 SWAP2 DIV MUL PUSH1 0x20 ADD PUSH1 0x40 MLOAD SWAP1 DUP2 ADD PUSH1 0x40 MSTORE DUP1 SWAP4 SWAP3 SWAP2 SWAP1 DUP2 DUP2 MSTORE PUSH1 0x20 ADD DUP4 DUP4 DUP1 DUP3 DUP5 CALLDATACOPY PUSH1 0x0 SWAP3 ADD SWAP2 SWAP1 SWAP2 MSTORE POP PUSH2 0xB49 SWAP3 POP POP POP JUMP JUMPDEST POP POP POP JUMP JUMPDEST PUSH1 0x0 SLOAD PUSH1 0x1 PUSH1 0x1 PUSH1 0xA0 SHL SUB AND CALLER EQ PUSH2 0x73C JUMPI PUSH1 0x0 DUP1 REVERT JUMPDEST PUSH1 0x1 PUSH1 0x1 PUSH1 0xA0 SHL SUB SWAP2 SWAP1 SWAP2 AND PUSH1 0x0 SWAP1 DUP2 MSTORE PUSH1 0x3 PUSH1 0x20 MSTORE PUSH1 0x40 SWAP1 KECCAK256 DUP1 SLOAD PUSH1 0xFF NOT AND SWAP2 ISZERO ISZERO SWAP2 SWAP1 SWAP2 OR SWAP1 SSTORE JUMP JUMPDEST PUSH1 0x1 DUP1 SLOAD GT ISZERO PUSH2 0x78A JUMPI PUSH1 0x40 MLOAD PUSH4 0x45F5CE8B PUSH1 0xE1 SHL DUP2 MSTORE PUSH1 0x4 ADD PUSH1 0x40 MLOAD DUP1 SWAP2 SUB SWAP1 REVERT JUMPDEST PUSH1 0x2 PUSH1 0x1 SSTORE CALLER PUSH1 0x1 PUSH1 0x1 PUSH1 0xA0 SHL SUB PUSH32 0x0 AND EQ PUSH2 0x7C4 JUMPI PUSH1 0x0 DUP1 REVERT JUMPDEST DUP1 MLOAD PUSH1 0x14 SUB PUSH2 0x89E JUMPI PUSH32 0x0 PUSH1 0x1 PUSH1 0x1 PUSH1 0xA0 SHL SUB AND DUP4 PUSH1 0x1 PUSH1 0x1 PUSH1 0xA0 SHL SUB AND EQ PUSH2 0x80B JUMPI PUSH1 0x0 DUP1 REVERT JUMPDEST PUSH1 0x40 MLOAD PUSH4 0x2E1A7D4D PUSH1 0xE0 SHL DUP2 MSTORE PUSH1 0x4 DUP2 ADD DUP4 SWAP1 MSTORE PUSH32 0x0 PUSH1 0x1 PUSH1 0x1 PUSH1 0xA0 SHL SUB AND SWAP1 PUSH4 0x2E1A7D4D SWAP1 PUSH1 0x24 ADD PUSH1 0x0 PUSH1 0x40 MLOAD DUP1 DUP4 SUB DUP2 PUSH1 0x0 DUP8 DUP1 EXTCODESIZE ISZERO DUP1 ISZERO PUSH2 0x86D JUMPI PUSH1 0x0 DUP1 REVERT JUMPDEST POP GAS CALL ISZERO DUP1 ISZERO PUSH2 0x881 JUMPI RETURNDATASIZE PUSH1 0x0 DUP1 RETURNDATACOPY RETURNDATASIZE PUSH1 0x0 REVERT JUMPDEST POP POP POP POP PUSH2 0x899 PUSH2 0x893 DUP3 PUSH1 0x14 ADD MLOAD SWAP1 JUMP JUMPDEST DUP4 PUSH2 0xCD7 JUMP JUMPDEST PUSH2 0xAC1 JUMP JUMPDEST PUSH1 0x0 DUP2 DUP1 PUSH1 0x20 ADD SWAP1 MLOAD DUP2 ADD SWAP1 PUSH2 0x8B4 SWAP2 SWAP1 PUSH2 0x15A2 JUMP JUMPDEST SWAP1 POP PUSH1 0x0 PUSH1 0xFF PUSH1 0xFE DUP4 PUSH1 0x20 ADD MLOAD SWAP1 SHL SWAP1 SHR PUSH1 0x1 EQ DUP1 ISZERO PUSH2 0x905 JUMPI POP DUP5 PUSH1 0x1 PUSH1 0x1 PUSH1 0xA0 SHL SUB AND PUSH32 0x0 PUSH1 0x1 PUSH1 0x1 PUSH1 0xA0 SHL SUB AND EQ JUMPDEST SWAP1 POP DUP1 DUP1 ISZERO PUSH2 0x945 JUMPI POP PUSH32 0x0 PUSH1 0x1 PUSH1 0x1 PUSH1 0xA0 SHL SUB AND DUP6 PUSH1 0x1 PUSH1 0x1 PUSH1 0xA0 SHL SUB AND EQ JUMPDEST ISZERO PUSH2 0x9C9 JUMPI PUSH1 0x40 MLOAD PUSH4 0x2E1A7D4D PUSH1 0xE0 SHL DUP2 MSTORE PUSH1 0x4 DUP2 ADD DUP6 SWAP1 MSTORE PUSH32 0x0 PUSH1 0x1 PUSH1 0x1 PUSH1 0xA0 SHL SUB AND SWAP1 PUSH4 0x2E1A7D4D SWAP1 PUSH1 0x24 ADD PUSH1 0x0 PUSH1 0x40 MLOAD DUP1 DUP4 SUB DUP2 PUSH1 0x0 DUP8 DUP1 EXTCODESIZE ISZERO DUP1 ISZERO PUSH2 0x9AC JUMPI PUSH1 0x0 DUP1 REVERT JUMPDEST POP GAS CALL ISZERO DUP1 ISZERO PUSH2 0x9C0 JUMPI RETURNDATASIZE PUSH1 0x0 DUP1 RETURNDATACOPY RETURNDATASIZE PUSH1 0x0 REVERT JUMPDEST POP POP POP POP PUSH2 0xA44 JUMP JUMPDEST PUSH1 0x40 MLOAD PUSH4 0x70A08231 PUSH1 0xE0 SHL DUP2 MSTORE ADDRESS PUSH1 0x4 DUP3 ADD MSTORE PUSH1 0x0 SWAP1 PUSH1 0x1 PUSH1 0x1 PUSH1 0xA0 SHL SUB DUP8 AND SWAP1 PUSH4 0x70A08231 SWAP1 PUSH1 0x24 ADD PUSH1 0x20 PUSH1 0x40 MLOAD DUP1 DUP4 SUB DUP2 DUP7 GAS STATICCALL ISZERO DUP1 ISZERO PUSH2 0xA10 JUMPI RETURNDATASIZE PUSH1 0x0 DUP1 RETURNDATACOPY RETURNDATASIZE PUSH1 0x0 REVERT JUMPDEST POP POP POP POP PUSH1 0x40 MLOAD RETURNDATASIZE PUSH1 0x1F NOT PUSH1 0x1F DUP3 ADD AND DUP3 ADD DUP1 PUSH1 0x40 MSTORE POP DUP2 ADD SWAP1 PUSH2 0xA34 SWAP2 SWAP1 PUSH2 0x15F3 JUMP JUMPDEST SWAP1 POP DUP5 DUP2 LT ISZERO PUSH2 0xA42 JUMPI DUP1 SWAP5 POP JUMPDEST POP JUMPDEST PUSH1 0x0 PUSH2 0xA71 PUSH1 0x40 MLOAD PUSH1 0x20 ADD PUSH2 0xA58 SWAP1 PUSH2 0x14F3 JUMP JUMPDEST PUSH1 0x40 MLOAD PUSH1 0x20 DUP2 DUP4 SUB SUB DUP2 MSTORE SWAP1 PUSH1 0x40 MSTORE DUP1 MLOAD SWAP1 PUSH1 0x20 ADD KECCAK256 SWAP1 JUMP JUMPDEST SLOAD SWAP1 POP PUSH1 0x0 DUP6 DUP3 ISZERO PUSH2 0xA8F JUMPI PUSH2 0xA89 DUP5 DUP9 DUP6 DUP9 PUSH2 0xD41 JUMP JUMPDEST SWAP1 SWAP3 POP SWAP1 POP JUMPDEST DUP1 ISZERO PUSH2 0xAA5 JUMPI PUSH2 0xAA5 DUP5 DUP10 DUP8 PUSH1 0x0 ADD MLOAD DUP5 PUSH2 0xE6C JUMP JUMPDEST DUP2 ISZERO PUSH2 0xABB JUMPI PUSH2 0xABB DUP5 DUP10 PUSH1 0x60 DUP7 SWAP1 SHR DUP6 PUSH2 0xE6C JUMP JUMPDEST POP POP POP POP POP JUMPDEST POP POP PUSH1 0x1 DUP1 SSTORE POP JUMP JUMPDEST PUSH1 0x0 SLOAD PUSH1 0x1 PUSH1 0x1 PUSH1 0xA0 SHL SUB AND CALLER EQ PUSH2 0xAE1 JUMPI PUSH1 0x0 DUP1 REVERT JUMPDEST PUSH1 0x0 DUP1 SLOAD PUSH1 0x1 PUSH1 0x1 PUSH1 0xA0 SHL SUB NOT AND PUSH1 0x1 PUSH1 0x1 PUSH1 0xA0 SHL SUB SWAP3 SWAP1 SWAP3 AND SWAP2 SWAP1 SWAP2 OR SWAP1 SSTORE JUMP JUMPDEST PUSH2 0xB1C DUP2 PUSH1 0x40 MLOAD DUP1 PUSH1 0x20 ADD PUSH1 0x40 MSTORE DUP1 PUSH1 0x0 DUP2 MSTORE POP PUSH2 0xB49 JUMP JUMPDEST POP JUMP JUMPDEST PUSH1 0x0 DUP1 PUSH2 0xB3C DUP7 DUP7 DUP7 PUSH2 0xB37 CALLDATASIZE DUP9 SWAP1 SUB DUP9 ADD DUP9 PUSH2 0x160C JUMP JUMPDEST PUSH2 0xD41 JUMP JUMPDEST SWAP2 POP SWAP2 POP SWAP5 POP SWAP5 SWAP3 POP POP POP JUMP JUMPDEST PUSH32 0x0 PUSH1 0x1 PUSH1 0x1 PUSH1 0xA0 SHL SUB AND PUSH4 0xD0E30DB0 CALLVALUE PUSH1 0x40 MLOAD DUP3 PUSH4 0xFFFFFFFF AND PUSH1 0xE0 SHL DUP2 MSTORE PUSH1 0x4 ADD PUSH1 0x0 PUSH1 0x40 MLOAD DUP1 DUP4 SUB DUP2 DUP6 DUP9 DUP1 EXTCODESIZE ISZERO DUP1 ISZERO PUSH2 0xBA4 JUMPI PUSH1 0x0 DUP1 REVERT JUMPDEST POP GAS CALL ISZERO DUP1 ISZERO PUSH2 0xBB8 JUMPI RETURNDATASIZE PUSH1 0x0 DUP1 RETURNDATACOPY RETURNDATASIZE PUSH1 0x0 REVERT JUMPDEST POP POP PUSH1 0x40 MLOAD PUSH4 0xD7405481 PUSH1 0xE0 SHL DUP2 MSTORE PUSH1 0x1 PUSH1 0x1 PUSH1 0xA0 SHL SUB PUSH32 0x0 AND SWAP4 POP PUSH4 0xD7405481 SWAP3 POP PUSH2 0xC2F SWAP2 POP PUSH32 0x0 SWAP1 DUP7 SWAP1 CALLVALUE SWAP1 DUP8 SWAP1 PUSH1 0x4 ADD PUSH2 0x1681 JUMP JUMPDEST PUSH1 0x0 PUSH1 0x40 MLOAD DUP1 DUP4 SUB DUP2 PUSH1 0x0 DUP8 DUP1 EXTCODESIZE ISZERO DUP1 ISZERO PUSH2 0xC49 JUMPI PUSH1 0x0 DUP1 REVERT JUMPDEST POP GAS CALL ISZERO DUP1 ISZERO PUSH2 0xC5D JUMPI RETURNDATASIZE PUSH1 0x0 DUP1 RETURNDATACOPY RETURNDATASIZE PUSH1 0x0 REVERT JUMPDEST POP POP POP POP POP POP JUMP JUMPDEST PUSH1 0x0 PUSH32 0x0 DUP1 ISZERO PUSH2 0xC91 JUMPI POP DUP2 JUMPDEST PUSH2 0xC9B JUMPI GASPRICE PUSH2 0x3DF JUMP JUMPDEST BASEFEE SWAP3 SWAP2 POP POP JUMP JUMPDEST DUP1 PUSH1 0x1 PUSH1 0x1 PUSH1 0xA0 SHL SUB DUP2 AND PUSH2 0xCB6 JUMPI PUSH1 0x0 DUP1 REVERT JUMPDEST PUSH1 0x1 PUSH1 0x1 PUSH1 0xA0 SHL SUB DUP4 AND PUSH2 0xCCD JUMPI PUSH2 0x720 DUP3 PUSH2 0xF00 JUMP JUMPDEST PUSH2 0x720 DUP4 DUP4 PUSH2 0xF0B JUMP JUMPDEST PUSH1 0x40 MLOAD PUSH1 0x1 PUSH1 0x1 PUSH1 0xA0 SHL SUB DUP4 AND SWAP1 DUP3 ISZERO PUSH2 0x8FC MUL SWAP1 DUP4 SWAP1 PUSH1 0x0 DUP2 DUP2 DUP2 DUP6 DUP9 DUP9 CALL SWAP4 POP POP POP POP PUSH2 0x6DC JUMPI DUP1 DUP3 PUSH1 0x40 MLOAD PUSH2 0xD0E SWAP1 PUSH2 0x1172 JUMP JUMPDEST PUSH1 0x1 PUSH1 0x1 PUSH1 0xA0 SHL SUB SWAP1 SWAP2 AND DUP2 MSTORE PUSH1 0x20 ADD PUSH1 0x40 MLOAD DUP1 SWAP2 SUB SWAP1 DUP3 CREATE SWAP1 POP DUP1 ISZERO DUP1 ISZERO PUSH2 0xD3B JUMPI RETURNDATASIZE PUSH1 0x0 DUP1 RETURNDATACOPY RETURNDATASIZE PUSH1 0x0 REVERT JUMPDEST POP POP POP POP JUMP JUMPDEST PUSH1 0x0 DUP1 PUSH1 0xFF DUP1 DUP5 PUSH1 0x20 ADD MLOAD SWAP1 SHL SWAP1 SHR PUSH1 0x1 SUB PUSH2 0xD63 JUMPI DUP3 PUSH1 0x40 ADD MLOAD SWAP2 POP PUSH2 0xE46 JUMP JUMPDEST PUSH1 0xFF PUSH1 0xFC DUP5 PUSH1 0x20 ADD MLOAD SWAP1 SHL SWAP1 SHR PUSH1 0x1 SUB PUSH2 0xDA1 JUMPI PUSH8 0xDE0B6B3A7640000 DUP4 PUSH1 0x60 ADD MLOAD DUP7 PUSH2 0xD90 SWAP2 SWAP1 PUSH2 0x16EB JUMP JUMPDEST PUSH2 0xD9A SWAP2 SWAP1 PUSH2 0x1702 JUMP JUMPDEST SWAP2 POP PUSH2 0xE46 JUMP JUMPDEST PUSH1 0x0 GAS PUSH2 0xDBC SWAP1 PUSH12 0xFFFFFFFFFFFFFFFFFFFFFFFF DUP8 AND PUSH2 0x1724 JUMP JUMPDEST SWAP1 POP PUSH1 0x0 PUSH2 0xDD8 PUSH1 0xFF PUSH1 0xFD DUP8 PUSH1 0x20 ADD MLOAD SWAP1 SHL SWAP1 SHR PUSH1 0x1 EQ PUSH2 0xC65 JUMP JUMPDEST SWAP1 POP PUSH8 0xDE0B6B3A7640000 DUP2 DUP7 PUSH1 0x60 ADD MLOAD DUP11 PUSH2 0xDF7 JUMPI PUSH3 0x186A0 PUSH2 0xDFB JUMP JUMPDEST PUSH2 0xC350 JUMPDEST PUSH2 0xE0A SWAP1 PUSH3 0xFFFFFF AND DUP7 PUSH2 0x1737 JUMP JUMPDEST PUSH2 0xE14 SWAP2 SWAP1 PUSH2 0x16EB JUMP JUMPDEST PUSH2 0xE1E SWAP2 SWAP1 PUSH2 0x16EB JUMP JUMPDEST PUSH2 0xE28 SWAP2 SWAP1 PUSH2 0x1702 JUMP JUMPDEST SWAP4 POP DUP5 PUSH1 0x40 ADD MLOAD DUP5 GT PUSH2 0xE3B JUMPI DUP4 PUSH2 0xE41 JUMP JUMPDEST DUP5 PUSH1 0x40 ADD MLOAD JUMPDEST SWAP4 POP POP POP JUMPDEST DUP5 DUP3 GT PUSH2 0xE53 JUMPI DUP2 PUSH2 0xE55 JUMP JUMPDEST DUP5 JUMPDEST SWAP2 POP PUSH2 0xE61 DUP3 DUP7 PUSH2 0x1724 JUMP JUMPDEST SWAP1 POP SWAP5 POP SWAP5 SWAP3 POP POP POP JUMP JUMPDEST DUP4 ISZERO PUSH2 0xEEC JUMPI PUSH1 0x0 DUP3 PUSH1 0x1 PUSH1 0x1 PUSH1 0xA0 SHL SUB AND DUP3 PUSH1 0x40 MLOAD PUSH1 0x0 PUSH1 0x40 MLOAD DUP1 DUP4 SUB DUP2 DUP6 DUP8 GAS CALL SWAP3 POP POP POP RETURNDATASIZE DUP1 PUSH1 0x0 DUP2 EQ PUSH2 0xEBF JUMPI PUSH1 0x40 MLOAD SWAP2 POP PUSH1 0x1F NOT PUSH1 0x3F RETURNDATASIZE ADD AND DUP3 ADD PUSH1 0x40 MSTORE RETURNDATASIZE DUP3 MSTORE RETURNDATASIZE PUSH1 0x0 PUSH1 0x20 DUP5 ADD RETURNDATACOPY PUSH2 0xEC4 JUMP JUMPDEST PUSH1 0x60 SWAP2 POP JUMPDEST POP POP SWAP1 POP DUP1 PUSH2 0xEE6 JUMPI PUSH1 0x40 MLOAD PUSH4 0x1574F9F3 PUSH1 0xE0 SHL DUP2 MSTORE PUSH1 0x4 ADD PUSH1 0x40 MLOAD DUP1 SWAP2 SUB SWAP1 REVERT JUMPDEST POP PUSH2 0xD3B JUMP JUMPDEST PUSH2 0xD3B PUSH1 0x1 PUSH1 0x1 PUSH1 0xA0 SHL SUB DUP5 AND DUP4 DUP4 PUSH2 0xF8A JUMP JUMPDEST SELFBALANCE PUSH2 0x6DC DUP3 DUP3 PUSH2 0xCD7 JUMP JUMPDEST PUSH1 0x40 MLOAD PUSH4 0x70A08231 PUSH1 0xE0 SHL DUP2 MSTORE ADDRESS PUSH1 0x4 DUP3 ADD MSTORE DUP3 SWAP1 PUSH1 0x0 SWAP1 PUSH1 0x1 PUSH1 0x1 PUSH1 0xA0 SHL SUB DUP4 AND SWAP1 PUSH4 0x70A08231 SWAP1 PUSH1 0x24 ADD PUSH1 0x20 PUSH1 0x40 MLOAD DUP1 DUP4 SUB DUP2 DUP7 GAS STATICCALL ISZERO DUP1 ISZERO PUSH2 0xF54 JUMPI RETURNDATASIZE PUSH1 0x0 DUP1 RETURNDATACOPY RETURNDATASIZE PUSH1 0x0 REVERT JUMPDEST POP POP POP POP PUSH1 0x40 MLOAD RETURNDATASIZE PUSH1 0x1F NOT PUSH1 0x1F DUP3 ADD AND DUP3 ADD DUP1 PUSH1 0x40 MSTORE POP DUP2 ADD SWAP1 PUSH2 0xF78 SWAP2 SWAP1 PUSH2 0x15F3 JUMP JUMPDEST SWAP1 POP PUSH2 0xD3B PUSH1 0x1 PUSH1 0x1 PUSH1 0xA0 SHL SUB DUP4 AND DUP5 DUP4 JUMPDEST PUSH1 0x40 DUP1 MLOAD PUSH1 0x1 PUSH1 0x1 PUSH1 0xA0 SHL SUB DUP5 DUP2 AND PUSH1 0x24 DUP4 ADD MSTORE PUSH1 0x44 DUP1 DUP4 ADD DUP6 SWAP1 MSTORE DUP4 MLOAD DUP1 DUP5 SUB SWAP1 SWAP2 ADD DUP2 MSTORE PUSH1 0x64 SWAP1 SWAP3 ADD SWAP1 SWAP3 MSTORE PUSH1 0x20 DUP2 ADD DUP1 MLOAD PUSH1 0x1 PUSH1 0x1 PUSH1 0xE0 SHL SUB AND PUSH4 0xA9059CBB PUSH1 0xE0 SHL OR SWAP1 MSTORE PUSH2 0x720 SWAP2 DUP6 SWAP2 SWAP1 PUSH1 0x0 SWAP1 PUSH2 0xFE8 SWAP1 DUP5 AND DUP4 PUSH2 0x103B JUMP JUMPDEST SWAP1 POP DUP1 MLOAD PUSH1 0x0 EQ ISZERO DUP1 ISZERO PUSH2 0x100D JUMPI POP DUP1 DUP1 PUSH1 0x20 ADD SWAP1 MLOAD DUP2 ADD SWAP1 PUSH2 0x100B SWAP2 SWAP1 PUSH2 0x14D6 JUMP JUMPDEST ISZERO JUMPDEST ISZERO PUSH2 0x720 JUMPI PUSH1 0x40 MLOAD PUSH4 0x5274AFE7 PUSH1 0xE0 SHL DUP2 MSTORE PUSH1 0x1 PUSH1 0x1 PUSH1 0xA0 SHL SUB DUP5 AND PUSH1 0x4 DUP3 ADD MSTORE PUSH1 0x24 ADD JUMPDEST PUSH1 0x40 MLOAD DUP1 SWAP2 SUB SWAP1 REVERT JUMPDEST PUSH1 0x60 PUSH2 0x1049 DUP4 DUP4 PUSH1 0x0 PUSH2 0x1050 JUMP JUMPDEST SWAP4 SWAP3 POP POP POP JUMP JUMPDEST PUSH1 0x60 DUP2 SELFBALANCE LT ISZERO PUSH2 0x1075 JUMPI PUSH1 0x40 MLOAD PUSH4 0xCD786059 PUSH1 0xE0 SHL DUP2 MSTORE ADDRESS PUSH1 0x4 DUP3 ADD MSTORE PUSH1 0x24 ADD PUSH2 0x1032 JUMP JUMPDEST PUSH1 0x0 DUP1 DUP6 PUSH1 0x1 PUSH1 0x1 PUSH1 0xA0 SHL SUB AND DUP5 DUP7 PUSH1 0x40 MLOAD PUSH2 0x1091 SWAP2 SWAP1 PUSH2 0x174A JUMP JUMPDEST PUSH1 0x0 PUSH1 0x40 MLOAD DUP1 DUP4 SUB DUP2 DUP6 DUP8 GAS CALL SWAP3 POP POP POP RETURNDATASIZE DUP1 PUSH1 0x0 DUP2 EQ PUSH2 0x10CE JUMPI PUSH1 0x40 MLOAD SWAP2 POP PUSH1 0x1F NOT PUSH1 0x3F RETURNDATASIZE ADD AND DUP3 ADD PUSH1 0x40 MSTORE RETURNDATASIZE DUP3 MSTORE RETURNDATASIZE PUSH1 0x0 PUSH1 0x20 DUP5 ADD RETURNDATACOPY PUSH2 0x10D3 JUMP JUMPDEST PUSH1 0x60 SWAP2 POP JUMPDEST POP SWAP2 POP SWAP2 POP PUSH2 0x10E3 DUP7 DUP4 DUP4 PUSH2 0x10ED JUMP JUMPDEST SWAP7 SWAP6 POP POP POP POP POP POP JUMP JUMPDEST PUSH1 0x60 DUP3 PUSH2 0x1102 JUMPI PUSH2 0x10FD DUP3 PUSH2 0x1149 JUMP JUMPDEST PUSH2 0x1049 JUMP JUMPDEST DUP2 MLOAD ISZERO DUP1 ISZERO PUSH2 0x1119 JUMPI POP PUSH1 0x1 PUSH1 0x1 PUSH1 0xA0 SHL SUB DUP5 AND EXTCODESIZE ISZERO JUMPDEST ISZERO PUSH2 0x1142 JUMPI PUSH1 0x40 MLOAD PUSH4 0x9996B315 PUSH1 0xE0 SHL DUP2 MSTORE PUSH1 0x1 PUSH1 0x1 PUSH1 0xA0 SHL SUB DUP6 AND PUSH1 0x4 DUP3 ADD MSTORE PUSH1 0x24 ADD PUSH2 0x1032 JUMP JUMPDEST POP DUP1 PUSH2 0x1049 JUMP JUMPDEST DUP1 MLOAD ISZERO PUSH2 0x1159 JUMPI DUP1 MLOAD DUP1 DUP3 PUSH1 0x20 ADD REVERT JUMPDEST PUSH1 0x40 MLOAD PUSH4 0xA12F521 PUSH1 0xE1 SHL DUP2 MSTORE PUSH1 0x4 ADD PUSH1 0x40 MLOAD DUP1 SWAP2 SUB SWAP1 REVERT JUMPDEST PUSH1 0x59 DUP1 PUSH2 0x1767 DUP4 CODECOPY ADD SWAP1 JUMP JUMPDEST DUP1 ISZERO ISZERO DUP2 EQ PUSH2 0xB1C JUMPI PUSH1 0x0 DUP1 REVERT JUMPDEST PUSH1 0x0 PUSH1 0x20 DUP3 DUP5 SUB SLT ISZERO PUSH2 0x119E JUMPI PUSH1 0x0 DUP1 REVERT JUMPDEST DUP2 CALLDATALOAD PUSH2 0x1049 DUP2 PUSH2 0x117E JUMP JUMPDEST PUSH1 0x1 PUSH1 0x1 PUSH1 0xA0 SHL SUB DUP2 AND DUP2 EQ PUSH2 0xB1C JUMPI PUSH1 0x0 DUP1 REVERT JUMPDEST PUSH1 0x0 PUSH1 0x20 DUP3 DUP5 SUB SLT ISZERO PUSH2 0x11D0 JUMPI PUSH1 0x0 DUP1 REVERT JUMPDEST DUP2 CALLDATALOAD PUSH2 0x1049 DUP2 PUSH2 0x11A9 JUMP JUMPDEST PUSH1 0x0 DUP1 DUP4 PUSH1 0x1F DUP5 ADD SLT PUSH2 0x11ED JUMPI PUSH1 0x0 DUP1 REVERT JUMPDEST POP DUP2 CALLDATALOAD PUSH8 0xFFFFFFFFFFFFFFFF DUP2 GT ISZERO PUSH2 0x1205 JUMPI PUSH1 0x0 DUP1 REVERT JUMPDEST PUSH1 0x20 DUP4 ADD SWAP2 POP DUP4 PUSH1 0x20 DUP3 DUP6 ADD ADD GT ISZERO PUSH2 0x121D JUMPI PUSH1 0x0 DUP1 REVERT JUMPDEST SWAP3 POP SWAP3 SWAP1 POP JUMP JUMPDEST PUSH1 0x0 DUP1 PUSH1 0x0 DUP1 PUSH1 0x0 PUSH1 0x60 DUP7 DUP9 SUB SLT ISZERO PUSH2 0x123C JUMPI PUSH1 0x0 DUP1 REVERT JUMPDEST DUP6 CALLDATALOAD PUSH2 0x1247 DUP2 PUSH2 0x11A9 JUMP JUMPDEST SWAP5 POP PUSH1 0x20 DUP7 ADD CALLDATALOAD PUSH8 0xFFFFFFFFFFFFFFFF DUP1 DUP3 GT ISZERO PUSH2 0x1264 JUMPI PUSH1 0x0 DUP1 REVERT JUMPDEST PUSH2 0x1270 DUP10 DUP4 DUP11 ADD PUSH2 0x11DB JUMP JUMPDEST SWAP1 SWAP7 POP SWAP5 POP PUSH1 0x40 DUP9 ADD CALLDATALOAD SWAP2 POP DUP1 DUP3 GT ISZERO PUSH2 0x1289 JUMPI PUSH1 0x0 DUP1 REVERT JUMPDEST POP PUSH2 0x1296 DUP9 DUP3 DUP10 ADD PUSH2 0x11DB JUMP JUMPDEST SWAP7 SWAP10 SWAP6 SWAP9 POP SWAP4 SWAP7 POP SWAP3 SWAP5 SWAP4 SWAP3 POP POP POP JUMP JUMPDEST PUSH1 0x0 DUP1 PUSH1 0x40 DUP4 DUP6 SUB SLT ISZERO PUSH2 0x12BA JUMPI PUSH1 0x0 DUP1 REVERT JUMPDEST DUP3 CALLDATALOAD PUSH2 0x12C5 DUP2 PUSH2 0x11A9 JUMP JUMPDEST SWAP2 POP PUSH1 0x20 DUP4 ADD CALLDATALOAD PUSH2 0x12D5 DUP2 PUSH2 0x11A9 JUMP JUMPDEST DUP1 SWAP2 POP POP SWAP3 POP SWAP3 SWAP1 POP JUMP JUMPDEST PUSH1 0x0 DUP1 PUSH1 0x0 PUSH1 0x40 DUP5 DUP7 SUB SLT ISZERO PUSH2 0x12F5 JUMPI PUSH1 0x0 DUP1 REVERT JUMPDEST DUP4 CALLDATALOAD PUSH2 0x1300 DUP2 PUSH2 0x11A9 JUMP JUMPDEST SWAP3 POP PUSH1 0x20 DUP5 ADD CALLDATALOAD PUSH8 0xFFFFFFFFFFFFFFFF DUP2 GT ISZERO PUSH2 0x131C JUMPI PUSH1 0x0 DUP1 REVERT JUMPDEST PUSH2 0x1328 DUP7 DUP3 DUP8 ADD PUSH2 0x11DB JUMP JUMPDEST SWAP5 SWAP8 SWAP1 SWAP7 POP SWAP4 SWAP5 POP POP POP POP JUMP JUMPDEST PUSH1 0x0 DUP1 PUSH1 0x40 DUP4 DUP6 SUB SLT ISZERO PUSH2 0x1348 JUMPI PUSH1 0x0 DUP1 REVERT JUMPDEST DUP3 CALLDATALOAD PUSH2 0x1353 DUP2 PUSH2 0x11A9 JUMP JUMPDEST SWAP2 POP PUSH1 0x20 DUP4 ADD CALLDATALOAD PUSH2 0x12D5 DUP2 PUSH2 0x117E JUMP JUMPDEST PUSH4 0x4E487B71 PUSH1 0xE0 SHL PUSH1 0x0 MSTORE PUSH1 0x41 PUSH1 0x4 MSTORE PUSH1 0x24 PUSH1 0x0 REVERT JUMPDEST PUSH1 0x40 MLOAD PUSH1 0x80 DUP2 ADD PUSH8 0xFFFFFFFFFFFFFFFF DUP2 GT DUP3 DUP3 LT OR ISZERO PUSH2 0x139C JUMPI PUSH2 0x139C PUSH2 0x1363 JUMP JUMPDEST PUSH1 0x40 MSTORE SWAP1 JUMP JUMPDEST PUSH1 0x40 MLOAD PUSH1 0x1F DUP3 ADD PUSH1 0x1F NOT AND DUP2 ADD PUSH8 0xFFFFFFFFFFFFFFFF DUP2 GT DUP3 DUP3 LT OR ISZERO PUSH2 0x13CB JUMPI PUSH2 0x13CB PUSH2 0x1363 JUMP JUMPDEST PUSH1 0x40 MSTORE SWAP2 SWAP1 POP JUMP JUMPDEST PUSH1 0x0 DUP1 PUSH1 0x0 PUSH1 0x60 DUP5 DUP7 SUB SLT ISZERO PUSH2 0x13E8 JUMPI PUSH1 0x0 DUP1 REVERT JUMPDEST DUP4 CALLDATALOAD PUSH2 0x13F3 DUP2 PUSH2 0x11A9 JUMP JUMPDEST SWAP3 POP PUSH1 0x20 DUP5 DUP2 ADD CALLDATALOAD SWAP3 POP PUSH1 0x40 DUP6 ADD CALLDATALOAD PUSH8 0xFFFFFFFFFFFFFFFF DUP1 DUP3 GT ISZERO PUSH2 0x1418 JUMPI PUSH1 0x0 DUP1 REVERT JUMPDEST DUP2 DUP8 ADD SWAP2 POP DUP8 PUSH1 0x1F DUP4 ADD SLT PUSH2 0x142C JUMPI PUSH1 0x0 DUP1 REVERT JUMPDEST DUP2 CALLDATALOAD DUP2 DUP2 GT ISZERO PUSH2 0x143E JUMPI PUSH2 0x143E PUSH2 0x1363 JUMP JUMPDEST PUSH2 0x1450 PUSH1 0x1F DUP3 ADD PUSH1 0x1F NOT AND DUP6 ADD PUSH2 0x13A2 JUMP JUMPDEST SWAP2 POP DUP1 DUP3 MSTORE DUP9 DUP5 DUP3 DUP6 ADD ADD GT ISZERO PUSH2 0x1466 JUMPI PUSH1 0x0 DUP1 REVERT JUMPDEST DUP1 DUP5 DUP5 ADD DUP6 DUP5 ADD CALLDATACOPY PUSH1 0x0 DUP5 DUP3 DUP5 ADD ADD MSTORE POP DUP1 SWAP4 POP POP POP POP SWAP3 POP SWAP3 POP SWAP3 JUMP JUMPDEST PUSH1 0x0 DUP1 PUSH1 0x0 DUP1 DUP5 DUP7 SUB PUSH1 0xE0 DUP2 SLT ISZERO PUSH2 0x149B JUMPI PUSH1 0x0 DUP1 REVERT JUMPDEST DUP6 CALLDATALOAD PUSH2 0x14A6 DUP2 PUSH2 0x117E JUMP JUMPDEST SWAP5 POP PUSH1 0x20 DUP7 ADD CALLDATALOAD SWAP4 POP PUSH1 0x40 DUP7 ADD CALLDATALOAD SWAP3 POP PUSH1 0x80 PUSH1 0x5F NOT DUP3 ADD SLT ISZERO PUSH2 0x14C8 JUMPI PUSH1 0x0 DUP1 REVERT JUMPDEST POP SWAP3 SWAP6 SWAP2 SWAP5 POP SWAP3 PUSH1 0x60 ADD SWAP2 POP JUMP JUMPDEST PUSH1 0x0 PUSH1 0x20 DUP3 DUP5 SUB SLT ISZERO PUSH2 0x14E8 JUMPI PUSH1 0x0 DUP1 REVERT JUMPDEST DUP2 MLOAD PUSH2 0x1049 DUP2 PUSH2 0x117E JUMP JUMPDEST PUSH1 0x20 DUP1 DUP3 MSTORE PUSH1 0x17 SWAP1 DUP3 ADD MSTORE PUSH32 0x6F6D6E69627269646765726F757465722E72756E6E6572000000000000000000 PUSH1 0x40 DUP3 ADD MSTORE PUSH1 0x60 ADD SWAP1 JUMP JUMPDEST PUSH1 0x0 PUSH1 0x20 DUP3 DUP5 SUB SLT ISZERO PUSH2 0x153C JUMPI PUSH1 0x0 DUP1 REVERT JUMPDEST DUP2 MLOAD PUSH2 0x1049 DUP2 PUSH2 0x11A9 JUMP JUMPDEST DUP2 DUP4 MSTORE DUP2 DUP2 PUSH1 0x20 DUP6 ADD CALLDATACOPY POP PUSH1 0x0 DUP3 DUP3 ADD PUSH1 0x20 SWAP1 DUP2 ADD SWAP2 SWAP1 SWAP2 MSTORE PUSH1 0x1F SWAP1 SWAP2 ADD PUSH1 0x1F NOT AND SWAP1 SWAP2 ADD ADD SWAP1 JUMP JUMPDEST PUSH1 0x40 DUP2 MSTORE PUSH1 0x0 PUSH2 0x1584 PUSH1 0x40 DUP4 ADD DUP7 DUP9 PUSH2 0x1547 JUMP JUMPDEST DUP3 DUP2 SUB PUSH1 0x20 DUP5 ADD MSTORE PUSH2 0x1597 DUP2 DUP6 DUP8 PUSH2 0x1547 JUMP JUMPDEST SWAP8 SWAP7 POP POP POP POP POP POP POP JUMP JUMPDEST PUSH1 0x0 PUSH1 0x80 DUP3 DUP5 SUB SLT ISZERO PUSH2 0x15B4 JUMPI PUSH1 0x0 DUP1 REVERT JUMPDEST PUSH2 0x15BC PUSH2 0x1379 JUMP JUMPDEST DUP3 MLOAD PUSH2 0x15C7 DUP2 PUSH2 0x11A9 JUMP JUMPDEST DUP1 DUP3 MSTORE POP PUSH1 0x20 DUP4 ADD MLOAD PUSH1 0x20 DUP3 ADD MSTORE PUSH1 0x40 DUP4 ADD MLOAD PUSH1 0x40 DUP3 ADD MSTORE PUSH1 0x60 DUP4 ADD MLOAD PUSH1 0x60 DUP3 ADD MSTORE DUP1 SWAP2 POP POP SWAP3 SWAP2 POP POP JUMP JUMPDEST PUSH1 0x0 PUSH1 0x20 DUP3 DUP5 SUB SLT ISZERO PUSH2 0x1605 JUMPI PUSH1 0x0 DUP1 REVERT JUMPDEST POP MLOAD SWAP2 SWAP1 POP JUMP JUMPDEST PUSH1 0x0 PUSH1 0x80 DUP3 DUP5 SUB SLT ISZERO PUSH2 0x161E JUMPI PUSH1 0x0 DUP1 REVERT JUMPDEST PUSH2 0x1626 PUSH2 0x1379 JUMP JUMPDEST DUP3 CALLDATALOAD PUSH2 0x1631 DUP2 PUSH2 0x11A9 JUMP JUMPDEST DUP1 DUP3 MSTORE POP PUSH1 0x20 DUP4 ADD CALLDATALOAD PUSH1 0x20 DUP3 ADD MSTORE PUSH1 0x40 DUP4 ADD CALLDATALOAD PUSH1 0x40 DUP3 ADD MSTORE PUSH1 0x60 DUP4 ADD CALLDATALOAD PUSH1 0x60 DUP3 ADD MSTORE DUP1 SWAP2 POP POP SWAP3 SWAP2 POP POP JUMP JUMPDEST PUSH1 0x0 JUMPDEST DUP4 DUP2 LT ISZERO PUSH2 0x1678 JUMPI DUP2 DUP2 ADD MLOAD DUP4 DUP3 ADD MSTORE PUSH1 0x20 ADD PUSH2 0x1660 JUMP JUMPDEST POP POP PUSH1 0x0 SWAP2 ADD MSTORE JUMP JUMPDEST PUSH1 0x0 PUSH1 0x1 DUP1 PUSH1 0xA0 SHL SUB DUP1 DUP8 AND DUP4 MSTORE DUP1 DUP7 AND PUSH1 0x20 DUP5 ADD MSTORE POP DUP4 PUSH1 0x40 DUP4 ADD MSTORE PUSH1 0x80 PUSH1 0x60 DUP4 ADD MSTORE DUP3 MLOAD DUP1 PUSH1 0x80 DUP5 ADD MSTORE PUSH2 0x16BE DUP2 PUSH1 0xA0 DUP6 ADD PUSH1 0x20 DUP8 ADD PUSH2 0x165D JUMP JUMPDEST PUSH1 0x1F ADD PUSH1 0x1F NOT AND SWAP2 SWAP1 SWAP2 ADD PUSH1 0xA0 ADD SWAP6 SWAP5 POP POP POP POP POP JUMP JUMPDEST PUSH4 0x4E487B71 PUSH1 0xE0 SHL PUSH1 0x0 MSTORE PUSH1 0x11 PUSH1 0x4 MSTORE PUSH1 0x24 PUSH1 0x0 REVERT JUMPDEST DUP1 DUP3 MUL DUP2 ISZERO DUP3 DUP3 DIV DUP5 EQ OR PUSH2 0x3DF JUMPI PUSH2 0x3DF PUSH2 0x16D5 JUMP JUMPDEST PUSH1 0x0 DUP3 PUSH2 0x171F JUMPI PUSH4 0x4E487B71 PUSH1 0xE0 SHL PUSH1 0x0 MSTORE PUSH1 0x12 PUSH1 0x4 MSTORE PUSH1 0x24 PUSH1 0x0 REVERT JUMPDEST POP DIV SWAP1 JUMP JUMPDEST DUP2 DUP2 SUB DUP2 DUP2 GT ISZERO PUSH2 0x3DF JUMPI PUSH2 0x3DF PUSH2 0x16D5 JUMP JUMPDEST DUP1 DUP3 ADD DUP1 DUP3 GT ISZERO PUSH2 0x3DF JUMPI PUSH2 0x3DF PUSH2 0x16D5 JUMP JUMPDEST PUSH1 0x0 DUP3 MLOAD PUSH2 0x175C DUP2 DUP5 PUSH1 0x20 DUP8 ADD PUSH2 0x165D JUMP JUMPDEST SWAP2 SWAP1 SWAP2 ADD SWAP3 SWAP2 POP POP JUMP INVALID PUSH1 0x80 PUSH1 0x40 MSTORE PUSH1 0x40 MLOAD PUSH1 0x59 CODESIZE SUB DUP1 PUSH1 0x59 DUP4 CODECOPY DUP2 ADD PUSH1 0x40 DUP2 SWAP1 MSTORE PUSH1 0x1E SWAP2 PUSH1 0x2A JUMP JUMPDEST DUP1 PUSH1 0x1 PUSH1 0x1 PUSH1 0xA0 SHL SUB AND SELFDESTRUCT JUMPDEST PUSH1 0x0 PUSH1 0x20 DUP3 DUP5 SUB SLT ISZERO PUSH1 0x3B JUMPI PUSH1 0x0 DUP1 REVERT JUMPDEST DUP2 MLOAD PUSH1 0x1 PUSH1 0x1 PUSH1 0xA0 SHL SUB DUP2 AND DUP2 EQ PUSH1 0x51 JUMPI PUSH1 0x0 DUP1 REVERT JUMPDEST SWAP4 SWAP3 POP POP POP JUMP INVALID LOG2 PUSH5 0x6970667358 0x22 SLT KECCAK256 0xD1 DUP10 LOG0 PUSH32 0x7B197258070FB36FAE64D58D210AA4908B6DD7DC904F22D03796AF7664736F6C PUSH4 0x43000818 STOP CALLER "},"methodIdentifiers":{"EIP1559_ENABLED()":"ed5a97d3","RUNNER_SLOT()":"633a8fa9","baseFee(bool)":"351bb549","bridge()":"e78cea92","claimTokens(address,address)":"69ffa08a","feeInfo(bool,uint256,uint256,(address,uint256,uint256,uint256))":"fba9770a","isValidator(address)":"facd743b","onTokenBridged(address,uint256,bytes)":"db7af854","owner()":"8da5cb5b","relayTokensAndCall(address,bytes)":"9562de59","safeExecuteSignaturesWithAutoGasLimit(address,bytes,bytes)":"4309b714","setValidatorStatus(address,bool)":"aca2490b","setValidatorsFilter(address)":"36768d3e","transferOwnership(address)":"f2fde38b","validatorsFilter()":"70502107","wNative()":"2d68efc9","wrapAndRelayTokens()":"01a754ff","wrapAndRelayTokens(address)":"f52cbf0e"}}}}}