{
  "_format": "hh-sol-artifact-1",
  "contractName": "MediatorBalanceStorage",
  "sourceName": "contracts/upgradeable_contracts/MediatorBalanceStorage.sol",
  "abi": [
    {
      "constant": true,
      "inputs": [],
      "name": "mediatorBalance",
      "outputs": [
        {
          "name": "",
          "type": "uint256"
        }
      ],
      "payable": false,
      "stateMutability": "view",
      "type": "function"
    }
  ],
  "bytecode": "0x6080604052348015600f57600080fd5b5060e08061001e6000396000f300608060405260043610603e5763ffffffff7c01000000000000000000000000000000000000000000000000000000006000350416634b94f81581146043575b600080fd5b348015604e57600080fd5b5060556067565b60408051918252519081900360200190f35b7f3db340e280667ee926fa8c51e8f9fcf88a0ff221a66d84d63b4778127d97d13960009081526020527ef98556deae64bbaa11436ee534ae029e85ed112aff9b71330af4c2d320eac954905600a165627a7a7230582030616b8d51072df879a31b8e2513580303ca10129eef01a61cd17440340c596a0029",
  "linkReferences": {},
  "deployedLinkReferences": {}
}